{"abi":[{"type":"constructor","inputs":[{"name":"_roleManager","type":"address","internalType":"address"},{"name":"_timelock","type":"address","internalType":"address"}],"stateMutability":"nonpayable"},{"type":"function","name":"SET_VAULT","inputs":[],"outputs":[{"name":"","type":"bytes32","internalType":"bytes32"}],"stateMutability":"view"},{"type":"function","name":"deposit","inputs":[{"name":"token","type":"address","internalType":"address"},{"name":"amount","type":"uint256","internalType":"uint256"}],"outputs":[],"stateMutability":"payable"},{"type":"function","name":"pause","inputs":[],"outputs":[],"stateMutability":"nonpayable"},{"type":"function","name":"paused","inputs":[],"outputs":[{"name":"","type":"bool","internalType":"bool"}],"stateMutability":"view"},{"type":"function","name":"roleManager","inputs":[],"outputs":[{"name":"","type":"address","internalType":"contract IRoleManager"}],"stateMutability":"view"},{"type":"function","name":"setVault","inputs":[{"name":"_vault","type":"address","internalType":"address"}],"outputs":[],"stateMutability":"nonpayable"},{"type":"function","name":"timelock","inputs":[],"outputs":[{"name":"","type":"address","internalType":"contract ITimelock"}],"stateMutability":"view"},{"type":"function","name":"unpause","inputs":[],"outputs":[],"stateMutability":"nonpayable"},{"type":"function","name":"vault","inputs":[],"outputs":[{"name":"","type":"address","internalType":"contract IVault"}],"stateMutability":"view"},{"type":"function","name":"withdraw","inputs":[{"name":"recipient","type":"address","internalType":"address"},{"name":"token","type":"address","internalType":"address"},{"name":"amount","type":"uint256","internalType":"uint256"}],"outputs":[],"stateMutability":"nonpayable"},{"type":"event","name":"Deposit","inputs":[{"name":"user","type":"address","indexed":true,"internalType":"address"},{"name":"token","type":"address","indexed":true,"internalType":"address"},{"name":"amount","type":"uint256","indexed":false,"internalType":"uint256"},{"name":"timestamp","type":"uint256","indexed":false,"internalType":"uint256"}],"anonymous":false},{"type":"event","name":"Paused","inputs":[{"name":"account","type":"address","indexed":false,"internalType":"address"}],"anonymous":false},{"type":"event","name":"Unpaused","inputs":[{"name":"account","type":"address","indexed":false,"internalType":"address"}],"anonymous":false},{"type":"event","name":"VaultSet","inputs":[{"name":"vault","type":"address","indexed":true,"internalType":"address"}],"anonymous":false},{"type":"event","name":"Withdrawal","inputs":[{"name":"recipient","type":"address","indexed":true,"internalType":"address"},{"name":"token","type":"address","indexed":true,"internalType":"address"},{"name":"amount","type":"uint256","indexed":false,"internalType":"uint256"},{"name":"timestamp","type":"uint256","indexed":false,"internalType":"uint256"}],"anonymous":false},{"type":"error","name":"ETHAmountMismatch","inputs":[]},{"type":"error","name":"ETHSentWithTokenTransfer","inputs":[]},{"type":"error","name":"InvalidAmount","inputs":[]},{"type":"error","name":"InvalidRoleManager","inputs":[]},{"type":"error","name":"InvalidTimelock","inputs":[]},{"type":"error","name":"InvalidVaultAddress","inputs":[]},{"type":"error","name":"NotOperator","inputs":[]},{"type":"error","name":"NotRouterAdmin","inputs":[]},{"type":"error","name":"TokenNotSupported","inputs":[]},{"type":"error","name":"TokenTransferFailed","inputs":[]},{"type":"error","name":"VaultNotSet","inputs":[]}],"bytecode":{"object":"0x60806040523480156200001157600080fd5b50604051620024b7380380620024b783398181016040528101906200003791906200021b565b60016000819055506000600160006101000a81548160ff021916908315150217905550600073ffffffffffffffffffffffffffffffffffffffff168273ffffffffffffffffffffffffffffffffffffffff1603620000c1576040517f4d29d32800000000000000000000000000000000000000000000000000000000815260040160405180910390fd5b600073ffffffffffffffffffffffffffffffffffffffff168173ffffffffffffffffffffffffffffffffffffffff160362000128576040517ff8d10e8200000000000000000000000000000000000000000000000000000000815260040160405180910390fd5b816001806101000a81548173ffffffffffffffffffffffffffffffffffffffff021916908373ffffffffffffffffffffffffffffffffffffffff16021790555080600360006101000a81548173ffffffffffffffffffffffffffffffffffffffff021916908373ffffffffffffffffffffffffffffffffffffffff160217905550505062000262565b600080fd5b600073ffffffffffffffffffffffffffffffffffffffff82169050919050565b6000620001e382620001b6565b9050919050565b620001f581620001d6565b81146200020157600080fd5b50565b6000815190506200021581620001ea565b92915050565b60008060408385031215620002355762000234620001b1565b5b6000620002458582860162000204565b9250506020620002588582860162000204565b9150509250929050565b61224580620002726000396000f3fe6080604052600436106100905760003560e01c806378f9da801161005957806378f9da80146101475780638456cb5914610172578063d33219b414610189578063d9caed12146101b4578063fbfa77cf146101dd57610090565b8062435da5146100955780633f4ba83a146100c057806347e7ef24146100d75780635c975abb146100f35780636817031b1461011e575b600080fd5b3480156100a157600080fd5b506100aa610208565b6040516100b791906118a3565b60405180910390f35b3480156100cc57600080fd5b506100d561022c565b005b6100f160048036038101906100ec9190611937565b610396565b005b3480156100ff57600080fd5b50610108610a0a565b6040516101159190611992565b60405180910390f35b34801561012a57600080fd5b50610145600480360381019061014091906119ad565b610a21565b005b34801561015357600080fd5b5061015c610c76565b60405161016991906119f3565b60405180910390f35b34801561017e57600080fd5b50610187610c9a565b005b34801561019557600080fd5b5061019e610e04565b6040516101ab9190611a2f565b60405180910390f35b3480156101c057600080fd5b506101db60048036038101906101d69190611a4a565b610e2a565b005b3480156101e957600080fd5b506101f2611233565b6040516101ff9190611abe565b60405180910390f35b60018054906101000a900473ffffffffffffffffffffffffffffffffffffffff1681565b60018054906101000a900473ffffffffffffffffffffffffffffffffffffffff1673ffffffffffffffffffffffffffffffffffffffff166391d1485460018054906101000a900473ffffffffffffffffffffffffffffffffffffffff1673ffffffffffffffffffffffffffffffffffffffff1663d03f078b6040518163ffffffff1660e01b8152600401602060405180830381865afa1580156102d3573d6000803e3d6000fd5b505050506040513d601f19601f820116820180604052508101906102f79190611b05565b336040518363ffffffff1660e01b8152600401610315929190611b41565b602060405180830381865afa158015610332573d6000803e3d6000fd5b505050506040513d601f19601f820116820180604052508101906103569190611b96565b61038c576040517fa13b91be00000000000000000000000000000000000000000000000000000000815260040160405180910390fd5b610394611259565b565b61039e6112bc565b6103a661130b565b600081036103e0576040517f2c5211c600000000000000000000000000000000000000000000000000000000815260040160405180910390fd5b600073ffffffffffffffffffffffffffffffffffffffff16600260009054906101000a900473ffffffffffffffffffffffffffffffffffffffff1673ffffffffffffffffffffffffffffffffffffffff1603610468576040517fc8e2816000000000000000000000000000000000000000000000000000000000815260040160405180910390fd5b600260009054906101000a900473ffffffffffffffffffffffffffffffffffffffff1673ffffffffffffffffffffffffffffffffffffffff1663240028e8836040518263ffffffff1660e01b81526004016104c39190611bc3565b602060405180830381865afa1580156104e0573d6000803e3d6000fd5b505050506040513d601f19601f820116820180604052508101906105049190611b96565b61053a576040517f3dd1b30500000000000000000000000000000000000000000000000000000000815260040160405180910390fd5b600073ffffffffffffffffffffffffffffffffffffffff168273ffffffffffffffffffffffffffffffffffffffff16036106ef578034146105a7576040517fd89ce4a200000000000000000000000000000000000000000000000000000000815260040160405180910390fd5b6105f281600260009054906101000a900473ffffffffffffffffffffffffffffffffffffffff1673ffffffffffffffffffffffffffffffffffffffff1661135590919063ffffffff16565b600260009054906101000a900473ffffffffffffffffffffffffffffffffffffffff1673ffffffffffffffffffffffffffffffffffffffff1663bdc631d43384846040518463ffffffff1660e01b815260040161065193929190611bed565b600060405180830381600087803b15801561066b57600080fd5b505af115801561067f573d6000803e3d6000fd5b505050508173ffffffffffffffffffffffffffffffffffffffff163373ffffffffffffffffffffffffffffffffffffffff167fdcbc1c05240f31ff3ad067ef1ee35ce4997762752e3a095284754544f4c709d734426040516106e2929190611c24565b60405180910390a36109fe565b60003414610729576040517f7391cff100000000000000000000000000000000000000000000000000000000815260040160405180910390fd5b60008273ffffffffffffffffffffffffffffffffffffffff166370a08231600260009054906101000a900473ffffffffffffffffffffffffffffffffffffffff166040518263ffffffff1660e01b81526004016107869190611bc3565b602060405180830381865afa1580156107a3573d6000803e3d6000fd5b505050506040513d601f19601f820116820180604052508101906107c79190611c62565b905061081833600260009054906101000a900473ffffffffffffffffffffffffffffffffffffffff16848673ffffffffffffffffffffffffffffffffffffffff16611449909392919063ffffffff16565b60008373ffffffffffffffffffffffffffffffffffffffff166370a08231600260009054906101000a900473ffffffffffffffffffffffffffffffffffffffff166040518263ffffffff1660e01b81526004016108759190611bc3565b602060405180830381865afa158015610892573d6000803e3d6000fd5b505050506040513d601f19601f820116820180604052508101906108b69190611c62565b9050600082826108c69190611cbe565b905060008103610902576040517f045c4b0200000000000000000000000000000000000000000000000000000000815260040160405180910390fd5b600260009054906101000a900473ffffffffffffffffffffffffffffffffffffffff1673ffffffffffffffffffffffffffffffffffffffff1663bdc631d43387846040518463ffffffff1660e01b815260040161096193929190611bed565b600060405180830381600087803b15801561097b57600080fd5b505af115801561098f573d6000803e3d6000fd5b505050508473ffffffffffffffffffffffffffffffffffffffff163373ffffffffffffffffffffffffffffffffffffffff167fdcbc1c05240f31ff3ad067ef1ee35ce4997762752e3a095284754544f4c709d783426040516109f2929190611c24565b60405180910390a35050505b610a066114d2565b5050565b6000600160009054906101000a900460ff16905090565b60018054906101000a900473ffffffffffffffffffffffffffffffffffffffff1673ffffffffffffffffffffffffffffffffffffffff166391d1485460018054906101000a900473ffffffffffffffffffffffffffffffffffffffff1673ffffffffffffffffffffffffffffffffffffffff1663d03f078b6040518163ffffffff1660e01b8152600401602060405180830381865afa158015610ac8573d6000803e3d6000fd5b505050506040513d601f19601f82011682018060405250810190610aec9190611b05565b336040518363ffffffff1660e01b8152600401610b0a929190611b41565b602060405180830381865afa158015610b27573d6000803e3d6000fd5b505050506040513d601f19601f82011682018060405250810190610b4b9190611b96565b610b81576040517fa13b91be00000000000000000000000000000000000000000000000000000000815260040160405180910390fd5b610b8961130b565b600073ffffffffffffffffffffffffffffffffffffffff168173ffffffffffffffffffffffffffffffffffffffff1603610bef576040517f0306120100000000000000000000000000000000000000000000000000000000815260040160405180910390fd5b80600260006101000a81548173ffffffffffffffffffffffffffffffffffffffff021916908373ffffffffffffffffffffffffffffffffffffffff1602179055508073ffffffffffffffffffffffffffffffffffffffff167fe7ae49f883c825b05681b3e00e8be6fdea9ed2a8a45e4c6ecb9390fc44cce61560405160405180910390a250565b7fd4d5ea10127977dabff3593f6c8cc975c33bb275baa2e87e541c3a70c0db852d81565b60018054906101000a900473ffffffffffffffffffffffffffffffffffffffff1673ffffffffffffffffffffffffffffffffffffffff166391d1485460018054906101000a900473ffffffffffffffffffffffffffffffffffffffff1673ffffffffffffffffffffffffffffffffffffffff1663d03f078b6040518163ffffffff1660e01b8152600401602060405180830381865afa158015610d41573d6000803e3d6000fd5b505050506040513d601f19601f82011682018060405250810190610d659190611b05565b336040518363ffffffff1660e01b8152600401610d83929190611b41565b602060405180830381865afa158015610da0573d6000803e3d6000fd5b505050506040513d601f19601f82011682018060405250810190610dc49190611b96565b610dfa576040517fa13b91be00000000000000000000000000000000000000000000000000000000815260040160405180910390fd5b610e026114dc565b565b600360009054906101000a900473ffffffffffffffffffffffffffffffffffffffff1681565b610e326112bc565b60018054906101000a900473ffffffffffffffffffffffffffffffffffffffff1673ffffffffffffffffffffffffffffffffffffffff166391d1485460018054906101000a900473ffffffffffffffffffffffffffffffffffffffff1673ffffffffffffffffffffffffffffffffffffffff1663f5b541a66040518163ffffffff1660e01b8152600401602060405180830381865afa158015610ed9573d6000803e3d6000fd5b505050506040513d601f19601f82011682018060405250810190610efd9190611b05565b336040518363ffffffff1660e01b8152600401610f1b929190611b41565b602060405180830381865afa158015610f38573d6000803e3d6000fd5b505050506040513d601f19601f82011682018060405250810190610f5c9190611b96565b610f92576040517f7c214f0400000000000000000000000000000000000000000000000000000000815260040160405180910390fd5b610f9a61130b565b60008103610fd4576040517f2c5211c600000000000000000000000000000000000000000000000000000000815260040160405180910390fd5b600073ffffffffffffffffffffffffffffffffffffffff16600260009054906101000a900473ffffffffffffffffffffffffffffffffffffffff1673ffffffffffffffffffffffffffffffffffffffff160361105c576040517fc8e2816000000000000000000000000000000000000000000000000000000000815260040160405180910390fd5b600260009054906101000a900473ffffffffffffffffffffffffffffffffffffffff1673ffffffffffffffffffffffffffffffffffffffff1663240028e8836040518263ffffffff1660e01b81526004016110b79190611bc3565b602060405180830381865afa1580156110d4573d6000803e3d6000fd5b505050506040513d601f19601f820116820180604052508101906110f89190611b96565b61112e576040517f3dd1b30500000000000000000000000000000000000000000000000000000000815260040160405180910390fd5b600260009054906101000a900473ffffffffffffffffffffffffffffffffffffffff1673ffffffffffffffffffffffffffffffffffffffff1663ba313e348484846040518463ffffffff1660e01b815260040161118d93929190611bed565b600060405180830381600087803b1580156111a757600080fd5b505af11580156111bb573d6000803e3d6000fd5b505050508173ffffffffffffffffffffffffffffffffffffffff168373ffffffffffffffffffffffffffffffffffffffff167fc2b4a290c20fb28939d29f102514fbffd2b73c059ffba8b78250c94161d5fcc6834260405161121e929190611c24565b60405180910390a361122e6114d2565b505050565b600260009054906101000a900473ffffffffffffffffffffffffffffffffffffffff1681565b61126161153e565b6000600160006101000a81548160ff0219169083151502179055507f5db9ee0a495bf2e6ff9c91a7834c1ba4fdd244a5e8aa4e537bd38aeae4b073aa6112a5611587565b6040516112b29190611bc3565b60405180910390a1565b600260005403611301576040517f08c379a00000000000000000000000000000000000000000000000000000000081526004016112f890611d4f565b60405180910390fd5b6002600081905550565b611313610a0a565b15611353576040517f08c379a000000000000000000000000000000000000000000000000000000000815260040161134a90611dbb565b60405180910390fd5b565b80471015611398576040517f08c379a000000000000000000000000000000000000000000000000000000000815260040161138f90611e27565b60405180910390fd5b60008273ffffffffffffffffffffffffffffffffffffffff16826040516113be90611e78565b60006040518083038185875af1925050503d80600081146113fb576040519150601f19603f3d011682016040523d82523d6000602084013e611400565b606091505b5050905080611444576040517f08c379a000000000000000000000000000000000000000000000000000000000815260040161143b90611eff565b60405180910390fd5b505050565b6114cc846323b872dd60e01b85858560405160240161146a93929190611bed565b604051602081830303815290604052907bffffffffffffffffffffffffffffffffffffffffffffffffffffffff19166020820180517bffffffffffffffffffffffffffffffffffffffffffffffffffffffff838183161783525050505061158f565b50505050565b6001600081905550565b6114e461130b565b60018060006101000a81548160ff0219169083151502179055507f62e78cea01bee320cd4e420270b5ea74000d11b0c9f74754ebdbfc544b05a258611527611587565b6040516115349190611bc3565b60405180910390a1565b611546610a0a565b611585576040517f08c379a000000000000000000000000000000000000000000000000000000000815260040161157c90611f6b565b60405180910390fd5b565b600033905090565b60006115f1826040518060400160405280602081526020017f5361666545524332303a206c6f772d6c6576656c2063616c6c206661696c65648152508573ffffffffffffffffffffffffffffffffffffffff166116579092919063ffffffff16565b90506000815114806116135750808060200190518101906116129190611b96565b5b611652576040517f08c379a000000000000000000000000000000000000000000000000000000000815260040161164990611ffd565b60405180910390fd5b505050565b6060611666848460008561166f565b90509392505050565b6060824710156116b4576040517f08c379a00000000000000000000000000000000000000000000000000000000081526004016116ab9061208f565b60405180910390fd5b6000808673ffffffffffffffffffffffffffffffffffffffff1685876040516116dd9190612115565b60006040518083038185875af1925050503d806000811461171a576040519150601f19603f3d011682016040523d82523d6000602084013e61171f565b606091505b50915091506117308783838761173c565b92505050949350505050565b6060831561179e57600083510361179657611756856117b1565b611795576040517f08c379a000000000000000000000000000000000000000000000000000000000815260040161178c90612178565b60405180910390fd5b5b8290506117a9565b6117a883836117d4565b5b949350505050565b6000808273ffffffffffffffffffffffffffffffffffffffff163b119050919050565b6000825111156117e75781518083602001fd5b806040517f08c379a000000000000000000000000000000000000000000000000000000000815260040161181b91906121ed565b60405180910390fd5b600073ffffffffffffffffffffffffffffffffffffffff82169050919050565b6000819050919050565b600061186961186461185f84611824565b611844565b611824565b9050919050565b600061187b8261184e565b9050919050565b600061188d82611870565b9050919050565b61189d81611882565b82525050565b60006020820190506118b86000830184611894565b92915050565b600080fd5b60006118ce82611824565b9050919050565b6118de816118c3565b81146118e957600080fd5b50565b6000813590506118fb816118d5565b92915050565b6000819050919050565b61191481611901565b811461191f57600080fd5b50565b6000813590506119318161190b565b92915050565b6000806040838503121561194e5761194d6118be565b5b600061195c858286016118ec565b925050602061196d85828601611922565b9150509250929050565b60008115159050919050565b61198c81611977565b82525050565b60006020820190506119a76000830184611983565b92915050565b6000602082840312156119c3576119c26118be565b5b60006119d1848285016118ec565b91505092915050565b6000819050919050565b6119ed816119da565b82525050565b6000602082019050611a0860008301846119e4565b92915050565b6000611a1982611870565b9050919050565b611a2981611a0e565b82525050565b6000602082019050611a446000830184611a20565b92915050565b600080600060608486031215611a6357611a626118be565b5b6000611a71868287016118ec565b9350506020611a82868287016118ec565b9250506040611a9386828701611922565b9150509250925092565b6000611aa882611870565b9050919050565b611ab881611a9d565b82525050565b6000602082019050611ad36000830184611aaf565b92915050565b611ae2816119da565b8114611aed57600080fd5b50565b600081519050611aff81611ad9565b92915050565b600060208284031215611b1b57611b1a6118be565b5b6000611b2984828501611af0565b91505092915050565b611b3b816118c3565b82525050565b6000604082019050611b5660008301856119e4565b611b636020830184611b32565b9392505050565b611b7381611977565b8114611b7e57600080fd5b50565b600081519050611b9081611b6a565b92915050565b600060208284031215611bac57611bab6118be565b5b6000611bba84828501611b81565b91505092915050565b6000602082019050611bd86000830184611b32565b92915050565b611be781611901565b82525050565b6000606082019050611c026000830186611b32565b611c0f6020830185611b32565b611c1c6040830184611bde565b949350505050565b6000604082019050611c396000830185611bde565b611c466020830184611bde565b9392505050565b600081519050611c5c8161190b565b92915050565b600060208284031215611c7857611c776118be565b5b6000611c8684828501611c4d565b91505092915050565b7f4e487b7100000000000000000000000000000000000000000000000000000000600052601160045260246000fd5b6000611cc982611901565b9150611cd483611901565b9250828203905081811115611cec57611ceb611c8f565b5b92915050565b600082825260208201905092915050565b7f5265656e7472616e637947756172643a207265656e7472616e742063616c6c00600082015250565b6000611d39601f83611cf2565b9150611d4482611d03565b602082019050919050565b60006020820190508181036000830152611d6881611d2c565b9050919050565b7f5061757361626c653a2070617573656400000000000000000000000000000000600082015250565b6000611da5601083611cf2565b9150611db082611d6f565b602082019050919050565b60006020820190508181036000830152611dd481611d98565b9050919050565b7f416464726573733a20696e73756666696369656e742062616c616e6365000000600082015250565b6000611e11601d83611cf2565b9150611e1c82611ddb565b602082019050919050565b60006020820190508181036000830152611e4081611e04565b9050919050565b600081905092915050565b50565b6000611e62600083611e47565b9150611e6d82611e52565b600082019050919050565b6000611e8382611e55565b9150819050919050565b7f416464726573733a20756e61626c6520746f2073656e642076616c75652c207260008201527f6563697069656e74206d61792068617665207265766572746564000000000000602082015250565b6000611ee9603a83611cf2565b9150611ef482611e8d565b604082019050919050565b60006020820190508181036000830152611f1881611edc565b9050919050565b7f5061757361626c653a206e6f7420706175736564000000000000000000000000600082015250565b6000611f55601483611cf2565b9150611f6082611f1f565b602082019050919050565b60006020820190508181036000830152611f8481611f48565b9050919050565b7f5361666545524332303a204552433230206f7065726174696f6e20646964206e60008201527f6f74207375636365656400000000000000000000000000000000000000000000602082015250565b6000611fe7602a83611cf2565b9150611ff282611f8b565b604082019050919050565b6000602082019050818103600083015261201681611fda565b9050919050565b7f416464726573733a20696e73756666696369656e742062616c616e636520666f60008201527f722063616c6c0000000000000000000000000000000000000000000000000000602082015250565b6000612079602683611cf2565b91506120848261201d565b604082019050919050565b600060208201905081810360008301526120a88161206c565b9050919050565b600081519050919050565b60005b838110156120d85780820151818401526020810190506120bd565b60008484015250505050565b60006120ef826120af565b6120f98185611e47565b93506121098185602086016120ba565b80840191505092915050565b600061212182846120e4565b915081905092915050565b7f416464726573733a2063616c6c20746f206e6f6e2d636f6e7472616374000000600082015250565b6000612162601d83611cf2565b915061216d8261212c565b602082019050919050565b6000602082019050818103600083015261219181612155565b9050919050565b600081519050919050565b6000601f19601f8301169050919050565b60006121bf82612198565b6121c98185611cf2565b93506121d98185602086016120ba565b6121e2816121a3565b840191505092915050565b6000602082019050818103600083015261220781846121b4565b90509291505056fea26469706673582212206c8d370b4109ae5512e357db4b6ab59adde13fce0282f902a648958f8971e79064736f6c63430008130033","linkReferences":{}},"methodIdentifiers":{"SET_VAULT()":"78f9da80","deposit(address,uint256)":"47e7ef24","pause()":"8456cb59","paused()":"5c975abb","roleManager()":"00435da5","setVault(address)":"6817031b","timelock()":"d33219b4","unpause()":"3f4ba83a","vault()":"fbfa77cf","withdraw(address,address,uint256)":"d9caed12"},"id":5}