{"abi":[{"type":"constructor","inputs":[{"name":"_roleManager","type":"address","internalType":"address"},{"name":"_timelock","type":"address","internalType":"address"}],"stateMutability":"nonpayable"},{"type":"function","name":"SET_VAULT","inputs":[],"outputs":[{"name":"","type":"bytes32","internalType":"bytes32"}],"stateMutability":"view"},{"type":"function","name":"deposit","inputs":[{"name":"token","type":"address","internalType":"address"},{"name":"amount","type":"uint256","internalType":"uint256"}],"outputs":[],"stateMutability":"payable"},{"type":"function","name":"pause","inputs":[],"outputs":[],"stateMutability":"nonpayable"},{"type":"function","name":"paused","inputs":[],"outputs":[{"name":"","type":"bool","internalType":"bool"}],"stateMutability":"view"},{"type":"function","name":"roleManager","inputs":[],"outputs":[{"name":"","type":"address","internalType":"contract IRoleManager"}],"stateMutability":"view"},{"type":"function","name":"setVault","inputs":[{"name":"_vault","type":"address","internalType":"address"}],"outputs":[],"stateMutability":"nonpayable"},{"type":"function","name":"timelock","inputs":[],"outputs":[{"name":"","type":"address","internalType":"contract ITimelock"}],"stateMutability":"view"},{"type":"function","name":"unpause","inputs":[],"outputs":[],"stateMutability":"nonpayable"},{"type":"function","name":"vault","inputs":[],"outputs":[{"name":"","type":"address","internalType":"contract IVault"}],"stateMutability":"view"},{"type":"function","name":"withdraw","inputs":[{"name":"recipient","type":"address","internalType":"address"},{"name":"token","type":"address","internalType":"address"},{"name":"amount","type":"uint256","internalType":"uint256"}],"outputs":[],"stateMutability":"nonpayable"},{"type":"event","name":"Deposit","inputs":[{"name":"user","type":"address","indexed":true,"internalType":"address"},{"name":"token","type":"address","indexed":true,"internalType":"address"},{"name":"amount","type":"uint256","indexed":false,"internalType":"uint256"},{"name":"timestamp","type":"uint256","indexed":false,"internalType":"uint256"}],"anonymous":false},{"type":"event","name":"Paused","inputs":[{"name":"account","type":"address","indexed":false,"internalType":"address"}],"anonymous":false},{"type":"event","name":"Unpaused","inputs":[{"name":"account","type":"address","indexed":false,"internalType":"address"}],"anonymous":false},{"type":"event","name":"VaultSet","inputs":[{"name":"vault","type":"address","indexed":true,"internalType":"address"}],"anonymous":false},{"type":"event","name":"Withdrawal","inputs":[{"name":"recipient","type":"address","indexed":true,"internalType":"address"},{"name":"token","type":"address","indexed":true,"internalType":"address"},{"name":"amount","type":"uint256","indexed":false,"internalType":"uint256"},{"name":"timestamp","type":"uint256","indexed":false,"internalType":"uint256"}],"anonymous":false}],"bytecode":{"object":"0x60806040523480156200001157600080fd5b506040516200284038038062002840833981810160405281019062000037919062000231565b60016000819055506000600160006101000a81548160ff021916908315150217905550600073ffffffffffffffffffffffffffffffffffffffff168273ffffffffffffffffffffffffffffffffffffffff1603620000cc576040517f08c379a0000000000000000000000000000000000000000000000000000000008152600401620000c390620002d9565b60405180910390fd5b600073ffffffffffffffffffffffffffffffffffffffff168173ffffffffffffffffffffffffffffffffffffffff16036200013e576040517f08c379a000000000000000000000000000000000000000000000000000000000815260040162000135906200034b565b60405180910390fd5b816001806101000a81548173ffffffffffffffffffffffffffffffffffffffff021916908373ffffffffffffffffffffffffffffffffffffffff16021790555080600360006101000a81548173ffffffffffffffffffffffffffffffffffffffff021916908373ffffffffffffffffffffffffffffffffffffffff16021790555050506200036d565b600080fd5b600073ffffffffffffffffffffffffffffffffffffffff82169050919050565b6000620001f982620001cc565b9050919050565b6200020b81620001ec565b81146200021757600080fd5b50565b6000815190506200022b8162000200565b92915050565b600080604083850312156200024b576200024a620001c7565b5b60006200025b858286016200021a565b92505060206200026e858286016200021a565b9150509250929050565b600082825260208201905092915050565b7f496e76616c696420526f6c654d616e6167657200000000000000000000000000600082015250565b6000620002c160138362000278565b9150620002ce8262000289565b602082019050919050565b60006020820190508181036000830152620002f481620002b2565b9050919050565b7f496e76616c69642054696d656c6f636b00000000000000000000000000000000600082015250565b60006200033360108362000278565b91506200034082620002fb565b602082019050919050565b60006020820190508181036000830152620003668162000324565b9050919050565b6124c3806200037d6000396000f3fe6080604052600436106100905760003560e01c806378f9da801161005957806378f9da80146101475780638456cb5914610172578063d33219b414610189578063d9caed12146101b4578063fbfa77cf146101dd57610090565b8062435da5146100955780633f4ba83a146100c057806347e7ef24146100d75780635c975abb146100f35780636817031b1461011e575b600080fd5b3480156100a157600080fd5b506100aa610208565b6040516100b7919061182d565b60405180910390f35b3480156100cc57600080fd5b506100d561022c565b005b6100f160048036038101906100ec91906118c1565b61039f565b005b3480156100ff57600080fd5b5061010861095d565b604051610115919061191c565b60405180910390f35b34801561012a57600080fd5b5061014560048036038101906101409190611937565b610974565b005b34801561015357600080fd5b5061015c610bd3565b604051610169919061197d565b60405180910390f35b34801561017e57600080fd5b50610187610bf7565b005b34801561019557600080fd5b5061019e610d6a565b6040516101ab91906119b9565b60405180910390f35b3480156101c057600080fd5b506101db60048036038101906101d691906119d4565b610d90565b005b3480156101e957600080fd5b506101f26111bd565b6040516101ff9190611a48565b60405180910390f35b60018054906101000a900473ffffffffffffffffffffffffffffffffffffffff1681565b60018054906101000a900473ffffffffffffffffffffffffffffffffffffffff1673ffffffffffffffffffffffffffffffffffffffff166391d1485460018054906101000a900473ffffffffffffffffffffffffffffffffffffffff1673ffffffffffffffffffffffffffffffffffffffff1663d03f078b6040518163ffffffff1660e01b8152600401602060405180830381865afa1580156102d3573d6000803e3d6000fd5b505050506040513d601f19601f820116820180604052508101906102f79190611a8f565b336040518363ffffffff1660e01b8152600401610315929190611acb565b602060405180830381865afa158015610332573d6000803e3d6000fd5b505050506040513d601f19601f820116820180604052508101906103569190611b20565b610395576040517f08c379a000000000000000000000000000000000000000000000000000000000815260040161038c90611baa565b60405180910390fd5b61039d6111e3565b565b6103a7611246565b6103af611295565b600081116103f2576040517f08c379a00000000000000000000000000000000000000000000000000000000081526004016103e990611c16565b60405180910390fd5b600073ffffffffffffffffffffffffffffffffffffffff16600260009054906101000a900473ffffffffffffffffffffffffffffffffffffffff1673ffffffffffffffffffffffffffffffffffffffff1603610483576040517f08c379a000000000000000000000000000000000000000000000000000000000815260040161047a90611c82565b60405180910390fd5b600260009054906101000a900473ffffffffffffffffffffffffffffffffffffffff1673ffffffffffffffffffffffffffffffffffffffff1663240028e8836040518263ffffffff1660e01b81526004016104de9190611ca2565b602060405180830381865afa1580156104fb573d6000803e3d6000fd5b505050506040513d601f19601f8201168201806040525081019061051f9190611b20565b61055e576040517f08c379a000000000000000000000000000000000000000000000000000000000815260040161055590611d09565b60405180910390fd5b600073ffffffffffffffffffffffffffffffffffffffff168273ffffffffffffffffffffffffffffffffffffffff1603610673576105dd81600260009054906101000a900473ffffffffffffffffffffffffffffffffffffffff1673ffffffffffffffffffffffffffffffffffffffff166112df90919063ffffffff16565b600260009054906101000a900473ffffffffffffffffffffffffffffffffffffffff1673ffffffffffffffffffffffffffffffffffffffff1663bdc631d43384846040518463ffffffff1660e01b815260040161063c93929190611d38565b600060405180830381600087803b15801561065657600080fd5b505af115801561066a573d6000803e3d6000fd5b505050506108ea565b60008273ffffffffffffffffffffffffffffffffffffffff166370a08231600260009054906101000a900473ffffffffffffffffffffffffffffffffffffffff166040518263ffffffff1660e01b81526004016106d09190611ca2565b602060405180830381865afa1580156106ed573d6000803e3d6000fd5b505050506040513d601f19601f820116820180604052508101906107119190611d84565b905061076233600260009054906101000a900473ffffffffffffffffffffffffffffffffffffffff16848673ffffffffffffffffffffffffffffffffffffffff166113d3909392919063ffffffff16565b60008373ffffffffffffffffffffffffffffffffffffffff166370a08231600260009054906101000a900473ffffffffffffffffffffffffffffffffffffffff166040518263ffffffff1660e01b81526004016107bf9190611ca2565b602060405180830381865afa1580156107dc573d6000803e3d6000fd5b505050506040513d601f19601f820116820180604052508101906108009190611d84565b9050600082826108109190611de0565b905083811015610855576040517f08c379a000000000000000000000000000000000000000000000000000000000815260040161084c90611e60565b60405180910390fd5b600260009054906101000a900473ffffffffffffffffffffffffffffffffffffffff1673ffffffffffffffffffffffffffffffffffffffff1663bdc631d43387846040518463ffffffff1660e01b81526004016108b493929190611d38565b600060405180830381600087803b1580156108ce57600080fd5b505af11580156108e2573d6000803e3d6000fd5b505050505050505b8173ffffffffffffffffffffffffffffffffffffffff163373ffffffffffffffffffffffffffffffffffffffff167fdcbc1c05240f31ff3ad067ef1ee35ce4997762752e3a095284754544f4c709d78342604051610949929190611e80565b60405180910390a361095961145c565b5050565b6000600160009054906101000a900460ff16905090565b60018054906101000a900473ffffffffffffffffffffffffffffffffffffffff1673ffffffffffffffffffffffffffffffffffffffff166391d1485460018054906101000a900473ffffffffffffffffffffffffffffffffffffffff1673ffffffffffffffffffffffffffffffffffffffff1663d03f078b6040518163ffffffff1660e01b8152600401602060405180830381865afa158015610a1b573d6000803e3d6000fd5b505050506040513d601f19601f82011682018060405250810190610a3f9190611a8f565b336040518363ffffffff1660e01b8152600401610a5d929190611acb565b602060405180830381865afa158015610a7a573d6000803e3d6000fd5b505050506040513d601f19601f82011682018060405250810190610a9e9190611b20565b610add576040517f08c379a0000000000000000000000000000000000000000000000000000000008152600401610ad490611baa565b60405180910390fd5b600073ffffffffffffffffffffffffffffffffffffffff168173ffffffffffffffffffffffffffffffffffffffff1603610b4c576040517f08c379a0000000000000000000000000000000000000000000000000000000008152600401610b4390611ef5565b60405180910390fd5b80600260006101000a81548173ffffffffffffffffffffffffffffffffffffffff021916908373ffffffffffffffffffffffffffffffffffffffff1602179055508073ffffffffffffffffffffffffffffffffffffffff167fe7ae49f883c825b05681b3e00e8be6fdea9ed2a8a45e4c6ecb9390fc44cce61560405160405180910390a250565b7fd4d5ea10127977dabff3593f6c8cc975c33bb275baa2e87e541c3a70c0db852d81565b60018054906101000a900473ffffffffffffffffffffffffffffffffffffffff1673ffffffffffffffffffffffffffffffffffffffff166391d1485460018054906101000a900473ffffffffffffffffffffffffffffffffffffffff1673ffffffffffffffffffffffffffffffffffffffff1663d03f078b6040518163ffffffff1660e01b8152600401602060405180830381865afa158015610c9e573d6000803e3d6000fd5b505050506040513d601f19601f82011682018060405250810190610cc29190611a8f565b336040518363ffffffff1660e01b8152600401610ce0929190611acb565b602060405180830381865afa158015610cfd573d6000803e3d6000fd5b505050506040513d601f19601f82011682018060405250810190610d219190611b20565b610d60576040517f08c379a0000000000000000000000000000000000000000000000000000000008152600401610d5790611baa565b60405180910390fd5b610d68611466565b565b600360009054906101000a900473ffffffffffffffffffffffffffffffffffffffff1681565b610d98611246565b60018054906101000a900473ffffffffffffffffffffffffffffffffffffffff1673ffffffffffffffffffffffffffffffffffffffff166391d1485460018054906101000a900473ffffffffffffffffffffffffffffffffffffffff1673ffffffffffffffffffffffffffffffffffffffff1663f5b541a66040518163ffffffff1660e01b8152600401602060405180830381865afa158015610e3f573d6000803e3d6000fd5b505050506040513d601f19601f82011682018060405250810190610e639190611a8f565b336040518363ffffffff1660e01b8152600401610e81929190611acb565b602060405180830381865afa158015610e9e573d6000803e3d6000fd5b505050506040513d601f19601f82011682018060405250810190610ec29190611b20565b610f01576040517f08c379a0000000000000000000000000000000000000000000000000000000008152600401610ef890611f61565b60405180910390fd5b610f09611295565b60008111610f4c576040517f08c379a0000000000000000000000000000000000000000000000000000000008152600401610f4390611c16565b60405180910390fd5b600073ffffffffffffffffffffffffffffffffffffffff16600260009054906101000a900473ffffffffffffffffffffffffffffffffffffffff1673ffffffffffffffffffffffffffffffffffffffff1603610fdd576040517f08c379a0000000000000000000000000000000000000000000000000000000008152600401610fd490611c82565b60405180910390fd5b600260009054906101000a900473ffffffffffffffffffffffffffffffffffffffff1673ffffffffffffffffffffffffffffffffffffffff1663240028e8836040518263ffffffff1660e01b81526004016110389190611ca2565b602060405180830381865afa158015611055573d6000803e3d6000fd5b505050506040513d601f19601f820116820180604052508101906110799190611b20565b6110b8576040517f08c379a00000000000000000000000000000000000000000000000000000000081526004016110af90611d09565b60405180910390fd5b600260009054906101000a900473ffffffffffffffffffffffffffffffffffffffff1673ffffffffffffffffffffffffffffffffffffffff1663ba313e348484846040518463ffffffff1660e01b815260040161111793929190611d38565b600060405180830381600087803b15801561113157600080fd5b505af1158015611145573d6000803e3d6000fd5b505050508173ffffffffffffffffffffffffffffffffffffffff168373ffffffffffffffffffffffffffffffffffffffff167fc2b4a290c20fb28939d29f102514fbffd2b73c059ffba8b78250c94161d5fcc683426040516111a8929190611e80565b60405180910390a36111b861145c565b505050565b600260009054906101000a900473ffffffffffffffffffffffffffffffffffffffff1681565b6111eb6114c8565b6000600160006101000a81548160ff0219169083151502179055507f5db9ee0a495bf2e6ff9c91a7834c1ba4fdd244a5e8aa4e537bd38aeae4b073aa61122f611511565b60405161123c9190611ca2565b60405180910390a1565b60026000540361128b576040517f08c379a000000000000000000000000000000000000000000000000000000000815260040161128290611fcd565b60405180910390fd5b6002600081905550565b61129d61095d565b156112dd576040517f08c379a00000000000000000000000000000000000000000000000000000000081526004016112d490612039565b60405180910390fd5b565b80471015611322576040517f08c379a0000000000000000000000000000000000000000000000000000000008152600401611319906120a5565b60405180910390fd5b60008273ffffffffffffffffffffffffffffffffffffffff1682604051611348906120f6565b60006040518083038185875af1925050503d8060008114611385576040519150601f19603f3d011682016040523d82523d6000602084013e61138a565b606091505b50509050806113ce576040517f08c379a00000000000000000000000000000000000000000000000000000000081526004016113c59061217d565b60405180910390fd5b505050565b611456846323b872dd60e01b8585856040516024016113f493929190611d38565b604051602081830303815290604052907bffffffffffffffffffffffffffffffffffffffffffffffffffffffff19166020820180517bffffffffffffffffffffffffffffffffffffffffffffffffffffffff8381831617835250505050611519565b50505050565b6001600081905550565b61146e611295565b60018060006101000a81548160ff0219169083151502179055507f62e78cea01bee320cd4e420270b5ea74000d11b0c9f74754ebdbfc544b05a2586114b1611511565b6040516114be9190611ca2565b60405180910390a1565b6114d061095d565b61150f576040517f08c379a0000000000000000000000000000000000000000000000000000000008152600401611506906121e9565b60405180910390fd5b565b600033905090565b600061157b826040518060400160405280602081526020017f5361666545524332303a206c6f772d6c6576656c2063616c6c206661696c65648152508573ffffffffffffffffffffffffffffffffffffffff166115e19092919063ffffffff16565b905060008151148061159d57508080602001905181019061159c9190611b20565b5b6115dc576040517f08c379a00000000000000000000000000000000000000000000000000000000081526004016115d39061227b565b60405180910390fd5b505050565b60606115f084846000856115f9565b90509392505050565b60608247101561163e576040517f08c379a00000000000000000000000000000000000000000000000000000000081526004016116359061230d565b60405180910390fd5b6000808673ffffffffffffffffffffffffffffffffffffffff1685876040516116679190612393565b60006040518083038185875af1925050503d80600081146116a4576040519150601f19603f3d011682016040523d82523d6000602084013e6116a9565b606091505b50915091506116ba878383876116c6565b92505050949350505050565b60608315611728576000835103611720576116e08561173b565b61171f576040517f08c379a0000000000000000000000000000000000000000000000000000000008152600401611716906123f6565b60405180910390fd5b5b829050611733565b611732838361175e565b5b949350505050565b6000808273ffffffffffffffffffffffffffffffffffffffff163b119050919050565b6000825111156117715781518083602001fd5b806040517f08c379a00000000000000000000000000000000000000000000000000000000081526004016117a5919061246b565b60405180910390fd5b600073ffffffffffffffffffffffffffffffffffffffff82169050919050565b6000819050919050565b60006117f36117ee6117e9846117ae565b6117ce565b6117ae565b9050919050565b6000611805826117d8565b9050919050565b6000611817826117fa565b9050919050565b6118278161180c565b82525050565b6000602082019050611842600083018461181e565b92915050565b600080fd5b6000611858826117ae565b9050919050565b6118688161184d565b811461187357600080fd5b50565b6000813590506118858161185f565b92915050565b6000819050919050565b61189e8161188b565b81146118a957600080fd5b50565b6000813590506118bb81611895565b92915050565b600080604083850312156118d8576118d7611848565b5b60006118e685828601611876565b92505060206118f7858286016118ac565b9150509250929050565b60008115159050919050565b61191681611901565b82525050565b6000602082019050611931600083018461190d565b92915050565b60006020828403121561194d5761194c611848565b5b600061195b84828501611876565b91505092915050565b6000819050919050565b61197781611964565b82525050565b6000602082019050611992600083018461196e565b92915050565b60006119a3826117fa565b9050919050565b6119b381611998565b82525050565b60006020820190506119ce60008301846119aa565b92915050565b6000806000606084860312156119ed576119ec611848565b5b60006119fb86828701611876565b9350506020611a0c86828701611876565b9250506040611a1d868287016118ac565b9150509250925092565b6000611a32826117fa565b9050919050565b611a4281611a27565b82525050565b6000602082019050611a5d6000830184611a39565b92915050565b611a6c81611964565b8114611a7757600080fd5b50565b600081519050611a8981611a63565b92915050565b600060208284031215611aa557611aa4611848565b5b6000611ab384828501611a7a565b91505092915050565b611ac58161184d565b82525050565b6000604082019050611ae0600083018561196e565b611aed6020830184611abc565b9392505050565b611afd81611901565b8114611b0857600080fd5b50565b600081519050611b1a81611af4565b92915050565b600060208284031215611b3657611b35611848565b5b6000611b4484828501611b0b565b91505092915050565b600082825260208201905092915050565b7f4e6f7420726f757465722061646d696e00000000000000000000000000000000600082015250565b6000611b94601083611b4d565b9150611b9f82611b5e565b602082019050919050565b60006020820190508181036000830152611bc381611b87565b9050919050565b7f496e76616c696420616d6f756e74000000000000000000000000000000000000600082015250565b6000611c00600e83611b4d565b9150611c0b82611bca565b602082019050919050565b60006020820190508181036000830152611c2f81611bf3565b9050919050565b7f5661756c74206e6f742073657400000000000000000000000000000000000000600082015250565b6000611c6c600d83611b4d565b9150611c7782611c36565b602082019050919050565b60006020820190508181036000830152611c9b81611c5f565b9050919050565b6000602082019050611cb76000830184611abc565b92915050565b7f546f6b656e206e6f7420737570706f7274656400000000000000000000000000600082015250565b6000611cf3601383611b4d565b9150611cfe82611cbd565b602082019050919050565b60006020820190508181036000830152611d2281611ce6565b9050919050565b611d328161188b565b82525050565b6000606082019050611d4d6000830186611abc565b611d5a6020830185611abc565b611d676040830184611d29565b949350505050565b600081519050611d7e81611895565b92915050565b600060208284031215611d9a57611d99611848565b5b6000611da884828501611d6f565b91505092915050565b7f4e487b7100000000000000000000000000000000000000000000000000000000600052601160045260246000fd5b6000611deb8261188b565b9150611df68361188b565b9250828203905081811115611e0e57611e0d611db1565b5b92915050565b7f546f6b656e207472616e73666572206661696c65640000000000000000000000600082015250565b6000611e4a601583611b4d565b9150611e5582611e14565b602082019050919050565b60006020820190508181036000830152611e7981611e3d565b9050919050565b6000604082019050611e956000830185611d29565b611ea26020830184611d29565b9392505050565b7f496e76616c6964207661756c7420616464726573730000000000000000000000600082015250565b6000611edf601583611b4d565b9150611eea82611ea9565b602082019050919050565b60006020820190508181036000830152611f0e81611ed2565b9050919050565b7f4e6f74206f70657261746f720000000000000000000000000000000000000000600082015250565b6000611f4b600c83611b4d565b9150611f5682611f15565b602082019050919050565b60006020820190508181036000830152611f7a81611f3e565b9050919050565b7f5265656e7472616e637947756172643a207265656e7472616e742063616c6c00600082015250565b6000611fb7601f83611b4d565b9150611fc282611f81565b602082019050919050565b60006020820190508181036000830152611fe681611faa565b9050919050565b7f5061757361626c653a2070617573656400000000000000000000000000000000600082015250565b6000612023601083611b4d565b915061202e82611fed565b602082019050919050565b6000602082019050818103600083015261205281612016565b9050919050565b7f416464726573733a20696e73756666696369656e742062616c616e6365000000600082015250565b600061208f601d83611b4d565b915061209a82612059565b602082019050919050565b600060208201905081810360008301526120be81612082565b9050919050565b600081905092915050565b50565b60006120e06000836120c5565b91506120eb826120d0565b600082019050919050565b6000612101826120d3565b9150819050919050565b7f416464726573733a20756e61626c6520746f2073656e642076616c75652c207260008201527f6563697069656e74206d61792068617665207265766572746564000000000000602082015250565b6000612167603a83611b4d565b91506121728261210b565b604082019050919050565b600060208201905081810360008301526121968161215a565b9050919050565b7f5061757361626c653a206e6f7420706175736564000000000000000000000000600082015250565b60006121d3601483611b4d565b91506121de8261219d565b602082019050919050565b60006020820190508181036000830152612202816121c6565b9050919050565b7f5361666545524332303a204552433230206f7065726174696f6e20646964206e60008201527f6f74207375636365656400000000000000000000000000000000000000000000602082015250565b6000612265602a83611b4d565b915061227082612209565b604082019050919050565b6000602082019050818103600083015261229481612258565b9050919050565b7f416464726573733a20696e73756666696369656e742062616c616e636520666f60008201527f722063616c6c0000000000000000000000000000000000000000000000000000602082015250565b60006122f7602683611b4d565b91506123028261229b565b604082019050919050565b60006020820190508181036000830152612326816122ea565b9050919050565b600081519050919050565b60005b8381101561235657808201518184015260208101905061233b565b60008484015250505050565b600061236d8261232d565b61237781856120c5565b9350612387818560208601612338565b80840191505092915050565b600061239f8284612362565b915081905092915050565b7f416464726573733a2063616c6c20746f206e6f6e2d636f6e7472616374000000600082015250565b60006123e0601d83611b4d565b91506123eb826123aa565b602082019050919050565b6000602082019050818103600083015261240f816123d3565b9050919050565b600081519050919050565b6000601f19601f8301169050919050565b600061243d82612416565b6124478185611b4d565b9350612457818560208601612338565b61246081612421565b840191505092915050565b600060208201905081810360008301526124858184612432565b90509291505056fea2646970667358221220591319aef3d01eead657aeb8405c6077679c7542065cd6bbb87d7e3f77fbe87e64736f6c63430008130033","linkReferences":{}},"methodIdentifiers":{"SET_VAULT()":"78f9da80","deposit(address,uint256)":"47e7ef24","pause()":"8456cb59","paused()":"5c975abb","roleManager()":"00435da5","setVault(address)":"6817031b","timelock()":"d33219b4","unpause()":"3f4ba83a","vault()":"fbfa77cf","withdraw(address,address,uint256)":"d9caed12"},"id":4}