{"abi":[{"type":"constructor","inputs":[{"name":"_roleManager","type":"address","internalType":"address"},{"name":"_timelock","type":"address","internalType":"address"}],"stateMutability":"nonpayable"},{"type":"function","name":"SET_VAULT","inputs":[],"outputs":[{"name":"","type":"bytes32","internalType":"bytes32"}],"stateMutability":"view"},{"type":"function","name":"deposit","inputs":[{"name":"token","type":"address","internalType":"address"},{"name":"amount","type":"uint256","internalType":"uint256"}],"outputs":[],"stateMutability":"payable"},{"type":"function","name":"pause","inputs":[],"outputs":[],"stateMutability":"nonpayable"},{"type":"function","name":"paused","inputs":[],"outputs":[{"name":"","type":"bool","internalType":"bool"}],"stateMutability":"view"},{"type":"function","name":"proposeSetVault","inputs":[{"name":"_vault","type":"address","internalType":"address"}],"outputs":[],"stateMutability":"nonpayable"},{"type":"function","name":"roleManager","inputs":[],"outputs":[{"name":"","type":"address","internalType":"contract IRoleManager"}],"stateMutability":"view"},{"type":"function","name":"setVault","inputs":[{"name":"_vault","type":"address","internalType":"address"},{"name":"actionId","type":"bytes32","internalType":"bytes32"}],"outputs":[],"stateMutability":"nonpayable"},{"type":"function","name":"timelock","inputs":[],"outputs":[{"name":"","type":"address","internalType":"contract ITimelock"}],"stateMutability":"view"},{"type":"function","name":"unpause","inputs":[],"outputs":[],"stateMutability":"nonpayable"},{"type":"function","name":"vault","inputs":[],"outputs":[{"name":"","type":"address","internalType":"contract IVault"}],"stateMutability":"view"},{"type":"function","name":"withdraw","inputs":[{"name":"recipient","type":"address","internalType":"address"},{"name":"token","type":"address","internalType":"address"},{"name":"amount","type":"uint256","internalType":"uint256"}],"outputs":[],"stateMutability":"nonpayable"},{"type":"event","name":"Deposit","inputs":[{"name":"user","type":"address","indexed":true,"internalType":"address"},{"name":"token","type":"address","indexed":true,"internalType":"address"},{"name":"amount","type":"uint256","indexed":false,"internalType":"uint256"},{"name":"timestamp","type":"uint256","indexed":false,"internalType":"uint256"}],"anonymous":false},{"type":"event","name":"Paused","inputs":[{"name":"account","type":"address","indexed":false,"internalType":"address"}],"anonymous":false},{"type":"event","name":"Unpaused","inputs":[{"name":"account","type":"address","indexed":false,"internalType":"address"}],"anonymous":false},{"type":"event","name":"VaultSet","inputs":[{"name":"vault","type":"address","indexed":true,"internalType":"address"}],"anonymous":false},{"type":"event","name":"Withdrawal","inputs":[{"name":"recipient","type":"address","indexed":true,"internalType":"address"},{"name":"token","type":"address","indexed":true,"internalType":"address"},{"name":"amount","type":"uint256","indexed":false,"internalType":"uint256"},{"name":"timestamp","type":"uint256","indexed":false,"internalType":"uint256"}],"anonymous":false}],"bytecode":{"object":"0x60806040523480156200001157600080fd5b5060405162002aa238038062002aa2833981810160405281019062000037919062000231565b60016000819055506000600160006101000a81548160ff021916908315150217905550600073ffffffffffffffffffffffffffffffffffffffff168273ffffffffffffffffffffffffffffffffffffffff1603620000cc576040517f08c379a0000000000000000000000000000000000000000000000000000000008152600401620000c390620002d9565b60405180910390fd5b600073ffffffffffffffffffffffffffffffffffffffff168173ffffffffffffffffffffffffffffffffffffffff16036200013e576040517f08c379a000000000000000000000000000000000000000000000000000000000815260040162000135906200034b565b60405180910390fd5b816001806101000a81548173ffffffffffffffffffffffffffffffffffffffff021916908373ffffffffffffffffffffffffffffffffffffffff16021790555080600360006101000a81548173ffffffffffffffffffffffffffffffffffffffff021916908373ffffffffffffffffffffffffffffffffffffffff16021790555050506200036d565b600080fd5b600073ffffffffffffffffffffffffffffffffffffffff82169050919050565b6000620001f982620001cc565b9050919050565b6200020b81620001ec565b81146200021757600080fd5b50565b6000815190506200022b8162000200565b92915050565b600080604083850312156200024b576200024a620001c7565b5b60006200025b858286016200021a565b92505060206200026e858286016200021a565b9150509250929050565b600082825260208201905092915050565b7f496e76616c696420526f6c654d616e6167657200000000000000000000000000600082015250565b6000620002c160138362000278565b9150620002ce8262000289565b602082019050919050565b60006020820190508181036000830152620002f481620002b2565b9050919050565b7f496e76616c69642054696d656c6f636b00000000000000000000000000000000600082015250565b60006200033360108362000278565b91506200034082620002fb565b602082019050919050565b60006020820190508181036000830152620003668162000324565b9050919050565b612725806200037d6000396000f3fe60806040526004361061009b5760003560e01c806378f9da801161006457806378f9da80146101525780638456cb591461017d578063af51c0a614610194578063d33219b4146101bd578063d9caed12146101e8578063fbfa77cf146102115761009b565b8062435da5146100a05780632977ac3e146100cb5780633f4ba83a146100f457806347e7ef241461010b5780635c975abb14610127575b600080fd5b3480156100ac57600080fd5b506100b561023c565b6040516100c29190611a64565b60405180910390f35b3480156100d757600080fd5b506100f260048036038101906100ed9190611ac2565b610260565b005b34801561010057600080fd5b506101096104ec565b005b61012560048036038101906101209190611b25565b61065f565b005b34801561013357600080fd5b5061013c610c15565b6040516101499190611b80565b60405180910390f35b34801561015e57600080fd5b50610167610c2c565b6040516101749190611bb4565b60405180910390f35b34801561018957600080fd5b50610192610c50565b005b3480156101a057600080fd5b506101bb60048036038101906101b69190611bfb565b610dc3565b005b3480156101c957600080fd5b506101d2611095565b6040516101df9190611c5c565b60405180910390f35b3480156101f457600080fd5b5061020f600480360381019061020a9190611c77565b6110bb565b005b34801561021d57600080fd5b506102266114e8565b6040516102339190611ceb565b60405180910390f35b60018054906101000a900473ffffffffffffffffffffffffffffffffffffffff1681565b60018054906101000a900473ffffffffffffffffffffffffffffffffffffffff1673ffffffffffffffffffffffffffffffffffffffff166391d1485460018054906101000a900473ffffffffffffffffffffffffffffffffffffffff1673ffffffffffffffffffffffffffffffffffffffff1663d03f078b6040518163ffffffff1660e01b8152600401602060405180830381865afa158015610307573d6000803e3d6000fd5b505050506040513d601f19601f8201168201806040525081019061032b9190611d1b565b336040518363ffffffff1660e01b8152600401610349929190611d57565b602060405180830381865afa158015610366573d6000803e3d6000fd5b505050506040513d601f19601f8201168201806040525081019061038a9190611dac565b6103c9576040517f08c379a00000000000000000000000000000000000000000000000000000000081526004016103c090611e36565b60405180910390fd5b600073ffffffffffffffffffffffffffffffffffffffff168173ffffffffffffffffffffffffffffffffffffffff1603610438576040517f08c379a000000000000000000000000000000000000000000000000000000000815260040161042f90611ea2565b60405180910390fd5b600360009054906101000a900473ffffffffffffffffffffffffffffffffffffffff1673ffffffffffffffffffffffffffffffffffffffff1663c0858d117fd4d5ea10127977dabff3593f6c8cc975c33bb275baa2e87e541c3a70c0db852d83336040518463ffffffff1660e01b81526004016104b793929190611ec2565b600060405180830381600087803b1580156104d157600080fd5b505af11580156104e5573d6000803e3d6000fd5b5050505050565b60018054906101000a900473ffffffffffffffffffffffffffffffffffffffff1673ffffffffffffffffffffffffffffffffffffffff166391d1485460018054906101000a900473ffffffffffffffffffffffffffffffffffffffff1673ffffffffffffffffffffffffffffffffffffffff1663d03f078b6040518163ffffffff1660e01b8152600401602060405180830381865afa158015610593573d6000803e3d6000fd5b505050506040513d601f19601f820116820180604052508101906105b79190611d1b565b336040518363ffffffff1660e01b81526004016105d5929190611d57565b602060405180830381865afa1580156105f2573d6000803e3d6000fd5b505050506040513d601f19601f820116820180604052508101906106169190611dac565b610655576040517f08c379a000000000000000000000000000000000000000000000000000000000815260040161064c90611e36565b60405180910390fd5b61065d61150e565b565b610667611571565b61066f6115c0565b600081116106b2576040517f08c379a00000000000000000000000000000000000000000000000000000000081526004016106a990611f45565b60405180910390fd5b600073ffffffffffffffffffffffffffffffffffffffff16600260009054906101000a900473ffffffffffffffffffffffffffffffffffffffff1673ffffffffffffffffffffffffffffffffffffffff1603610743576040517f08c379a000000000000000000000000000000000000000000000000000000000815260040161073a90611fb1565b60405180910390fd5b600260009054906101000a900473ffffffffffffffffffffffffffffffffffffffff1673ffffffffffffffffffffffffffffffffffffffff1663240028e8836040518263ffffffff1660e01b815260040161079e9190611fd1565b602060405180830381865afa1580156107bb573d6000803e3d6000fd5b505050506040513d601f19601f820116820180604052508101906107df9190611dac565b61081e576040517f08c379a000000000000000000000000000000000000000000000000000000000815260040161081590612038565b60405180910390fd5b600073ffffffffffffffffffffffffffffffffffffffff168273ffffffffffffffffffffffffffffffffffffffff160361092b57803414610894576040517f08c379a000000000000000000000000000000000000000000000000000000000815260040161088b906120a4565b60405180910390fd5b600260009054906101000a900473ffffffffffffffffffffffffffffffffffffffff1673ffffffffffffffffffffffffffffffffffffffff1663bdc631d4823385856040518563ffffffff1660e01b81526004016108f4939291906120d3565b6000604051808303818588803b15801561090d57600080fd5b505af1158015610921573d6000803e3d6000fd5b5050505050610ba2565b60008273ffffffffffffffffffffffffffffffffffffffff166370a08231600260009054906101000a900473ffffffffffffffffffffffffffffffffffffffff166040518263ffffffff1660e01b81526004016109889190611fd1565b602060405180830381865afa1580156109a5573d6000803e3d6000fd5b505050506040513d601f19601f820116820180604052508101906109c9919061211f565b9050610a1a33600260009054906101000a900473ffffffffffffffffffffffffffffffffffffffff16848673ffffffffffffffffffffffffffffffffffffffff1661160a909392919063ffffffff16565b60008373ffffffffffffffffffffffffffffffffffffffff166370a08231600260009054906101000a900473ffffffffffffffffffffffffffffffffffffffff166040518263ffffffff1660e01b8152600401610a779190611fd1565b602060405180830381865afa158015610a94573d6000803e3d6000fd5b505050506040513d601f19601f82011682018060405250810190610ab8919061211f565b905060008282610ac8919061217b565b905083811015610b0d576040517f08c379a0000000000000000000000000000000000000000000000000000000008152600401610b04906121fb565b60405180910390fd5b600260009054906101000a900473ffffffffffffffffffffffffffffffffffffffff1673ffffffffffffffffffffffffffffffffffffffff1663bdc631d43387846040518463ffffffff1660e01b8152600401610b6c939291906120d3565b600060405180830381600087803b158015610b8657600080fd5b505af1158015610b9a573d6000803e3d6000fd5b505050505050505b8173ffffffffffffffffffffffffffffffffffffffff163373ffffffffffffffffffffffffffffffffffffffff167fdcbc1c05240f31ff3ad067ef1ee35ce4997762752e3a095284754544f4c709d78342604051610c0192919061221b565b60405180910390a3610c11611693565b5050565b6000600160009054906101000a900460ff16905090565b7fd4d5ea10127977dabff3593f6c8cc975c33bb275baa2e87e541c3a70c0db852d81565b60018054906101000a900473ffffffffffffffffffffffffffffffffffffffff1673ffffffffffffffffffffffffffffffffffffffff166391d1485460018054906101000a900473ffffffffffffffffffffffffffffffffffffffff1673ffffffffffffffffffffffffffffffffffffffff1663d03f078b6040518163ffffffff1660e01b8152600401602060405180830381865afa158015610cf7573d6000803e3d6000fd5b505050506040513d601f19601f82011682018060405250810190610d1b9190611d1b565b336040518363ffffffff1660e01b8152600401610d39929190611d57565b602060405180830381865afa158015610d56573d6000803e3d6000fd5b505050506040513d601f19601f82011682018060405250810190610d7a9190611dac565b610db9576040517f08c379a0000000000000000000000000000000000000000000000000000000008152600401610db090611e36565b60405180910390fd5b610dc161169d565b565b60018054906101000a900473ffffffffffffffffffffffffffffffffffffffff1673ffffffffffffffffffffffffffffffffffffffff166391d1485460018054906101000a900473ffffffffffffffffffffffffffffffffffffffff1673ffffffffffffffffffffffffffffffffffffffff1663d03f078b6040518163ffffffff1660e01b8152600401602060405180830381865afa158015610e6a573d6000803e3d6000fd5b505050506040513d601f19601f82011682018060405250810190610e8e9190611d1b565b336040518363ffffffff1660e01b8152600401610eac929190611d57565b602060405180830381865afa158015610ec9573d6000803e3d6000fd5b505050506040513d601f19601f82011682018060405250810190610eed9190611dac565b610f2c576040517f08c379a0000000000000000000000000000000000000000000000000000000008152600401610f2390611e36565b60405180910390fd5b600360009054906101000a900473ffffffffffffffffffffffffffffffffffffffff1673ffffffffffffffffffffffffffffffffffffffff16635a484a1b8284336040518463ffffffff1660e01b8152600401610f8b93929190611ec2565b6020604051808303816000875af1158015610faa573d6000803e3d6000fd5b505050506040513d601f19601f82011682018060405250810190610fce9190611dac565b61100d576040517f08c379a000000000000000000000000000000000000000000000000000000000815260040161100490612290565b60405180910390fd5b81600260006101000a81548173ffffffffffffffffffffffffffffffffffffffff021916908373ffffffffffffffffffffffffffffffffffffffff1602179055508173ffffffffffffffffffffffffffffffffffffffff167fe7ae49f883c825b05681b3e00e8be6fdea9ed2a8a45e4c6ecb9390fc44cce61560405160405180910390a25050565b600360009054906101000a900473ffffffffffffffffffffffffffffffffffffffff1681565b6110c3611571565b60018054906101000a900473ffffffffffffffffffffffffffffffffffffffff1673ffffffffffffffffffffffffffffffffffffffff166391d1485460018054906101000a900473ffffffffffffffffffffffffffffffffffffffff1673ffffffffffffffffffffffffffffffffffffffff1663f5b541a66040518163ffffffff1660e01b8152600401602060405180830381865afa15801561116a573d6000803e3d6000fd5b505050506040513d601f19601f8201168201806040525081019061118e9190611d1b565b336040518363ffffffff1660e01b81526004016111ac929190611d57565b602060405180830381865afa1580156111c9573d6000803e3d6000fd5b505050506040513d601f19601f820116820180604052508101906111ed9190611dac565b61122c576040517f08c379a0000000000000000000000000000000000000000000000000000000008152600401611223906122fc565b60405180910390fd5b6112346115c0565b60008111611277576040517f08c379a000000000000000000000000000000000000000000000000000000000815260040161126e90611f45565b60405180910390fd5b600073ffffffffffffffffffffffffffffffffffffffff16600260009054906101000a900473ffffffffffffffffffffffffffffffffffffffff1673ffffffffffffffffffffffffffffffffffffffff1603611308576040517f08c379a00000000000000000000000000000000000000000000000000000000081526004016112ff90611fb1565b60405180910390fd5b600260009054906101000a900473ffffffffffffffffffffffffffffffffffffffff1673ffffffffffffffffffffffffffffffffffffffff1663240028e8836040518263ffffffff1660e01b81526004016113639190611fd1565b602060405180830381865afa158015611380573d6000803e3d6000fd5b505050506040513d601f19601f820116820180604052508101906113a49190611dac565b6113e3576040517f08c379a00000000000000000000000000000000000000000000000000000000081526004016113da90612038565b60405180910390fd5b600260009054906101000a900473ffffffffffffffffffffffffffffffffffffffff1673ffffffffffffffffffffffffffffffffffffffff1663ba313e348484846040518463ffffffff1660e01b8152600401611442939291906120d3565b600060405180830381600087803b15801561145c57600080fd5b505af1158015611470573d6000803e3d6000fd5b505050508173ffffffffffffffffffffffffffffffffffffffff168373ffffffffffffffffffffffffffffffffffffffff167fc2b4a290c20fb28939d29f102514fbffd2b73c059ffba8b78250c94161d5fcc683426040516114d392919061221b565b60405180910390a36114e3611693565b505050565b600260009054906101000a900473ffffffffffffffffffffffffffffffffffffffff1681565b6115166116ff565b6000600160006101000a81548160ff0219169083151502179055507f5db9ee0a495bf2e6ff9c91a7834c1ba4fdd244a5e8aa4e537bd38aeae4b073aa61155a611748565b6040516115679190611fd1565b60405180910390a1565b6002600054036115b6576040517f08c379a00000000000000000000000000000000000000000000000000000000081526004016115ad90612368565b60405180910390fd5b6002600081905550565b6115c8610c15565b15611608576040517f08c379a00000000000000000000000000000000000000000000000000000000081526004016115ff906123d4565b60405180910390fd5b565b61168d846323b872dd60e01b85858560405160240161162b939291906120d3565b604051602081830303815290604052907bffffffffffffffffffffffffffffffffffffffffffffffffffffffff19166020820180517bffffffffffffffffffffffffffffffffffffffffffffffffffffffff8381831617835250505050611750565b50505050565b6001600081905550565b6116a56115c0565b60018060006101000a81548160ff0219169083151502179055507f62e78cea01bee320cd4e420270b5ea74000d11b0c9f74754ebdbfc544b05a2586116e8611748565b6040516116f59190611fd1565b60405180910390a1565b611707610c15565b611746576040517f08c379a000000000000000000000000000000000000000000000000000000000815260040161173d90612440565b60405180910390fd5b565b600033905090565b60006117b2826040518060400160405280602081526020017f5361666545524332303a206c6f772d6c6576656c2063616c6c206661696c65648152508573ffffffffffffffffffffffffffffffffffffffff166118189092919063ffffffff16565b90506000815114806117d45750808060200190518101906117d39190611dac565b5b611813576040517f08c379a000000000000000000000000000000000000000000000000000000000815260040161180a906124d2565b60405180910390fd5b505050565b60606118278484600085611830565b90509392505050565b606082471015611875576040517f08c379a000000000000000000000000000000000000000000000000000000000815260040161186c90612564565b60405180910390fd5b6000808673ffffffffffffffffffffffffffffffffffffffff16858760405161189e91906125f5565b60006040518083038185875af1925050503d80600081146118db576040519150601f19603f3d011682016040523d82523d6000602084013e6118e0565b606091505b50915091506118f1878383876118fd565b92505050949350505050565b6060831561195f5760008351036119575761191785611972565b611956576040517f08c379a000000000000000000000000000000000000000000000000000000000815260040161194d90612658565b60405180910390fd5b5b82905061196a565b6119698383611995565b5b949350505050565b6000808273ffffffffffffffffffffffffffffffffffffffff163b119050919050565b6000825111156119a85781518083602001fd5b806040517f08c379a00000000000000000000000000000000000000000000000000000000081526004016119dc91906126cd565b60405180910390fd5b600073ffffffffffffffffffffffffffffffffffffffff82169050919050565b6000819050919050565b6000611a2a611a25611a20846119e5565b611a05565b6119e5565b9050919050565b6000611a3c82611a0f565b9050919050565b6000611a4e82611a31565b9050919050565b611a5e81611a43565b82525050565b6000602082019050611a796000830184611a55565b92915050565b600080fd5b6000611a8f826119e5565b9050919050565b611a9f81611a84565b8114611aaa57600080fd5b50565b600081359050611abc81611a96565b92915050565b600060208284031215611ad857611ad7611a7f565b5b6000611ae684828501611aad565b91505092915050565b6000819050919050565b611b0281611aef565b8114611b0d57600080fd5b50565b600081359050611b1f81611af9565b92915050565b60008060408385031215611b3c57611b3b611a7f565b5b6000611b4a85828601611aad565b9250506020611b5b85828601611b10565b9150509250929050565b60008115159050919050565b611b7a81611b65565b82525050565b6000602082019050611b956000830184611b71565b92915050565b6000819050919050565b611bae81611b9b565b82525050565b6000602082019050611bc96000830184611ba5565b92915050565b611bd881611b9b565b8114611be357600080fd5b50565b600081359050611bf581611bcf565b92915050565b60008060408385031215611c1257611c11611a7f565b5b6000611c2085828601611aad565b9250506020611c3185828601611be6565b9150509250929050565b6000611c4682611a31565b9050919050565b611c5681611c3b565b82525050565b6000602082019050611c716000830184611c4d565b92915050565b600080600060608486031215611c9057611c8f611a7f565b5b6000611c9e86828701611aad565b9350506020611caf86828701611aad565b9250506040611cc086828701611b10565b9150509250925092565b6000611cd582611a31565b9050919050565b611ce581611cca565b82525050565b6000602082019050611d006000830184611cdc565b92915050565b600081519050611d1581611bcf565b92915050565b600060208284031215611d3157611d30611a7f565b5b6000611d3f84828501611d06565b91505092915050565b611d5181611a84565b82525050565b6000604082019050611d6c6000830185611ba5565b611d796020830184611d48565b9392505050565b611d8981611b65565b8114611d9457600080fd5b50565b600081519050611da681611d80565b92915050565b600060208284031215611dc257611dc1611a7f565b5b6000611dd084828501611d97565b91505092915050565b600082825260208201905092915050565b7f4e6f7420726f757465722061646d696e00000000000000000000000000000000600082015250565b6000611e20601083611dd9565b9150611e2b82611dea565b602082019050919050565b60006020820190508181036000830152611e4f81611e13565b9050919050565b7f496e76616c6964207661756c7420616464726573730000000000000000000000600082015250565b6000611e8c601583611dd9565b9150611e9782611e56565b602082019050919050565b60006020820190508181036000830152611ebb81611e7f565b9050919050565b6000606082019050611ed76000830186611ba5565b611ee46020830185611d48565b611ef16040830184611d48565b949350505050565b7f496e76616c696420616d6f756e74000000000000000000000000000000000000600082015250565b6000611f2f600e83611dd9565b9150611f3a82611ef9565b602082019050919050565b60006020820190508181036000830152611f5e81611f22565b9050919050565b7f5661756c74206e6f742073657400000000000000000000000000000000000000600082015250565b6000611f9b600d83611dd9565b9150611fa682611f65565b602082019050919050565b60006020820190508181036000830152611fca81611f8e565b9050919050565b6000602082019050611fe66000830184611d48565b92915050565b7f546f6b656e206e6f7420737570706f7274656400000000000000000000000000600082015250565b6000612022601383611dd9565b915061202d82611fec565b602082019050919050565b6000602082019050818103600083015261205181612015565b9050919050565b7f496e636f72726563742045544820616d6f756e74000000000000000000000000600082015250565b600061208e601483611dd9565b915061209982612058565b602082019050919050565b600060208201905081810360008301526120bd81612081565b9050919050565b6120cd81611aef565b82525050565b60006060820190506120e86000830186611d48565b6120f56020830185611d48565b61210260408301846120c4565b949350505050565b60008151905061211981611af9565b92915050565b60006020828403121561213557612134611a7f565b5b60006121438482850161210a565b91505092915050565b7f4e487b7100000000000000000000000000000000000000000000000000000000600052601160045260246000fd5b600061218682611aef565b915061219183611aef565b92508282039050818111156121a9576121a861214c565b5b92915050565b7f546f6b656e207472616e73666572206661696c65640000000000000000000000600082015250565b60006121e5601583611dd9565b91506121f0826121af565b602082019050919050565b60006020820190508181036000830152612214816121d8565b9050919050565b600060408201905061223060008301856120c4565b61223d60208301846120c4565b9392505050565b7f43616e6e6f742065786563757465207365745661756c74000000000000000000600082015250565b600061227a601783611dd9565b915061228582612244565b602082019050919050565b600060208201905081810360008301526122a98161226d565b9050919050565b7f4e6f74206f70657261746f720000000000000000000000000000000000000000600082015250565b60006122e6600c83611dd9565b91506122f1826122b0565b602082019050919050565b60006020820190508181036000830152612315816122d9565b9050919050565b7f5265656e7472616e637947756172643a207265656e7472616e742063616c6c00600082015250565b6000612352601f83611dd9565b915061235d8261231c565b602082019050919050565b6000602082019050818103600083015261238181612345565b9050919050565b7f5061757361626c653a2070617573656400000000000000000000000000000000600082015250565b60006123be601083611dd9565b91506123c982612388565b602082019050919050565b600060208201905081810360008301526123ed816123b1565b9050919050565b7f5061757361626c653a206e6f7420706175736564000000000000000000000000600082015250565b600061242a601483611dd9565b9150612435826123f4565b602082019050919050565b600060208201905081810360008301526124598161241d565b9050919050565b7f5361666545524332303a204552433230206f7065726174696f6e20646964206e60008201527f6f74207375636365656400000000000000000000000000000000000000000000602082015250565b60006124bc602a83611dd9565b91506124c782612460565b604082019050919050565b600060208201905081810360008301526124eb816124af565b9050919050565b7f416464726573733a20696e73756666696369656e742062616c616e636520666f60008201527f722063616c6c0000000000000000000000000000000000000000000000000000602082015250565b600061254e602683611dd9565b9150612559826124f2565b604082019050919050565b6000602082019050818103600083015261257d81612541565b9050919050565b600081519050919050565b600081905092915050565b60005b838110156125b857808201518184015260208101905061259d565b60008484015250505050565b60006125cf82612584565b6125d9818561258f565b93506125e981856020860161259a565b80840191505092915050565b600061260182846125c4565b915081905092915050565b7f416464726573733a2063616c6c20746f206e6f6e2d636f6e7472616374000000600082015250565b6000612642601d83611dd9565b915061264d8261260c565b602082019050919050565b6000602082019050818103600083015261267181612635565b9050919050565b600081519050919050565b6000601f19601f8301169050919050565b600061269f82612678565b6126a98185611dd9565b93506126b981856020860161259a565b6126c281612683565b840191505092915050565b600060208201905081810360008301526126e78184612694565b90509291505056fea2646970667358221220b995c1f63e22c627ce44c1c594e48327981eab8990de817024ac2d38c7a15c0b64736f6c63430008130033","linkReferences":{}},"methodIdentifiers":{"SET_VAULT()":"78f9da80","deposit(address,uint256)":"47e7ef24","pause()":"8456cb59","paused()":"5c975abb","proposeSetVault(address)":"2977ac3e","roleManager()":"00435da5","setVault(address,bytes32)":"af51c0a6","timelock()":"d33219b4","unpause()":"3f4ba83a","vault()":"fbfa77cf","withdraw(address,address,uint256)":"d9caed12"},"id":4}