{"abi":[{"type":"constructor","inputs":[{"name":"_roleManager","type":"address","internalType":"address"}],"stateMutability":"nonpayable"},{"type":"function","name":"deposit","inputs":[{"name":"token","type":"address","internalType":"address"},{"name":"amount","type":"uint256","internalType":"uint256"}],"outputs":[],"stateMutability":"payable"},{"type":"function","name":"roleManager","inputs":[],"outputs":[{"name":"","type":"address","internalType":"contract IRoleManager"}],"stateMutability":"view"},{"type":"function","name":"setVault","inputs":[{"name":"_vault","type":"address","internalType":"address"}],"outputs":[],"stateMutability":"nonpayable"},{"type":"function","name":"vault","inputs":[],"outputs":[{"name":"","type":"address","internalType":"contract IVault"}],"stateMutability":"view"},{"type":"function","name":"withdraw","inputs":[{"name":"recipient","type":"address","internalType":"address"},{"name":"token","type":"address","internalType":"address"},{"name":"amount","type":"uint256","internalType":"uint256"}],"outputs":[],"stateMutability":"nonpayable"},{"type":"event","name":"Deposit","inputs":[{"name":"user","type":"address","indexed":true,"internalType":"address"},{"name":"token","type":"address","indexed":true,"internalType":"address"},{"name":"amount","type":"uint256","indexed":false,"internalType":"uint256"}],"anonymous":false},{"type":"event","name":"Withdrawal","inputs":[{"name":"recipient","type":"address","indexed":true,"internalType":"address"},{"name":"token","type":"address","indexed":true,"internalType":"address"},{"name":"amount","type":"uint256","indexed":false,"internalType":"uint256"}],"anonymous":false}],"bytecode":{"object":"0x60806040523480156200001157600080fd5b5060405162001bf038038062001bf08339818101604052810190620000379190620000f1565b600160008190555080600160006101000a81548173ffffffffffffffffffffffffffffffffffffffff021916908373ffffffffffffffffffffffffffffffffffffffff1602179055505062000123565b600080fd5b600073ffffffffffffffffffffffffffffffffffffffff82169050919050565b6000620000b9826200008c565b9050919050565b620000cb81620000ac565b8114620000d757600080fd5b50565b600081519050620000eb81620000c0565b92915050565b6000602082840312156200010a576200010962000087565b5b60006200011a84828501620000da565b91505092915050565b611abd80620001336000396000f3fe6080604052600436106100495760003560e01c8062435da51461004e57806347e7ef24146100795780636817031b14610095578063d9caed12146100be578063fbfa77cf146100e7575b600080fd5b34801561005a57600080fd5b50610063610112565b6040516100709190611098565b60405180910390f35b610093600480360381019061008e919061112c565b610138565b005b3480156100a157600080fd5b506100bc60048036038101906100b7919061116c565b610591565b005b3480156100ca57600080fd5b506100e560048036038101906100e09190611199565b610742565b005b3480156100f357600080fd5b506100fc610c7c565b604051610109919061120d565b60405180910390f35b600160009054906101000a900473ffffffffffffffffffffffffffffffffffffffff1681565b610140610ca2565b60008111610183576040517f08c379a000000000000000000000000000000000000000000000000000000000815260040161017a90611285565b60405180910390fd5b600073ffffffffffffffffffffffffffffffffffffffff16600260009054906101000a900473ffffffffffffffffffffffffffffffffffffffff1673ffffffffffffffffffffffffffffffffffffffff1603610214576040517f08c379a000000000000000000000000000000000000000000000000000000000815260040161020b906112f1565b60405180910390fd5b600260009054906101000a900473ffffffffffffffffffffffffffffffffffffffff1673ffffffffffffffffffffffffffffffffffffffff1663240028e8836040518263ffffffff1660e01b815260040161026f9190611320565b602060405180830381865afa15801561028c573d6000803e3d6000fd5b505050506040513d601f19601f820116820180604052508101906102b09190611373565b6102ef576040517f08c379a00000000000000000000000000000000000000000000000000000000081526004016102e6906113ec565b60405180910390fd5b600073ffffffffffffffffffffffffffffffffffffffff168273ffffffffffffffffffffffffffffffffffffffff16036103fc57803414610365576040517f08c379a000000000000000000000000000000000000000000000000000000000815260040161035c90611458565b60405180910390fd5b600260009054906101000a900473ffffffffffffffffffffffffffffffffffffffff1673ffffffffffffffffffffffffffffffffffffffff1663bdc631d4823385856040518563ffffffff1660e01b81526004016103c593929190611487565b6000604051808303818588803b1580156103de57600080fd5b505af11580156103f2573d6000803e3d6000fd5b5050505050610520565b6000341461043f576040517f08c379a000000000000000000000000000000000000000000000000000000000815260040161043690611530565b60405180910390fd5b61048e33600260009054906101000a900473ffffffffffffffffffffffffffffffffffffffff16838573ffffffffffffffffffffffffffffffffffffffff16610cf1909392919063ffffffff16565b600260009054906101000a900473ffffffffffffffffffffffffffffffffffffffff1673ffffffffffffffffffffffffffffffffffffffff1663bdc631d43384846040518463ffffffff1660e01b81526004016104ed93929190611487565b600060405180830381600087803b15801561050757600080fd5b505af115801561051b573d6000803e3d6000fd5b505050505b8173ffffffffffffffffffffffffffffffffffffffff163373ffffffffffffffffffffffffffffffffffffffff167f5548c837ab068cf56a2c2479df0882a4922fd203edb7517321831d95078c5f628360405161057d9190611550565b60405180910390a361058d610d7a565b5050565b600160009054906101000a900473ffffffffffffffffffffffffffffffffffffffff1673ffffffffffffffffffffffffffffffffffffffff166391d14854600160009054906101000a900473ffffffffffffffffffffffffffffffffffffffff1673ffffffffffffffffffffffffffffffffffffffff1663d03f078b6040518163ffffffff1660e01b8152600401602060405180830381865afa15801561063c573d6000803e3d6000fd5b505050506040513d601f19601f8201168201806040525081019061066091906115a1565b336040518363ffffffff1660e01b815260040161067e9291906115dd565b602060405180830381865afa15801561069b573d6000803e3d6000fd5b505050506040513d601f19601f820116820180604052508101906106bf9190611373565b6106fe576040517f08c379a00000000000000000000000000000000000000000000000000000000081526004016106f590611652565b60405180910390fd5b80600260006101000a81548173ffffffffffffffffffffffffffffffffffffffff021916908373ffffffffffffffffffffffffffffffffffffffff16021790555050565b61074a610ca2565b600160009054906101000a900473ffffffffffffffffffffffffffffffffffffffff1673ffffffffffffffffffffffffffffffffffffffff166391d14854600160009054906101000a900473ffffffffffffffffffffffffffffffffffffffff1673ffffffffffffffffffffffffffffffffffffffff1663f5b541a66040518163ffffffff1660e01b8152600401602060405180830381865afa1580156107f5573d6000803e3d6000fd5b505050506040513d601f19601f8201168201806040525081019061081991906115a1565b336040518363ffffffff1660e01b81526004016108379291906115dd565b602060405180830381865afa158015610854573d6000803e3d6000fd5b505050506040513d601f19601f820116820180604052508101906108789190611373565b6108b7576040517f08c379a00000000000000000000000000000000000000000000000000000000081526004016108ae906116be565b60405180910390fd5b600081116108fa576040517f08c379a00000000000000000000000000000000000000000000000000000000081526004016108f190611285565b60405180910390fd5b600073ffffffffffffffffffffffffffffffffffffffff16600260009054906101000a900473ffffffffffffffffffffffffffffffffffffffff1673ffffffffffffffffffffffffffffffffffffffff160361098b576040517f08c379a0000000000000000000000000000000000000000000000000000000008152600401610982906112f1565b60405180910390fd5b600260009054906101000a900473ffffffffffffffffffffffffffffffffffffffff1673ffffffffffffffffffffffffffffffffffffffff1663240028e8836040518263ffffffff1660e01b81526004016109e69190611320565b602060405180830381865afa158015610a03573d6000803e3d6000fd5b505050506040513d601f19601f82011682018060405250810190610a279190611373565b610a66576040517f08c379a0000000000000000000000000000000000000000000000000000000008152600401610a5d906113ec565b60405180910390fd5b600073ffffffffffffffffffffffffffffffffffffffff168273ffffffffffffffffffffffffffffffffffffffff1614610b7957808273ffffffffffffffffffffffffffffffffffffffff166370a08231600260009054906101000a900473ffffffffffffffffffffffffffffffffffffffff166040518263ffffffff1660e01b8152600401610af69190611320565b602060405180830381865afa158015610b13573d6000803e3d6000fd5b505050506040513d601f19601f82011682018060405250810190610b3791906116f3565b1015610b78576040517f08c379a0000000000000000000000000000000000000000000000000000000008152600401610b6f9061176c565b60405180910390fd5b5b600260009054906101000a900473ffffffffffffffffffffffffffffffffffffffff1673ffffffffffffffffffffffffffffffffffffffff1663ba313e348484846040518463ffffffff1660e01b8152600401610bd893929190611487565b600060405180830381600087803b158015610bf257600080fd5b505af1158015610c06573d6000803e3d6000fd5b505050508173ffffffffffffffffffffffffffffffffffffffff168373ffffffffffffffffffffffffffffffffffffffff167f2717ead6b9200dd235aad468c9809ea400fe33ac69b5bfaa6d3e90fc922b639883604051610c679190611550565b60405180910390a3610c77610d7a565b505050565b600260009054906101000a900473ffffffffffffffffffffffffffffffffffffffff1681565b600260005403610ce7576040517f08c379a0000000000000000000000000000000000000000000000000000000008152600401610cde906117d8565b60405180910390fd5b6002600081905550565b610d74846323b872dd60e01b858585604051602401610d1293929190611487565b604051602081830303815290604052907bffffffffffffffffffffffffffffffffffffffffffffffffffffffff19166020820180517bffffffffffffffffffffffffffffffffffffffffffffffffffffffff8381831617835250505050610d84565b50505050565b6001600081905550565b6000610de6826040518060400160405280602081526020017f5361666545524332303a206c6f772d6c6576656c2063616c6c206661696c65648152508573ffffffffffffffffffffffffffffffffffffffff16610e4c9092919063ffffffff16565b9050600081511480610e08575080806020019051810190610e079190611373565b5b610e47576040517f08c379a0000000000000000000000000000000000000000000000000000000008152600401610e3e9061186a565b60405180910390fd5b505050565b6060610e5b8484600085610e64565b90509392505050565b606082471015610ea9576040517f08c379a0000000000000000000000000000000000000000000000000000000008152600401610ea0906118fc565b60405180910390fd5b6000808673ffffffffffffffffffffffffffffffffffffffff168587604051610ed2919061198d565b60006040518083038185875af1925050503d8060008114610f0f576040519150601f19603f3d011682016040523d82523d6000602084013e610f14565b606091505b5091509150610f2587838387610f31565b92505050949350505050565b60608315610f93576000835103610f8b57610f4b85610fa6565b610f8a576040517f08c379a0000000000000000000000000000000000000000000000000000000008152600401610f81906119f0565b60405180910390fd5b5b829050610f9e565b610f9d8383610fc9565b5b949350505050565b6000808273ffffffffffffffffffffffffffffffffffffffff163b119050919050565b600082511115610fdc5781518083602001fd5b806040517f08c379a00000000000000000000000000000000000000000000000000000000081526004016110109190611a65565b60405180910390fd5b600073ffffffffffffffffffffffffffffffffffffffff82169050919050565b6000819050919050565b600061105e61105961105484611019565b611039565b611019565b9050919050565b600061107082611043565b9050919050565b600061108282611065565b9050919050565b61109281611077565b82525050565b60006020820190506110ad6000830184611089565b92915050565b600080fd5b60006110c382611019565b9050919050565b6110d3816110b8565b81146110de57600080fd5b50565b6000813590506110f0816110ca565b92915050565b6000819050919050565b611109816110f6565b811461111457600080fd5b50565b60008135905061112681611100565b92915050565b60008060408385031215611143576111426110b3565b5b6000611151858286016110e1565b925050602061116285828601611117565b9150509250929050565b600060208284031215611182576111816110b3565b5b6000611190848285016110e1565b91505092915050565b6000806000606084860312156111b2576111b16110b3565b5b60006111c0868287016110e1565b93505060206111d1868287016110e1565b92505060406111e286828701611117565b9150509250925092565b60006111f782611065565b9050919050565b611207816111ec565b82525050565b600060208201905061122260008301846111fe565b92915050565b600082825260208201905092915050565b7f496e76616c696420616d6f756e74000000000000000000000000000000000000600082015250565b600061126f600e83611228565b915061127a82611239565b602082019050919050565b6000602082019050818103600083015261129e81611262565b9050919050565b7f5661756c74206e6f742073657400000000000000000000000000000000000000600082015250565b60006112db600d83611228565b91506112e6826112a5565b602082019050919050565b6000602082019050818103600083015261130a816112ce565b9050919050565b61131a816110b8565b82525050565b60006020820190506113356000830184611311565b92915050565b60008115159050919050565b6113508161133b565b811461135b57600080fd5b50565b60008151905061136d81611347565b92915050565b600060208284031215611389576113886110b3565b5b60006113978482850161135e565b91505092915050565b7f546f6b656e206e6f7420737570706f7274656400000000000000000000000000600082015250565b60006113d6601383611228565b91506113e1826113a0565b602082019050919050565b60006020820190508181036000830152611405816113c9565b9050919050565b7f496e636f72726563742045544820616d6f756e74000000000000000000000000600082015250565b6000611442601483611228565b915061144d8261140c565b602082019050919050565b6000602082019050818103600083015261147181611435565b9050919050565b611481816110f6565b82525050565b600060608201905061149c6000830186611311565b6114a96020830185611311565b6114b66040830184611478565b949350505050565b7f455448206e6f7420616c6c6f77656420666f72204552433230206465706f736960008201527f7400000000000000000000000000000000000000000000000000000000000000602082015250565b600061151a602183611228565b9150611525826114be565b604082019050919050565b600060208201905081810360008301526115498161150d565b9050919050565b60006020820190506115656000830184611478565b92915050565b6000819050919050565b61157e8161156b565b811461158957600080fd5b50565b60008151905061159b81611575565b92915050565b6000602082840312156115b7576115b66110b3565b5b60006115c58482850161158c565b91505092915050565b6115d78161156b565b82525050565b60006040820190506115f260008301856115ce565b6115ff6020830184611311565b9392505050565b7f4e6f742061646d696e0000000000000000000000000000000000000000000000600082015250565b600061163c600983611228565b915061164782611606565b602082019050919050565b6000602082019050818103600083015261166b8161162f565b9050919050565b7f4e6f74206f70657261746f720000000000000000000000000000000000000000600082015250565b60006116a8600c83611228565b91506116b382611672565b602082019050919050565b600060208201905081810360008301526116d78161169b565b9050919050565b6000815190506116ed81611100565b92915050565b600060208284031215611709576117086110b3565b5b6000611717848285016116de565b91505092915050565b7f496e73756666696369656e74205661756c742062616c616e6365000000000000600082015250565b6000611756601a83611228565b915061176182611720565b602082019050919050565b6000602082019050818103600083015261178581611749565b9050919050565b7f5265656e7472616e637947756172643a207265656e7472616e742063616c6c00600082015250565b60006117c2601f83611228565b91506117cd8261178c565b602082019050919050565b600060208201905081810360008301526117f1816117b5565b9050919050565b7f5361666545524332303a204552433230206f7065726174696f6e20646964206e60008201527f6f74207375636365656400000000000000000000000000000000000000000000602082015250565b6000611854602a83611228565b915061185f826117f8565b604082019050919050565b6000602082019050818103600083015261188381611847565b9050919050565b7f416464726573733a20696e73756666696369656e742062616c616e636520666f60008201527f722063616c6c0000000000000000000000000000000000000000000000000000602082015250565b60006118e6602683611228565b91506118f18261188a565b604082019050919050565b60006020820190508181036000830152611915816118d9565b9050919050565b600081519050919050565b600081905092915050565b60005b83811015611950578082015181840152602081019050611935565b60008484015250505050565b60006119678261191c565b6119718185611927565b9350611981818560208601611932565b80840191505092915050565b6000611999828461195c565b915081905092915050565b7f416464726573733a2063616c6c20746f206e6f6e2d636f6e7472616374000000600082015250565b60006119da601d83611228565b91506119e5826119a4565b602082019050919050565b60006020820190508181036000830152611a09816119cd565b9050919050565b600081519050919050565b6000601f19601f8301169050919050565b6000611a3782611a10565b611a418185611228565b9350611a51818560208601611932565b611a5a81611a1b565b840191505092915050565b60006020820190508181036000830152611a7f8184611a2c565b90509291505056fea264697066735822122011909206b2ae8775bf3ec30cc739f9c2d2e8812f2e99e2022a2013f115455c5264736f6c63430008130033","linkReferences":{}},"methodIdentifiers":{"deposit(address,uint256)":"47e7ef24","roleManager()":"00435da5","setVault(address)":"6817031b","vault()":"fbfa77cf","withdraw(address,address,uint256)":"d9caed12"},"id":3}