{"abi":[{"type":"constructor","inputs":[],"stateMutability":"nonpayable"},{"type":"function","name":"ADD_TOKEN","inputs":[],"outputs":[{"name":"","type":"bytes32","internalType":"bytes32"}],"stateMutability":"view"},{"type":"function","name":"RECOVER_FUNDS","inputs":[],"outputs":[{"name":"","type":"bytes32","internalType":"bytes32"}],"stateMutability":"view"},{"type":"function","name":"REMOVE_TOKEN","inputs":[],"outputs":[{"name":"","type":"bytes32","internalType":"bytes32"}],"stateMutability":"view"},{"type":"function","name":"SET_WALLETROUTER","inputs":[],"outputs":[{"name":"","type":"bytes32","internalType":"bytes32"}],"stateMutability":"view"},{"type":"function","name":"addSupportedToken","inputs":[{"name":"token","type":"address","internalType":"address"},{"name":"actionId","type":"bytes32","internalType":"bytes32"}],"outputs":[],"stateMutability":"nonpayable"},{"type":"function","name":"handleDeposit","inputs":[{"name":"user","type":"address","internalType":"address"},{"name":"token","type":"address","internalType":"address"},{"name":"amount","type":"uint256","internalType":"uint256"}],"outputs":[],"stateMutability":"payable"},{"type":"function","name":"handleWithdrawal","inputs":[{"name":"recipient","type":"address","internalType":"address"},{"name":"token","type":"address","internalType":"address"},{"name":"amount","type":"uint256","internalType":"uint256"}],"outputs":[],"stateMutability":"nonpayable"},{"type":"function","name":"initialize","inputs":[{"name":"_roleManager","type":"address","internalType":"address"},{"name":"_walletRouter","type":"address","internalType":"address"},{"name":"_timelock","type":"address","internalType":"address"}],"outputs":[],"stateMutability":"nonpayable"},{"type":"function","name":"isSupportedToken","inputs":[{"name":"token","type":"address","internalType":"address"}],"outputs":[{"name":"","type":"bool","internalType":"bool"}],"stateMutability":"view"},{"type":"function","name":"pause","inputs":[],"outputs":[],"stateMutability":"nonpayable"},{"type":"function","name":"paused","inputs":[],"outputs":[{"name":"","type":"bool","internalType":"bool"}],"stateMutability":"view"},{"type":"function","name":"proposeAddToken","inputs":[{"name":"token","type":"address","internalType":"address"}],"outputs":[],"stateMutability":"nonpayable"},{"type":"function","name":"proposeRecoverFunds","inputs":[{"name":"token","type":"address","internalType":"address"},{"name":"recipient","type":"address","internalType":"address"},{"name":"amount","type":"uint256","internalType":"uint256"}],"outputs":[],"stateMutability":"nonpayable"},{"type":"function","name":"proposeRemoveToken","inputs":[{"name":"token","type":"address","internalType":"address"}],"outputs":[],"stateMutability":"nonpayable"},{"type":"function","name":"proposeSetWalletRouter","inputs":[{"name":"_walletRouter","type":"address","internalType":"address"}],"outputs":[],"stateMutability":"nonpayable"},{"type":"function","name":"proxiableUUID","inputs":[],"outputs":[{"name":"","type":"bytes32","internalType":"bytes32"}],"stateMutability":"view"},{"type":"function","name":"recoverFunds","inputs":[{"name":"token","type":"address","internalType":"address"},{"name":"recipient","type":"address","internalType":"address"},{"name":"amount","type":"uint256","internalType":"uint256"},{"name":"actionId","type":"bytes32","internalType":"bytes32"}],"outputs":[],"stateMutability":"nonpayable"},{"type":"function","name":"removeSupportedToken","inputs":[{"name":"token","type":"address","internalType":"address"},{"name":"actionId","type":"bytes32","internalType":"bytes32"}],"outputs":[],"stateMutability":"nonpayable"},{"type":"function","name":"roleManager","inputs":[],"outputs":[{"name":"","type":"address","internalType":"contract IRoleManager"}],"stateMutability":"view"},{"type":"function","name":"setWalletRouter","inputs":[{"name":"_walletRouter","type":"address","internalType":"address"},{"name":"actionId","type":"bytes32","internalType":"bytes32"}],"outputs":[],"stateMutability":"nonpayable"},{"type":"function","name":"supportedTokens","inputs":[{"name":"","type":"address","internalType":"address"}],"outputs":[{"name":"","type":"bool","internalType":"bool"}],"stateMutability":"view"},{"type":"function","name":"timelock","inputs":[],"outputs":[{"name":"","type":"address","internalType":"contract ITimelock"}],"stateMutability":"view"},{"type":"function","name":"totalDeposits","inputs":[{"name":"","type":"address","internalType":"address"}],"outputs":[{"name":"","type":"uint256","internalType":"uint256"}],"stateMutability":"view"},{"type":"function","name":"unpause","inputs":[],"outputs":[],"stateMutability":"nonpayable"},{"type":"function","name":"upgradeTo","inputs":[{"name":"newImplementation","type":"address","internalType":"address"}],"outputs":[],"stateMutability":"nonpayable"},{"type":"function","name":"upgradeToAndCall","inputs":[{"name":"newImplementation","type":"address","internalType":"address"},{"name":"data","type":"bytes","internalType":"bytes"}],"outputs":[],"stateMutability":"payable"},{"type":"function","name":"walletRouter","inputs":[],"outputs":[{"name":"","type":"address","internalType":"address"}],"stateMutability":"view"},{"type":"event","name":"AdminChanged","inputs":[{"name":"previousAdmin","type":"address","indexed":false,"internalType":"address"},{"name":"newAdmin","type":"address","indexed":false,"internalType":"address"}],"anonymous":false},{"type":"event","name":"BeaconUpgraded","inputs":[{"name":"beacon","type":"address","indexed":true,"internalType":"address"}],"anonymous":false},{"type":"event","name":"DepositProcessed","inputs":[{"name":"user","type":"address","indexed":true,"internalType":"address"},{"name":"token","type":"address","indexed":true,"internalType":"address"},{"name":"amount","type":"uint256","indexed":false,"internalType":"uint256"}],"anonymous":false},{"type":"event","name":"FundsRecovered","inputs":[{"name":"token","type":"address","indexed":true,"internalType":"address"},{"name":"recipient","type":"address","indexed":true,"internalType":"address"},{"name":"amount","type":"uint256","indexed":false,"internalType":"uint256"}],"anonymous":false},{"type":"event","name":"Initialized","inputs":[{"name":"version","type":"uint8","indexed":false,"internalType":"uint8"}],"anonymous":false},{"type":"event","name":"Paused","inputs":[{"name":"account","type":"address","indexed":false,"internalType":"address"}],"anonymous":false},{"type":"event","name":"TokenSupportAdded","inputs":[{"name":"token","type":"address","indexed":true,"internalType":"address"}],"anonymous":false},{"type":"event","name":"TokenSupportRemoved","inputs":[{"name":"token","type":"address","indexed":true,"internalType":"address"}],"anonymous":false},{"type":"event","name":"Unpaused","inputs":[{"name":"account","type":"address","indexed":false,"internalType":"address"}],"anonymous":false},{"type":"event","name":"Upgraded","inputs":[{"name":"implementation","type":"address","indexed":true,"internalType":"address"}],"anonymous":false},{"type":"event","name":"WalletRouterSet","inputs":[{"name":"walletRouter","type":"address","indexed":true,"internalType":"address"}],"anonymous":false},{"type":"event","name":"WithdrawalProcessed","inputs":[{"name":"recipient","type":"address","indexed":true,"internalType":"address"},{"name":"token","type":"address","indexed":true,"internalType":"address"},{"name":"amount","type":"uint256","indexed":false,"internalType":"uint256"}],"anonymous":false}],"bytecode":{"object":"0x60a06040523073ffffffffffffffffffffffffffffffffffffffff1660809073ffffffffffffffffffffffffffffffffffffffff168152503480156200004457600080fd5b5060008060019054906101000a900460ff16159050808015620000775750600160008054906101000a900460ff1660ff16105b80620000ae57506200008f306200019160201b60201c565b158015620000ad5750600160008054906101000a900460ff1660ff16145b5b620000f0576040517f08c379a0000000000000000000000000000000000000000000000000000000008152600401620000e7906200023b565b60405180910390fd5b60016000806101000a81548160ff021916908360ff16021790555080156200012e576001600060016101000a81548160ff0219169083151502179055505b80156200018a5760008060016101000a81548160ff0219169083151502179055507f7f26b83ff96e1f2b6a682f133852f6798a09c465da95921460cefb38474024986001604051620001819190620002b7565b60405180910390a15b50620002d4565b6000808273ffffffffffffffffffffffffffffffffffffffff163b119050919050565b600082825260208201905092915050565b7f496e697469616c697a61626c653a20636f6e747261637420697320616c72656160008201527f647920696e697469616c697a6564000000000000000000000000000000000000602082015250565b600062000223602e83620001b4565b91506200023082620001c5565b604082019050919050565b60006020820190508181036000830152620002568162000214565b9050919050565b6000819050919050565b600060ff82169050919050565b6000819050919050565b60006200029f6200029962000293846200025d565b62000274565b62000267565b9050919050565b620002b1816200027e565b82525050565b6000602082019050620002ce6000830184620002a6565b92915050565b608051615bf56200030c6000396000818161096e015281816109fc015281816110b00152818161113e01526114db0152615bf56000f3fe60806040526004361061019b5760003560e01c806380d02816116100ec578063c0c53b8b1161008a578063e940325611610064578063e940325614610549578063ea84f07014610586578063f6aea45c146105b1578063f6e67d37146105da5761019b565b8063c0c53b8b146104ca578063c41d769c146104f3578063d33219b41461051e5761019b565b80638e767a73116100c65780638e767a7314610431578063b3664c751461045a578063ba313e3414610485578063bdc631d4146104ae5761019b565b806380d02816146103c657806380e03c58146103f15780638456cb591461041a5761019b565b80634d9710dd1161015957806352d1902d1161013357806352d1902d1461030a5780635c975abb1461033557806368c4ac261461036057806377a9b4041461039d5761019b565b80634d9710dd1461029a5780634f1ef286146102c55780634f42f9a1146102e15761019b565b8062435da5146101a0578063240028e8146101cb5780633121e20e146102085780633659cfe6146102315780633f4ba83a1461025a5780634119f9fb14610271575b600080fd5b3480156101ac57600080fd5b506101b5610603565b6040516101c2919061402d565b60405180910390f35b3480156101d757600080fd5b506101f260048036038101906101ed919061409a565b610629565b6040516101ff91906140e2565b60405180910390f35b34801561021457600080fd5b5061022f600480360381019061022a9190614133565b61067f565b005b34801561023d57600080fd5b506102586004803603810190610253919061409a565b61096c565b005b34801561026657600080fd5b5061026f610af4565b005b34801561027d57600080fd5b50610298600480360381019061029391906141a9565b610c6b565b005b3480156102a657600080fd5b506102af61108a565b6040516102bc919061421f565b60405180910390f35b6102df60048036038101906102da9190614380565b6110ae565b005b3480156102ed57600080fd5b5061030860048036038101906103039190614133565b6111ea565b005b34801561031657600080fd5b5061031f6114d7565b60405161032c919061421f565b60405180910390f35b34801561034157600080fd5b5061034a611590565b60405161035791906140e2565b60405180910390f35b34801561036c57600080fd5b506103876004803603810190610382919061409a565b6115a7565b60405161039491906140e2565b60405180910390f35b3480156103a957600080fd5b506103c460048036038101906103bf919061409a565b6115c7565b005b3480156103d257600080fd5b506103db611857565b6040516103e8919061421f565b60405180910390f35b3480156103fd57600080fd5b50610418600480360381019061041391906143dc565b61187b565b005b34801561042657600080fd5b5061042f611b11565b005b34801561043d57600080fd5b506104586004803603810190610453919061409a565b611c88565b005b34801561046657600080fd5b5061046f6120f0565b60405161047c919061443e565b60405180910390f35b34801561049157600080fd5b506104ac60048036038101906104a791906143dc565b612116565b005b6104c860048036038101906104c391906143dc565b61250b565b005b3480156104d657600080fd5b506104f160048036038101906104ec9190614459565b6127b0565b005b3480156104ff57600080fd5b50610508612bf5565b604051610515919061421f565b60405180910390f35b34801561052a57600080fd5b50610533612c19565b60405161054091906144cd565b60405180910390f35b34801561055557600080fd5b50610570600480360381019061056b919061409a565b612c3f565b60405161057d91906144f7565b60405180910390f35b34801561059257600080fd5b5061059b612c57565b6040516105a8919061421f565b60405180910390f35b3480156105bd57600080fd5b506105d860048036038101906105d39190614133565b612c7b565b005b3480156105e657600080fd5b5061060160048036038101906105fc919061409a565b612f51565b005b60fb60009054906101000a900473ffffffffffffffffffffffffffffffffffffffff1681565b600060fe60008373ffffffffffffffffffffffffffffffffffffffff1673ffffffffffffffffffffffffffffffffffffffff16815260200190815260200160002060009054906101000a900460ff169050919050565b60fb60009054906101000a900473ffffffffffffffffffffffffffffffffffffffff1673ffffffffffffffffffffffffffffffffffffffff166391d1485460fb60009054906101000a900473ffffffffffffffffffffffffffffffffffffffff1673ffffffffffffffffffffffffffffffffffffffff16639e3411196040518163ffffffff1660e01b8152600401602060405180830381865afa15801561072a573d6000803e3d6000fd5b505050506040513d601f19601f8201168201806040525081019061074e9190614527565b336040518363ffffffff1660e01b815260040161076c929190614554565b602060405180830381865afa158015610789573d6000803e3d6000fd5b505050506040513d601f19601f820116820180604052508101906107ad91906145a9565b6107ec576040517f08c379a00000000000000000000000000000000000000000000000000000000081526004016107e390614633565b60405180910390fd5b60fc60009054906101000a900473ffffffffffffffffffffffffffffffffffffffff1673ffffffffffffffffffffffffffffffffffffffff1663a7ce7c298284336040518463ffffffff1660e01b815260040161084b93929190614653565b6020604051808303816000875af115801561086a573d6000803e3d6000fd5b505050506040513d601f19601f8201168201806040525081019061088e91906145a9565b6108cd576040517f08c379a00000000000000000000000000000000000000000000000000000000081526004016108c4906146d6565b60405180910390fd5b600060fe60008473ffffffffffffffffffffffffffffffffffffffff1673ffffffffffffffffffffffffffffffffffffffff16815260200190815260200160002060006101000a81548160ff0219169083151502179055508173ffffffffffffffffffffffffffffffffffffffff167f1cef54ca6e1745ad87fa3077491d9fc42257e9f1a2d7cad58a4e52bd14dfc62660405160405180910390a25050565b7f000000000000000000000000000000000000000000000000000000000000000073ffffffffffffffffffffffffffffffffffffffff163073ffffffffffffffffffffffffffffffffffffffff16036109fa576040517f08c379a00000000000000000000000000000000000000000000000000000000081526004016109f190614768565b60405180910390fd5b7f000000000000000000000000000000000000000000000000000000000000000073ffffffffffffffffffffffffffffffffffffffff16610a3961327c565b73ffffffffffffffffffffffffffffffffffffffff1614610a8f576040517f08c379a0000000000000000000000000000000000000000000000000000000008152600401610a86906147fa565b60405180910390fd5b610a98816132d3565b610af181600067ffffffffffffffff811115610ab757610ab6614255565b5b6040519080825280601f01601f191660200182016040528015610ae95781602001600182028036833780820191505090505b5060006134fa565b50565b60fb60009054906101000a900473ffffffffffffffffffffffffffffffffffffffff1673ffffffffffffffffffffffffffffffffffffffff166391d1485460fb60009054906101000a900473ffffffffffffffffffffffffffffffffffffffff1673ffffffffffffffffffffffffffffffffffffffff16639e3411196040518163ffffffff1660e01b8152600401602060405180830381865afa158015610b9f573d6000803e3d6000fd5b505050506040513d601f19601f82011682018060405250810190610bc39190614527565b336040518363ffffffff1660e01b8152600401610be1929190614554565b602060405180830381865afa158015610bfe573d6000803e3d6000fd5b505050506040513d601f19601f82011682018060405250810190610c2291906145a9565b610c61576040517f08c379a0000000000000000000000000000000000000000000000000000000008152600401610c5890614633565b60405180910390fd5b610c69613668565b565b60fb60009054906101000a900473ffffffffffffffffffffffffffffffffffffffff1673ffffffffffffffffffffffffffffffffffffffff166391d1485460fb60009054906101000a900473ffffffffffffffffffffffffffffffffffffffff1673ffffffffffffffffffffffffffffffffffffffff16639e3411196040518163ffffffff1660e01b8152600401602060405180830381865afa158015610d16573d6000803e3d6000fd5b505050506040513d601f19601f82011682018060405250810190610d3a9190614527565b336040518363ffffffff1660e01b8152600401610d58929190614554565b602060405180830381865afa158015610d75573d6000803e3d6000fd5b505050506040513d601f19601f82011682018060405250810190610d9991906145a9565b610dd8576040517f08c379a0000000000000000000000000000000000000000000000000000000008152600401610dcf90614633565b60405180910390fd5b60fc60009054906101000a900473ffffffffffffffffffffffffffffffffffffffff1673ffffffffffffffffffffffffffffffffffffffff1663ad8bd25a8286336040518463ffffffff1660e01b8152600401610e3793929190614653565b6020604051808303816000875af1158015610e56573d6000803e3d6000fd5b505050506040513d601f19601f82011682018060405250810190610e7a91906145a9565b610eb9576040517f08c379a0000000000000000000000000000000000000000000000000000000008152600401610eb090614866565b60405180910390fd5b8160ff60008673ffffffffffffffffffffffffffffffffffffffff1673ffffffffffffffffffffffffffffffffffffffff168152602001908152602001600020541015610f3b576040517f08c379a0000000000000000000000000000000000000000000000000000000008152600401610f32906148d2565b60405180910390fd5b8160ff60008673ffffffffffffffffffffffffffffffffffffffff1673ffffffffffffffffffffffffffffffffffffffff1681526020019081526020016000206000828254610f8a9190614921565b92505081905550600073ffffffffffffffffffffffffffffffffffffffff168473ffffffffffffffffffffffffffffffffffffffff1603610ff357610fee828473ffffffffffffffffffffffffffffffffffffffff166136cb90919063ffffffff16565b61101f565b61101e83838673ffffffffffffffffffffffffffffffffffffffff166137bf9092919063ffffffff16565b5b8273ffffffffffffffffffffffffffffffffffffffff168473ffffffffffffffffffffffffffffffffffffffff167f13e06184555481b6d2cb327155e8d2e1d0b1f0252a7fe6621e32cf99881488358460405161107c91906144f7565b60405180910390a350505050565b7febfe40e1a907df098b25552533043ed6632f34e704c7c0a934075ee697b8a3be81565b7f000000000000000000000000000000000000000000000000000000000000000073ffffffffffffffffffffffffffffffffffffffff163073ffffffffffffffffffffffffffffffffffffffff160361113c576040517f08c379a000000000000000000000000000000000000000000000000000000000815260040161113390614768565b60405180910390fd5b7f000000000000000000000000000000000000000000000000000000000000000073ffffffffffffffffffffffffffffffffffffffff1661117b61327c565b73ffffffffffffffffffffffffffffffffffffffff16146111d1576040517f08c379a00000000000000000000000000000000000000000000000000000000081526004016111c8906147fa565b60405180910390fd5b6111da826132d3565b6111e6828260016134fa565b5050565b60fb60009054906101000a900473ffffffffffffffffffffffffffffffffffffffff1673ffffffffffffffffffffffffffffffffffffffff166391d1485460fb60009054906101000a900473ffffffffffffffffffffffffffffffffffffffff1673ffffffffffffffffffffffffffffffffffffffff16639e3411196040518163ffffffff1660e01b8152600401602060405180830381865afa158015611295573d6000803e3d6000fd5b505050506040513d601f19601f820116820180604052508101906112b99190614527565b336040518363ffffffff1660e01b81526004016112d7929190614554565b602060405180830381865afa1580156112f4573d6000803e3d6000fd5b505050506040513d601f19601f8201168201806040525081019061131891906145a9565b611357576040517f08c379a000000000000000000000000000000000000000000000000000000000815260040161134e90614633565b60405180910390fd5b60fc60009054906101000a900473ffffffffffffffffffffffffffffffffffffffff1673ffffffffffffffffffffffffffffffffffffffff166387a734de8284336040518463ffffffff1660e01b81526004016113b693929190614653565b6020604051808303816000875af11580156113d5573d6000803e3d6000fd5b505050506040513d601f19601f820116820180604052508101906113f991906145a9565b611438576040517f08c379a000000000000000000000000000000000000000000000000000000000815260040161142f906149a1565b60405180910390fd5b600160fe60008473ffffffffffffffffffffffffffffffffffffffff1673ffffffffffffffffffffffffffffffffffffffff16815260200190815260200160002060006101000a81548160ff0219169083151502179055508173ffffffffffffffffffffffffffffffffffffffff167f8f50fda9bf5d3b403c53b7e91646abd507f8cebf2577655d55d7de3926168b1760405160405180910390a25050565b60007f000000000000000000000000000000000000000000000000000000000000000073ffffffffffffffffffffffffffffffffffffffff163073ffffffffffffffffffffffffffffffffffffffff1614611567576040517f08c379a000000000000000000000000000000000000000000000000000000000815260040161155e90614a33565b60405180910390fd5b7f360894a13ba1a3210667c828492db98dca3e2076cc3735a920a3ca505d382bbc60001b905090565b600060c960009054906101000a900460ff16905090565b60fe6020528060005260406000206000915054906101000a900460ff1681565b60fb60009054906101000a900473ffffffffffffffffffffffffffffffffffffffff1673ffffffffffffffffffffffffffffffffffffffff166391d1485460fb60009054906101000a900473ffffffffffffffffffffffffffffffffffffffff1673ffffffffffffffffffffffffffffffffffffffff16639e3411196040518163ffffffff1660e01b8152600401602060405180830381865afa158015611672573d6000803e3d6000fd5b505050506040513d601f19601f820116820180604052508101906116969190614527565b336040518363ffffffff1660e01b81526004016116b4929190614554565b602060405180830381865afa1580156116d1573d6000803e3d6000fd5b505050506040513d601f19601f820116820180604052508101906116f591906145a9565b611734576040517f08c379a000000000000000000000000000000000000000000000000000000000815260040161172b90614633565b60405180910390fd5b600073ffffffffffffffffffffffffffffffffffffffff168173ffffffffffffffffffffffffffffffffffffffff16036117a3576040517f08c379a000000000000000000000000000000000000000000000000000000000815260040161179a90614a9f565b60405180910390fd5b60fc60009054906101000a900473ffffffffffffffffffffffffffffffffffffffff1673ffffffffffffffffffffffffffffffffffffffff1663433d26dd827febfe40e1a907df098b25552533043ed6632f34e704c7c0a934075ee697b8a3be336040518463ffffffff1660e01b815260040161182293929190614abf565b600060405180830381600087803b15801561183c57600080fd5b505af1158015611850573d6000803e3d6000fd5b5050505050565b7f20fdf5e0231b01bbf4a13cac8ebdc15bc3cac177cb34c02a16b7fc0fea7cc6a081565b60fb60009054906101000a900473ffffffffffffffffffffffffffffffffffffffff1673ffffffffffffffffffffffffffffffffffffffff166391d1485460fb60009054906101000a900473ffffffffffffffffffffffffffffffffffffffff1673ffffffffffffffffffffffffffffffffffffffff16639e3411196040518163ffffffff1660e01b8152600401602060405180830381865afa158015611926573d6000803e3d6000fd5b505050506040513d601f19601f8201168201806040525081019061194a9190614527565b336040518363ffffffff1660e01b8152600401611968929190614554565b602060405180830381865afa158015611985573d6000803e3d6000fd5b505050506040513d601f19601f820116820180604052508101906119a991906145a9565b6119e8576040517f08c379a00000000000000000000000000000000000000000000000000000000081526004016119df90614633565b60405180910390fd5b600073ffffffffffffffffffffffffffffffffffffffff168273ffffffffffffffffffffffffffffffffffffffff1603611a57576040517f08c379a0000000000000000000000000000000000000000000000000000000008152600401611a4e90614b42565b60405180910390fd5b60fc60009054906101000a900473ffffffffffffffffffffffffffffffffffffffff1673ffffffffffffffffffffffffffffffffffffffff166339cdeb058484847f20fdf5e0231b01bbf4a13cac8ebdc15bc3cac177cb34c02a16b7fc0fea7cc6a0336040518663ffffffff1660e01b8152600401611ada959493929190614b62565b600060405180830381600087803b158015611af457600080fd5b505af1158015611b08573d6000803e3d6000fd5b50505050505050565b60fb60009054906101000a900473ffffffffffffffffffffffffffffffffffffffff1673ffffffffffffffffffffffffffffffffffffffff166391d1485460fb60009054906101000a900473ffffffffffffffffffffffffffffffffffffffff1673ffffffffffffffffffffffffffffffffffffffff16639e3411196040518163ffffffff1660e01b8152600401602060405180830381865afa158015611bbc573d6000803e3d6000fd5b505050506040513d601f19601f82011682018060405250810190611be09190614527565b336040518363ffffffff1660e01b8152600401611bfe929190614554565b602060405180830381865afa158015611c1b573d6000803e3d6000fd5b505050506040513d601f19601f82011682018060405250810190611c3f91906145a9565b611c7e576040517f08c379a0000000000000000000000000000000000000000000000000000000008152600401611c7590614633565b60405180910390fd5b611c86613845565b565b60fb60009054906101000a900473ffffffffffffffffffffffffffffffffffffffff1673ffffffffffffffffffffffffffffffffffffffff166391d1485460fb60009054906101000a900473ffffffffffffffffffffffffffffffffffffffff1673ffffffffffffffffffffffffffffffffffffffff16639e3411196040518163ffffffff1660e01b8152600401602060405180830381865afa158015611d33573d6000803e3d6000fd5b505050506040513d601f19601f82011682018060405250810190611d579190614527565b336040518363ffffffff1660e01b8152600401611d75929190614554565b602060405180830381865afa158015611d92573d6000803e3d6000fd5b505050506040513d601f19601f82011682018060405250810190611db691906145a9565b611df5576040517f08c379a0000000000000000000000000000000000000000000000000000000008152600401611dec90614633565b60405180910390fd5b60fe60008273ffffffffffffffffffffffffffffffffffffffff1673ffffffffffffffffffffffffffffffffffffffff16815260200190815260200160002060009054906101000a900460ff16611e81576040517f08c379a0000000000000000000000000000000000000000000000000000000008152600401611e7890614c01565b60405180910390fd5b600060ff60008373ffffffffffffffffffffffffffffffffffffffff1673ffffffffffffffffffffffffffffffffffffffff1681526020019081526020016000205414611f03576040517f08c379a0000000000000000000000000000000000000000000000000000000008152600401611efa90614c93565b60405180910390fd5b600073ffffffffffffffffffffffffffffffffffffffff168173ffffffffffffffffffffffffffffffffffffffff1603611f7f5760004714611f7a576040517f08c379a0000000000000000000000000000000000000000000000000000000008152600401611f7190614cff565b60405180910390fd5b61203c565b60008173ffffffffffffffffffffffffffffffffffffffff166370a08231306040518263ffffffff1660e01b8152600401611fba919061443e565b602060405180830381865afa158015611fd7573d6000803e3d6000fd5b505050506040513d601f19601f82011682018060405250810190611ffb9190614d34565b1461203b576040517f08c379a000000000000000000000000000000000000000000000000000000000815260040161203290614dad565b60405180910390fd5b5b60fc60009054906101000a900473ffffffffffffffffffffffffffffffffffffffff1673ffffffffffffffffffffffffffffffffffffffff16630acc1803827fb994753143c8029d9b198ba23b79e05836ed9b7e265aa18a9b67aa5353691b19336040518463ffffffff1660e01b81526004016120bb93929190614abf565b600060405180830381600087803b1580156120d557600080fd5b505af11580156120e9573d6000803e3d6000fd5b5050505050565b60fd60009054906101000a900473ffffffffffffffffffffffffffffffffffffffff1681565b60fd60009054906101000a900473ffffffffffffffffffffffffffffffffffffffff1673ffffffffffffffffffffffffffffffffffffffff163373ffffffffffffffffffffffffffffffffffffffff16146121a6576040517f08c379a000000000000000000000000000000000000000000000000000000000815260040161219d90614e19565b60405180910390fd5b8160fe60008273ffffffffffffffffffffffffffffffffffffffff1673ffffffffffffffffffffffffffffffffffffffff16815260200190815260200160002060009054906101000a900460ff16612233576040517f08c379a000000000000000000000000000000000000000000000000000000000815260040161222a90614c01565b60405180910390fd5b61223b6138a8565b8160ff60008573ffffffffffffffffffffffffffffffffffffffff1673ffffffffffffffffffffffffffffffffffffffff1681526020019081526020016000205410156122bd576040517f08c379a00000000000000000000000000000000000000000000000000000000081526004016122b4906148d2565b60405180910390fd5b600073ffffffffffffffffffffffffffffffffffffffff168373ffffffffffffffffffffffffffffffffffffffff16036123625781471015612334576040517f08c379a000000000000000000000000000000000000000000000000000000000815260040161232b90614e85565b60405180910390fd5b61235d828573ffffffffffffffffffffffffffffffffffffffff166136cb90919063ffffffff16565b61244a565b818373ffffffffffffffffffffffffffffffffffffffff166370a08231306040518263ffffffff1660e01b815260040161239c919061443e565b602060405180830381865afa1580156123b9573d6000803e3d6000fd5b505050506040513d601f19601f820116820180604052508101906123dd9190614d34565b101561241e576040517f08c379a000000000000000000000000000000000000000000000000000000000815260040161241590614ef1565b60405180910390fd5b61244984838573ffffffffffffffffffffffffffffffffffffffff166137bf9092919063ffffffff16565b5b8160ff60008573ffffffffffffffffffffffffffffffffffffffff1673ffffffffffffffffffffffffffffffffffffffff16815260200190815260200160002060008282546124999190614921565b925050819055508273ffffffffffffffffffffffffffffffffffffffff168473ffffffffffffffffffffffffffffffffffffffff167fcd1fce47d5ad89dd70b04c75bd6bdb8114d4d4ff7b4393f9fb5937e733ba9582846040516124fd91906144f7565b60405180910390a350505050565b60fd60009054906101000a900473ffffffffffffffffffffffffffffffffffffffff1673ffffffffffffffffffffffffffffffffffffffff163373ffffffffffffffffffffffffffffffffffffffff161461259b576040517f08c379a000000000000000000000000000000000000000000000000000000000815260040161259290614e19565b60405180910390fd5b8160fe60008273ffffffffffffffffffffffffffffffffffffffff1673ffffffffffffffffffffffffffffffffffffffff16815260200190815260200160002060009054906101000a900460ff16612628576040517f08c379a000000000000000000000000000000000000000000000000000000000815260040161261f90614c01565b60405180910390fd5b6126306138a8565b600073ffffffffffffffffffffffffffffffffffffffff168373ffffffffffffffffffffffffffffffffffffffff16036126ab578134146126a6576040517f08c379a000000000000000000000000000000000000000000000000000000000815260040161269d90614f5d565b60405180910390fd5b6126ef565b600034146126ee576040517f08c379a00000000000000000000000000000000000000000000000000000000081526004016126e590614fef565b60405180910390fd5b5b8160ff60008573ffffffffffffffffffffffffffffffffffffffff1673ffffffffffffffffffffffffffffffffffffffff168152602001908152602001600020600082825461273e919061500f565b925050819055508273ffffffffffffffffffffffffffffffffffffffff168473ffffffffffffffffffffffffffffffffffffffff167f2cafaae37c2ab1f0e3f264b9a50cad356ccf3bec7627998815a33e2b7e649a53846040516127a291906144f7565b60405180910390a350505050565b60008060019054906101000a900460ff161590508080156127e15750600160008054906101000a900460ff1660ff16105b8061280e57506127f0306138f2565b15801561280d5750600160008054906101000a900460ff1660ff16145b5b61284d576040517f08c379a0000000000000000000000000000000000000000000000000000000008152600401612844906150b5565b60405180910390fd5b60016000806101000a81548160ff021916908360ff160217905550801561288a576001600060016101000a81548160ff0219169083151502179055505b612892613915565b61289a613966565b6128a26139bf565b600073ffffffffffffffffffffffffffffffffffffffff168473ffffffffffffffffffffffffffffffffffffffff1603612911576040517f08c379a000000000000000000000000000000000000000000000000000000000815260040161290890615121565b60405180910390fd5b600073ffffffffffffffffffffffffffffffffffffffff168373ffffffffffffffffffffffffffffffffffffffff1603612980576040517f08c379a000000000000000000000000000000000000000000000000000000000815260040161297790614a9f565b60405180910390fd5b600073ffffffffffffffffffffffffffffffffffffffff168273ffffffffffffffffffffffffffffffffffffffff16036129ef576040517f08c379a00000000000000000000000000000000000000000000000000000000081526004016129e69061518d565b60405180910390fd5b6129f883613a18565b612a37576040517f08c379a0000000000000000000000000000000000000000000000000000000008152600401612a2e906151f9565b60405180910390fd5b8360fb60006101000a81548173ffffffffffffffffffffffffffffffffffffffff021916908373ffffffffffffffffffffffffffffffffffffffff1602179055508160fc60006101000a81548173ffffffffffffffffffffffffffffffffffffffff021916908373ffffffffffffffffffffffffffffffffffffffff1602179055508260fd60006101000a81548173ffffffffffffffffffffffffffffffffffffffff021916908373ffffffffffffffffffffffffffffffffffffffff160217905550600160fe60008073ffffffffffffffffffffffffffffffffffffffff1673ffffffffffffffffffffffffffffffffffffffff16815260200190815260200160002060006101000a81548160ff021916908315150217905550600073ffffffffffffffffffffffffffffffffffffffff167f8f50fda9bf5d3b403c53b7e91646abd507f8cebf2577655d55d7de3926168b1760405160405180910390a28015612bef5760008060016101000a81548160ff0219169083151502179055507f7f26b83ff96e1f2b6a682f133852f6798a09c465da95921460cefb38474024986001604051612be69190615261565b60405180910390a15b50505050565b7f49b13fac0a8a9948bb3fc07926cff2d8a962e5ef68d7bacd7c2ae44cde35c69481565b60fc60009054906101000a900473ffffffffffffffffffffffffffffffffffffffff1681565b60ff6020528060005260406000206000915090505481565b7fb994753143c8029d9b198ba23b79e05836ed9b7e265aa18a9b67aa5353691b1981565b60fb60009054906101000a900473ffffffffffffffffffffffffffffffffffffffff1673ffffffffffffffffffffffffffffffffffffffff166391d1485460fb60009054906101000a900473ffffffffffffffffffffffffffffffffffffffff1673ffffffffffffffffffffffffffffffffffffffff16639e3411196040518163ffffffff1660e01b8152600401602060405180830381865afa158015612d26573d6000803e3d6000fd5b505050506040513d601f19601f82011682018060405250810190612d4a9190614527565b336040518363ffffffff1660e01b8152600401612d68929190614554565b602060405180830381865afa158015612d85573d6000803e3d6000fd5b505050506040513d601f19601f82011682018060405250810190612da991906145a9565b612de8576040517f08c379a0000000000000000000000000000000000000000000000000000000008152600401612ddf90614633565b60405180910390fd5b60fc60009054906101000a900473ffffffffffffffffffffffffffffffffffffffff1673ffffffffffffffffffffffffffffffffffffffff1663642e4dfb8284336040518463ffffffff1660e01b8152600401612e4793929190614653565b6020604051808303816000875af1158015612e66573d6000803e3d6000fd5b505050506040513d601f19601f82011682018060405250810190612e8a91906145a9565b612ec9576040517f08c379a0000000000000000000000000000000000000000000000000000000008152600401612ec0906152c8565b60405180910390fd5b8160fd60006101000a81548173ffffffffffffffffffffffffffffffffffffffff021916908373ffffffffffffffffffffffffffffffffffffffff1602179055508173ffffffffffffffffffffffffffffffffffffffff167fd587147607038c178465c452edf2001d68e3091dc060f73a4e8b1a0e36682c0160405160405180910390a25050565b60fb60009054906101000a900473ffffffffffffffffffffffffffffffffffffffff1673ffffffffffffffffffffffffffffffffffffffff166391d1485460fb60009054906101000a900473ffffffffffffffffffffffffffffffffffffffff1673ffffffffffffffffffffffffffffffffffffffff16639e3411196040518163ffffffff1660e01b8152600401602060405180830381865afa158015612ffc573d6000803e3d6000fd5b505050506040513d601f19601f820116820180604052508101906130209190614527565b336040518363ffffffff1660e01b815260040161303e929190614554565b602060405180830381865afa15801561305b573d6000803e3d6000fd5b505050506040513d601f19601f8201168201806040525081019061307f91906145a9565b6130be576040517f08c379a00000000000000000000000000000000000000000000000000000000081526004016130b590614633565b60405180910390fd5b60fe60008273ffffffffffffffffffffffffffffffffffffffff1673ffffffffffffffffffffffffffffffffffffffff16815260200190815260200160002060009054906101000a900460ff161561314b576040517f08c379a000000000000000000000000000000000000000000000000000000000815260040161314290615334565b60405180910390fd5b600073ffffffffffffffffffffffffffffffffffffffff168173ffffffffffffffffffffffffffffffffffffffff16146131c85761318881613a18565b6131c7576040517f08c379a00000000000000000000000000000000000000000000000000000000081526004016131be906153a0565b60405180910390fd5b5b60fc60009054906101000a900473ffffffffffffffffffffffffffffffffffffffff1673ffffffffffffffffffffffffffffffffffffffff1663c7d3eeef827f49b13fac0a8a9948bb3fc07926cff2d8a962e5ef68d7bacd7c2ae44cde35c694336040518463ffffffff1660e01b815260040161324793929190614abf565b600060405180830381600087803b15801561326157600080fd5b505af1158015613275573d6000803e3d6000fd5b5050505050565b60006132aa7f360894a13ba1a3210667c828492db98dca3e2076cc3735a920a3ca505d382bbc60001b613a2b565b60000160009054906101000a900473ffffffffffffffffffffffffffffffffffffffff16905090565b60fb60009054906101000a900473ffffffffffffffffffffffffffffffffffffffff1673ffffffffffffffffffffffffffffffffffffffff166391d1485460fb60009054906101000a900473ffffffffffffffffffffffffffffffffffffffff1673ffffffffffffffffffffffffffffffffffffffff16639e3411196040518163ffffffff1660e01b8152600401602060405180830381865afa15801561337e573d6000803e3d6000fd5b505050506040513d601f19601f820116820180604052508101906133a29190614527565b336040518363ffffffff1660e01b81526004016133c0929190614554565b602060405180830381865afa1580156133dd573d6000803e3d6000fd5b505050506040513d601f19601f8201168201806040525081019061340191906145a9565b613440576040517f08c379a000000000000000000000000000000000000000000000000000000000815260040161343790614633565b60405180910390fd5b600073ffffffffffffffffffffffffffffffffffffffff168173ffffffffffffffffffffffffffffffffffffffff16036134af576040517f08c379a00000000000000000000000000000000000000000000000000000000081526004016134a69061540c565b60405180910390fd5b6134b881613a18565b6134f7576040517f08c379a00000000000000000000000000000000000000000000000000000000081526004016134ee90615478565b60405180910390fd5b50565b6135267f4910fdfa16fed3260ed0e7147f7cc6da11a60208b5b9406d12a635614ffd914360001b613a35565b60000160009054906101000a900460ff161561354a5761354583613a3f565b613663565b8273ffffffffffffffffffffffffffffffffffffffff166352d1902d6040518163ffffffff1660e01b8152600401602060405180830381865afa9250505080156135b257506040513d601f19601f820116820180604052508101906135af9190614527565b60015b6135f1576040517f08c379a00000000000000000000000000000000000000000000000000000000081526004016135e89061550a565b60405180910390fd5b7f360894a13ba1a3210667c828492db98dca3e2076cc3735a920a3ca505d382bbc60001b8114613656576040517f08c379a000000000000000000000000000000000000000000000000000000000815260040161364d9061559c565b60405180910390fd5b50613662838383613af8565b5b505050565b613670613b24565b600060c960006101000a81548160ff0219169083151502179055507f5db9ee0a495bf2e6ff9c91a7834c1ba4fdd244a5e8aa4e537bd38aeae4b073aa6136b4613b6d565b6040516136c1919061443e565b60405180910390a1565b8047101561370e576040517f08c379a000000000000000000000000000000000000000000000000000000000815260040161370590615608565b60405180910390fd5b60008273ffffffffffffffffffffffffffffffffffffffff168260405161373490615659565b60006040518083038185875af1925050503d8060008114613771576040519150601f19603f3d011682016040523d82523d6000602084013e613776565b606091505b50509050806137ba576040517f08c379a00000000000000000000000000000000000000000000000000000000081526004016137b1906156e0565b60405180910390fd5b505050565b6138408363a9059cbb60e01b84846040516024016137de929190615700565b604051602081830303815290604052907bffffffffffffffffffffffffffffffffffffffffffffffffffffffff19166020820180517bffffffffffffffffffffffffffffffffffffffffffffffffffffffff8381831617835250505050613b75565b505050565b61384d6138a8565b600160c960006101000a81548160ff0219169083151502179055507f62e78cea01bee320cd4e420270b5ea74000d11b0c9f74754ebdbfc544b05a258613891613b6d565b60405161389e919061443e565b60405180910390a1565b6138b0611590565b156138f0576040517f08c379a00000000000000000000000000000000000000000000000000000000081526004016138e790615775565b60405180910390fd5b565b6000808273ffffffffffffffffffffffffffffffffffffffff163b119050919050565b600060019054906101000a900460ff16613964576040517f08c379a000000000000000000000000000000000000000000000000000000000815260040161395b90615807565b60405180910390fd5b565b600060019054906101000a900460ff166139b5576040517f08c379a00000000000000000000000000000000000000000000000000000000081526004016139ac90615807565b60405180910390fd5b6139bd613c3d565b565b600060019054906101000a900460ff16613a0e576040517f08c379a0000000000000000000000000000000000000000000000000000000008152600401613a0590615807565b60405180910390fd5b613a16613c96565b565b600080823b905060008111915050919050565b6000819050919050565b6000819050919050565b613a48816138f2565b613a87576040517f08c379a0000000000000000000000000000000000000000000000000000000008152600401613a7e90615899565b60405180910390fd5b80613ab47f360894a13ba1a3210667c828492db98dca3e2076cc3735a920a3ca505d382bbc60001b613a2b565b60000160006101000a81548173ffffffffffffffffffffffffffffffffffffffff021916908373ffffffffffffffffffffffffffffffffffffffff16021790555050565b613b0183613d02565b600082511180613b0e5750805b15613b1f57613b1d8383613d51565b505b505050565b613b2c611590565b613b6b576040517f08c379a0000000000000000000000000000000000000000000000000000000008152600401613b6290615905565b60405180910390fd5b565b600033905090565b6000613bd7826040518060400160405280602081526020017f5361666545524332303a206c6f772d6c6576656c2063616c6c206661696c65648152508573ffffffffffffffffffffffffffffffffffffffff16613d7e9092919063ffffffff16565b9050600081511480613bf9575080806020019051810190613bf891906145a9565b5b613c38576040517f08c379a0000000000000000000000000000000000000000000000000000000008152600401613c2f90615997565b60405180910390fd5b505050565b600060019054906101000a900460ff16613c8c576040517f08c379a0000000000000000000000000000000000000000000000000000000008152600401613c8390615807565b60405180910390fd5b6001606581905550565b600060019054906101000a900460ff16613ce5576040517f08c379a0000000000000000000000000000000000000000000000000000000008152600401613cdc90615807565b60405180910390fd5b600060c960006101000a81548160ff021916908315150217905550565b613d0b81613a3f565b8073ffffffffffffffffffffffffffffffffffffffff167fbc7cd75a20ee27fd9adebab32041f755214dbc6bffa90cc0225b39da2e5c2d3b60405160405180910390a250565b6060613d768383604051806060016040528060278152602001615b9960279139613d96565b905092915050565b6060613d8d8484600085613e1c565b90509392505050565b60606000808573ffffffffffffffffffffffffffffffffffffffff1685604051613dc09190615a1d565b600060405180830381855af49150503d8060008114613dfb576040519150601f19603f3d011682016040523d82523d6000602084013e613e00565b606091505b5091509150613e1186838387613ee9565b925050509392505050565b606082471015613e61576040517f08c379a0000000000000000000000000000000000000000000000000000000008152600401613e5890615aa6565b60405180910390fd5b6000808673ffffffffffffffffffffffffffffffffffffffff168587604051613e8a9190615a1d565b60006040518083038185875af1925050503d8060008114613ec7576040519150601f19603f3d011682016040523d82523d6000602084013e613ecc565b606091505b5091509150613edd87838387613ee9565b92505050949350505050565b60608315613f4b576000835103613f4357613f03856138f2565b613f42576040517f08c379a0000000000000000000000000000000000000000000000000000000008152600401613f3990615b12565b60405180910390fd5b5b829050613f56565b613f558383613f5e565b5b949350505050565b600082511115613f715781518083602001fd5b806040517f08c379a0000000000000000000000000000000000000000000000000000000008152600401613fa59190615b76565b60405180910390fd5b600073ffffffffffffffffffffffffffffffffffffffff82169050919050565b6000819050919050565b6000613ff3613fee613fe984613fae565b613fce565b613fae565b9050919050565b600061400582613fd8565b9050919050565b600061401782613ffa565b9050919050565b6140278161400c565b82525050565b6000602082019050614042600083018461401e565b92915050565b6000604051905090565b600080fd5b600080fd5b600061406782613fae565b9050919050565b6140778161405c565b811461408257600080fd5b50565b6000813590506140948161406e565b92915050565b6000602082840312156140b0576140af614052565b5b60006140be84828501614085565b91505092915050565b60008115159050919050565b6140dc816140c7565b82525050565b60006020820190506140f760008301846140d3565b92915050565b6000819050919050565b614110816140fd565b811461411b57600080fd5b50565b60008135905061412d81614107565b92915050565b6000806040838503121561414a57614149614052565b5b600061415885828601614085565b92505060206141698582860161411e565b9150509250929050565b6000819050919050565b61418681614173565b811461419157600080fd5b50565b6000813590506141a38161417d565b92915050565b600080600080608085870312156141c3576141c2614052565b5b60006141d187828801614085565b94505060206141e287828801614085565b93505060406141f387828801614194565b92505060606142048782880161411e565b91505092959194509250565b614219816140fd565b82525050565b60006020820190506142346000830184614210565b92915050565b600080fd5b600080fd5b6000601f19601f8301169050919050565b7f4e487b7100000000000000000000000000000000000000000000000000000000600052604160045260246000fd5b61428d82614244565b810181811067ffffffffffffffff821117156142ac576142ab614255565b5b80604052505050565b60006142bf614048565b90506142cb8282614284565b919050565b600067ffffffffffffffff8211156142eb576142ea614255565b5b6142f482614244565b9050602081019050919050565b82818337600083830152505050565b600061432361431e846142d0565b6142b5565b90508281526020810184848401111561433f5761433e61423f565b5b61434a848285614301565b509392505050565b600082601f8301126143675761436661423a565b5b8135614377848260208601614310565b91505092915050565b6000806040838503121561439757614396614052565b5b60006143a585828601614085565b925050602083013567ffffffffffffffff8111156143c6576143c5614057565b5b6143d285828601614352565b9150509250929050565b6000806000606084860312156143f5576143f4614052565b5b600061440386828701614085565b935050602061441486828701614085565b925050604061442586828701614194565b9150509250925092565b6144388161405c565b82525050565b6000602082019050614453600083018461442f565b92915050565b60008060006060848603121561447257614471614052565b5b600061448086828701614085565b935050602061449186828701614085565b92505060406144a286828701614085565b9150509250925092565b60006144b782613ffa565b9050919050565b6144c7816144ac565b82525050565b60006020820190506144e260008301846144be565b92915050565b6144f181614173565b82525050565b600060208201905061450c60008301846144e8565b92915050565b60008151905061452181614107565b92915050565b60006020828403121561453d5761453c614052565b5b600061454b84828501614512565b91505092915050565b60006040820190506145696000830185614210565b614576602083018461442f565b9392505050565b614586816140c7565b811461459157600080fd5b50565b6000815190506145a38161457d565b92915050565b6000602082840312156145bf576145be614052565b5b60006145cd84828501614594565b91505092915050565b600082825260208201905092915050565b7f43616c6c6572206c61636b73205641554c545f41444d494e5f524f4c45000000600082015250565b600061461d601d836145d6565b9150614628826145e7565b602082019050919050565b6000602082019050818103600083015261464c81614610565b9050919050565b60006060820190506146686000830186614210565b614675602083018561442f565b614682604083018461442f565b949350505050565b7f52656d6f766520746f6b656e206e6f7420657865637574656400000000000000600082015250565b60006146c06019836145d6565b91506146cb8261468a565b602082019050919050565b600060208201905081810360008301526146ef816146b3565b9050919050565b7f46756e6374696f6e206d7573742062652063616c6c6564207468726f7567682060008201527f64656c656761746563616c6c0000000000000000000000000000000000000000602082015250565b6000614752602c836145d6565b915061475d826146f6565b604082019050919050565b6000602082019050818103600083015261478181614745565b9050919050565b7f46756e6374696f6e206d7573742062652063616c6c6564207468726f7567682060008201527f6163746976652070726f78790000000000000000000000000000000000000000602082015250565b60006147e4602c836145d6565b91506147ef82614788565b604082019050919050565b60006020820190508181036000830152614813816147d7565b9050919050565b7f5265636f7665722066756e6473206e6f74206578656375746564000000000000600082015250565b6000614850601a836145d6565b915061485b8261481a565b602082019050919050565b6000602082019050818103600083015261487f81614843565b9050919050565b7f496e73756666696369656e7420747261636b6564206465706f73697473000000600082015250565b60006148bc601d836145d6565b91506148c782614886565b602082019050919050565b600060208201905081810360008301526148eb816148af565b9050919050565b7f4e487b7100000000000000000000000000000000000000000000000000000000600052601160045260246000fd5b600061492c82614173565b915061493783614173565b925082820390508181111561494f5761494e6148f2565b5b92915050565b7f41646420746f6b656e206e6f7420657865637574656400000000000000000000600082015250565b600061498b6016836145d6565b915061499682614955565b602082019050919050565b600060208201905081810360008301526149ba8161497e565b9050919050565b7f555550535570677261646561626c653a206d757374206e6f742062652063616c60008201527f6c6564207468726f7567682064656c656761746563616c6c0000000000000000602082015250565b6000614a1d6038836145d6565b9150614a28826149c1565b604082019050919050565b60006020820190508181036000830152614a4c81614a10565b9050919050565b7f496e76616c69642057616c6c6574526f75746572000000000000000000000000600082015250565b6000614a896014836145d6565b9150614a9482614a53565b602082019050919050565b60006020820190508181036000830152614ab881614a7c565b9050919050565b6000606082019050614ad4600083018661442f565b614ae16020830185614210565b614aee604083018461442f565b949350505050565b7f496e76616c696420726563697069656e74000000000000000000000000000000600082015250565b6000614b2c6011836145d6565b9150614b3782614af6565b602082019050919050565b60006020820190508181036000830152614b5b81614b1f565b9050919050565b600060a082019050614b77600083018861442f565b614b84602083018761442f565b614b9160408301866144e8565b614b9e6060830185614210565b614bab608083018461442f565b9695505050505050565b7f546f6b656e206e6f7420737570706f7274656400000000000000000000000000600082015250565b6000614beb6013836145d6565b9150614bf682614bb5565b602082019050919050565b60006020820190508181036000830152614c1a81614bde565b9050919050565b7f43616e6e6f742072656d6f766520746f6b656e2077697468206465706f73697460008201527f7300000000000000000000000000000000000000000000000000000000000000602082015250565b6000614c7d6021836145d6565b9150614c8882614c21565b604082019050919050565b60006020820190508181036000830152614cac81614c70565b9050919050565b7f5661756c7420686173204554482062616c616e63650000000000000000000000600082015250565b6000614ce96015836145d6565b9150614cf482614cb3565b602082019050919050565b60006020820190508181036000830152614d1881614cdc565b9050919050565b600081519050614d2e8161417d565b92915050565b600060208284031215614d4a57614d49614052565b5b6000614d5884828501614d1f565b91505092915050565b7f5661756c742068617320746f6b656e2062616c616e6365000000000000000000600082015250565b6000614d976017836145d6565b9150614da282614d61565b602082019050919050565b60006020820190508181036000830152614dc681614d8a565b9050919050565b7f4e6f742057616c6c6574526f7574657200000000000000000000000000000000600082015250565b6000614e036010836145d6565b9150614e0e82614dcd565b602082019050919050565b60006020820190508181036000830152614e3281614df6565b9050919050565b7f496e73756666696369656e74205661756c74204554482062616c616e63650000600082015250565b6000614e6f601e836145d6565b9150614e7a82614e39565b602082019050919050565b60006020820190508181036000830152614e9e81614e62565b9050919050565b7f496e73756666696369656e74205661756c7420746f6b656e2062616c616e6365600082015250565b6000614edb6020836145d6565b9150614ee682614ea5565b602082019050919050565b60006020820190508181036000830152614f0a81614ece565b9050919050565b7f496e636f72726563742045544820616d6f756e74000000000000000000000000600082015250565b6000614f476014836145d6565b9150614f5282614f11565b602082019050919050565b60006020820190508181036000830152614f7681614f3a565b9050919050565b7f455448206e6f7420616c6c6f77656420666f72204552433230206465706f736960008201527f7400000000000000000000000000000000000000000000000000000000000000602082015250565b6000614fd96021836145d6565b9150614fe482614f7d565b604082019050919050565b6000602082019050818103600083015261500881614fcc565b9050919050565b600061501a82614173565b915061502583614173565b925082820190508082111561503d5761503c6148f2565b5b92915050565b7f496e697469616c697a61626c653a20636f6e747261637420697320616c72656160008201527f647920696e697469616c697a6564000000000000000000000000000000000000602082015250565b600061509f602e836145d6565b91506150aa82615043565b604082019050919050565b600060208201905081810360008301526150ce81615092565b9050919050565b7f496e76616c696420526f6c654d616e6167657200000000000000000000000000600082015250565b600061510b6013836145d6565b9150615116826150d5565b602082019050919050565b6000602082019050818103600083015261513a816150fe565b9050919050565b7f496e76616c69642054696d656c6f636b00000000000000000000000000000000600082015250565b60006151776010836145d6565b915061518282615141565b602082019050919050565b600060208201905081810360008301526151a68161516a565b9050919050565b7f57616c6c6574526f75746572206973206e6f74206120636f6e74726163740000600082015250565b60006151e3601e836145d6565b91506151ee826151ad565b602082019050919050565b60006020820190508181036000830152615212816151d6565b9050919050565b6000819050919050565b600060ff82169050919050565b600061524b61524661524184615219565b613fce565b615223565b9050919050565b61525b81615230565b82525050565b60006020820190506152766000830184615252565b92915050565b7f5365742057616c6c6574526f75746572206e6f74206578656375746564000000600082015250565b60006152b2601d836145d6565b91506152bd8261527c565b602082019050919050565b600060208201905081810360008301526152e1816152a5565b9050919050565b7f546f6b656e20616c726561647920737570706f72746564000000000000000000600082015250565b600061531e6017836145d6565b9150615329826152e8565b602082019050919050565b6000602082019050818103600083015261534d81615311565b9050919050565b7f546f6b656e206973206e6f74206120636f6e7472616374000000000000000000600082015250565b600061538a6017836145d6565b915061539582615354565b602082019050919050565b600060208201905081810360008301526153b98161537d565b9050919050565b7f496e76616c696420696d706c656d656e746174696f6e20616464726573730000600082015250565b60006153f6601e836145d6565b9150615401826153c0565b602082019050919050565b60006020820190508181036000830152615425816153e9565b9050919050565b7f496d706c656d656e746174696f6e206973206e6f74206120636f6e7472616374600082015250565b60006154626020836145d6565b915061546d8261542c565b602082019050919050565b6000602082019050818103600083015261549181615455565b9050919050565b7f45524331393637557067726164653a206e657720696d706c656d656e7461746960008201527f6f6e206973206e6f742055555053000000000000000000000000000000000000602082015250565b60006154f4602e836145d6565b91506154ff82615498565b604082019050919050565b60006020820190508181036000830152615523816154e7565b9050919050565b7f45524331393637557067726164653a20756e737570706f727465642070726f7860008201527f6961626c65555549440000000000000000000000000000000000000000000000602082015250565b60006155866029836145d6565b91506155918261552a565b604082019050919050565b600060208201905081810360008301526155b581615579565b9050919050565b7f416464726573733a20696e73756666696369656e742062616c616e6365000000600082015250565b60006155f2601d836145d6565b91506155fd826155bc565b602082019050919050565b60006020820190508181036000830152615621816155e5565b9050919050565b600081905092915050565b50565b6000615643600083615628565b915061564e82615633565b600082019050919050565b600061566482615636565b9150819050919050565b7f416464726573733a20756e61626c6520746f2073656e642076616c75652c207260008201527f6563697069656e74206d61792068617665207265766572746564000000000000602082015250565b60006156ca603a836145d6565b91506156d58261566e565b604082019050919050565b600060208201905081810360008301526156f9816156bd565b9050919050565b6000604082019050615715600083018561442f565b61572260208301846144e8565b9392505050565b7f5061757361626c653a2070617573656400000000000000000000000000000000600082015250565b600061575f6010836145d6565b915061576a82615729565b602082019050919050565b6000602082019050818103600083015261578e81615752565b9050919050565b7f496e697469616c697a61626c653a20636f6e7472616374206973206e6f74206960008201527f6e697469616c697a696e67000000000000000000000000000000000000000000602082015250565b60006157f1602b836145d6565b91506157fc82615795565b604082019050919050565b60006020820190508181036000830152615820816157e4565b9050919050565b7f455243313936373a206e657720696d706c656d656e746174696f6e206973206e60008201527f6f74206120636f6e747261637400000000000000000000000000000000000000602082015250565b6000615883602d836145d6565b915061588e82615827565b604082019050919050565b600060208201905081810360008301526158b281615876565b9050919050565b7f5061757361626c653a206e6f7420706175736564000000000000000000000000600082015250565b60006158ef6014836145d6565b91506158fa826158b9565b602082019050919050565b6000602082019050818103600083015261591e816158e2565b9050919050565b7f5361666545524332303a204552433230206f7065726174696f6e20646964206e60008201527f6f74207375636365656400000000000000000000000000000000000000000000602082015250565b6000615981602a836145d6565b915061598c82615925565b604082019050919050565b600060208201905081810360008301526159b081615974565b9050919050565b600081519050919050565b60005b838110156159e05780820151818401526020810190506159c5565b60008484015250505050565b60006159f7826159b7565b615a018185615628565b9350615a118185602086016159c2565b80840191505092915050565b6000615a2982846159ec565b915081905092915050565b7f416464726573733a20696e73756666696369656e742062616c616e636520666f60008201527f722063616c6c0000000000000000000000000000000000000000000000000000602082015250565b6000615a906026836145d6565b9150615a9b82615a34565b604082019050919050565b60006020820190508181036000830152615abf81615a83565b9050919050565b7f416464726573733a2063616c6c20746f206e6f6e2d636f6e7472616374000000600082015250565b6000615afc601d836145d6565b9150615b0782615ac6565b602082019050919050565b60006020820190508181036000830152615b2b81615aef565b9050919050565b600081519050919050565b6000615b4882615b32565b615b5281856145d6565b9350615b628185602086016159c2565b615b6b81614244565b840191505092915050565b60006020820190508181036000830152615b908184615b3d565b90509291505056fe416464726573733a206c6f772d6c6576656c2064656c65676174652063616c6c206661696c6564a26469706673582212202f95884194ce52db8dc4c3a9cfffd5009217b02ece2b9d06f3798674c219359c64736f6c63430008130033","linkReferences":{}},"methodIdentifiers":{"ADD_TOKEN()":"c41d769c","RECOVER_FUNDS()":"80d02816","REMOVE_TOKEN()":"ea84f070","SET_WALLETROUTER()":"4d9710dd","addSupportedToken(address,bytes32)":"4f42f9a1","handleDeposit(address,address,uint256)":"bdc631d4","handleWithdrawal(address,address,uint256)":"ba313e34","initialize(address,address,address)":"c0c53b8b","isSupportedToken(address)":"240028e8","pause()":"8456cb59","paused()":"5c975abb","proposeAddToken(address)":"f6e67d37","proposeRecoverFunds(address,address,uint256)":"80e03c58","proposeRemoveToken(address)":"8e767a73","proposeSetWalletRouter(address)":"77a9b404","proxiableUUID()":"52d1902d","recoverFunds(address,address,uint256,bytes32)":"4119f9fb","removeSupportedToken(address,bytes32)":"3121e20e","roleManager()":"00435da5","setWalletRouter(address,bytes32)":"f6aea45c","supportedTokens(address)":"68c4ac26","timelock()":"d33219b4","totalDeposits(address)":"e9403256","unpause()":"3f4ba83a","upgradeTo(address)":"3659cfe6","upgradeToAndCall(address,bytes)":"4f1ef286","walletRouter()":"b3664c75"},"id":6}