{"abi":[{"type":"constructor","inputs":[],"stateMutability":"nonpayable"},{"type":"receive","stateMutability":"payable"},{"type":"function","name":"RECOVER_FUNDS","inputs":[],"outputs":[{"name":"","type":"bytes32","internalType":"bytes32"}],"stateMutability":"view"},{"type":"function","name":"SET_WALLETROUTER","inputs":[],"outputs":[{"name":"","type":"bytes32","internalType":"bytes32"}],"stateMutability":"view"},{"type":"function","name":"SWEEP_DUST","inputs":[],"outputs":[{"name":"","type":"bytes32","internalType":"bytes32"}],"stateMutability":"view"},{"type":"function","name":"addSupportedToken","inputs":[{"name":"token","type":"address","internalType":"address"}],"outputs":[],"stateMutability":"nonpayable"},{"type":"function","name":"handleDeposit","inputs":[{"name":"user","type":"address","internalType":"address"},{"name":"token","type":"address","internalType":"address"},{"name":"amount","type":"uint256","internalType":"uint256"}],"outputs":[],"stateMutability":"payable"},{"type":"function","name":"handleWithdrawal","inputs":[{"name":"recipient","type":"address","internalType":"address"},{"name":"token","type":"address","internalType":"address"},{"name":"amount","type":"uint256","internalType":"uint256"}],"outputs":[],"stateMutability":"nonpayable"},{"type":"function","name":"initialize","inputs":[{"name":"_roleManager","type":"address","internalType":"address"},{"name":"_walletRouter","type":"address","internalType":"address"},{"name":"_timelock","type":"address","internalType":"address"}],"outputs":[],"stateMutability":"nonpayable"},{"type":"function","name":"isSupportedToken","inputs":[{"name":"token","type":"address","internalType":"address"}],"outputs":[{"name":"","type":"bool","internalType":"bool"}],"stateMutability":"view"},{"type":"function","name":"pause","inputs":[],"outputs":[],"stateMutability":"nonpayable"},{"type":"function","name":"paused","inputs":[],"outputs":[{"name":"","type":"bool","internalType":"bool"}],"stateMutability":"view"},{"type":"function","name":"proposeRecoverFunds","inputs":[{"name":"token","type":"address","internalType":"address"},{"name":"recipient","type":"address","internalType":"address"},{"name":"amount","type":"uint256","internalType":"uint256"}],"outputs":[],"stateMutability":"nonpayable"},{"type":"function","name":"proposeSetWalletRouter","inputs":[{"name":"_walletRouter","type":"address","internalType":"address"}],"outputs":[],"stateMutability":"nonpayable"},{"type":"function","name":"proposeSweepDust","inputs":[{"name":"token","type":"address","internalType":"address"},{"name":"to","type":"address","internalType":"address"},{"name":"amount","type":"uint256","internalType":"uint256"}],"outputs":[],"stateMutability":"nonpayable"},{"type":"function","name":"proxiableUUID","inputs":[],"outputs":[{"name":"","type":"bytes32","internalType":"bytes32"}],"stateMutability":"view"},{"type":"function","name":"recoverFunds","inputs":[{"name":"token","type":"address","internalType":"address"},{"name":"recipient","type":"address","internalType":"address"},{"name":"amount","type":"uint256","internalType":"uint256"},{"name":"actionId","type":"bytes32","internalType":"bytes32"}],"outputs":[],"stateMutability":"nonpayable"},{"type":"function","name":"removeSupportedToken","inputs":[{"name":"token","type":"address","internalType":"address"}],"outputs":[],"stateMutability":"nonpayable"},{"type":"function","name":"roleManager","inputs":[],"outputs":[{"name":"","type":"address","internalType":"contract IRoleManager"}],"stateMutability":"view"},{"type":"function","name":"setWalletRouter","inputs":[{"name":"_walletRouter","type":"address","internalType":"address"},{"name":"actionId","type":"bytes32","internalType":"bytes32"}],"outputs":[],"stateMutability":"nonpayable"},{"type":"function","name":"supportedTokens","inputs":[{"name":"","type":"address","internalType":"address"}],"outputs":[{"name":"","type":"bool","internalType":"bool"}],"stateMutability":"view"},{"type":"function","name":"sweepDust","inputs":[{"name":"token","type":"address","internalType":"address"},{"name":"to","type":"address","internalType":"address"},{"name":"amount","type":"uint256","internalType":"uint256"},{"name":"actionId","type":"bytes32","internalType":"bytes32"}],"outputs":[],"stateMutability":"nonpayable"},{"type":"function","name":"timelock","inputs":[],"outputs":[{"name":"","type":"address","internalType":"contract ITimelock"}],"stateMutability":"view"},{"type":"function","name":"totalDeposits","inputs":[{"name":"","type":"address","internalType":"address"}],"outputs":[{"name":"","type":"uint256","internalType":"uint256"}],"stateMutability":"view"},{"type":"function","name":"unpause","inputs":[],"outputs":[],"stateMutability":"nonpayable"},{"type":"function","name":"upgradeTo","inputs":[{"name":"newImplementation","type":"address","internalType":"address"}],"outputs":[],"stateMutability":"nonpayable"},{"type":"function","name":"upgradeToAndCall","inputs":[{"name":"newImplementation","type":"address","internalType":"address"},{"name":"data","type":"bytes","internalType":"bytes"}],"outputs":[],"stateMutability":"payable"},{"type":"function","name":"walletRouter","inputs":[],"outputs":[{"name":"","type":"address","internalType":"address"}],"stateMutability":"view"},{"type":"event","name":"AdminChanged","inputs":[{"name":"previousAdmin","type":"address","indexed":false,"internalType":"address"},{"name":"newAdmin","type":"address","indexed":false,"internalType":"address"}],"anonymous":false},{"type":"event","name":"BeaconUpgraded","inputs":[{"name":"beacon","type":"address","indexed":true,"internalType":"address"}],"anonymous":false},{"type":"event","name":"DepositProcessed","inputs":[{"name":"user","type":"address","indexed":true,"internalType":"address"},{"name":"token","type":"address","indexed":true,"internalType":"address"},{"name":"amount","type":"uint256","indexed":false,"internalType":"uint256"}],"anonymous":false},{"type":"event","name":"DustSwept","inputs":[{"name":"token","type":"address","indexed":true,"internalType":"address"},{"name":"to","type":"address","indexed":true,"internalType":"address"},{"name":"amount","type":"uint256","indexed":false,"internalType":"uint256"}],"anonymous":false},{"type":"event","name":"FundsRecovered","inputs":[{"name":"token","type":"address","indexed":true,"internalType":"address"},{"name":"recipient","type":"address","indexed":true,"internalType":"address"},{"name":"amount","type":"uint256","indexed":false,"internalType":"uint256"}],"anonymous":false},{"type":"event","name":"Initialized","inputs":[{"name":"version","type":"uint8","indexed":false,"internalType":"uint8"}],"anonymous":false},{"type":"event","name":"Paused","inputs":[{"name":"account","type":"address","indexed":false,"internalType":"address"}],"anonymous":false},{"type":"event","name":"TokenSupportAdded","inputs":[{"name":"token","type":"address","indexed":true,"internalType":"address"}],"anonymous":false},{"type":"event","name":"TokenSupportRemoved","inputs":[{"name":"token","type":"address","indexed":true,"internalType":"address"}],"anonymous":false},{"type":"event","name":"Unpaused","inputs":[{"name":"account","type":"address","indexed":false,"internalType":"address"}],"anonymous":false},{"type":"event","name":"Upgraded","inputs":[{"name":"implementation","type":"address","indexed":true,"internalType":"address"}],"anonymous":false},{"type":"event","name":"WalletRouterSet","inputs":[{"name":"walletRouter","type":"address","indexed":true,"internalType":"address"}],"anonymous":false},{"type":"event","name":"WithdrawalProcessed","inputs":[{"name":"recipient","type":"address","indexed":true,"internalType":"address"},{"name":"token","type":"address","indexed":true,"internalType":"address"},{"name":"amount","type":"uint256","indexed":false,"internalType":"uint256"}],"anonymous":false},{"type":"error","name":"CallerLacksVaultAdminRole","inputs":[]},{"type":"error","name":"CannotRemoveTokenWithDeposits","inputs":[]},{"type":"error","name":"CannotSweepTokenWithDeposit","inputs":[]},{"type":"error","name":"ExecutionFailed","inputs":[]},{"type":"error","name":"ImplementationIsNotAContract","inputs":[]},{"type":"error","name":"InsufficientTrackedDeposits","inputs":[]},{"type":"error","name":"InsufficientVaultETHBalance","inputs":[]},{"type":"error","name":"InsufficientVaultTokenBalance","inputs":[]},{"type":"error","name":"InvalidAmount","inputs":[]},{"type":"error","name":"InvalidImplementationAddress","inputs":[]},{"type":"error","name":"InvalidRecipient","inputs":[]},{"type":"error","name":"InvalidRoleManager","inputs":[]},{"type":"error","name":"InvalidTimelock","inputs":[]},{"type":"error","name":"InvalidWalletRouter","inputs":[]},{"type":"error","name":"RecoverFundsNotExecuted","inputs":[]},{"type":"error","name":"SetWalletRouterNotExecuted","inputs":[]},{"type":"error","name":"TokenAlreadySupported","inputs":[]},{"type":"error","name":"TokenIsNotAContract","inputs":[]},{"type":"error","name":"TokenNotSupported","inputs":[]},{"type":"error","name":"VaultHasETHBalance","inputs":[]},{"type":"error","name":"VaultHasTokenBalance","inputs":[]},{"type":"error","name":"WalletRouterIsNotAContract","inputs":[]}],"bytecode":{"object":"0x60a06040523073ffffffffffffffffffffffffffffffffffffffff1660809073ffffffffffffffffffffffffffffffffffffffff168152503480156200004457600080fd5b50620000556200005b60201b60201c565b62000205565b600060019054906101000a900460ff1615620000ae576040517f08c379a0000000000000000000000000000000000000000000000000000000008152600401620000a590620001a8565b60405180910390fd5b60ff801660008054906101000a900460ff1660ff16146200011f5760ff6000806101000a81548160ff021916908360ff1602179055507f7f26b83ff96e1f2b6a682f133852f6798a09c465da95921460cefb384740249860ff604051620001169190620001e8565b60405180910390a15b565b600082825260208201905092915050565b7f496e697469616c697a61626c653a20636f6e747261637420697320696e69746960008201527f616c697a696e6700000000000000000000000000000000000000000000000000602082015250565b60006200019060278362000121565b91506200019d8262000132565b604082019050919050565b60006020820190508181036000830152620001c38162000181565b9050919050565b600060ff82169050919050565b620001e281620001ca565b82525050565b6000602082019050620001ff6000830184620001d7565b92915050565b60805161526d6200023d60003960008181610926015281816109b4015281816115840152818161161201526116c2015261526d6000f3fe6080604052600436106101845760003560e01c80636d69fcaf116100d1578063b3664c751161008a578063c0c53b8b11610064578063c0c53b8b1461050e578063d33219b414610537578063e940325614610562578063f6aea45c1461059f5761018b565b8063b3664c751461049e578063ba313e34146104c9578063bdc631d4146104f25761018b565b80636d69fcaf146103b857806376319190146103e157806377a9b4041461040a57806380d028161461043357806380e03c581461045e5780638456cb59146104875761018b565b80634119f9fb1161013e5780634f1ef286116101185780634f1ef2861461030957806352d1902d146103255780635c975abb1461035057806368c4ac261461037b5761018b565b80634119f9fb1461028c57806349d318aa146102b55780634d9710dd146102de5761018b565b8062435da514610190578063198f47a0146101bb578063240028e8146101e657806326f604c3146102235780633659cfe61461024c5780633f4ba83a146102755761018b565b3661018b57005b600080fd5b34801561019c57600080fd5b506101a56105c8565b6040516101b291906140b3565b60405180910390f35b3480156101c757600080fd5b506101d06105ee565b6040516101dd91906140e7565b60405180910390f35b3480156101f257600080fd5b5061020d60048036038101906102089190614154565b610612565b60405161021a919061419c565b60405180910390f35b34801561022f57600080fd5b5061024a600480360381019061024591906141ed565b610668565b005b34801561025857600080fd5b50610273600480360381019061026e9190614154565b610924565b005b34801561028157600080fd5b5061028a610aac565b005b34801561029857600080fd5b506102b360048036038101906102ae919061426c565b610c1a565b005b3480156102c157600080fd5b506102dc60048036038101906102d7919061426c565b611020565b005b3480156102ea57600080fd5b506102f361155e565b60405161030091906140e7565b60405180910390f35b610323600480360381019061031e9190614419565b611582565b005b34801561033157600080fd5b5061033a6116be565b60405161034791906140e7565b60405180910390f35b34801561035c57600080fd5b50610365611777565b604051610372919061419c565b60405180910390f35b34801561038757600080fd5b506103a2600480360381019061039d9190614154565b61178e565b6040516103af919061419c565b60405180910390f35b3480156103c457600080fd5b506103df60048036038101906103da9190614154565b6117ae565b005b3480156103ed57600080fd5b5061040860048036038101906104039190614154565b611aa8565b005b34801561041657600080fd5b50610431600480360381019061042c9190614154565b611ecd565b005b34801561043f57600080fd5b50610448612149565b60405161045591906140e7565b60405180910390f35b34801561046a57600080fd5b50610485600480360381019061048091906141ed565b61216d565b005b34801561049357600080fd5b5061049c612429565b005b3480156104aa57600080fd5b506104b3612597565b6040516104c09190614484565b60405180910390f35b3480156104d557600080fd5b506104f060048036038101906104eb91906141ed565b6125bd565b005b61050c600480360381019061050791906141ed565b6129cf565b005b34801561051a57600080fd5b506105356004803603810190610530919061449f565b612ba3565b005b34801561054357600080fd5b5061054c612fc4565b6040516105599190614513565b60405180910390f35b34801561056e57600080fd5b5061058960048036038101906105849190614154565b612fea565b604051610596919061453d565b60405180910390f35b3480156105ab57600080fd5b506105c660048036038101906105c19190614558565b613002565b005b60fb60009054906101000a900473ffffffffffffffffffffffffffffffffffffffff1681565b7f735a6278d686946bd6e3ab3aaae46874c3e0684299ed17d4fe504767e2d5b69681565b600060fe60008373ffffffffffffffffffffffffffffffffffffffff1673ffffffffffffffffffffffffffffffffffffffff16815260200190815260200160002060009054906101000a900460ff169050919050565b60fb60009054906101000a900473ffffffffffffffffffffffffffffffffffffffff1673ffffffffffffffffffffffffffffffffffffffff166391d1485460fb60009054906101000a900473ffffffffffffffffffffffffffffffffffffffff1673ffffffffffffffffffffffffffffffffffffffff16639e3411196040518163ffffffff1660e01b8152600401602060405180830381865afa158015610713573d6000803e3d6000fd5b505050506040513d601f19601f8201168201806040525081019061073791906145ad565b336040518363ffffffff1660e01b81526004016107559291906145da565b602060405180830381865afa158015610772573d6000803e3d6000fd5b505050506040513d601f19601f82011682018060405250810190610796919061462f565b6107cc576040517f07cc3e4200000000000000000000000000000000000000000000000000000000815260040160405180910390fd5b600073ffffffffffffffffffffffffffffffffffffffff168273ffffffffffffffffffffffffffffffffffffffff1603610832576040517f9c8d2cd200000000000000000000000000000000000000000000000000000000815260040160405180910390fd5b6000810361086c576040517f2c5211c600000000000000000000000000000000000000000000000000000000815260040160405180910390fd5b60fc60009054906101000a900473ffffffffffffffffffffffffffffffffffffffff1673ffffffffffffffffffffffffffffffffffffffff16639fef5c318484847f735a6278d686946bd6e3ab3aaae46874c3e0684299ed17d4fe504767e2d5b6966040518563ffffffff1660e01b81526004016108ed949392919061465c565b600060405180830381600087803b15801561090757600080fd5b505af115801561091b573d6000803e3d6000fd5b50505050505050565b7f000000000000000000000000000000000000000000000000000000000000000073ffffffffffffffffffffffffffffffffffffffff163073ffffffffffffffffffffffffffffffffffffffff16036109b2576040517f08c379a00000000000000000000000000000000000000000000000000000000081526004016109a990614724565b60405180910390fd5b7f000000000000000000000000000000000000000000000000000000000000000073ffffffffffffffffffffffffffffffffffffffff166109f16132c4565b73ffffffffffffffffffffffffffffffffffffffff1614610a47576040517f08c379a0000000000000000000000000000000000000000000000000000000008152600401610a3e906147b6565b60405180910390fd5b610a508161331b565b610aa981600067ffffffffffffffff811115610a6f57610a6e6142ee565b5b6040519080825280601f01601f191660200182016040528015610aa15781602001600182028036833780820191505090505b506000613527565b50565b60fb60009054906101000a900473ffffffffffffffffffffffffffffffffffffffff1673ffffffffffffffffffffffffffffffffffffffff166391d1485460fb60009054906101000a900473ffffffffffffffffffffffffffffffffffffffff1673ffffffffffffffffffffffffffffffffffffffff16639e3411196040518163ffffffff1660e01b8152600401602060405180830381865afa158015610b57573d6000803e3d6000fd5b505050506040513d601f19601f82011682018060405250810190610b7b91906145ad565b336040518363ffffffff1660e01b8152600401610b999291906145da565b602060405180830381865afa158015610bb6573d6000803e3d6000fd5b505050506040513d601f19601f82011682018060405250810190610bda919061462f565b610c10576040517f07cc3e4200000000000000000000000000000000000000000000000000000000815260040160405180910390fd5b610c18613695565b565b60fb60009054906101000a900473ffffffffffffffffffffffffffffffffffffffff1673ffffffffffffffffffffffffffffffffffffffff166391d1485460fb60009054906101000a900473ffffffffffffffffffffffffffffffffffffffff1673ffffffffffffffffffffffffffffffffffffffff16639e3411196040518163ffffffff1660e01b8152600401602060405180830381865afa158015610cc5573d6000803e3d6000fd5b505050506040513d601f19601f82011682018060405250810190610ce991906145ad565b336040518363ffffffff1660e01b8152600401610d079291906145da565b602060405180830381865afa158015610d24573d6000803e3d6000fd5b505050506040513d601f19601f82011682018060405250810190610d48919061462f565b610d7e576040517f07cc3e4200000000000000000000000000000000000000000000000000000000815260040160405180910390fd5b60fc60009054906101000a900473ffffffffffffffffffffffffffffffffffffffff1673ffffffffffffffffffffffffffffffffffffffff166341529457828686866040518563ffffffff1660e01b8152600401610ddf94939291906147d6565b6020604051808303816000875af1158015610dfe573d6000803e3d6000fd5b505050506040513d601f19601f82011682018060405250810190610e22919061462f565b610e58576040517f9b24acd700000000000000000000000000000000000000000000000000000000815260040160405180910390fd5b8160ff60008673ffffffffffffffffffffffffffffffffffffffff1673ffffffffffffffffffffffffffffffffffffffff168152602001908152602001600020541015610ed1576040517f9547624100000000000000000000000000000000000000000000000000000000815260040160405180910390fd5b8160ff60008673ffffffffffffffffffffffffffffffffffffffff1673ffffffffffffffffffffffffffffffffffffffff1681526020019081526020016000206000828254610f20919061484a565b92505081905550600073ffffffffffffffffffffffffffffffffffffffff168473ffffffffffffffffffffffffffffffffffffffff1603610f8957610f84828473ffffffffffffffffffffffffffffffffffffffff166136f890919063ffffffff16565b610fb5565b610fb483838673ffffffffffffffffffffffffffffffffffffffff166137ec9092919063ffffffff16565b5b8273ffffffffffffffffffffffffffffffffffffffff168473ffffffffffffffffffffffffffffffffffffffff167f13e06184555481b6d2cb327155e8d2e1d0b1f0252a7fe6621e32cf998814883584604051611012919061453d565b60405180910390a350505050565b60fb60009054906101000a900473ffffffffffffffffffffffffffffffffffffffff1673ffffffffffffffffffffffffffffffffffffffff166391d1485460fb60009054906101000a900473ffffffffffffffffffffffffffffffffffffffff1673ffffffffffffffffffffffffffffffffffffffff16639e3411196040518163ffffffff1660e01b8152600401602060405180830381865afa1580156110cb573d6000803e3d6000fd5b505050506040513d601f19601f820116820180604052508101906110ef91906145ad565b336040518363ffffffff1660e01b815260040161110d9291906145da565b602060405180830381865afa15801561112a573d6000803e3d6000fd5b505050506040513d601f19601f8201168201806040525081019061114e919061462f565b611184576040517f07cc3e4200000000000000000000000000000000000000000000000000000000815260040160405180910390fd5b60008210156111bf576040517f2c5211c600000000000000000000000000000000000000000000000000000000815260040160405180910390fd5b60fc60009054906101000a900473ffffffffffffffffffffffffffffffffffffffff1673ffffffffffffffffffffffffffffffffffffffff1663343d92f6828686866040518563ffffffff1660e01b815260040161122094939291906147d6565b6020604051808303816000875af115801561123f573d6000803e3d6000fd5b505050506040513d601f19601f82011682018060405250810190611263919061462f565b611299576040517facfdb44400000000000000000000000000000000000000000000000000000000815260040160405180910390fd5b600073ffffffffffffffffffffffffffffffffffffffff168473ffffffffffffffffffffffffffffffffffffffff160361138557600060ff60008073ffffffffffffffffffffffffffffffffffffffff1673ffffffffffffffffffffffffffffffffffffffff168152602001908152602001600020544761131a919061484a565b905080831115611356576040517fad88746100000000000000000000000000000000000000000000000000000000815260040160405180910390fd5b61137f838573ffffffffffffffffffffffffffffffffffffffff166136f890919063ffffffff16565b506114f3565b61138e84613872565b6113c4576040517f73d39f9d00000000000000000000000000000000000000000000000000000000815260040160405180910390fd5b600060ff60008673ffffffffffffffffffffffffffffffffffffffff1673ffffffffffffffffffffffffffffffffffffffff168152602001908152602001600020548573ffffffffffffffffffffffffffffffffffffffff166370a08231306040518263ffffffff1660e01b815260040161143f9190614484565b602060405180830381865afa15801561145c573d6000803e3d6000fd5b505050506040513d601f19601f820116820180604052508101906114809190614893565b61148a919061484a565b9050808311156114c6576040517fad88746100000000000000000000000000000000000000000000000000000000815260040160405180910390fd5b6114f184848773ffffffffffffffffffffffffffffffffffffffff166137ec9092919063ffffffff16565b505b8273ffffffffffffffffffffffffffffffffffffffff168473ffffffffffffffffffffffffffffffffffffffff167f3981c3c93633524805c93b00b61aa75cc59cd423c30c502354a7c347b0b2252484604051611550919061453d565b60405180910390a350505050565b7febfe40e1a907df098b25552533043ed6632f34e704c7c0a934075ee697b8a3be81565b7f000000000000000000000000000000000000000000000000000000000000000073ffffffffffffffffffffffffffffffffffffffff163073ffffffffffffffffffffffffffffffffffffffff1603611610576040517f08c379a000000000000000000000000000000000000000000000000000000000815260040161160790614724565b60405180910390fd5b7f000000000000000000000000000000000000000000000000000000000000000073ffffffffffffffffffffffffffffffffffffffff1661164f6132c4565b73ffffffffffffffffffffffffffffffffffffffff16146116a5576040517f08c379a000000000000000000000000000000000000000000000000000000000815260040161169c906147b6565b60405180910390fd5b6116ae8261331b565b6116ba82826001613527565b5050565b60007f000000000000000000000000000000000000000000000000000000000000000073ffffffffffffffffffffffffffffffffffffffff163073ffffffffffffffffffffffffffffffffffffffff161461174e576040517f08c379a000000000000000000000000000000000000000000000000000000000815260040161174590614932565b60405180910390fd5b7f360894a13ba1a3210667c828492db98dca3e2076cc3735a920a3ca505d382bbc60001b905090565b600060c960009054906101000a900460ff16905090565b60fe6020528060005260406000206000915054906101000a900460ff1681565b60fb60009054906101000a900473ffffffffffffffffffffffffffffffffffffffff1673ffffffffffffffffffffffffffffffffffffffff166391d1485460fb60009054906101000a900473ffffffffffffffffffffffffffffffffffffffff1673ffffffffffffffffffffffffffffffffffffffff16639e3411196040518163ffffffff1660e01b8152600401602060405180830381865afa158015611859573d6000803e3d6000fd5b505050506040513d601f19601f8201168201806040525081019061187d91906145ad565b336040518363ffffffff1660e01b815260040161189b9291906145da565b602060405180830381865afa1580156118b8573d6000803e3d6000fd5b505050506040513d601f19601f820116820180604052508101906118dc919061462f565b611912576040517f07cc3e4200000000000000000000000000000000000000000000000000000000815260040160405180910390fd5b60fe60008273ffffffffffffffffffffffffffffffffffffffff1673ffffffffffffffffffffffffffffffffffffffff16815260200190815260200160002060009054906101000a900460ff1615611996576040517fc78e82ad00000000000000000000000000000000000000000000000000000000815260040160405180910390fd5b600073ffffffffffffffffffffffffffffffffffffffff168173ffffffffffffffffffffffffffffffffffffffff1614611a0a576119d381613872565b611a09576040517f73d39f9d00000000000000000000000000000000000000000000000000000000815260040160405180910390fd5b5b600160fe60008373ffffffffffffffffffffffffffffffffffffffff1673ffffffffffffffffffffffffffffffffffffffff16815260200190815260200160002060006101000a81548160ff0219169083151502179055508073ffffffffffffffffffffffffffffffffffffffff167f8f50fda9bf5d3b403c53b7e91646abd507f8cebf2577655d55d7de3926168b1760405160405180910390a250565b60fb60009054906101000a900473ffffffffffffffffffffffffffffffffffffffff1673ffffffffffffffffffffffffffffffffffffffff166391d1485460fb60009054906101000a900473ffffffffffffffffffffffffffffffffffffffff1673ffffffffffffffffffffffffffffffffffffffff16639e3411196040518163ffffffff1660e01b8152600401602060405180830381865afa158015611b53573d6000803e3d6000fd5b505050506040513d601f19601f82011682018060405250810190611b7791906145ad565b336040518363ffffffff1660e01b8152600401611b959291906145da565b602060405180830381865afa158015611bb2573d6000803e3d6000fd5b505050506040513d601f19601f82011682018060405250810190611bd6919061462f565b611c0c576040517f07cc3e4200000000000000000000000000000000000000000000000000000000815260040160405180910390fd5b60fe60008273ffffffffffffffffffffffffffffffffffffffff1673ffffffffffffffffffffffffffffffffffffffff16815260200190815260200160002060009054906101000a900460ff16611c8f576040517f3dd1b30500000000000000000000000000000000000000000000000000000000815260040160405180910390fd5b600060ff60008373ffffffffffffffffffffffffffffffffffffffff1673ffffffffffffffffffffffffffffffffffffffff1681526020019081526020016000205414611d08576040517f831a2b9100000000000000000000000000000000000000000000000000000000815260040160405180910390fd5b600073ffffffffffffffffffffffffffffffffffffffff168173ffffffffffffffffffffffffffffffffffffffff1603611d7b5760004714611d76576040517f4977424700000000000000000000000000000000000000000000000000000000815260040160405180910390fd5b611e2f565b60008173ffffffffffffffffffffffffffffffffffffffff166370a08231306040518263ffffffff1660e01b8152600401611db69190614484565b602060405180830381865afa158015611dd3573d6000803e3d6000fd5b505050506040513d601f19601f82011682018060405250810190611df79190614893565b14611e2e576040517fdbf2422000000000000000000000000000000000000000000000000000000000815260040160405180910390fd5b5b600060fe60008373ffffffffffffffffffffffffffffffffffffffff1673ffffffffffffffffffffffffffffffffffffffff16815260200190815260200160002060006101000a81548160ff0219169083151502179055508073ffffffffffffffffffffffffffffffffffffffff167f1cef54ca6e1745ad87fa3077491d9fc42257e9f1a2d7cad58a4e52bd14dfc62660405160405180910390a250565b60fb60009054906101000a900473ffffffffffffffffffffffffffffffffffffffff1673ffffffffffffffffffffffffffffffffffffffff166391d1485460fb60009054906101000a900473ffffffffffffffffffffffffffffffffffffffff1673ffffffffffffffffffffffffffffffffffffffff16639e3411196040518163ffffffff1660e01b8152600401602060405180830381865afa158015611f78573d6000803e3d6000fd5b505050506040513d601f19601f82011682018060405250810190611f9c91906145ad565b336040518363ffffffff1660e01b8152600401611fba9291906145da565b602060405180830381865afa158015611fd7573d6000803e3d6000fd5b505050506040513d601f19601f82011682018060405250810190611ffb919061462f565b612031576040517f07cc3e4200000000000000000000000000000000000000000000000000000000815260040160405180910390fd5b600073ffffffffffffffffffffffffffffffffffffffff168173ffffffffffffffffffffffffffffffffffffffff1603612097576040517f4901974200000000000000000000000000000000000000000000000000000000815260040160405180910390fd5b60fc60009054906101000a900473ffffffffffffffffffffffffffffffffffffffff1673ffffffffffffffffffffffffffffffffffffffff166306df5e85827febfe40e1a907df098b25552533043ed6632f34e704c7c0a934075ee697b8a3be6040518363ffffffff1660e01b8152600401612114929190614952565b600060405180830381600087803b15801561212e57600080fd5b505af1158015612142573d6000803e3d6000fd5b5050505050565b7f20fdf5e0231b01bbf4a13cac8ebdc15bc3cac177cb34c02a16b7fc0fea7cc6a081565b60fb60009054906101000a900473ffffffffffffffffffffffffffffffffffffffff1673ffffffffffffffffffffffffffffffffffffffff166391d1485460fb60009054906101000a900473ffffffffffffffffffffffffffffffffffffffff1673ffffffffffffffffffffffffffffffffffffffff16639e3411196040518163ffffffff1660e01b8152600401602060405180830381865afa158015612218573d6000803e3d6000fd5b505050506040513d601f19601f8201168201806040525081019061223c91906145ad565b336040518363ffffffff1660e01b815260040161225a9291906145da565b602060405180830381865afa158015612277573d6000803e3d6000fd5b505050506040513d601f19601f8201168201806040525081019061229b919061462f565b6122d1576040517f07cc3e4200000000000000000000000000000000000000000000000000000000815260040160405180910390fd5b600073ffffffffffffffffffffffffffffffffffffffff168273ffffffffffffffffffffffffffffffffffffffff1603612337576040517f9c8d2cd200000000000000000000000000000000000000000000000000000000815260040160405180910390fd5b60008103612371576040517f2c5211c600000000000000000000000000000000000000000000000000000000815260040160405180910390fd5b60fc60009054906101000a900473ffffffffffffffffffffffffffffffffffffffff1673ffffffffffffffffffffffffffffffffffffffff16633e1273618484847f20fdf5e0231b01bbf4a13cac8ebdc15bc3cac177cb34c02a16b7fc0fea7cc6a06040518563ffffffff1660e01b81526004016123f2949392919061465c565b600060405180830381600087803b15801561240c57600080fd5b505af1158015612420573d6000803e3d6000fd5b50505050505050565b60fb60009054906101000a900473ffffffffffffffffffffffffffffffffffffffff1673ffffffffffffffffffffffffffffffffffffffff166391d1485460fb60009054906101000a900473ffffffffffffffffffffffffffffffffffffffff1673ffffffffffffffffffffffffffffffffffffffff16639e3411196040518163ffffffff1660e01b8152600401602060405180830381865afa1580156124d4573d6000803e3d6000fd5b505050506040513d601f19601f820116820180604052508101906124f891906145ad565b336040518363ffffffff1660e01b81526004016125169291906145da565b602060405180830381865afa158015612533573d6000803e3d6000fd5b505050506040513d601f19601f82011682018060405250810190612557919061462f565b61258d576040517f07cc3e4200000000000000000000000000000000000000000000000000000000815260040160405180910390fd5b612595613885565b565b60fd60009054906101000a900473ffffffffffffffffffffffffffffffffffffffff1681565b60fd60009054906101000a900473ffffffffffffffffffffffffffffffffffffffff1673ffffffffffffffffffffffffffffffffffffffff163373ffffffffffffffffffffffffffffffffffffffff1614612644576040517f4901974200000000000000000000000000000000000000000000000000000000815260040160405180910390fd5b8160fe60008273ffffffffffffffffffffffffffffffffffffffff1673ffffffffffffffffffffffffffffffffffffffff16815260200190815260200160002060009054906101000a900460ff166126c8576040517f3dd1b30500000000000000000000000000000000000000000000000000000000815260040160405180910390fd5b6126d06138e8565b6126d8613932565b8160ff60008573ffffffffffffffffffffffffffffffffffffffff1673ffffffffffffffffffffffffffffffffffffffff168152602001908152602001600020541015612751576040517f9547624100000000000000000000000000000000000000000000000000000000815260040160405180910390fd5b600073ffffffffffffffffffffffffffffffffffffffff168373ffffffffffffffffffffffffffffffffffffffff16036127c457814710156127bf576040517fff84642400000000000000000000000000000000000000000000000000000000815260040160405180910390fd5b612878565b818373ffffffffffffffffffffffffffffffffffffffff166370a08231306040518263ffffffff1660e01b81526004016127fe9190614484565b602060405180830381865afa15801561281b573d6000803e3d6000fd5b505050506040513d601f19601f8201168201806040525081019061283f9190614893565b1015612877576040517f0faccbfd00000000000000000000000000000000000000000000000000000000815260040160405180910390fd5b5b8160ff60008573ffffffffffffffffffffffffffffffffffffffff1673ffffffffffffffffffffffffffffffffffffffff16815260200190815260200160002060008282546128c7919061484a565b925050819055508273ffffffffffffffffffffffffffffffffffffffff168473ffffffffffffffffffffffffffffffffffffffff167fcd1fce47d5ad89dd70b04c75bd6bdb8114d4d4ff7b4393f9fb5937e733ba95828460405161292b919061453d565b60405180910390a3600073ffffffffffffffffffffffffffffffffffffffff168373ffffffffffffffffffffffffffffffffffffffff160361299557612990828573ffffffffffffffffffffffffffffffffffffffff166136f890919063ffffffff16565b6129c1565b6129c084838573ffffffffffffffffffffffffffffffffffffffff166137ec9092919063ffffffff16565b5b6129c9613981565b50505050565b60fd60009054906101000a900473ffffffffffffffffffffffffffffffffffffffff1673ffffffffffffffffffffffffffffffffffffffff163373ffffffffffffffffffffffffffffffffffffffff1614612a56576040517f4901974200000000000000000000000000000000000000000000000000000000815260040160405180910390fd5b8160fe60008273ffffffffffffffffffffffffffffffffffffffff1673ffffffffffffffffffffffffffffffffffffffff16815260200190815260200160002060009054906101000a900460ff16612ada576040517f3dd1b30500000000000000000000000000000000000000000000000000000000815260040160405180910390fd5b612ae26138e8565b8160ff60008573ffffffffffffffffffffffffffffffffffffffff1673ffffffffffffffffffffffffffffffffffffffff1681526020019081526020016000206000828254612b31919061497b565b925050819055508273ffffffffffffffffffffffffffffffffffffffff168473ffffffffffffffffffffffffffffffffffffffff167f2cafaae37c2ab1f0e3f264b9a50cad356ccf3bec7627998815a33e2b7e649a5384604051612b95919061453d565b60405180910390a350505050565b60008060019054906101000a900460ff16159050808015612bd45750600160008054906101000a900460ff1660ff16105b80612c015750612be33061398b565b158015612c005750600160008054906101000a900460ff1660ff16145b5b612c40576040517f08c379a0000000000000000000000000000000000000000000000000000000008152600401612c3790614a21565b60405180910390fd5b60016000806101000a81548160ff021916908360ff1602179055508015612c7d576001600060016101000a81548160ff0219169083151502179055505b612c856139ae565b612c8d6139ff565b612c95613a58565b600073ffffffffffffffffffffffffffffffffffffffff168473ffffffffffffffffffffffffffffffffffffffff1603612cfb576040517f4d29d32800000000000000000000000000000000000000000000000000000000815260040160405180910390fd5b600073ffffffffffffffffffffffffffffffffffffffff168373ffffffffffffffffffffffffffffffffffffffff1603612d61576040517f4901974200000000000000000000000000000000000000000000000000000000815260040160405180910390fd5b600073ffffffffffffffffffffffffffffffffffffffff168273ffffffffffffffffffffffffffffffffffffffff1603612dc7576040517ff8d10e8200000000000000000000000000000000000000000000000000000000815260040160405180910390fd5b612dd083613872565b612e06576040517f1b7f00f600000000000000000000000000000000000000000000000000000000815260040160405180910390fd5b8360fb60006101000a81548173ffffffffffffffffffffffffffffffffffffffff021916908373ffffffffffffffffffffffffffffffffffffffff1602179055508160fc60006101000a81548173ffffffffffffffffffffffffffffffffffffffff021916908373ffffffffffffffffffffffffffffffffffffffff1602179055508260fd60006101000a81548173ffffffffffffffffffffffffffffffffffffffff021916908373ffffffffffffffffffffffffffffffffffffffff160217905550600160fe60008073ffffffffffffffffffffffffffffffffffffffff1673ffffffffffffffffffffffffffffffffffffffff16815260200190815260200160002060006101000a81548160ff021916908315150217905550600073ffffffffffffffffffffffffffffffffffffffff167f8f50fda9bf5d3b403c53b7e91646abd507f8cebf2577655d55d7de3926168b1760405160405180910390a28015612fbe5760008060016101000a81548160ff0219169083151502179055507f7f26b83ff96e1f2b6a682f133852f6798a09c465da95921460cefb38474024986001604051612fb59190614a89565b60405180910390a15b50505050565b60fc60009054906101000a900473ffffffffffffffffffffffffffffffffffffffff1681565b60ff6020528060005260406000206000915090505481565b60fb60009054906101000a900473ffffffffffffffffffffffffffffffffffffffff1673ffffffffffffffffffffffffffffffffffffffff166391d1485460fb60009054906101000a900473ffffffffffffffffffffffffffffffffffffffff1673ffffffffffffffffffffffffffffffffffffffff16639e3411196040518163ffffffff1660e01b8152600401602060405180830381865afa1580156130ad573d6000803e3d6000fd5b505050506040513d601f19601f820116820180604052508101906130d191906145ad565b336040518363ffffffff1660e01b81526004016130ef9291906145da565b602060405180830381865afa15801561310c573d6000803e3d6000fd5b505050506040513d601f19601f82011682018060405250810190613130919061462f565b613166576040517f07cc3e4200000000000000000000000000000000000000000000000000000000815260040160405180910390fd5b60fc60009054906101000a900473ffffffffffffffffffffffffffffffffffffffff1673ffffffffffffffffffffffffffffffffffffffff16637fe5d17982846040518363ffffffff1660e01b81526004016131c39291906145da565b6020604051808303816000875af11580156131e2573d6000803e3d6000fd5b505050506040513d601f19601f82011682018060405250810190613206919061462f565b61323c576040517fc2ea003b00000000000000000000000000000000000000000000000000000000815260040160405180910390fd5b8160fd60006101000a81548173ffffffffffffffffffffffffffffffffffffffff021916908373ffffffffffffffffffffffffffffffffffffffff1602179055508173ffffffffffffffffffffffffffffffffffffffff167fd587147607038c178465c452edf2001d68e3091dc060f73a4e8b1a0e36682c0160405160405180910390a25050565b60006132f27f360894a13ba1a3210667c828492db98dca3e2076cc3735a920a3ca505d382bbc60001b613ab1565b60000160009054906101000a900473ffffffffffffffffffffffffffffffffffffffff16905090565b60fb60009054906101000a900473ffffffffffffffffffffffffffffffffffffffff1673ffffffffffffffffffffffffffffffffffffffff166391d1485460fb60009054906101000a900473ffffffffffffffffffffffffffffffffffffffff1673ffffffffffffffffffffffffffffffffffffffff16639e3411196040518163ffffffff1660e01b8152600401602060405180830381865afa1580156133c6573d6000803e3d6000fd5b505050506040513d601f19601f820116820180604052508101906133ea91906145ad565b336040518363ffffffff1660e01b81526004016134089291906145da565b602060405180830381865afa158015613425573d6000803e3d6000fd5b505050506040513d601f19601f82011682018060405250810190613449919061462f565b61347f576040517f07cc3e4200000000000000000000000000000000000000000000000000000000815260040160405180910390fd5b600073ffffffffffffffffffffffffffffffffffffffff168173ffffffffffffffffffffffffffffffffffffffff16036134e5576040517fc970156c00000000000000000000000000000000000000000000000000000000815260040160405180910390fd5b6134ee81613872565b613524576040517f6bfd14d600000000000000000000000000000000000000000000000000000000815260040160405180910390fd5b50565b6135537f4910fdfa16fed3260ed0e7147f7cc6da11a60208b5b9406d12a635614ffd914360001b613abb565b60000160009054906101000a900460ff16156135775761357283613ac5565b613690565b8273ffffffffffffffffffffffffffffffffffffffff166352d1902d6040518163ffffffff1660e01b8152600401602060405180830381865afa9250505080156135df57506040513d601f19601f820116820180604052508101906135dc91906145ad565b60015b61361e576040517f08c379a000000000000000000000000000000000000000000000000000000000815260040161361590614b16565b60405180910390fd5b7f360894a13ba1a3210667c828492db98dca3e2076cc3735a920a3ca505d382bbc60001b8114613683576040517f08c379a000000000000000000000000000000000000000000000000000000000815260040161367a90614ba8565b60405180910390fd5b5061368f838383613b7e565b5b505050565b61369d613baa565b600060c960006101000a81548160ff0219169083151502179055507f5db9ee0a495bf2e6ff9c91a7834c1ba4fdd244a5e8aa4e537bd38aeae4b073aa6136e1613bf3565b6040516136ee9190614484565b60405180910390a1565b8047101561373b576040517f08c379a000000000000000000000000000000000000000000000000000000000815260040161373290614c14565b60405180910390fd5b60008273ffffffffffffffffffffffffffffffffffffffff168260405161376190614c65565b60006040518083038185875af1925050503d806000811461379e576040519150601f19603f3d011682016040523d82523d6000602084013e6137a3565b606091505b50509050806137e7576040517f08c379a00000000000000000000000000000000000000000000000000000000081526004016137de90614cec565b60405180910390fd5b505050565b61386d8363a9059cbb60e01b848460405160240161380b929190614d0c565b604051602081830303815290604052907bffffffffffffffffffffffffffffffffffffffffffffffffffffffff19166020820180517bffffffffffffffffffffffffffffffffffffffffffffffffffffffff8381831617835250505050613bfb565b505050565b600080823b905060008111915050919050565b61388d6138e8565b600160c960006101000a81548160ff0219169083151502179055507f62e78cea01bee320cd4e420270b5ea74000d11b0c9f74754ebdbfc544b05a2586138d1613bf3565b6040516138de9190614484565b60405180910390a1565b6138f0611777565b15613930576040517f08c379a000000000000000000000000000000000000000000000000000000000815260040161392790614d81565b60405180910390fd5b565b600260655403613977576040517f08c379a000000000000000000000000000000000000000000000000000000000815260040161396e90614ded565b60405180910390fd5b6002606581905550565b6001606581905550565b6000808273ffffffffffffffffffffffffffffffffffffffff163b119050919050565b600060019054906101000a900460ff166139fd576040517f08c379a00000000000000000000000000000000000000000000000000000000081526004016139f490614e7f565b60405180910390fd5b565b600060019054906101000a900460ff16613a4e576040517f08c379a0000000000000000000000000000000000000000000000000000000008152600401613a4590614e7f565b60405180910390fd5b613a56613cc3565b565b600060019054906101000a900460ff16613aa7576040517f08c379a0000000000000000000000000000000000000000000000000000000008152600401613a9e90614e7f565b60405180910390fd5b613aaf613d1c565b565b6000819050919050565b6000819050919050565b613ace8161398b565b613b0d576040517f08c379a0000000000000000000000000000000000000000000000000000000008152600401613b0490614f11565b60405180910390fd5b80613b3a7f360894a13ba1a3210667c828492db98dca3e2076cc3735a920a3ca505d382bbc60001b613ab1565b60000160006101000a81548173ffffffffffffffffffffffffffffffffffffffff021916908373ffffffffffffffffffffffffffffffffffffffff16021790555050565b613b8783613d88565b600082511180613b945750805b15613ba557613ba38383613dd7565b505b505050565b613bb2611777565b613bf1576040517f08c379a0000000000000000000000000000000000000000000000000000000008152600401613be890614f7d565b60405180910390fd5b565b600033905090565b6000613c5d826040518060400160405280602081526020017f5361666545524332303a206c6f772d6c6576656c2063616c6c206661696c65648152508573ffffffffffffffffffffffffffffffffffffffff16613e049092919063ffffffff16565b9050600081511480613c7f575080806020019051810190613c7e919061462f565b5b613cbe576040517f08c379a0000000000000000000000000000000000000000000000000000000008152600401613cb59061500f565b60405180910390fd5b505050565b600060019054906101000a900460ff16613d12576040517f08c379a0000000000000000000000000000000000000000000000000000000008152600401613d0990614e7f565b60405180910390fd5b6001606581905550565b600060019054906101000a900460ff16613d6b576040517f08c379a0000000000000000000000000000000000000000000000000000000008152600401613d6290614e7f565b60405180910390fd5b600060c960006101000a81548160ff021916908315150217905550565b613d9181613ac5565b8073ffffffffffffffffffffffffffffffffffffffff167fbc7cd75a20ee27fd9adebab32041f755214dbc6bffa90cc0225b39da2e5c2d3b60405160405180910390a250565b6060613dfc838360405180606001604052806027815260200161521160279139613e1c565b905092915050565b6060613e138484600085613ea2565b90509392505050565b60606000808573ffffffffffffffffffffffffffffffffffffffff1685604051613e469190615095565b600060405180830381855af49150503d8060008114613e81576040519150601f19603f3d011682016040523d82523d6000602084013e613e86565b606091505b5091509150613e9786838387613f6f565b925050509392505050565b606082471015613ee7576040517f08c379a0000000000000000000000000000000000000000000000000000000008152600401613ede9061511e565b60405180910390fd5b6000808673ffffffffffffffffffffffffffffffffffffffff168587604051613f109190615095565b60006040518083038185875af1925050503d8060008114613f4d576040519150601f19603f3d011682016040523d82523d6000602084013e613f52565b606091505b5091509150613f6387838387613f6f565b92505050949350505050565b60608315613fd1576000835103613fc957613f898561398b565b613fc8576040517f08c379a0000000000000000000000000000000000000000000000000000000008152600401613fbf9061518a565b60405180910390fd5b5b829050613fdc565b613fdb8383613fe4565b5b949350505050565b600082511115613ff75781518083602001fd5b806040517f08c379a000000000000000000000000000000000000000000000000000000000815260040161402b91906151ee565b60405180910390fd5b600073ffffffffffffffffffffffffffffffffffffffff82169050919050565b6000819050919050565b600061407961407461406f84614034565b614054565b614034565b9050919050565b600061408b8261405e565b9050919050565b600061409d82614080565b9050919050565b6140ad81614092565b82525050565b60006020820190506140c860008301846140a4565b92915050565b6000819050919050565b6140e1816140ce565b82525050565b60006020820190506140fc60008301846140d8565b92915050565b6000604051905090565b600080fd5b600080fd5b600061412182614034565b9050919050565b61413181614116565b811461413c57600080fd5b50565b60008135905061414e81614128565b92915050565b60006020828403121561416a5761416961410c565b5b60006141788482850161413f565b91505092915050565b60008115159050919050565b61419681614181565b82525050565b60006020820190506141b1600083018461418d565b92915050565b6000819050919050565b6141ca816141b7565b81146141d557600080fd5b50565b6000813590506141e7816141c1565b92915050565b6000806000606084860312156142065761420561410c565b5b60006142148682870161413f565b93505060206142258682870161413f565b9250506040614236868287016141d8565b9150509250925092565b614249816140ce565b811461425457600080fd5b50565b60008135905061426681614240565b92915050565b600080600080608085870312156142865761428561410c565b5b60006142948782880161413f565b94505060206142a58782880161413f565b93505060406142b6878288016141d8565b92505060606142c787828801614257565b91505092959194509250565b600080fd5b600080fd5b6000601f19601f8301169050919050565b7f4e487b7100000000000000000000000000000000000000000000000000000000600052604160045260246000fd5b614326826142dd565b810181811067ffffffffffffffff82111715614345576143446142ee565b5b80604052505050565b6000614358614102565b9050614364828261431d565b919050565b600067ffffffffffffffff821115614384576143836142ee565b5b61438d826142dd565b9050602081019050919050565b82818337600083830152505050565b60006143bc6143b784614369565b61434e565b9050828152602081018484840111156143d8576143d76142d8565b5b6143e384828561439a565b509392505050565b600082601f830112614400576143ff6142d3565b5b81356144108482602086016143a9565b91505092915050565b600080604083850312156144305761442f61410c565b5b600061443e8582860161413f565b925050602083013567ffffffffffffffff81111561445f5761445e614111565b5b61446b858286016143eb565b9150509250929050565b61447e81614116565b82525050565b60006020820190506144996000830184614475565b92915050565b6000806000606084860312156144b8576144b761410c565b5b60006144c68682870161413f565b93505060206144d78682870161413f565b92505060406144e88682870161413f565b9150509250925092565b60006144fd82614080565b9050919050565b61450d816144f2565b82525050565b60006020820190506145286000830184614504565b92915050565b614537816141b7565b82525050565b6000602082019050614552600083018461452e565b92915050565b6000806040838503121561456f5761456e61410c565b5b600061457d8582860161413f565b925050602061458e85828601614257565b9150509250929050565b6000815190506145a781614240565b92915050565b6000602082840312156145c3576145c261410c565b5b60006145d184828501614598565b91505092915050565b60006040820190506145ef60008301856140d8565b6145fc6020830184614475565b9392505050565b61460c81614181565b811461461757600080fd5b50565b60008151905061462981614603565b92915050565b6000602082840312156146455761464461410c565b5b60006146538482850161461a565b91505092915050565b60006080820190506146716000830187614475565b61467e6020830186614475565b61468b604083018561452e565b61469860608301846140d8565b95945050505050565b600082825260208201905092915050565b7f46756e6374696f6e206d7573742062652063616c6c6564207468726f7567682060008201527f64656c656761746563616c6c0000000000000000000000000000000000000000602082015250565b600061470e602c836146a1565b9150614719826146b2565b604082019050919050565b6000602082019050818103600083015261473d81614701565b9050919050565b7f46756e6374696f6e206d7573742062652063616c6c6564207468726f7567682060008201527f6163746976652070726f78790000000000000000000000000000000000000000602082015250565b60006147a0602c836146a1565b91506147ab82614744565b604082019050919050565b600060208201905081810360008301526147cf81614793565b9050919050565b60006080820190506147eb60008301876140d8565b6147f86020830186614475565b6148056040830185614475565b614812606083018461452e565b95945050505050565b7f4e487b7100000000000000000000000000000000000000000000000000000000600052601160045260246000fd5b6000614855826141b7565b9150614860836141b7565b92508282039050818111156148785761487761481b565b5b92915050565b60008151905061488d816141c1565b92915050565b6000602082840312156148a9576148a861410c565b5b60006148b78482850161487e565b91505092915050565b7f555550535570677261646561626c653a206d757374206e6f742062652063616c60008201527f6c6564207468726f7567682064656c656761746563616c6c0000000000000000602082015250565b600061491c6038836146a1565b9150614927826148c0565b604082019050919050565b6000602082019050818103600083015261494b8161490f565b9050919050565b60006040820190506149676000830185614475565b61497460208301846140d8565b9392505050565b6000614986826141b7565b9150614991836141b7565b92508282019050808211156149a9576149a861481b565b5b92915050565b7f496e697469616c697a61626c653a20636f6e747261637420697320616c72656160008201527f647920696e697469616c697a6564000000000000000000000000000000000000602082015250565b6000614a0b602e836146a1565b9150614a16826149af565b604082019050919050565b60006020820190508181036000830152614a3a816149fe565b9050919050565b6000819050919050565b600060ff82169050919050565b6000614a73614a6e614a6984614a41565b614054565b614a4b565b9050919050565b614a8381614a58565b82525050565b6000602082019050614a9e6000830184614a7a565b92915050565b7f45524331393637557067726164653a206e657720696d706c656d656e7461746960008201527f6f6e206973206e6f742055555053000000000000000000000000000000000000602082015250565b6000614b00602e836146a1565b9150614b0b82614aa4565b604082019050919050565b60006020820190508181036000830152614b2f81614af3565b9050919050565b7f45524331393637557067726164653a20756e737570706f727465642070726f7860008201527f6961626c65555549440000000000000000000000000000000000000000000000602082015250565b6000614b926029836146a1565b9150614b9d82614b36565b604082019050919050565b60006020820190508181036000830152614bc181614b85565b9050919050565b7f416464726573733a20696e73756666696369656e742062616c616e6365000000600082015250565b6000614bfe601d836146a1565b9150614c0982614bc8565b602082019050919050565b60006020820190508181036000830152614c2d81614bf1565b9050919050565b600081905092915050565b50565b6000614c4f600083614c34565b9150614c5a82614c3f565b600082019050919050565b6000614c7082614c42565b9150819050919050565b7f416464726573733a20756e61626c6520746f2073656e642076616c75652c207260008201527f6563697069656e74206d61792068617665207265766572746564000000000000602082015250565b6000614cd6603a836146a1565b9150614ce182614c7a565b604082019050919050565b60006020820190508181036000830152614d0581614cc9565b9050919050565b6000604082019050614d216000830185614475565b614d2e602083018461452e565b9392505050565b7f5061757361626c653a2070617573656400000000000000000000000000000000600082015250565b6000614d6b6010836146a1565b9150614d7682614d35565b602082019050919050565b60006020820190508181036000830152614d9a81614d5e565b9050919050565b7f5265656e7472616e637947756172643a207265656e7472616e742063616c6c00600082015250565b6000614dd7601f836146a1565b9150614de282614da1565b602082019050919050565b60006020820190508181036000830152614e0681614dca565b9050919050565b7f496e697469616c697a61626c653a20636f6e7472616374206973206e6f74206960008201527f6e697469616c697a696e67000000000000000000000000000000000000000000602082015250565b6000614e69602b836146a1565b9150614e7482614e0d565b604082019050919050565b60006020820190508181036000830152614e9881614e5c565b9050919050565b7f455243313936373a206e657720696d706c656d656e746174696f6e206973206e60008201527f6f74206120636f6e747261637400000000000000000000000000000000000000602082015250565b6000614efb602d836146a1565b9150614f0682614e9f565b604082019050919050565b60006020820190508181036000830152614f2a81614eee565b9050919050565b7f5061757361626c653a206e6f7420706175736564000000000000000000000000600082015250565b6000614f676014836146a1565b9150614f7282614f31565b602082019050919050565b60006020820190508181036000830152614f9681614f5a565b9050919050565b7f5361666545524332303a204552433230206f7065726174696f6e20646964206e60008201527f6f74207375636365656400000000000000000000000000000000000000000000602082015250565b6000614ff9602a836146a1565b915061500482614f9d565b604082019050919050565b6000602082019050818103600083015261502881614fec565b9050919050565b600081519050919050565b60005b8381101561505857808201518184015260208101905061503d565b60008484015250505050565b600061506f8261502f565b6150798185614c34565b935061508981856020860161503a565b80840191505092915050565b60006150a18284615064565b915081905092915050565b7f416464726573733a20696e73756666696369656e742062616c616e636520666f60008201527f722063616c6c0000000000000000000000000000000000000000000000000000602082015250565b60006151086026836146a1565b9150615113826150ac565b604082019050919050565b60006020820190508181036000830152615137816150fb565b9050919050565b7f416464726573733a2063616c6c20746f206e6f6e2d636f6e7472616374000000600082015250565b6000615174601d836146a1565b915061517f8261513e565b602082019050919050565b600060208201905081810360008301526151a381615167565b9050919050565b600081519050919050565b60006151c0826151aa565b6151ca81856146a1565b93506151da81856020860161503a565b6151e3816142dd565b840191505092915050565b6000602082019050818103600083015261520881846151b5565b90509291505056fe416464726573733a206c6f772d6c6576656c2064656c65676174652063616c6c206661696c6564a2646970667358221220093bceb250b58967261cd2ff2f29217c213d298324aac5904b8f8e6e2c1c24fa64736f6c63430008130033","linkReferences":{}},"methodIdentifiers":{"RECOVER_FUNDS()":"80d02816","SET_WALLETROUTER()":"4d9710dd","SWEEP_DUST()":"198f47a0","addSupportedToken(address)":"6d69fcaf","handleDeposit(address,address,uint256)":"bdc631d4","handleWithdrawal(address,address,uint256)":"ba313e34","initialize(address,address,address)":"c0c53b8b","isSupportedToken(address)":"240028e8","pause()":"8456cb59","paused()":"5c975abb","proposeRecoverFunds(address,address,uint256)":"80e03c58","proposeSetWalletRouter(address)":"77a9b404","proposeSweepDust(address,address,uint256)":"26f604c3","proxiableUUID()":"52d1902d","recoverFunds(address,address,uint256,bytes32)":"4119f9fb","removeSupportedToken(address)":"76319190","roleManager()":"00435da5","setWalletRouter(address,bytes32)":"f6aea45c","supportedTokens(address)":"68c4ac26","sweepDust(address,address,uint256,bytes32)":"49d318aa","timelock()":"d33219b4","totalDeposits(address)":"e9403256","unpause()":"3f4ba83a","upgradeTo(address)":"3659cfe6","upgradeToAndCall(address,bytes)":"4f1ef286","walletRouter()":"b3664c75"},"id":7}