{"abi":[{"type":"constructor","inputs":[],"stateMutability":"nonpayable"},{"type":"receive","stateMutability":"payable"},{"type":"function","name":"RECOVER_FUNDS","inputs":[],"outputs":[{"name":"","type":"bytes32","internalType":"bytes32"}],"stateMutability":"view"},{"type":"function","name":"SET_WALLETROUTER","inputs":[],"outputs":[{"name":"","type":"bytes32","internalType":"bytes32"}],"stateMutability":"view"},{"type":"function","name":"SWEEP_DUST","inputs":[],"outputs":[{"name":"","type":"bytes32","internalType":"bytes32"}],"stateMutability":"view"},{"type":"function","name":"addSupportedToken","inputs":[{"name":"token","type":"address","internalType":"address"}],"outputs":[],"stateMutability":"nonpayable"},{"type":"function","name":"handleDeposit","inputs":[{"name":"user","type":"address","internalType":"address"},{"name":"token","type":"address","internalType":"address"},{"name":"amount","type":"uint256","internalType":"uint256"}],"outputs":[],"stateMutability":"payable"},{"type":"function","name":"handleWithdrawal","inputs":[{"name":"recipient","type":"address","internalType":"address"},{"name":"token","type":"address","internalType":"address"},{"name":"amount","type":"uint256","internalType":"uint256"}],"outputs":[],"stateMutability":"nonpayable"},{"type":"function","name":"initialize","inputs":[{"name":"_roleManager","type":"address","internalType":"address"},{"name":"_walletRouter","type":"address","internalType":"address"},{"name":"_timelock","type":"address","internalType":"address"}],"outputs":[],"stateMutability":"nonpayable"},{"type":"function","name":"isSupportedToken","inputs":[{"name":"token","type":"address","internalType":"address"}],"outputs":[{"name":"","type":"bool","internalType":"bool"}],"stateMutability":"view"},{"type":"function","name":"pause","inputs":[],"outputs":[],"stateMutability":"nonpayable"},{"type":"function","name":"paused","inputs":[],"outputs":[{"name":"","type":"bool","internalType":"bool"}],"stateMutability":"view"},{"type":"function","name":"proposeRecoverFunds","inputs":[{"name":"token","type":"address","internalType":"address"},{"name":"recipient","type":"address","internalType":"address"},{"name":"amount","type":"uint256","internalType":"uint256"}],"outputs":[],"stateMutability":"nonpayable"},{"type":"function","name":"proposeSetWalletRouter","inputs":[{"name":"_walletRouter","type":"address","internalType":"address"}],"outputs":[],"stateMutability":"nonpayable"},{"type":"function","name":"proposeSweepDust","inputs":[{"name":"token","type":"address","internalType":"address"},{"name":"to","type":"address","internalType":"address"},{"name":"amount","type":"uint256","internalType":"uint256"}],"outputs":[],"stateMutability":"nonpayable"},{"type":"function","name":"proxiableUUID","inputs":[],"outputs":[{"name":"","type":"bytes32","internalType":"bytes32"}],"stateMutability":"view"},{"type":"function","name":"recoverFunds","inputs":[{"name":"token","type":"address","internalType":"address"},{"name":"recipient","type":"address","internalType":"address"},{"name":"amount","type":"uint256","internalType":"uint256"},{"name":"actionId","type":"bytes32","internalType":"bytes32"}],"outputs":[],"stateMutability":"nonpayable"},{"type":"function","name":"removeSupportedToken","inputs":[{"name":"token","type":"address","internalType":"address"}],"outputs":[],"stateMutability":"nonpayable"},{"type":"function","name":"roleManager","inputs":[],"outputs":[{"name":"","type":"address","internalType":"contract IRoleManager"}],"stateMutability":"view"},{"type":"function","name":"setWalletRouter","inputs":[{"name":"_walletRouter","type":"address","internalType":"address"},{"name":"actionId","type":"bytes32","internalType":"bytes32"}],"outputs":[],"stateMutability":"nonpayable"},{"type":"function","name":"supportedTokens","inputs":[{"name":"","type":"address","internalType":"address"}],"outputs":[{"name":"","type":"bool","internalType":"bool"}],"stateMutability":"view"},{"type":"function","name":"sweepDust","inputs":[{"name":"token","type":"address","internalType":"address"},{"name":"to","type":"address","internalType":"address"},{"name":"amount","type":"uint256","internalType":"uint256"},{"name":"actionId","type":"bytes32","internalType":"bytes32"}],"outputs":[],"stateMutability":"nonpayable"},{"type":"function","name":"timelock","inputs":[],"outputs":[{"name":"","type":"address","internalType":"contract ITimelock"}],"stateMutability":"view"},{"type":"function","name":"totalDeposits","inputs":[{"name":"","type":"address","internalType":"address"}],"outputs":[{"name":"","type":"uint256","internalType":"uint256"}],"stateMutability":"view"},{"type":"function","name":"unpause","inputs":[],"outputs":[],"stateMutability":"nonpayable"},{"type":"function","name":"upgradeTo","inputs":[{"name":"newImplementation","type":"address","internalType":"address"}],"outputs":[],"stateMutability":"nonpayable"},{"type":"function","name":"upgradeToAndCall","inputs":[{"name":"newImplementation","type":"address","internalType":"address"},{"name":"data","type":"bytes","internalType":"bytes"}],"outputs":[],"stateMutability":"payable"},{"type":"function","name":"walletRouter","inputs":[],"outputs":[{"name":"","type":"address","internalType":"address"}],"stateMutability":"view"},{"type":"event","name":"AdminChanged","inputs":[{"name":"previousAdmin","type":"address","indexed":false,"internalType":"address"},{"name":"newAdmin","type":"address","indexed":false,"internalType":"address"}],"anonymous":false},{"type":"event","name":"BeaconUpgraded","inputs":[{"name":"beacon","type":"address","indexed":true,"internalType":"address"}],"anonymous":false},{"type":"event","name":"DepositProcessed","inputs":[{"name":"user","type":"address","indexed":true,"internalType":"address"},{"name":"token","type":"address","indexed":true,"internalType":"address"},{"name":"amount","type":"uint256","indexed":false,"internalType":"uint256"}],"anonymous":false},{"type":"event","name":"DustSwept","inputs":[{"name":"token","type":"address","indexed":true,"internalType":"address"},{"name":"to","type":"address","indexed":true,"internalType":"address"},{"name":"amount","type":"uint256","indexed":false,"internalType":"uint256"}],"anonymous":false},{"type":"event","name":"FundsRecovered","inputs":[{"name":"token","type":"address","indexed":true,"internalType":"address"},{"name":"recipient","type":"address","indexed":true,"internalType":"address"},{"name":"amount","type":"uint256","indexed":false,"internalType":"uint256"}],"anonymous":false},{"type":"event","name":"Initialized","inputs":[{"name":"version","type":"uint8","indexed":false,"internalType":"uint8"}],"anonymous":false},{"type":"event","name":"Paused","inputs":[{"name":"account","type":"address","indexed":false,"internalType":"address"}],"anonymous":false},{"type":"event","name":"TokenSupportAdded","inputs":[{"name":"token","type":"address","indexed":true,"internalType":"address"}],"anonymous":false},{"type":"event","name":"TokenSupportRemoved","inputs":[{"name":"token","type":"address","indexed":true,"internalType":"address"}],"anonymous":false},{"type":"event","name":"Unpaused","inputs":[{"name":"account","type":"address","indexed":false,"internalType":"address"}],"anonymous":false},{"type":"event","name":"Upgraded","inputs":[{"name":"implementation","type":"address","indexed":true,"internalType":"address"}],"anonymous":false},{"type":"event","name":"WalletRouterSet","inputs":[{"name":"walletRouter","type":"address","indexed":true,"internalType":"address"}],"anonymous":false},{"type":"event","name":"WithdrawalProcessed","inputs":[{"name":"recipient","type":"address","indexed":true,"internalType":"address"},{"name":"token","type":"address","indexed":true,"internalType":"address"},{"name":"amount","type":"uint256","indexed":false,"internalType":"uint256"}],"anonymous":false},{"type":"error","name":"CallerLacksVaultAdminRole","inputs":[]},{"type":"error","name":"CannotRemoveTokenWithDeposits","inputs":[]},{"type":"error","name":"CannotSweepTokenWithDeposit","inputs":[]},{"type":"error","name":"ExecutionFailed","inputs":[]},{"type":"error","name":"ImplementationIsNotAContract","inputs":[]},{"type":"error","name":"InsufficientTrackedDeposits","inputs":[]},{"type":"error","name":"InsufficientVaultETHBalance","inputs":[]},{"type":"error","name":"InsufficientVaultTokenBalance","inputs":[]},{"type":"error","name":"InvalidAmount","inputs":[]},{"type":"error","name":"InvalidImplementationAddress","inputs":[]},{"type":"error","name":"InvalidRecipient","inputs":[]},{"type":"error","name":"InvalidRoleManager","inputs":[]},{"type":"error","name":"InvalidTimelock","inputs":[]},{"type":"error","name":"InvalidWalletRouter","inputs":[]},{"type":"error","name":"RecoverFundsNotExecuted","inputs":[]},{"type":"error","name":"SetWalletRouterNotExecuted","inputs":[]},{"type":"error","name":"TokenAlreadySupported","inputs":[]},{"type":"error","name":"TokenIsNotAContract","inputs":[]},{"type":"error","name":"TokenNotSupported","inputs":[]},{"type":"error","name":"VaultHasETHBalance","inputs":[]},{"type":"error","name":"VaultHasTokenBalance","inputs":[]},{"type":"error","name":"WalletRouterIsNotAContract","inputs":[]}],"bytecode":{"object":"0x60a06040523073ffffffffffffffffffffffffffffffffffffffff1660809073ffffffffffffffffffffffffffffffffffffffff168152503480156200004457600080fd5b50620000556200005b60201b60201c565b62000205565b600060019054906101000a900460ff1615620000ae576040517f08c379a0000000000000000000000000000000000000000000000000000000008152600401620000a590620001a8565b60405180910390fd5b60ff801660008054906101000a900460ff1660ff16146200011f5760ff6000806101000a81548160ff021916908360ff1602179055507f7f26b83ff96e1f2b6a682f133852f6798a09c465da95921460cefb384740249860ff604051620001169190620001e8565b60405180910390a15b565b600082825260208201905092915050565b7f496e697469616c697a61626c653a20636f6e747261637420697320696e69746960008201527f616c697a696e6700000000000000000000000000000000000000000000000000602082015250565b60006200019060278362000121565b91506200019d8262000132565b604082019050919050565b60006020820190508181036000830152620001c38162000181565b9050919050565b600060ff82169050919050565b620001e281620001ca565b82525050565b6000602082019050620001ff6000830184620001d7565b92915050565b6080516152ef6200023d60003960008181610926015281816109b4015281816115830152818161161101526116c101526152ef6000f3fe6080604052600436106101845760003560e01c80636d69fcaf116100d1578063b3664c751161008a578063c0c53b8b11610064578063c0c53b8b1461050e578063d33219b414610537578063e940325614610562578063f6aea45c1461059f5761018b565b8063b3664c751461049e578063ba313e34146104c9578063bdc631d4146104f25761018b565b80636d69fcaf146103b857806376319190146103e157806377a9b4041461040a57806380d028161461043357806380e03c581461045e5780638456cb59146104875761018b565b80634119f9fb1161013e5780634f1ef286116101185780634f1ef2861461030957806352d1902d146103255780635c975abb1461035057806368c4ac261461037b5761018b565b80634119f9fb1461028c57806349d318aa146102b55780634d9710dd146102de5761018b565b8062435da514610190578063198f47a0146101bb578063240028e8146101e657806326f604c3146102235780633659cfe61461024c5780633f4ba83a146102755761018b565b3661018b57005b600080fd5b34801561019c57600080fd5b506101a56105c8565b6040516101b29190614135565b60405180910390f35b3480156101c757600080fd5b506101d06105ee565b6040516101dd9190614169565b60405180910390f35b3480156101f257600080fd5b5061020d600480360381019061020891906141d6565b610612565b60405161021a919061421e565b60405180910390f35b34801561022f57600080fd5b5061024a6004803603810190610245919061426f565b610668565b005b34801561025857600080fd5b50610273600480360381019061026e91906141d6565b610924565b005b34801561028157600080fd5b5061028a610aac565b005b34801561029857600080fd5b506102b360048036038101906102ae91906142ee565b610c1a565b005b3480156102c157600080fd5b506102dc60048036038101906102d791906142ee565b611020565b005b3480156102ea57600080fd5b506102f361155d565b6040516103009190614169565b60405180910390f35b610323600480360381019061031e919061449b565b611581565b005b34801561033157600080fd5b5061033a6116bd565b6040516103479190614169565b60405180910390f35b34801561035c57600080fd5b50610365611776565b604051610372919061421e565b60405180910390f35b34801561038757600080fd5b506103a2600480360381019061039d91906141d6565b61178d565b6040516103af919061421e565b60405180910390f35b3480156103c457600080fd5b506103df60048036038101906103da91906141d6565b6117ad565b005b3480156103ed57600080fd5b50610408600480360381019061040391906141d6565b611aa7565b005b34801561041657600080fd5b50610431600480360381019061042c91906141d6565b611ecc565b005b34801561043f57600080fd5b50610448612148565b6040516104559190614169565b60405180910390f35b34801561046a57600080fd5b506104856004803603810190610480919061426f565b61216c565b005b34801561049357600080fd5b5061049c6124ab565b005b3480156104aa57600080fd5b506104b3612619565b6040516104c09190614506565b60405180910390f35b3480156104d557600080fd5b506104f060048036038101906104eb919061426f565b61263f565b005b61050c6004803603810190610507919061426f565b612a51565b005b34801561051a57600080fd5b5061053560048036038101906105309190614521565b612c25565b005b34801561054357600080fd5b5061054c613046565b6040516105599190614595565b60405180910390f35b34801561056e57600080fd5b50610589600480360381019061058491906141d6565b61306c565b60405161059691906145bf565b60405180910390f35b3480156105ab57600080fd5b506105c660048036038101906105c191906145da565b613084565b005b60fb60009054906101000a900473ffffffffffffffffffffffffffffffffffffffff1681565b7f735a6278d686946bd6e3ab3aaae46874c3e0684299ed17d4fe504767e2d5b69681565b600060fe60008373ffffffffffffffffffffffffffffffffffffffff1673ffffffffffffffffffffffffffffffffffffffff16815260200190815260200160002060009054906101000a900460ff169050919050565b60fb60009054906101000a900473ffffffffffffffffffffffffffffffffffffffff1673ffffffffffffffffffffffffffffffffffffffff166391d1485460fb60009054906101000a900473ffffffffffffffffffffffffffffffffffffffff1673ffffffffffffffffffffffffffffffffffffffff16639e3411196040518163ffffffff1660e01b8152600401602060405180830381865afa158015610713573d6000803e3d6000fd5b505050506040513d601f19601f82011682018060405250810190610737919061462f565b336040518363ffffffff1660e01b815260040161075592919061465c565b602060405180830381865afa158015610772573d6000803e3d6000fd5b505050506040513d601f19601f8201168201806040525081019061079691906146b1565b6107cc576040517f07cc3e4200000000000000000000000000000000000000000000000000000000815260040160405180910390fd5b600073ffffffffffffffffffffffffffffffffffffffff168273ffffffffffffffffffffffffffffffffffffffff1603610832576040517f9c8d2cd200000000000000000000000000000000000000000000000000000000815260040160405180910390fd5b6000810361086c576040517f2c5211c600000000000000000000000000000000000000000000000000000000815260040160405180910390fd5b60fc60009054906101000a900473ffffffffffffffffffffffffffffffffffffffff1673ffffffffffffffffffffffffffffffffffffffff16639fef5c318484847f735a6278d686946bd6e3ab3aaae46874c3e0684299ed17d4fe504767e2d5b6966040518563ffffffff1660e01b81526004016108ed94939291906146de565b600060405180830381600087803b15801561090757600080fd5b505af115801561091b573d6000803e3d6000fd5b50505050505050565b7f000000000000000000000000000000000000000000000000000000000000000073ffffffffffffffffffffffffffffffffffffffff163073ffffffffffffffffffffffffffffffffffffffff16036109b2576040517f08c379a00000000000000000000000000000000000000000000000000000000081526004016109a9906147a6565b60405180910390fd5b7f000000000000000000000000000000000000000000000000000000000000000073ffffffffffffffffffffffffffffffffffffffff166109f1613346565b73ffffffffffffffffffffffffffffffffffffffff1614610a47576040517f08c379a0000000000000000000000000000000000000000000000000000000008152600401610a3e90614838565b60405180910390fd5b610a508161339d565b610aa981600067ffffffffffffffff811115610a6f57610a6e614370565b5b6040519080825280601f01601f191660200182016040528015610aa15781602001600182028036833780820191505090505b5060006135a9565b50565b60fb60009054906101000a900473ffffffffffffffffffffffffffffffffffffffff1673ffffffffffffffffffffffffffffffffffffffff166391d1485460fb60009054906101000a900473ffffffffffffffffffffffffffffffffffffffff1673ffffffffffffffffffffffffffffffffffffffff16639e3411196040518163ffffffff1660e01b8152600401602060405180830381865afa158015610b57573d6000803e3d6000fd5b505050506040513d601f19601f82011682018060405250810190610b7b919061462f565b336040518363ffffffff1660e01b8152600401610b9992919061465c565b602060405180830381865afa158015610bb6573d6000803e3d6000fd5b505050506040513d601f19601f82011682018060405250810190610bda91906146b1565b610c10576040517f07cc3e4200000000000000000000000000000000000000000000000000000000815260040160405180910390fd5b610c18613717565b565b60fb60009054906101000a900473ffffffffffffffffffffffffffffffffffffffff1673ffffffffffffffffffffffffffffffffffffffff166391d1485460fb60009054906101000a900473ffffffffffffffffffffffffffffffffffffffff1673ffffffffffffffffffffffffffffffffffffffff16639e3411196040518163ffffffff1660e01b8152600401602060405180830381865afa158015610cc5573d6000803e3d6000fd5b505050506040513d601f19601f82011682018060405250810190610ce9919061462f565b336040518363ffffffff1660e01b8152600401610d0792919061465c565b602060405180830381865afa158015610d24573d6000803e3d6000fd5b505050506040513d601f19601f82011682018060405250810190610d4891906146b1565b610d7e576040517f07cc3e4200000000000000000000000000000000000000000000000000000000815260040160405180910390fd5b60fc60009054906101000a900473ffffffffffffffffffffffffffffffffffffffff1673ffffffffffffffffffffffffffffffffffffffff166341529457828686866040518563ffffffff1660e01b8152600401610ddf9493929190614858565b6020604051808303816000875af1158015610dfe573d6000803e3d6000fd5b505050506040513d601f19601f82011682018060405250810190610e2291906146b1565b610e58576040517f9b24acd700000000000000000000000000000000000000000000000000000000815260040160405180910390fd5b8160ff60008673ffffffffffffffffffffffffffffffffffffffff1673ffffffffffffffffffffffffffffffffffffffff168152602001908152602001600020541015610ed1576040517f9547624100000000000000000000000000000000000000000000000000000000815260040160405180910390fd5b8160ff60008673ffffffffffffffffffffffffffffffffffffffff1673ffffffffffffffffffffffffffffffffffffffff1681526020019081526020016000206000828254610f2091906148cc565b92505081905550600073ffffffffffffffffffffffffffffffffffffffff168473ffffffffffffffffffffffffffffffffffffffff1603610f8957610f84828473ffffffffffffffffffffffffffffffffffffffff1661377a90919063ffffffff16565b610fb5565b610fb483838673ffffffffffffffffffffffffffffffffffffffff1661386e9092919063ffffffff16565b5b8273ffffffffffffffffffffffffffffffffffffffff168473ffffffffffffffffffffffffffffffffffffffff167f13e06184555481b6d2cb327155e8d2e1d0b1f0252a7fe6621e32cf99881488358460405161101291906145bf565b60405180910390a350505050565b60fb60009054906101000a900473ffffffffffffffffffffffffffffffffffffffff1673ffffffffffffffffffffffffffffffffffffffff166391d1485460fb60009054906101000a900473ffffffffffffffffffffffffffffffffffffffff1673ffffffffffffffffffffffffffffffffffffffff16639e3411196040518163ffffffff1660e01b8152600401602060405180830381865afa1580156110cb573d6000803e3d6000fd5b505050506040513d601f19601f820116820180604052508101906110ef919061462f565b336040518363ffffffff1660e01b815260040161110d92919061465c565b602060405180830381865afa15801561112a573d6000803e3d6000fd5b505050506040513d601f19601f8201168201806040525081019061114e91906146b1565b611184576040517f07cc3e4200000000000000000000000000000000000000000000000000000000815260040160405180910390fd5b600082036111be576040517f2c5211c600000000000000000000000000000000000000000000000000000000815260040160405180910390fd5b60fc60009054906101000a900473ffffffffffffffffffffffffffffffffffffffff1673ffffffffffffffffffffffffffffffffffffffff1663343d92f6828686866040518563ffffffff1660e01b815260040161121f9493929190614858565b6020604051808303816000875af115801561123e573d6000803e3d6000fd5b505050506040513d601f19601f8201168201806040525081019061126291906146b1565b611298576040517facfdb44400000000000000000000000000000000000000000000000000000000815260040160405180910390fd5b600073ffffffffffffffffffffffffffffffffffffffff168473ffffffffffffffffffffffffffffffffffffffff160361138457600060ff60008073ffffffffffffffffffffffffffffffffffffffff1673ffffffffffffffffffffffffffffffffffffffff168152602001908152602001600020544761131991906148cc565b905080831115611355576040517fad88746100000000000000000000000000000000000000000000000000000000815260040160405180910390fd5b61137e838573ffffffffffffffffffffffffffffffffffffffff1661377a90919063ffffffff16565b506114f2565b61138d846138f4565b6113c3576040517f73d39f9d00000000000000000000000000000000000000000000000000000000815260040160405180910390fd5b600060ff60008673ffffffffffffffffffffffffffffffffffffffff1673ffffffffffffffffffffffffffffffffffffffff168152602001908152602001600020548573ffffffffffffffffffffffffffffffffffffffff166370a08231306040518263ffffffff1660e01b815260040161143e9190614506565b602060405180830381865afa15801561145b573d6000803e3d6000fd5b505050506040513d601f19601f8201168201806040525081019061147f9190614915565b61148991906148cc565b9050808311156114c5576040517fad88746100000000000000000000000000000000000000000000000000000000815260040160405180910390fd5b6114f084848773ffffffffffffffffffffffffffffffffffffffff1661386e9092919063ffffffff16565b505b8273ffffffffffffffffffffffffffffffffffffffff168473ffffffffffffffffffffffffffffffffffffffff167f3981c3c93633524805c93b00b61aa75cc59cd423c30c502354a7c347b0b225248460405161154f91906145bf565b60405180910390a350505050565b7febfe40e1a907df098b25552533043ed6632f34e704c7c0a934075ee697b8a3be81565b7f000000000000000000000000000000000000000000000000000000000000000073ffffffffffffffffffffffffffffffffffffffff163073ffffffffffffffffffffffffffffffffffffffff160361160f576040517f08c379a0000000000000000000000000000000000000000000000000000000008152600401611606906147a6565b60405180910390fd5b7f000000000000000000000000000000000000000000000000000000000000000073ffffffffffffffffffffffffffffffffffffffff1661164e613346565b73ffffffffffffffffffffffffffffffffffffffff16146116a4576040517f08c379a000000000000000000000000000000000000000000000000000000000815260040161169b90614838565b60405180910390fd5b6116ad8261339d565b6116b9828260016135a9565b5050565b60007f000000000000000000000000000000000000000000000000000000000000000073ffffffffffffffffffffffffffffffffffffffff163073ffffffffffffffffffffffffffffffffffffffff161461174d576040517f08c379a0000000000000000000000000000000000000000000000000000000008152600401611744906149b4565b60405180910390fd5b7f360894a13ba1a3210667c828492db98dca3e2076cc3735a920a3ca505d382bbc60001b905090565b600060c960009054906101000a900460ff16905090565b60fe6020528060005260406000206000915054906101000a900460ff1681565b60fb60009054906101000a900473ffffffffffffffffffffffffffffffffffffffff1673ffffffffffffffffffffffffffffffffffffffff166391d1485460fb60009054906101000a900473ffffffffffffffffffffffffffffffffffffffff1673ffffffffffffffffffffffffffffffffffffffff16639e3411196040518163ffffffff1660e01b8152600401602060405180830381865afa158015611858573d6000803e3d6000fd5b505050506040513d601f19601f8201168201806040525081019061187c919061462f565b336040518363ffffffff1660e01b815260040161189a92919061465c565b602060405180830381865afa1580156118b7573d6000803e3d6000fd5b505050506040513d601f19601f820116820180604052508101906118db91906146b1565b611911576040517f07cc3e4200000000000000000000000000000000000000000000000000000000815260040160405180910390fd5b60fe60008273ffffffffffffffffffffffffffffffffffffffff1673ffffffffffffffffffffffffffffffffffffffff16815260200190815260200160002060009054906101000a900460ff1615611995576040517fc78e82ad00000000000000000000000000000000000000000000000000000000815260040160405180910390fd5b600073ffffffffffffffffffffffffffffffffffffffff168173ffffffffffffffffffffffffffffffffffffffff1614611a09576119d2816138f4565b611a08576040517f73d39f9d00000000000000000000000000000000000000000000000000000000815260040160405180910390fd5b5b600160fe60008373ffffffffffffffffffffffffffffffffffffffff1673ffffffffffffffffffffffffffffffffffffffff16815260200190815260200160002060006101000a81548160ff0219169083151502179055508073ffffffffffffffffffffffffffffffffffffffff167f8f50fda9bf5d3b403c53b7e91646abd507f8cebf2577655d55d7de3926168b1760405160405180910390a250565b60fb60009054906101000a900473ffffffffffffffffffffffffffffffffffffffff1673ffffffffffffffffffffffffffffffffffffffff166391d1485460fb60009054906101000a900473ffffffffffffffffffffffffffffffffffffffff1673ffffffffffffffffffffffffffffffffffffffff16639e3411196040518163ffffffff1660e01b8152600401602060405180830381865afa158015611b52573d6000803e3d6000fd5b505050506040513d601f19601f82011682018060405250810190611b76919061462f565b336040518363ffffffff1660e01b8152600401611b9492919061465c565b602060405180830381865afa158015611bb1573d6000803e3d6000fd5b505050506040513d601f19601f82011682018060405250810190611bd591906146b1565b611c0b576040517f07cc3e4200000000000000000000000000000000000000000000000000000000815260040160405180910390fd5b60fe60008273ffffffffffffffffffffffffffffffffffffffff1673ffffffffffffffffffffffffffffffffffffffff16815260200190815260200160002060009054906101000a900460ff16611c8e576040517f3dd1b30500000000000000000000000000000000000000000000000000000000815260040160405180910390fd5b600060ff60008373ffffffffffffffffffffffffffffffffffffffff1673ffffffffffffffffffffffffffffffffffffffff1681526020019081526020016000205414611d07576040517f831a2b9100000000000000000000000000000000000000000000000000000000815260040160405180910390fd5b600073ffffffffffffffffffffffffffffffffffffffff168173ffffffffffffffffffffffffffffffffffffffff1603611d7a5760004714611d75576040517f4977424700000000000000000000000000000000000000000000000000000000815260040160405180910390fd5b611e2e565b60008173ffffffffffffffffffffffffffffffffffffffff166370a08231306040518263ffffffff1660e01b8152600401611db59190614506565b602060405180830381865afa158015611dd2573d6000803e3d6000fd5b505050506040513d601f19601f82011682018060405250810190611df69190614915565b14611e2d576040517fdbf2422000000000000000000000000000000000000000000000000000000000815260040160405180910390fd5b5b600060fe60008373ffffffffffffffffffffffffffffffffffffffff1673ffffffffffffffffffffffffffffffffffffffff16815260200190815260200160002060006101000a81548160ff0219169083151502179055508073ffffffffffffffffffffffffffffffffffffffff167f1cef54ca6e1745ad87fa3077491d9fc42257e9f1a2d7cad58a4e52bd14dfc62660405160405180910390a250565b60fb60009054906101000a900473ffffffffffffffffffffffffffffffffffffffff1673ffffffffffffffffffffffffffffffffffffffff166391d1485460fb60009054906101000a900473ffffffffffffffffffffffffffffffffffffffff1673ffffffffffffffffffffffffffffffffffffffff16639e3411196040518163ffffffff1660e01b8152600401602060405180830381865afa158015611f77573d6000803e3d6000fd5b505050506040513d601f19601f82011682018060405250810190611f9b919061462f565b336040518363ffffffff1660e01b8152600401611fb992919061465c565b602060405180830381865afa158015611fd6573d6000803e3d6000fd5b505050506040513d601f19601f82011682018060405250810190611ffa91906146b1565b612030576040517f07cc3e4200000000000000000000000000000000000000000000000000000000815260040160405180910390fd5b600073ffffffffffffffffffffffffffffffffffffffff168173ffffffffffffffffffffffffffffffffffffffff1603612096576040517f4901974200000000000000000000000000000000000000000000000000000000815260040160405180910390fd5b60fc60009054906101000a900473ffffffffffffffffffffffffffffffffffffffff1673ffffffffffffffffffffffffffffffffffffffff166306df5e85827febfe40e1a907df098b25552533043ed6632f34e704c7c0a934075ee697b8a3be6040518363ffffffff1660e01b81526004016121139291906149d4565b600060405180830381600087803b15801561212d57600080fd5b505af1158015612141573d6000803e3d6000fd5b5050505050565b7f20fdf5e0231b01bbf4a13cac8ebdc15bc3cac177cb34c02a16b7fc0fea7cc6a081565b60fb60009054906101000a900473ffffffffffffffffffffffffffffffffffffffff1673ffffffffffffffffffffffffffffffffffffffff166391d1485460fb60009054906101000a900473ffffffffffffffffffffffffffffffffffffffff1673ffffffffffffffffffffffffffffffffffffffff16639e3411196040518163ffffffff1660e01b8152600401602060405180830381865afa158015612217573d6000803e3d6000fd5b505050506040513d601f19601f8201168201806040525081019061223b919061462f565b336040518363ffffffff1660e01b815260040161225992919061465c565b602060405180830381865afa158015612276573d6000803e3d6000fd5b505050506040513d601f19601f8201168201806040525081019061229a91906146b1565b6122d0576040517f07cc3e4200000000000000000000000000000000000000000000000000000000815260040160405180910390fd5b600073ffffffffffffffffffffffffffffffffffffffff168273ffffffffffffffffffffffffffffffffffffffff1603612336576040517f9c8d2cd200000000000000000000000000000000000000000000000000000000815260040160405180910390fd5b60008103612370576040517f2c5211c600000000000000000000000000000000000000000000000000000000815260040160405180910390fd5b60fe60008473ffffffffffffffffffffffffffffffffffffffff1673ffffffffffffffffffffffffffffffffffffffff16815260200190815260200160002060009054906101000a900460ff166123f3576040517f3dd1b30500000000000000000000000000000000000000000000000000000000815260040160405180910390fd5b60fc60009054906101000a900473ffffffffffffffffffffffffffffffffffffffff1673ffffffffffffffffffffffffffffffffffffffff16633e1273618484847f20fdf5e0231b01bbf4a13cac8ebdc15bc3cac177cb34c02a16b7fc0fea7cc6a06040518563ffffffff1660e01b815260040161247494939291906146de565b600060405180830381600087803b15801561248e57600080fd5b505af11580156124a2573d6000803e3d6000fd5b50505050505050565b60fb60009054906101000a900473ffffffffffffffffffffffffffffffffffffffff1673ffffffffffffffffffffffffffffffffffffffff166391d1485460fb60009054906101000a900473ffffffffffffffffffffffffffffffffffffffff1673ffffffffffffffffffffffffffffffffffffffff16639e3411196040518163ffffffff1660e01b8152600401602060405180830381865afa158015612556573d6000803e3d6000fd5b505050506040513d601f19601f8201168201806040525081019061257a919061462f565b336040518363ffffffff1660e01b815260040161259892919061465c565b602060405180830381865afa1580156125b5573d6000803e3d6000fd5b505050506040513d601f19601f820116820180604052508101906125d991906146b1565b61260f576040517f07cc3e4200000000000000000000000000000000000000000000000000000000815260040160405180910390fd5b612617613907565b565b60fd60009054906101000a900473ffffffffffffffffffffffffffffffffffffffff1681565b60fd60009054906101000a900473ffffffffffffffffffffffffffffffffffffffff1673ffffffffffffffffffffffffffffffffffffffff163373ffffffffffffffffffffffffffffffffffffffff16146126c6576040517f4901974200000000000000000000000000000000000000000000000000000000815260040160405180910390fd5b8160fe60008273ffffffffffffffffffffffffffffffffffffffff1673ffffffffffffffffffffffffffffffffffffffff16815260200190815260200160002060009054906101000a900460ff1661274a576040517f3dd1b30500000000000000000000000000000000000000000000000000000000815260040160405180910390fd5b61275261396a565b61275a6139b4565b8160ff60008573ffffffffffffffffffffffffffffffffffffffff1673ffffffffffffffffffffffffffffffffffffffff1681526020019081526020016000205410156127d3576040517f9547624100000000000000000000000000000000000000000000000000000000815260040160405180910390fd5b600073ffffffffffffffffffffffffffffffffffffffff168373ffffffffffffffffffffffffffffffffffffffff16036128465781471015612841576040517fff84642400000000000000000000000000000000000000000000000000000000815260040160405180910390fd5b6128fa565b818373ffffffffffffffffffffffffffffffffffffffff166370a08231306040518263ffffffff1660e01b81526004016128809190614506565b602060405180830381865afa15801561289d573d6000803e3d6000fd5b505050506040513d601f19601f820116820180604052508101906128c19190614915565b10156128f9576040517f0faccbfd00000000000000000000000000000000000000000000000000000000815260040160405180910390fd5b5b8160ff60008573ffffffffffffffffffffffffffffffffffffffff1673ffffffffffffffffffffffffffffffffffffffff168152602001908152602001600020600082825461294991906148cc565b92505081905550600073ffffffffffffffffffffffffffffffffffffffff168373ffffffffffffffffffffffffffffffffffffffff16036129b2576129ad828573ffffffffffffffffffffffffffffffffffffffff1661377a90919063ffffffff16565b6129de565b6129dd84838573ffffffffffffffffffffffffffffffffffffffff1661386e9092919063ffffffff16565b5b8273ffffffffffffffffffffffffffffffffffffffff168473ffffffffffffffffffffffffffffffffffffffff167fcd1fce47d5ad89dd70b04c75bd6bdb8114d4d4ff7b4393f9fb5937e733ba958284604051612a3b91906145bf565b60405180910390a3612a4b613a03565b50505050565b60fd60009054906101000a900473ffffffffffffffffffffffffffffffffffffffff1673ffffffffffffffffffffffffffffffffffffffff163373ffffffffffffffffffffffffffffffffffffffff1614612ad8576040517f4901974200000000000000000000000000000000000000000000000000000000815260040160405180910390fd5b8160fe60008273ffffffffffffffffffffffffffffffffffffffff1673ffffffffffffffffffffffffffffffffffffffff16815260200190815260200160002060009054906101000a900460ff16612b5c576040517f3dd1b30500000000000000000000000000000000000000000000000000000000815260040160405180910390fd5b612b6461396a565b8160ff60008573ffffffffffffffffffffffffffffffffffffffff1673ffffffffffffffffffffffffffffffffffffffff1681526020019081526020016000206000828254612bb391906149fd565b925050819055508273ffffffffffffffffffffffffffffffffffffffff168473ffffffffffffffffffffffffffffffffffffffff167f2cafaae37c2ab1f0e3f264b9a50cad356ccf3bec7627998815a33e2b7e649a5384604051612c1791906145bf565b60405180910390a350505050565b60008060019054906101000a900460ff16159050808015612c565750600160008054906101000a900460ff1660ff16105b80612c835750612c6530613a0d565b158015612c825750600160008054906101000a900460ff1660ff16145b5b612cc2576040517f08c379a0000000000000000000000000000000000000000000000000000000008152600401612cb990614aa3565b60405180910390fd5b60016000806101000a81548160ff021916908360ff1602179055508015612cff576001600060016101000a81548160ff0219169083151502179055505b612d07613a30565b612d0f613a81565b612d17613ada565b600073ffffffffffffffffffffffffffffffffffffffff168473ffffffffffffffffffffffffffffffffffffffff1603612d7d576040517f4d29d32800000000000000000000000000000000000000000000000000000000815260040160405180910390fd5b600073ffffffffffffffffffffffffffffffffffffffff168373ffffffffffffffffffffffffffffffffffffffff1603612de3576040517f4901974200000000000000000000000000000000000000000000000000000000815260040160405180910390fd5b600073ffffffffffffffffffffffffffffffffffffffff168273ffffffffffffffffffffffffffffffffffffffff1603612e49576040517ff8d10e8200000000000000000000000000000000000000000000000000000000815260040160405180910390fd5b612e52836138f4565b612e88576040517f1b7f00f600000000000000000000000000000000000000000000000000000000815260040160405180910390fd5b8360fb60006101000a81548173ffffffffffffffffffffffffffffffffffffffff021916908373ffffffffffffffffffffffffffffffffffffffff1602179055508160fc60006101000a81548173ffffffffffffffffffffffffffffffffffffffff021916908373ffffffffffffffffffffffffffffffffffffffff1602179055508260fd60006101000a81548173ffffffffffffffffffffffffffffffffffffffff021916908373ffffffffffffffffffffffffffffffffffffffff160217905550600160fe60008073ffffffffffffffffffffffffffffffffffffffff1673ffffffffffffffffffffffffffffffffffffffff16815260200190815260200160002060006101000a81548160ff021916908315150217905550600073ffffffffffffffffffffffffffffffffffffffff167f8f50fda9bf5d3b403c53b7e91646abd507f8cebf2577655d55d7de3926168b1760405160405180910390a280156130405760008060016101000a81548160ff0219169083151502179055507f7f26b83ff96e1f2b6a682f133852f6798a09c465da95921460cefb384740249860016040516130379190614b0b565b60405180910390a15b50505050565b60fc60009054906101000a900473ffffffffffffffffffffffffffffffffffffffff1681565b60ff6020528060005260406000206000915090505481565b60fb60009054906101000a900473ffffffffffffffffffffffffffffffffffffffff1673ffffffffffffffffffffffffffffffffffffffff166391d1485460fb60009054906101000a900473ffffffffffffffffffffffffffffffffffffffff1673ffffffffffffffffffffffffffffffffffffffff16639e3411196040518163ffffffff1660e01b8152600401602060405180830381865afa15801561312f573d6000803e3d6000fd5b505050506040513d601f19601f82011682018060405250810190613153919061462f565b336040518363ffffffff1660e01b815260040161317192919061465c565b602060405180830381865afa15801561318e573d6000803e3d6000fd5b505050506040513d601f19601f820116820180604052508101906131b291906146b1565b6131e8576040517f07cc3e4200000000000000000000000000000000000000000000000000000000815260040160405180910390fd5b60fc60009054906101000a900473ffffffffffffffffffffffffffffffffffffffff1673ffffffffffffffffffffffffffffffffffffffff16637fe5d17982846040518363ffffffff1660e01b815260040161324592919061465c565b6020604051808303816000875af1158015613264573d6000803e3d6000fd5b505050506040513d601f19601f8201168201806040525081019061328891906146b1565b6132be576040517fc2ea003b00000000000000000000000000000000000000000000000000000000815260040160405180910390fd5b8160fd60006101000a81548173ffffffffffffffffffffffffffffffffffffffff021916908373ffffffffffffffffffffffffffffffffffffffff1602179055508173ffffffffffffffffffffffffffffffffffffffff167fd587147607038c178465c452edf2001d68e3091dc060f73a4e8b1a0e36682c0160405160405180910390a25050565b60006133747f360894a13ba1a3210667c828492db98dca3e2076cc3735a920a3ca505d382bbc60001b613b33565b60000160009054906101000a900473ffffffffffffffffffffffffffffffffffffffff16905090565b60fb60009054906101000a900473ffffffffffffffffffffffffffffffffffffffff1673ffffffffffffffffffffffffffffffffffffffff166391d1485460fb60009054906101000a900473ffffffffffffffffffffffffffffffffffffffff1673ffffffffffffffffffffffffffffffffffffffff16639e3411196040518163ffffffff1660e01b8152600401602060405180830381865afa158015613448573d6000803e3d6000fd5b505050506040513d601f19601f8201168201806040525081019061346c919061462f565b336040518363ffffffff1660e01b815260040161348a92919061465c565b602060405180830381865afa1580156134a7573d6000803e3d6000fd5b505050506040513d601f19601f820116820180604052508101906134cb91906146b1565b613501576040517f07cc3e4200000000000000000000000000000000000000000000000000000000815260040160405180910390fd5b600073ffffffffffffffffffffffffffffffffffffffff168173ffffffffffffffffffffffffffffffffffffffff1603613567576040517fc970156c00000000000000000000000000000000000000000000000000000000815260040160405180910390fd5b613570816138f4565b6135a6576040517f6bfd14d600000000000000000000000000000000000000000000000000000000815260040160405180910390fd5b50565b6135d57f4910fdfa16fed3260ed0e7147f7cc6da11a60208b5b9406d12a635614ffd914360001b613b3d565b60000160009054906101000a900460ff16156135f9576135f483613b47565b613712565b8273ffffffffffffffffffffffffffffffffffffffff166352d1902d6040518163ffffffff1660e01b8152600401602060405180830381865afa92505050801561366157506040513d601f19601f8201168201806040525081019061365e919061462f565b60015b6136a0576040517f08c379a000000000000000000000000000000000000000000000000000000000815260040161369790614b98565b60405180910390fd5b7f360894a13ba1a3210667c828492db98dca3e2076cc3735a920a3ca505d382bbc60001b8114613705576040517f08c379a00000000000000000000000000000000000000000000000000000000081526004016136fc90614c2a565b60405180910390fd5b50613711838383613c00565b5b505050565b61371f613c2c565b600060c960006101000a81548160ff0219169083151502179055507f5db9ee0a495bf2e6ff9c91a7834c1ba4fdd244a5e8aa4e537bd38aeae4b073aa613763613c75565b6040516137709190614506565b60405180910390a1565b804710156137bd576040517f08c379a00000000000000000000000000000000000000000000000000000000081526004016137b490614c96565b60405180910390fd5b60008273ffffffffffffffffffffffffffffffffffffffff16826040516137e390614ce7565b60006040518083038185875af1925050503d8060008114613820576040519150601f19603f3d011682016040523d82523d6000602084013e613825565b606091505b5050905080613869576040517f08c379a000000000000000000000000000000000000000000000000000000000815260040161386090614d6e565b60405180910390fd5b505050565b6138ef8363a9059cbb60e01b848460405160240161388d929190614d8e565b604051602081830303815290604052907bffffffffffffffffffffffffffffffffffffffffffffffffffffffff19166020820180517bffffffffffffffffffffffffffffffffffffffffffffffffffffffff8381831617835250505050613c7d565b505050565b600080823b905060008111915050919050565b61390f61396a565b600160c960006101000a81548160ff0219169083151502179055507f62e78cea01bee320cd4e420270b5ea74000d11b0c9f74754ebdbfc544b05a258613953613c75565b6040516139609190614506565b60405180910390a1565b613972611776565b156139b2576040517f08c379a00000000000000000000000000000000000000000000000000000000081526004016139a990614e03565b60405180910390fd5b565b6002606554036139f9576040517f08c379a00000000000000000000000000000000000000000000000000000000081526004016139f090614e6f565b60405180910390fd5b6002606581905550565b6001606581905550565b6000808273ffffffffffffffffffffffffffffffffffffffff163b119050919050565b600060019054906101000a900460ff16613a7f576040517f08c379a0000000000000000000000000000000000000000000000000000000008152600401613a7690614f01565b60405180910390fd5b565b600060019054906101000a900460ff16613ad0576040517f08c379a0000000000000000000000000000000000000000000000000000000008152600401613ac790614f01565b60405180910390fd5b613ad8613d45565b565b600060019054906101000a900460ff16613b29576040517f08c379a0000000000000000000000000000000000000000000000000000000008152600401613b2090614f01565b60405180910390fd5b613b31613d9e565b565b6000819050919050565b6000819050919050565b613b5081613a0d565b613b8f576040517f08c379a0000000000000000000000000000000000000000000000000000000008152600401613b8690614f93565b60405180910390fd5b80613bbc7f360894a13ba1a3210667c828492db98dca3e2076cc3735a920a3ca505d382bbc60001b613b33565b60000160006101000a81548173ffffffffffffffffffffffffffffffffffffffff021916908373ffffffffffffffffffffffffffffffffffffffff16021790555050565b613c0983613e0a565b600082511180613c165750805b15613c2757613c258383613e59565b505b505050565b613c34611776565b613c73576040517f08c379a0000000000000000000000000000000000000000000000000000000008152600401613c6a90614fff565b60405180910390fd5b565b600033905090565b6000613cdf826040518060400160405280602081526020017f5361666545524332303a206c6f772d6c6576656c2063616c6c206661696c65648152508573ffffffffffffffffffffffffffffffffffffffff16613e869092919063ffffffff16565b9050600081511480613d01575080806020019051810190613d0091906146b1565b5b613d40576040517f08c379a0000000000000000000000000000000000000000000000000000000008152600401613d3790615091565b60405180910390fd5b505050565b600060019054906101000a900460ff16613d94576040517f08c379a0000000000000000000000000000000000000000000000000000000008152600401613d8b90614f01565b60405180910390fd5b6001606581905550565b600060019054906101000a900460ff16613ded576040517f08c379a0000000000000000000000000000000000000000000000000000000008152600401613de490614f01565b60405180910390fd5b600060c960006101000a81548160ff021916908315150217905550565b613e1381613b47565b8073ffffffffffffffffffffffffffffffffffffffff167fbc7cd75a20ee27fd9adebab32041f755214dbc6bffa90cc0225b39da2e5c2d3b60405160405180910390a250565b6060613e7e838360405180606001604052806027815260200161529360279139613e9e565b905092915050565b6060613e958484600085613f24565b90509392505050565b60606000808573ffffffffffffffffffffffffffffffffffffffff1685604051613ec89190615117565b600060405180830381855af49150503d8060008114613f03576040519150601f19603f3d011682016040523d82523d6000602084013e613f08565b606091505b5091509150613f1986838387613ff1565b925050509392505050565b606082471015613f69576040517f08c379a0000000000000000000000000000000000000000000000000000000008152600401613f60906151a0565b60405180910390fd5b6000808673ffffffffffffffffffffffffffffffffffffffff168587604051613f929190615117565b60006040518083038185875af1925050503d8060008114613fcf576040519150601f19603f3d011682016040523d82523d6000602084013e613fd4565b606091505b5091509150613fe587838387613ff1565b92505050949350505050565b6060831561405357600083510361404b5761400b85613a0d565b61404a576040517f08c379a00000000000000000000000000000000000000000000000000000000081526004016140419061520c565b60405180910390fd5b5b82905061405e565b61405d8383614066565b5b949350505050565b6000825111156140795781518083602001fd5b806040517f08c379a00000000000000000000000000000000000000000000000000000000081526004016140ad9190615270565b60405180910390fd5b600073ffffffffffffffffffffffffffffffffffffffff82169050919050565b6000819050919050565b60006140fb6140f66140f1846140b6565b6140d6565b6140b6565b9050919050565b600061410d826140e0565b9050919050565b600061411f82614102565b9050919050565b61412f81614114565b82525050565b600060208201905061414a6000830184614126565b92915050565b6000819050919050565b61416381614150565b82525050565b600060208201905061417e600083018461415a565b92915050565b6000604051905090565b600080fd5b600080fd5b60006141a3826140b6565b9050919050565b6141b381614198565b81146141be57600080fd5b50565b6000813590506141d0816141aa565b92915050565b6000602082840312156141ec576141eb61418e565b5b60006141fa848285016141c1565b91505092915050565b60008115159050919050565b61421881614203565b82525050565b6000602082019050614233600083018461420f565b92915050565b6000819050919050565b61424c81614239565b811461425757600080fd5b50565b60008135905061426981614243565b92915050565b6000806000606084860312156142885761428761418e565b5b6000614296868287016141c1565b93505060206142a7868287016141c1565b92505060406142b88682870161425a565b9150509250925092565b6142cb81614150565b81146142d657600080fd5b50565b6000813590506142e8816142c2565b92915050565b600080600080608085870312156143085761430761418e565b5b6000614316878288016141c1565b9450506020614327878288016141c1565b93505060406143388782880161425a565b9250506060614349878288016142d9565b91505092959194509250565b600080fd5b600080fd5b6000601f19601f8301169050919050565b7f4e487b7100000000000000000000000000000000000000000000000000000000600052604160045260246000fd5b6143a88261435f565b810181811067ffffffffffffffff821117156143c7576143c6614370565b5b80604052505050565b60006143da614184565b90506143e6828261439f565b919050565b600067ffffffffffffffff82111561440657614405614370565b5b61440f8261435f565b9050602081019050919050565b82818337600083830152505050565b600061443e614439846143eb565b6143d0565b90508281526020810184848401111561445a5761445961435a565b5b61446584828561441c565b509392505050565b600082601f83011261448257614481614355565b5b813561449284826020860161442b565b91505092915050565b600080604083850312156144b2576144b161418e565b5b60006144c0858286016141c1565b925050602083013567ffffffffffffffff8111156144e1576144e0614193565b5b6144ed8582860161446d565b9150509250929050565b61450081614198565b82525050565b600060208201905061451b60008301846144f7565b92915050565b60008060006060848603121561453a5761453961418e565b5b6000614548868287016141c1565b9350506020614559868287016141c1565b925050604061456a868287016141c1565b9150509250925092565b600061457f82614102565b9050919050565b61458f81614574565b82525050565b60006020820190506145aa6000830184614586565b92915050565b6145b981614239565b82525050565b60006020820190506145d460008301846145b0565b92915050565b600080604083850312156145f1576145f061418e565b5b60006145ff858286016141c1565b9250506020614610858286016142d9565b9150509250929050565b600081519050614629816142c2565b92915050565b6000602082840312156146455761464461418e565b5b60006146538482850161461a565b91505092915050565b6000604082019050614671600083018561415a565b61467e60208301846144f7565b9392505050565b61468e81614203565b811461469957600080fd5b50565b6000815190506146ab81614685565b92915050565b6000602082840312156146c7576146c661418e565b5b60006146d58482850161469c565b91505092915050565b60006080820190506146f360008301876144f7565b61470060208301866144f7565b61470d60408301856145b0565b61471a606083018461415a565b95945050505050565b600082825260208201905092915050565b7f46756e6374696f6e206d7573742062652063616c6c6564207468726f7567682060008201527f64656c656761746563616c6c0000000000000000000000000000000000000000602082015250565b6000614790602c83614723565b915061479b82614734565b604082019050919050565b600060208201905081810360008301526147bf81614783565b9050919050565b7f46756e6374696f6e206d7573742062652063616c6c6564207468726f7567682060008201527f6163746976652070726f78790000000000000000000000000000000000000000602082015250565b6000614822602c83614723565b915061482d826147c6565b604082019050919050565b6000602082019050818103600083015261485181614815565b9050919050565b600060808201905061486d600083018761415a565b61487a60208301866144f7565b61488760408301856144f7565b61489460608301846145b0565b95945050505050565b7f4e487b7100000000000000000000000000000000000000000000000000000000600052601160045260246000fd5b60006148d782614239565b91506148e283614239565b92508282039050818111156148fa576148f961489d565b5b92915050565b60008151905061490f81614243565b92915050565b60006020828403121561492b5761492a61418e565b5b600061493984828501614900565b91505092915050565b7f555550535570677261646561626c653a206d757374206e6f742062652063616c60008201527f6c6564207468726f7567682064656c656761746563616c6c0000000000000000602082015250565b600061499e603883614723565b91506149a982614942565b604082019050919050565b600060208201905081810360008301526149cd81614991565b9050919050565b60006040820190506149e960008301856144f7565b6149f6602083018461415a565b9392505050565b6000614a0882614239565b9150614a1383614239565b9250828201905080821115614a2b57614a2a61489d565b5b92915050565b7f496e697469616c697a61626c653a20636f6e747261637420697320616c72656160008201527f647920696e697469616c697a6564000000000000000000000000000000000000602082015250565b6000614a8d602e83614723565b9150614a9882614a31565b604082019050919050565b60006020820190508181036000830152614abc81614a80565b9050919050565b6000819050919050565b600060ff82169050919050565b6000614af5614af0614aeb84614ac3565b6140d6565b614acd565b9050919050565b614b0581614ada565b82525050565b6000602082019050614b206000830184614afc565b92915050565b7f45524331393637557067726164653a206e657720696d706c656d656e7461746960008201527f6f6e206973206e6f742055555053000000000000000000000000000000000000602082015250565b6000614b82602e83614723565b9150614b8d82614b26565b604082019050919050565b60006020820190508181036000830152614bb181614b75565b9050919050565b7f45524331393637557067726164653a20756e737570706f727465642070726f7860008201527f6961626c65555549440000000000000000000000000000000000000000000000602082015250565b6000614c14602983614723565b9150614c1f82614bb8565b604082019050919050565b60006020820190508181036000830152614c4381614c07565b9050919050565b7f416464726573733a20696e73756666696369656e742062616c616e6365000000600082015250565b6000614c80601d83614723565b9150614c8b82614c4a565b602082019050919050565b60006020820190508181036000830152614caf81614c73565b9050919050565b600081905092915050565b50565b6000614cd1600083614cb6565b9150614cdc82614cc1565b600082019050919050565b6000614cf282614cc4565b9150819050919050565b7f416464726573733a20756e61626c6520746f2073656e642076616c75652c207260008201527f6563697069656e74206d61792068617665207265766572746564000000000000602082015250565b6000614d58603a83614723565b9150614d6382614cfc565b604082019050919050565b60006020820190508181036000830152614d8781614d4b565b9050919050565b6000604082019050614da360008301856144f7565b614db060208301846145b0565b9392505050565b7f5061757361626c653a2070617573656400000000000000000000000000000000600082015250565b6000614ded601083614723565b9150614df882614db7565b602082019050919050565b60006020820190508181036000830152614e1c81614de0565b9050919050565b7f5265656e7472616e637947756172643a207265656e7472616e742063616c6c00600082015250565b6000614e59601f83614723565b9150614e6482614e23565b602082019050919050565b60006020820190508181036000830152614e8881614e4c565b9050919050565b7f496e697469616c697a61626c653a20636f6e7472616374206973206e6f74206960008201527f6e697469616c697a696e67000000000000000000000000000000000000000000602082015250565b6000614eeb602b83614723565b9150614ef682614e8f565b604082019050919050565b60006020820190508181036000830152614f1a81614ede565b9050919050565b7f455243313936373a206e657720696d706c656d656e746174696f6e206973206e60008201527f6f74206120636f6e747261637400000000000000000000000000000000000000602082015250565b6000614f7d602d83614723565b9150614f8882614f21565b604082019050919050565b60006020820190508181036000830152614fac81614f70565b9050919050565b7f5061757361626c653a206e6f7420706175736564000000000000000000000000600082015250565b6000614fe9601483614723565b9150614ff482614fb3565b602082019050919050565b6000602082019050818103600083015261501881614fdc565b9050919050565b7f5361666545524332303a204552433230206f7065726174696f6e20646964206e60008201527f6f74207375636365656400000000000000000000000000000000000000000000602082015250565b600061507b602a83614723565b91506150868261501f565b604082019050919050565b600060208201905081810360008301526150aa8161506e565b9050919050565b600081519050919050565b60005b838110156150da5780820151818401526020810190506150bf565b60008484015250505050565b60006150f1826150b1565b6150fb8185614cb6565b935061510b8185602086016150bc565b80840191505092915050565b600061512382846150e6565b915081905092915050565b7f416464726573733a20696e73756666696369656e742062616c616e636520666f60008201527f722063616c6c0000000000000000000000000000000000000000000000000000602082015250565b600061518a602683614723565b91506151958261512e565b604082019050919050565b600060208201905081810360008301526151b98161517d565b9050919050565b7f416464726573733a2063616c6c20746f206e6f6e2d636f6e7472616374000000600082015250565b60006151f6601d83614723565b9150615201826151c0565b602082019050919050565b60006020820190508181036000830152615225816151e9565b9050919050565b600081519050919050565b60006152428261522c565b61524c8185614723565b935061525c8185602086016150bc565b6152658161435f565b840191505092915050565b6000602082019050818103600083015261528a8184615237565b90509291505056fe416464726573733a206c6f772d6c6576656c2064656c65676174652063616c6c206661696c6564a26469706673582212208c33478b14f4841dee951416443e6758a992057d83a050c752e798c6e621f48564736f6c63430008130033","linkReferences":{}},"methodIdentifiers":{"RECOVER_FUNDS()":"80d02816","SET_WALLETROUTER()":"4d9710dd","SWEEP_DUST()":"198f47a0","addSupportedToken(address)":"6d69fcaf","handleDeposit(address,address,uint256)":"bdc631d4","handleWithdrawal(address,address,uint256)":"ba313e34","initialize(address,address,address)":"c0c53b8b","isSupportedToken(address)":"240028e8","pause()":"8456cb59","paused()":"5c975abb","proposeRecoverFunds(address,address,uint256)":"80e03c58","proposeSetWalletRouter(address)":"77a9b404","proposeSweepDust(address,address,uint256)":"26f604c3","proxiableUUID()":"52d1902d","recoverFunds(address,address,uint256,bytes32)":"4119f9fb","removeSupportedToken(address)":"76319190","roleManager()":"00435da5","setWalletRouter(address,bytes32)":"f6aea45c","supportedTokens(address)":"68c4ac26","sweepDust(address,address,uint256,bytes32)":"49d318aa","timelock()":"d33219b4","totalDeposits(address)":"e9403256","unpause()":"3f4ba83a","upgradeTo(address)":"3659cfe6","upgradeToAndCall(address,bytes)":"4f1ef286","walletRouter()":"b3664c75"},"id":7}