{"abi":[{"type":"constructor","inputs":[],"stateMutability":"nonpayable"},{"type":"function","name":"addSupportedToken","inputs":[{"name":"token","type":"address","internalType":"address"}],"outputs":[],"stateMutability":"nonpayable"},{"type":"function","name":"handleDeposit","inputs":[{"name":"user","type":"address","internalType":"address"},{"name":"token","type":"address","internalType":"address"},{"name":"amount","type":"uint256","internalType":"uint256"}],"outputs":[],"stateMutability":"payable"},{"type":"function","name":"handleWithdrawal","inputs":[{"name":"recipient","type":"address","internalType":"address"},{"name":"token","type":"address","internalType":"address"},{"name":"amount","type":"uint256","internalType":"uint256"}],"outputs":[],"stateMutability":"nonpayable"},{"type":"function","name":"initialize","inputs":[{"name":"_roleManager","type":"address","internalType":"address"},{"name":"_initialAdmin","type":"address","internalType":"address"},{"name":"_walletRouter","type":"address","internalType":"address"}],"outputs":[],"stateMutability":"nonpayable"},{"type":"function","name":"isSupportedToken","inputs":[{"name":"token","type":"address","internalType":"address"}],"outputs":[{"name":"","type":"bool","internalType":"bool"}],"stateMutability":"view"},{"type":"function","name":"proxiableUUID","inputs":[],"outputs":[{"name":"","type":"bytes32","internalType":"bytes32"}],"stateMutability":"view"},{"type":"function","name":"removeSupportedToken","inputs":[{"name":"token","type":"address","internalType":"address"}],"outputs":[],"stateMutability":"nonpayable"},{"type":"function","name":"roleManager","inputs":[],"outputs":[{"name":"","type":"address","internalType":"contract IRoleManager"}],"stateMutability":"view"},{"type":"function","name":"setWalletRouter","inputs":[{"name":"_walletRouter","type":"address","internalType":"address"}],"outputs":[],"stateMutability":"nonpayable"},{"type":"function","name":"supportedTokens","inputs":[{"name":"","type":"address","internalType":"address"}],"outputs":[{"name":"","type":"bool","internalType":"bool"}],"stateMutability":"view"},{"type":"function","name":"totalDeposits","inputs":[{"name":"","type":"address","internalType":"address"}],"outputs":[{"name":"","type":"uint256","internalType":"uint256"}],"stateMutability":"view"},{"type":"function","name":"upgradeTo","inputs":[{"name":"newImplementation","type":"address","internalType":"address"}],"outputs":[],"stateMutability":"nonpayable"},{"type":"function","name":"upgradeToAndCall","inputs":[{"name":"newImplementation","type":"address","internalType":"address"},{"name":"data","type":"bytes","internalType":"bytes"}],"outputs":[],"stateMutability":"payable"},{"type":"function","name":"walletRouter","inputs":[],"outputs":[{"name":"","type":"address","internalType":"address"}],"stateMutability":"view"},{"type":"event","name":"AdminChanged","inputs":[{"name":"previousAdmin","type":"address","indexed":false,"internalType":"address"},{"name":"newAdmin","type":"address","indexed":false,"internalType":"address"}],"anonymous":false},{"type":"event","name":"BeaconUpgraded","inputs":[{"name":"beacon","type":"address","indexed":true,"internalType":"address"}],"anonymous":false},{"type":"event","name":"DepositProcessed","inputs":[{"name":"user","type":"address","indexed":true,"internalType":"address"},{"name":"token","type":"address","indexed":true,"internalType":"address"},{"name":"amount","type":"uint256","indexed":false,"internalType":"uint256"}],"anonymous":false},{"type":"event","name":"Initialized","inputs":[{"name":"version","type":"uint8","indexed":false,"internalType":"uint8"}],"anonymous":false},{"type":"event","name":"TokenSupportAdded","inputs":[{"name":"token","type":"address","indexed":true,"internalType":"address"}],"anonymous":false},{"type":"event","name":"TokenSupportRemoved","inputs":[{"name":"token","type":"address","indexed":true,"internalType":"address"}],"anonymous":false},{"type":"event","name":"Upgraded","inputs":[{"name":"implementation","type":"address","indexed":true,"internalType":"address"}],"anonymous":false},{"type":"event","name":"WithdrawalProcessed","inputs":[{"name":"recipient","type":"address","indexed":true,"internalType":"address"},{"name":"token","type":"address","indexed":true,"internalType":"address"},{"name":"amount","type":"uint256","indexed":false,"internalType":"uint256"}],"anonymous":false}],"bytecode":{"object":"0x60a06040523073ffffffffffffffffffffffffffffffffffffffff1660809073ffffffffffffffffffffffffffffffffffffffff168152503480156200004457600080fd5b5060008060019054906101000a900460ff16159050808015620000775750600160008054906101000a900460ff1660ff16105b80620000ae57506200008f306200019160201b60201c565b158015620000ad5750600160008054906101000a900460ff1660ff16145b5b620000f0576040517f08c379a0000000000000000000000000000000000000000000000000000000008152600401620000e7906200023b565b60405180910390fd5b60016000806101000a81548160ff021916908360ff16021790555080156200012e576001600060016101000a81548160ff0219169083151502179055505b80156200018a5760008060016101000a81548160ff0219169083151502179055507f7f26b83ff96e1f2b6a682f133852f6798a09c465da95921460cefb38474024986001604051620001819190620002b7565b60405180910390a15b50620002d4565b6000808273ffffffffffffffffffffffffffffffffffffffff163b119050919050565b600082825260208201905092915050565b7f496e697469616c697a61626c653a20636f6e747261637420697320616c72656160008201527f647920696e697469616c697a6564000000000000000000000000000000000000602082015250565b600062000223602e83620001b4565b91506200023082620001c5565b604082019050919050565b60006020820190508181036000830152620002568162000214565b9050919050565b6000819050919050565b600060ff82169050919050565b6000819050919050565b60006200029f6200029962000293846200025d565b62000274565b62000267565b9050919050565b620002b1816200027e565b82525050565b6000602082019050620002ce6000830184620002a6565b92915050565b6080516136176200030c600039600081816103c5015281816104530152818161054d015281816105db015261068b01526136176000f3fe6080604052600436106100dc5760003560e01c8063763191901161007f578063ba313e3411610059578063ba313e341461029c578063bdc631d4146102c5578063c0c53b8b146102e1578063e94032561461030a576100dc565b8063763191901461021f57806390cfec8614610248578063b3664c7514610271576100dc565b80634f1ef286116100bb5780634f1ef2861461017257806352d1902d1461018e57806368c4ac26146101b95780636d69fcaf146101f6576100dc565b8062435da5146100e1578063240028e81461010c5780633659cfe614610149575b600080fd5b3480156100ed57600080fd5b506100f6610347565b604051610103919061239c565b60405180910390f35b34801561011857600080fd5b50610133600480360381019061012e9190612409565b61036d565b6040516101409190612451565b60405180910390f35b34801561015557600080fd5b50610170600480360381019061016b9190612409565b6103c3565b005b61018c600480360381019061018791906125b2565b61054b565b005b34801561019a57600080fd5b506101a3610687565b6040516101b09190612627565b60405180910390f35b3480156101c557600080fd5b506101e060048036038101906101db9190612409565b610740565b6040516101ed9190612451565b60405180910390f35b34801561020257600080fd5b5061021d60048036038101906102189190612409565b610760565b005b34801561022b57600080fd5b5061024660048036038101906102419190612409565b6109f8565b005b34801561025457600080fd5b5061026f600480360381019061026a9190612409565b610d11565b005b34801561027d57600080fd5b50610286610f31565b6040516102939190612651565b60405180910390f35b3480156102a857600080fd5b506102c360048036038101906102be91906126a2565b610f57565b005b6102df60048036038101906102da91906126a2565b611247565b005b3480156102ed57600080fd5b50610308600480360381019061030391906126f5565b6114e4565b005b34801561031657600080fd5b50610331600480360381019061032c9190612409565b6119b7565b60405161033e9190612757565b60405180910390f35b609760009054906101000a900473ffffffffffffffffffffffffffffffffffffffff1681565b6000609960008373ffffffffffffffffffffffffffffffffffffffff1673ffffffffffffffffffffffffffffffffffffffff16815260200190815260200160002060009054906101000a900460ff169050919050565b7f000000000000000000000000000000000000000000000000000000000000000073ffffffffffffffffffffffffffffffffffffffff163073ffffffffffffffffffffffffffffffffffffffff1603610451576040517f08c379a0000000000000000000000000000000000000000000000000000000008152600401610448906127f5565b60405180910390fd5b7f000000000000000000000000000000000000000000000000000000000000000073ffffffffffffffffffffffffffffffffffffffff166104906119cf565b73ffffffffffffffffffffffffffffffffffffffff16146104e6576040517f08c379a00000000000000000000000000000000000000000000000000000000081526004016104dd90612887565b60405180910390fd5b6104ef81611a26565b61054881600067ffffffffffffffff81111561050e5761050d612487565b5b6040519080825280601f01601f1916602001820160405280156105405781602001600182028036833780820191505090505b506000611b96565b50565b7f000000000000000000000000000000000000000000000000000000000000000073ffffffffffffffffffffffffffffffffffffffff163073ffffffffffffffffffffffffffffffffffffffff16036105d9576040517f08c379a00000000000000000000000000000000000000000000000000000000081526004016105d0906127f5565b60405180910390fd5b7f000000000000000000000000000000000000000000000000000000000000000073ffffffffffffffffffffffffffffffffffffffff166106186119cf565b73ffffffffffffffffffffffffffffffffffffffff161461066e576040517f08c379a000000000000000000000000000000000000000000000000000000000815260040161066590612887565b60405180910390fd5b61067782611a26565b61068382826001611b96565b5050565b60007f000000000000000000000000000000000000000000000000000000000000000073ffffffffffffffffffffffffffffffffffffffff163073ffffffffffffffffffffffffffffffffffffffff1614610717576040517f08c379a000000000000000000000000000000000000000000000000000000000815260040161070e90612919565b60405180910390fd5b7f360894a13ba1a3210667c828492db98dca3e2076cc3735a920a3ca505d382bbc60001b905090565b60996020528060005260406000206000915054906101000a900460ff1681565b609760009054906101000a900473ffffffffffffffffffffffffffffffffffffffff1673ffffffffffffffffffffffffffffffffffffffff166391d14854609760009054906101000a900473ffffffffffffffffffffffffffffffffffffffff1673ffffffffffffffffffffffffffffffffffffffff16639e3411196040518163ffffffff1660e01b8152600401602060405180830381865afa15801561080b573d6000803e3d6000fd5b505050506040513d601f19601f8201168201806040525081019061082f9190612965565b336040518363ffffffff1660e01b815260040161084d929190612992565b602060405180830381865afa15801561086a573d6000803e3d6000fd5b505050506040513d601f19601f8201168201806040525081019061088e91906129e7565b6108cd576040517f08c379a00000000000000000000000000000000000000000000000000000000081526004016108c490612a60565b60405180910390fd5b609960008273ffffffffffffffffffffffffffffffffffffffff1673ffffffffffffffffffffffffffffffffffffffff16815260200190815260200160002060009054906101000a900460ff161561095a576040517f08c379a000000000000000000000000000000000000000000000000000000000815260040161095190612acc565b60405180910390fd5b6001609960008373ffffffffffffffffffffffffffffffffffffffff1673ffffffffffffffffffffffffffffffffffffffff16815260200190815260200160002060006101000a81548160ff0219169083151502179055508073ffffffffffffffffffffffffffffffffffffffff167f8f50fda9bf5d3b403c53b7e91646abd507f8cebf2577655d55d7de3926168b1760405160405180910390a250565b609760009054906101000a900473ffffffffffffffffffffffffffffffffffffffff1673ffffffffffffffffffffffffffffffffffffffff166391d14854609760009054906101000a900473ffffffffffffffffffffffffffffffffffffffff1673ffffffffffffffffffffffffffffffffffffffff16639e3411196040518163ffffffff1660e01b8152600401602060405180830381865afa158015610aa3573d6000803e3d6000fd5b505050506040513d601f19601f82011682018060405250810190610ac79190612965565b336040518363ffffffff1660e01b8152600401610ae5929190612992565b602060405180830381865afa158015610b02573d6000803e3d6000fd5b505050506040513d601f19601f82011682018060405250810190610b2691906129e7565b610b65576040517f08c379a0000000000000000000000000000000000000000000000000000000008152600401610b5c90612a60565b60405180910390fd5b609960008273ffffffffffffffffffffffffffffffffffffffff1673ffffffffffffffffffffffffffffffffffffffff16815260200190815260200160002060009054906101000a900460ff16610bf1576040517f08c379a0000000000000000000000000000000000000000000000000000000008152600401610be890612b38565b60405180910390fd5b6000609a60008373ffffffffffffffffffffffffffffffffffffffff1673ffffffffffffffffffffffffffffffffffffffff1681526020019081526020016000205414610c73576040517f08c379a0000000000000000000000000000000000000000000000000000000008152600401610c6a90612bca565b60405180910390fd5b6000609960008373ffffffffffffffffffffffffffffffffffffffff1673ffffffffffffffffffffffffffffffffffffffff16815260200190815260200160002060006101000a81548160ff0219169083151502179055508073ffffffffffffffffffffffffffffffffffffffff167f1cef54ca6e1745ad87fa3077491d9fc42257e9f1a2d7cad58a4e52bd14dfc62660405160405180910390a250565b609760009054906101000a900473ffffffffffffffffffffffffffffffffffffffff1673ffffffffffffffffffffffffffffffffffffffff166391d14854609760009054906101000a900473ffffffffffffffffffffffffffffffffffffffff1673ffffffffffffffffffffffffffffffffffffffff16639e3411196040518163ffffffff1660e01b8152600401602060405180830381865afa158015610dbc573d6000803e3d6000fd5b505050506040513d601f19601f82011682018060405250810190610de09190612965565b336040518363ffffffff1660e01b8152600401610dfe929190612992565b602060405180830381865afa158015610e1b573d6000803e3d6000fd5b505050506040513d601f19601f82011682018060405250810190610e3f91906129e7565b610e7e576040517f08c379a0000000000000000000000000000000000000000000000000000000008152600401610e7590612a60565b60405180910390fd5b600073ffffffffffffffffffffffffffffffffffffffff168173ffffffffffffffffffffffffffffffffffffffff1603610eed576040517f08c379a0000000000000000000000000000000000000000000000000000000008152600401610ee490612c36565b60405180910390fd5b80609860006101000a81548173ffffffffffffffffffffffffffffffffffffffff021916908373ffffffffffffffffffffffffffffffffffffffff16021790555050565b609860009054906101000a900473ffffffffffffffffffffffffffffffffffffffff1681565b609860009054906101000a900473ffffffffffffffffffffffffffffffffffffffff1673ffffffffffffffffffffffffffffffffffffffff163373ffffffffffffffffffffffffffffffffffffffff1614610fe7576040517f08c379a0000000000000000000000000000000000000000000000000000000008152600401610fde90612ca2565b60405180910390fd5b81609960008273ffffffffffffffffffffffffffffffffffffffff1673ffffffffffffffffffffffffffffffffffffffff16815260200190815260200160002060009054906101000a900460ff16611074576040517f08c379a000000000000000000000000000000000000000000000000000000000815260040161106b90612b38565b60405180910390fd5b81609a60008573ffffffffffffffffffffffffffffffffffffffff1673ffffffffffffffffffffffffffffffffffffffff16815260200190815260200160002060008282546110c39190612cf1565b92505081905550600073ffffffffffffffffffffffffffffffffffffffff168373ffffffffffffffffffffffffffffffffffffffff16036111b05760008473ffffffffffffffffffffffffffffffffffffffff168360405161112490612d56565b60006040518083038185875af1925050503d8060008114611161576040519150601f19603f3d011682016040523d82523d6000602084013e611166565b606091505b50509050806111aa576040517f08c379a00000000000000000000000000000000000000000000000000000000081526004016111a190612db7565b60405180910390fd5b506111dc565b6111db84838573ffffffffffffffffffffffffffffffffffffffff16611d049092919063ffffffff16565b5b8273ffffffffffffffffffffffffffffffffffffffff168473ffffffffffffffffffffffffffffffffffffffff167fcd1fce47d5ad89dd70b04c75bd6bdb8114d4d4ff7b4393f9fb5937e733ba9582846040516112399190612757565b60405180910390a350505050565b609860009054906101000a900473ffffffffffffffffffffffffffffffffffffffff1673ffffffffffffffffffffffffffffffffffffffff163373ffffffffffffffffffffffffffffffffffffffff16146112d7576040517f08c379a00000000000000000000000000000000000000000000000000000000081526004016112ce90612ca2565b60405180910390fd5b81609960008273ffffffffffffffffffffffffffffffffffffffff1673ffffffffffffffffffffffffffffffffffffffff16815260200190815260200160002060009054906101000a900460ff16611364576040517f08c379a000000000000000000000000000000000000000000000000000000000815260040161135b90612b38565b60405180910390fd5b600073ffffffffffffffffffffffffffffffffffffffff168373ffffffffffffffffffffffffffffffffffffffff16036113df578134146113da576040517f08c379a00000000000000000000000000000000000000000000000000000000081526004016113d190612e23565b60405180910390fd5b611423565b60003414611422576040517f08c379a000000000000000000000000000000000000000000000000000000000815260040161141990612eb5565b60405180910390fd5b5b81609a60008573ffffffffffffffffffffffffffffffffffffffff1673ffffffffffffffffffffffffffffffffffffffff16815260200190815260200160002060008282546114729190612ed5565b925050819055508273ffffffffffffffffffffffffffffffffffffffff168473ffffffffffffffffffffffffffffffffffffffff167f2cafaae37c2ab1f0e3f264b9a50cad356ccf3bec7627998815a33e2b7e649a53846040516114d69190612757565b60405180910390a350505050565b60008060019054906101000a900460ff161590508080156115155750600160008054906101000a900460ff1660ff16105b80611542575061152430611d8a565b1580156115415750600160008054906101000a900460ff1660ff16145b5b611581576040517f08c379a000000000000000000000000000000000000000000000000000000000815260040161157890612f7b565b60405180910390fd5b60016000806101000a81548160ff021916908360ff16021790555080156115be576001600060016101000a81548160ff0219169083151502179055505b6115c6611dad565b6115ce611dfe565b600073ffffffffffffffffffffffffffffffffffffffff168473ffffffffffffffffffffffffffffffffffffffff160361163d576040517f08c379a000000000000000000000000000000000000000000000000000000000815260040161163490612fe7565b60405180910390fd5b600073ffffffffffffffffffffffffffffffffffffffff168373ffffffffffffffffffffffffffffffffffffffff16036116ac576040517f08c379a00000000000000000000000000000000000000000000000000000000081526004016116a390613053565b60405180910390fd5b600073ffffffffffffffffffffffffffffffffffffffff168273ffffffffffffffffffffffffffffffffffffffff160361171b576040517f08c379a000000000000000000000000000000000000000000000000000000000815260040161171290612c36565b60405180910390fd5b83609760006101000a81548173ffffffffffffffffffffffffffffffffffffffff021916908373ffffffffffffffffffffffffffffffffffffffff16021790555081609860006101000a81548173ffffffffffffffffffffffffffffffffffffffff021916908373ffffffffffffffffffffffffffffffffffffffff160217905550609760009054906101000a900473ffffffffffffffffffffffffffffffffffffffff1673ffffffffffffffffffffffffffffffffffffffff16632f2ff15d609760009054906101000a900473ffffffffffffffffffffffffffffffffffffffff1673ffffffffffffffffffffffffffffffffffffffff16639e3411196040518163ffffffff1660e01b8152600401602060405180830381865afa158015611848573d6000803e3d6000fd5b505050506040513d601f19601f8201168201806040525081019061186c9190612965565b856040518363ffffffff1660e01b815260040161188a929190612992565b600060405180830381600087803b1580156118a457600080fd5b505af11580156118b8573d6000803e3d6000fd5b505050506001609960008073ffffffffffffffffffffffffffffffffffffffff1673ffffffffffffffffffffffffffffffffffffffff16815260200190815260200160002060006101000a81548160ff021916908315150217905550600073ffffffffffffffffffffffffffffffffffffffff167f8f50fda9bf5d3b403c53b7e91646abd507f8cebf2577655d55d7de3926168b1760405160405180910390a280156119b15760008060016101000a81548160ff0219169083151502179055507f7f26b83ff96e1f2b6a682f133852f6798a09c465da95921460cefb384740249860016040516119a891906130bb565b60405180910390a15b50505050565b609a6020528060005260406000206000915090505481565b60006119fd7f360894a13ba1a3210667c828492db98dca3e2076cc3735a920a3ca505d382bbc60001b611e57565b60000160009054906101000a900473ffffffffffffffffffffffffffffffffffffffff16905090565b609760009054906101000a900473ffffffffffffffffffffffffffffffffffffffff1673ffffffffffffffffffffffffffffffffffffffff166391d14854609760009054906101000a900473ffffffffffffffffffffffffffffffffffffffff1673ffffffffffffffffffffffffffffffffffffffff16639e3411196040518163ffffffff1660e01b8152600401602060405180830381865afa158015611ad1573d6000803e3d6000fd5b505050506040513d601f19601f82011682018060405250810190611af59190612965565b336040518363ffffffff1660e01b8152600401611b13929190612992565b602060405180830381865afa158015611b30573d6000803e3d6000fd5b505050506040513d601f19601f82011682018060405250810190611b5491906129e7565b611b93576040517f08c379a0000000000000000000000000000000000000000000000000000000008152600401611b8a90612a60565b60405180910390fd5b50565b611bc27f4910fdfa16fed3260ed0e7147f7cc6da11a60208b5b9406d12a635614ffd914360001b611e61565b60000160009054906101000a900460ff1615611be657611be183611e6b565b611cff565b8273ffffffffffffffffffffffffffffffffffffffff166352d1902d6040518163ffffffff1660e01b8152600401602060405180830381865afa925050508015611c4e57506040513d601f19601f82011682018060405250810190611c4b9190612965565b60015b611c8d576040517f08c379a0000000000000000000000000000000000000000000000000000000008152600401611c8490613148565b60405180910390fd5b7f360894a13ba1a3210667c828492db98dca3e2076cc3735a920a3ca505d382bbc60001b8114611cf2576040517f08c379a0000000000000000000000000000000000000000000000000000000008152600401611ce9906131da565b60405180910390fd5b50611cfe838383611f24565b5b505050565b611d858363a9059cbb60e01b8484604051602401611d239291906131fa565b604051602081830303815290604052907bffffffffffffffffffffffffffffffffffffffffffffffffffffffff19166020820180517bffffffffffffffffffffffffffffffffffffffffffffffffffffffff8381831617835250505050611f50565b505050565b6000808273ffffffffffffffffffffffffffffffffffffffff163b119050919050565b600060019054906101000a900460ff16611dfc576040517f08c379a0000000000000000000000000000000000000000000000000000000008152600401611df390613295565b60405180910390fd5b565b600060019054906101000a900460ff16611e4d576040517f08c379a0000000000000000000000000000000000000000000000000000000008152600401611e4490613295565b60405180910390fd5b611e55612018565b565b6000819050919050565b6000819050919050565b611e7481611d8a565b611eb3576040517f08c379a0000000000000000000000000000000000000000000000000000000008152600401611eaa90613327565b60405180910390fd5b80611ee07f360894a13ba1a3210667c828492db98dca3e2076cc3735a920a3ca505d382bbc60001b611e57565b60000160006101000a81548173ffffffffffffffffffffffffffffffffffffffff021916908373ffffffffffffffffffffffffffffffffffffffff16021790555050565b611f2d83612071565b600082511180611f3a5750805b15611f4b57611f4983836120c0565b505b505050565b6000611fb2826040518060400160405280602081526020017f5361666545524332303a206c6f772d6c6576656c2063616c6c206661696c65648152508573ffffffffffffffffffffffffffffffffffffffff166120ed9092919063ffffffff16565b9050600081511480611fd4575080806020019051810190611fd391906129e7565b5b612013576040517f08c379a000000000000000000000000000000000000000000000000000000000815260040161200a906133b9565b60405180910390fd5b505050565b600060019054906101000a900460ff16612067576040517f08c379a000000000000000000000000000000000000000000000000000000000815260040161205e90613295565b60405180910390fd5b6001606581905550565b61207a81611e6b565b8073ffffffffffffffffffffffffffffffffffffffff167fbc7cd75a20ee27fd9adebab32041f755214dbc6bffa90cc0225b39da2e5c2d3b60405160405180910390a250565b60606120e583836040518060600160405280602781526020016135bb60279139612105565b905092915050565b60606120fc848460008561218b565b90509392505050565b60606000808573ffffffffffffffffffffffffffffffffffffffff168560405161212f919061343f565b600060405180830381855af49150503d806000811461216a576040519150601f19603f3d011682016040523d82523d6000602084013e61216f565b606091505b509150915061218086838387612258565b925050509392505050565b6060824710156121d0576040517f08c379a00000000000000000000000000000000000000000000000000000000081526004016121c7906134c8565b60405180910390fd5b6000808673ffffffffffffffffffffffffffffffffffffffff1685876040516121f9919061343f565b60006040518083038185875af1925050503d8060008114612236576040519150601f19603f3d011682016040523d82523d6000602084013e61223b565b606091505b509150915061224c87838387612258565b92505050949350505050565b606083156122ba5760008351036122b25761227285611d8a565b6122b1576040517f08c379a00000000000000000000000000000000000000000000000000000000081526004016122a890613534565b60405180910390fd5b5b8290506122c5565b6122c483836122cd565b5b949350505050565b6000825111156122e05781518083602001fd5b806040517f08c379a00000000000000000000000000000000000000000000000000000000081526004016123149190613598565b60405180910390fd5b600073ffffffffffffffffffffffffffffffffffffffff82169050919050565b6000819050919050565b600061236261235d6123588461231d565b61233d565b61231d565b9050919050565b600061237482612347565b9050919050565b600061238682612369565b9050919050565b6123968161237b565b82525050565b60006020820190506123b1600083018461238d565b92915050565b6000604051905090565b600080fd5b600080fd5b60006123d68261231d565b9050919050565b6123e6816123cb565b81146123f157600080fd5b50565b600081359050612403816123dd565b92915050565b60006020828403121561241f5761241e6123c1565b5b600061242d848285016123f4565b91505092915050565b60008115159050919050565b61244b81612436565b82525050565b60006020820190506124666000830184612442565b92915050565b600080fd5b600080fd5b6000601f19601f8301169050919050565b7f4e487b7100000000000000000000000000000000000000000000000000000000600052604160045260246000fd5b6124bf82612476565b810181811067ffffffffffffffff821117156124de576124dd612487565b5b80604052505050565b60006124f16123b7565b90506124fd82826124b6565b919050565b600067ffffffffffffffff82111561251d5761251c612487565b5b61252682612476565b9050602081019050919050565b82818337600083830152505050565b600061255561255084612502565b6124e7565b90508281526020810184848401111561257157612570612471565b5b61257c848285612533565b509392505050565b600082601f8301126125995761259861246c565b5b81356125a9848260208601612542565b91505092915050565b600080604083850312156125c9576125c86123c1565b5b60006125d7858286016123f4565b925050602083013567ffffffffffffffff8111156125f8576125f76123c6565b5b61260485828601612584565b9150509250929050565b6000819050919050565b6126218161260e565b82525050565b600060208201905061263c6000830184612618565b92915050565b61264b816123cb565b82525050565b60006020820190506126666000830184612642565b92915050565b6000819050919050565b61267f8161266c565b811461268a57600080fd5b50565b60008135905061269c81612676565b92915050565b6000806000606084860312156126bb576126ba6123c1565b5b60006126c9868287016123f4565b93505060206126da868287016123f4565b92505060406126eb8682870161268d565b9150509250925092565b60008060006060848603121561270e5761270d6123c1565b5b600061271c868287016123f4565b935050602061272d868287016123f4565b925050604061273e868287016123f4565b9150509250925092565b6127518161266c565b82525050565b600060208201905061276c6000830184612748565b92915050565b600082825260208201905092915050565b7f46756e6374696f6e206d7573742062652063616c6c6564207468726f7567682060008201527f64656c656761746563616c6c0000000000000000000000000000000000000000602082015250565b60006127df602c83612772565b91506127ea82612783565b604082019050919050565b6000602082019050818103600083015261280e816127d2565b9050919050565b7f46756e6374696f6e206d7573742062652063616c6c6564207468726f7567682060008201527f6163746976652070726f78790000000000000000000000000000000000000000602082015250565b6000612871602c83612772565b915061287c82612815565b604082019050919050565b600060208201905081810360008301526128a081612864565b9050919050565b7f555550535570677261646561626c653a206d757374206e6f742062652063616c60008201527f6c6564207468726f7567682064656c656761746563616c6c0000000000000000602082015250565b6000612903603883612772565b915061290e826128a7565b604082019050919050565b60006020820190508181036000830152612932816128f6565b9050919050565b6129428161260e565b811461294d57600080fd5b50565b60008151905061295f81612939565b92915050565b60006020828403121561297b5761297a6123c1565b5b600061298984828501612950565b91505092915050565b60006040820190506129a76000830185612618565b6129b46020830184612642565b9392505050565b6129c481612436565b81146129cf57600080fd5b50565b6000815190506129e1816129bb565b92915050565b6000602082840312156129fd576129fc6123c1565b5b6000612a0b848285016129d2565b91505092915050565b7f4e6f742061646d696e0000000000000000000000000000000000000000000000600082015250565b6000612a4a600983612772565b9150612a5582612a14565b602082019050919050565b60006020820190508181036000830152612a7981612a3d565b9050919050565b7f546f6b656e20616c726561647920737570706f72746564000000000000000000600082015250565b6000612ab6601783612772565b9150612ac182612a80565b602082019050919050565b60006020820190508181036000830152612ae581612aa9565b9050919050565b7f546f6b656e206e6f7420737570706f7274656400000000000000000000000000600082015250565b6000612b22601383612772565b9150612b2d82612aec565b602082019050919050565b60006020820190508181036000830152612b5181612b15565b9050919050565b7f43616e6e6f742072656d6f766520746f6b656e2077697468206465706f73697460008201527f7300000000000000000000000000000000000000000000000000000000000000602082015250565b6000612bb4602183612772565b9150612bbf82612b58565b604082019050919050565b60006020820190508181036000830152612be381612ba7565b9050919050565b7f496e76616c69642057616c6c6574526f75746572000000000000000000000000600082015250565b6000612c20601483612772565b9150612c2b82612bea565b602082019050919050565b60006020820190508181036000830152612c4f81612c13565b9050919050565b7f4e6f742057616c6c6574526f7574657200000000000000000000000000000000600082015250565b6000612c8c601083612772565b9150612c9782612c56565b602082019050919050565b60006020820190508181036000830152612cbb81612c7f565b9050919050565b7f4e487b7100000000000000000000000000000000000000000000000000000000600052601160045260246000fd5b6000612cfc8261266c565b9150612d078361266c565b9250828203905081811115612d1f57612d1e612cc2565b5b92915050565b600081905092915050565b50565b6000612d40600083612d25565b9150612d4b82612d30565b600082019050919050565b6000612d6182612d33565b9150819050919050565b7f455448207472616e73666572206661696c656400000000000000000000000000600082015250565b6000612da1601383612772565b9150612dac82612d6b565b602082019050919050565b60006020820190508181036000830152612dd081612d94565b9050919050565b7f496e636f72726563742045544820616d6f756e74000000000000000000000000600082015250565b6000612e0d601483612772565b9150612e1882612dd7565b602082019050919050565b60006020820190508181036000830152612e3c81612e00565b9050919050565b7f455448206e6f7420616c6c6f77656420666f72204552433230206465706f736960008201527f7400000000000000000000000000000000000000000000000000000000000000602082015250565b6000612e9f602183612772565b9150612eaa82612e43565b604082019050919050565b60006020820190508181036000830152612ece81612e92565b9050919050565b6000612ee08261266c565b9150612eeb8361266c565b9250828201905080821115612f0357612f02612cc2565b5b92915050565b7f496e697469616c697a61626c653a20636f6e747261637420697320616c72656160008201527f647920696e697469616c697a6564000000000000000000000000000000000000602082015250565b6000612f65602e83612772565b9150612f7082612f09565b604082019050919050565b60006020820190508181036000830152612f9481612f58565b9050919050565b7f496e76616c696420526f6c654d616e6167657200000000000000000000000000600082015250565b6000612fd1601383612772565b9150612fdc82612f9b565b602082019050919050565b6000602082019050818103600083015261300081612fc4565b9050919050565b7f496e76616c69642061646d696e00000000000000000000000000000000000000600082015250565b600061303d600d83612772565b915061304882613007565b602082019050919050565b6000602082019050818103600083015261306c81613030565b9050919050565b6000819050919050565b600060ff82169050919050565b60006130a56130a061309b84613073565b61233d565b61307d565b9050919050565b6130b58161308a565b82525050565b60006020820190506130d060008301846130ac565b92915050565b7f45524331393637557067726164653a206e657720696d706c656d656e7461746960008201527f6f6e206973206e6f742055555053000000000000000000000000000000000000602082015250565b6000613132602e83612772565b915061313d826130d6565b604082019050919050565b6000602082019050818103600083015261316181613125565b9050919050565b7f45524331393637557067726164653a20756e737570706f727465642070726f7860008201527f6961626c65555549440000000000000000000000000000000000000000000000602082015250565b60006131c4602983612772565b91506131cf82613168565b604082019050919050565b600060208201905081810360008301526131f3816131b7565b9050919050565b600060408201905061320f6000830185612642565b61321c6020830184612748565b9392505050565b7f496e697469616c697a61626c653a20636f6e7472616374206973206e6f74206960008201527f6e697469616c697a696e67000000000000000000000000000000000000000000602082015250565b600061327f602b83612772565b915061328a82613223565b604082019050919050565b600060208201905081810360008301526132ae81613272565b9050919050565b7f455243313936373a206e657720696d706c656d656e746174696f6e206973206e60008201527f6f74206120636f6e747261637400000000000000000000000000000000000000602082015250565b6000613311602d83612772565b915061331c826132b5565b604082019050919050565b6000602082019050818103600083015261334081613304565b9050919050565b7f5361666545524332303a204552433230206f7065726174696f6e20646964206e60008201527f6f74207375636365656400000000000000000000000000000000000000000000602082015250565b60006133a3602a83612772565b91506133ae82613347565b604082019050919050565b600060208201905081810360008301526133d281613396565b9050919050565b600081519050919050565b60005b838110156134025780820151818401526020810190506133e7565b60008484015250505050565b6000613419826133d9565b6134238185612d25565b93506134338185602086016133e4565b80840191505092915050565b600061344b828461340e565b915081905092915050565b7f416464726573733a20696e73756666696369656e742062616c616e636520666f60008201527f722063616c6c0000000000000000000000000000000000000000000000000000602082015250565b60006134b2602683612772565b91506134bd82613456565b604082019050919050565b600060208201905081810360008301526134e1816134a5565b9050919050565b7f416464726573733a2063616c6c20746f206e6f6e2d636f6e7472616374000000600082015250565b600061351e601d83612772565b9150613529826134e8565b602082019050919050565b6000602082019050818103600083015261354d81613511565b9050919050565b600081519050919050565b600061356a82613554565b6135748185612772565b93506135848185602086016133e4565b61358d81612476565b840191505092915050565b600060208201905081810360008301526135b2818461355f565b90509291505056fe416464726573733a206c6f772d6c6576656c2064656c65676174652063616c6c206661696c6564a264697066735822122020bc072fdcca91614cca85d55f09a47f9bdbb24ce660882f4dc0556a528ebdcd64736f6c63430008130033","linkReferences":{}},"methodIdentifiers":{"addSupportedToken(address)":"6d69fcaf","handleDeposit(address,address,uint256)":"bdc631d4","handleWithdrawal(address,address,uint256)":"ba313e34","initialize(address,address,address)":"c0c53b8b","isSupportedToken(address)":"240028e8","proxiableUUID()":"52d1902d","removeSupportedToken(address)":"76319190","roleManager()":"00435da5","setWalletRouter(address)":"90cfec86","supportedTokens(address)":"68c4ac26","totalDeposits(address)":"e9403256","upgradeTo(address)":"3659cfe6","upgradeToAndCall(address,bytes)":"4f1ef286","walletRouter()":"b3664c75"},"id":4}