{"abi":[{"type":"constructor","inputs":[],"stateMutability":"nonpayable"},{"type":"receive","stateMutability":"payable"},{"type":"function","name":"ADD_TOKEN","inputs":[],"outputs":[{"name":"","type":"bytes32","internalType":"bytes32"}],"stateMutability":"view"},{"type":"function","name":"RECOVER_FUNDS","inputs":[],"outputs":[{"name":"","type":"bytes32","internalType":"bytes32"}],"stateMutability":"view"},{"type":"function","name":"REMOVE_TOKEN","inputs":[],"outputs":[{"name":"","type":"bytes32","internalType":"bytes32"}],"stateMutability":"view"},{"type":"function","name":"SET_WALLETROUTER","inputs":[],"outputs":[{"name":"","type":"bytes32","internalType":"bytes32"}],"stateMutability":"view"},{"type":"function","name":"addSupportedToken","inputs":[{"name":"token","type":"address","internalType":"address"}],"outputs":[],"stateMutability":"nonpayable"},{"type":"function","name":"handleDeposit","inputs":[{"name":"user","type":"address","internalType":"address"},{"name":"token","type":"address","internalType":"address"},{"name":"amount","type":"uint256","internalType":"uint256"}],"outputs":[],"stateMutability":"payable"},{"type":"function","name":"handleWithdrawal","inputs":[{"name":"recipient","type":"address","internalType":"address"},{"name":"token","type":"address","internalType":"address"},{"name":"amount","type":"uint256","internalType":"uint256"}],"outputs":[],"stateMutability":"nonpayable"},{"type":"function","name":"initialize","inputs":[{"name":"_roleManager","type":"address","internalType":"address"},{"name":"_walletRouter","type":"address","internalType":"address"},{"name":"_timelock","type":"address","internalType":"address"}],"outputs":[],"stateMutability":"nonpayable"},{"type":"function","name":"isSupportedToken","inputs":[{"name":"token","type":"address","internalType":"address"}],"outputs":[{"name":"","type":"bool","internalType":"bool"}],"stateMutability":"view"},{"type":"function","name":"pause","inputs":[],"outputs":[],"stateMutability":"nonpayable"},{"type":"function","name":"paused","inputs":[],"outputs":[{"name":"","type":"bool","internalType":"bool"}],"stateMutability":"view"},{"type":"function","name":"proposeRecoverFunds","inputs":[{"name":"token","type":"address","internalType":"address"},{"name":"recipient","type":"address","internalType":"address"},{"name":"amount","type":"uint256","internalType":"uint256"}],"outputs":[],"stateMutability":"nonpayable"},{"type":"function","name":"proposeSetWalletRouter","inputs":[{"name":"_walletRouter","type":"address","internalType":"address"}],"outputs":[],"stateMutability":"nonpayable"},{"type":"function","name":"proxiableUUID","inputs":[],"outputs":[{"name":"","type":"bytes32","internalType":"bytes32"}],"stateMutability":"view"},{"type":"function","name":"recoverFunds","inputs":[{"name":"token","type":"address","internalType":"address"},{"name":"recipient","type":"address","internalType":"address"},{"name":"amount","type":"uint256","internalType":"uint256"},{"name":"actionId","type":"bytes32","internalType":"bytes32"}],"outputs":[],"stateMutability":"nonpayable"},{"type":"function","name":"removeSupportedToken","inputs":[{"name":"token","type":"address","internalType":"address"}],"outputs":[],"stateMutability":"nonpayable"},{"type":"function","name":"roleManager","inputs":[],"outputs":[{"name":"","type":"address","internalType":"contract IRoleManager"}],"stateMutability":"view"},{"type":"function","name":"setWalletRouter","inputs":[{"name":"_walletRouter","type":"address","internalType":"address"},{"name":"actionId","type":"bytes32","internalType":"bytes32"}],"outputs":[],"stateMutability":"nonpayable"},{"type":"function","name":"supportedTokens","inputs":[{"name":"","type":"address","internalType":"address"}],"outputs":[{"name":"","type":"bool","internalType":"bool"}],"stateMutability":"view"},{"type":"function","name":"timelock","inputs":[],"outputs":[{"name":"","type":"address","internalType":"contract ITimelock"}],"stateMutability":"view"},{"type":"function","name":"totalDeposits","inputs":[{"name":"","type":"address","internalType":"address"}],"outputs":[{"name":"","type":"uint256","internalType":"uint256"}],"stateMutability":"view"},{"type":"function","name":"unpause","inputs":[],"outputs":[],"stateMutability":"nonpayable"},{"type":"function","name":"upgradeTo","inputs":[{"name":"newImplementation","type":"address","internalType":"address"}],"outputs":[],"stateMutability":"nonpayable"},{"type":"function","name":"upgradeToAndCall","inputs":[{"name":"newImplementation","type":"address","internalType":"address"},{"name":"data","type":"bytes","internalType":"bytes"}],"outputs":[],"stateMutability":"payable"},{"type":"function","name":"walletRouter","inputs":[],"outputs":[{"name":"","type":"address","internalType":"address"}],"stateMutability":"view"},{"type":"event","name":"AdminChanged","inputs":[{"name":"previousAdmin","type":"address","indexed":false,"internalType":"address"},{"name":"newAdmin","type":"address","indexed":false,"internalType":"address"}],"anonymous":false},{"type":"event","name":"BeaconUpgraded","inputs":[{"name":"beacon","type":"address","indexed":true,"internalType":"address"}],"anonymous":false},{"type":"event","name":"DepositProcessed","inputs":[{"name":"user","type":"address","indexed":true,"internalType":"address"},{"name":"token","type":"address","indexed":true,"internalType":"address"},{"name":"amount","type":"uint256","indexed":false,"internalType":"uint256"}],"anonymous":false},{"type":"event","name":"FundsRecovered","inputs":[{"name":"token","type":"address","indexed":true,"internalType":"address"},{"name":"recipient","type":"address","indexed":true,"internalType":"address"},{"name":"amount","type":"uint256","indexed":false,"internalType":"uint256"}],"anonymous":false},{"type":"event","name":"Initialized","inputs":[{"name":"version","type":"uint8","indexed":false,"internalType":"uint8"}],"anonymous":false},{"type":"event","name":"Paused","inputs":[{"name":"account","type":"address","indexed":false,"internalType":"address"}],"anonymous":false},{"type":"event","name":"TokenSupportAdded","inputs":[{"name":"token","type":"address","indexed":true,"internalType":"address"}],"anonymous":false},{"type":"event","name":"TokenSupportRemoved","inputs":[{"name":"token","type":"address","indexed":true,"internalType":"address"}],"anonymous":false},{"type":"event","name":"Unpaused","inputs":[{"name":"account","type":"address","indexed":false,"internalType":"address"}],"anonymous":false},{"type":"event","name":"Upgraded","inputs":[{"name":"implementation","type":"address","indexed":true,"internalType":"address"}],"anonymous":false},{"type":"event","name":"WalletRouterSet","inputs":[{"name":"walletRouter","type":"address","indexed":true,"internalType":"address"}],"anonymous":false},{"type":"event","name":"WithdrawalProcessed","inputs":[{"name":"recipient","type":"address","indexed":true,"internalType":"address"},{"name":"token","type":"address","indexed":true,"internalType":"address"},{"name":"amount","type":"uint256","indexed":false,"internalType":"uint256"}],"anonymous":false}],"bytecode":{"object":"0x60a06040523073ffffffffffffffffffffffffffffffffffffffff1660809073ffffffffffffffffffffffffffffffffffffffff168152503480156200004457600080fd5b5060008060019054906101000a900460ff16159050808015620000775750600160008054906101000a900460ff1660ff16105b80620000ae57506200008f306200019160201b60201c565b158015620000ad5750600160008054906101000a900460ff1660ff16145b5b620000f0576040517f08c379a0000000000000000000000000000000000000000000000000000000008152600401620000e7906200023b565b60405180910390fd5b60016000806101000a81548160ff021916908360ff16021790555080156200012e576001600060016101000a81548160ff0219169083151502179055505b80156200018a5760008060016101000a81548160ff0219169083151502179055507f7f26b83ff96e1f2b6a682f133852f6798a09c465da95921460cefb38474024986001604051620001819190620002b7565b60405180910390a15b50620002d4565b6000808273ffffffffffffffffffffffffffffffffffffffff163b119050919050565b600082825260208201905092915050565b7f496e697469616c697a61626c653a20636f6e747261637420697320616c72656160008201527f647920696e697469616c697a6564000000000000000000000000000000000000602082015250565b600062000223602e83620001b4565b91506200023082620001c5565b604082019050919050565b60006020820190508181036000830152620002568162000214565b9050919050565b6000819050919050565b600060ff82169050919050565b6000819050919050565b60006200029f6200029962000293846200025d565b62000274565b62000267565b9050919050565b620002b1816200027e565b82525050565b6000602082019050620002ce6000830184620002a6565b92915050565b6080516152dd6200030c600039600081816106040152818161069201528181610d4601528181610dd40152610e8401526152dd6000f3fe6080604052600436106101695760003560e01c806377a9b404116100d1578063bdc631d41161008a578063d33219b411610064578063d33219b4146104ca578063e9403256146104f5578063ea84f07014610532578063f6aea45c1461055d57610170565b8063bdc631d41461045a578063c0c53b8b14610476578063c41d769c1461049f57610170565b806377a9b4041461037257806380d028161461039b57806380e03c58146103c65780638456cb59146103ef578063b3664c7514610406578063ba313e341461043157610170565b80634f1ef286116101235780634f1ef2861461027157806352d1902d1461028d5780635c975abb146102b857806368c4ac26146102e35780636d69fcaf14610320578063763191901461034957610170565b8062435da514610175578063240028e8146101a05780633659cfe6146101dd5780633f4ba83a146102065780634119f9fb1461021d5780634d9710dd1461024657610170565b3661017057005b600080fd5b34801561018157600080fd5b5061018a610586565b60405161019791906138eb565b60405180910390f35b3480156101ac57600080fd5b506101c760048036038101906101c29190613958565b6105ac565b6040516101d491906139a0565b60405180910390f35b3480156101e957600080fd5b5061020460048036038101906101ff9190613958565b610602565b005b34801561021257600080fd5b5061021b61078a565b005b34801561022957600080fd5b50610244600480360381019061023f9190613a27565b610901565b005b34801561025257600080fd5b5061025b610d20565b6040516102689190613a9d565b60405180910390f35b61028b60048036038101906102869190613bfe565b610d44565b005b34801561029957600080fd5b506102a2610e80565b6040516102af9190613a9d565b60405180910390f35b3480156102c457600080fd5b506102cd610f39565b6040516102da91906139a0565b60405180910390f35b3480156102ef57600080fd5b5061030a60048036038101906103059190613958565b610f50565b60405161031791906139a0565b60405180910390f35b34801561032c57600080fd5b5061034760048036038101906103429190613958565b610f70565b005b34801561035557600080fd5b50610370600480360381019061036b9190613958565b611285565b005b34801561037e57600080fd5b5061039960048036038101906103949190613958565b6116d7565b005b3480156103a757600080fd5b506103b0611967565b6040516103bd9190613a9d565b60405180910390f35b3480156103d257600080fd5b506103ed60048036038101906103e89190613c5a565b61198b565b005b3480156103fb57600080fd5b50610404611c21565b005b34801561041257600080fd5b5061041b611d98565b6040516104289190613cbc565b60405180910390f35b34801561043d57600080fd5b5061045860048036038101906104539190613c5a565b611dbe565b005b610474600480360381019061046f9190613c5a565b6121b3565b005b34801561048257600080fd5b5061049d60048036038101906104989190613cd7565b612399565b005b3480156104ab57600080fd5b506104b46127de565b6040516104c19190613a9d565b60405180910390f35b3480156104d657600080fd5b506104df612802565b6040516104ec9190613d4b565b60405180910390f35b34801561050157600080fd5b5061051c60048036038101906105179190613958565b612828565b6040516105299190613d75565b60405180910390f35b34801561053e57600080fd5b50610547612840565b6040516105549190613a9d565b60405180910390f35b34801561056957600080fd5b50610584600480360381019061057f9190613d90565b612864565b005b60fb60009054906101000a900473ffffffffffffffffffffffffffffffffffffffff1681565b600060fe60008373ffffffffffffffffffffffffffffffffffffffff1673ffffffffffffffffffffffffffffffffffffffff16815260200190815260200160002060009054906101000a900460ff169050919050565b7f000000000000000000000000000000000000000000000000000000000000000073ffffffffffffffffffffffffffffffffffffffff163073ffffffffffffffffffffffffffffffffffffffff1603610690576040517f08c379a000000000000000000000000000000000000000000000000000000000815260040161068790613e53565b60405180910390fd5b7f000000000000000000000000000000000000000000000000000000000000000073ffffffffffffffffffffffffffffffffffffffff166106cf612b3a565b73ffffffffffffffffffffffffffffffffffffffff1614610725576040517f08c379a000000000000000000000000000000000000000000000000000000000815260040161071c90613ee5565b60405180910390fd5b61072e81612b91565b61078781600067ffffffffffffffff81111561074d5761074c613ad3565b5b6040519080825280601f01601f19166020018201604052801561077f5781602001600182028036833780820191505090505b506000612db8565b50565b60fb60009054906101000a900473ffffffffffffffffffffffffffffffffffffffff1673ffffffffffffffffffffffffffffffffffffffff166391d1485460fb60009054906101000a900473ffffffffffffffffffffffffffffffffffffffff1673ffffffffffffffffffffffffffffffffffffffff16639e3411196040518163ffffffff1660e01b8152600401602060405180830381865afa158015610835573d6000803e3d6000fd5b505050506040513d601f19601f820116820180604052508101906108599190613f1a565b336040518363ffffffff1660e01b8152600401610877929190613f47565b602060405180830381865afa158015610894573d6000803e3d6000fd5b505050506040513d601f19601f820116820180604052508101906108b89190613f9c565b6108f7576040517f08c379a00000000000000000000000000000000000000000000000000000000081526004016108ee90614015565b60405180910390fd5b6108ff612f26565b565b60fb60009054906101000a900473ffffffffffffffffffffffffffffffffffffffff1673ffffffffffffffffffffffffffffffffffffffff166391d1485460fb60009054906101000a900473ffffffffffffffffffffffffffffffffffffffff1673ffffffffffffffffffffffffffffffffffffffff16639e3411196040518163ffffffff1660e01b8152600401602060405180830381865afa1580156109ac573d6000803e3d6000fd5b505050506040513d601f19601f820116820180604052508101906109d09190613f1a565b336040518363ffffffff1660e01b81526004016109ee929190613f47565b602060405180830381865afa158015610a0b573d6000803e3d6000fd5b505050506040513d601f19601f82011682018060405250810190610a2f9190613f9c565b610a6e576040517f08c379a0000000000000000000000000000000000000000000000000000000008152600401610a6590614015565b60405180910390fd5b60fc60009054906101000a900473ffffffffffffffffffffffffffffffffffffffff1673ffffffffffffffffffffffffffffffffffffffff1663ad8bd25a8286336040518463ffffffff1660e01b8152600401610acd93929190614035565b6020604051808303816000875af1158015610aec573d6000803e3d6000fd5b505050506040513d601f19601f82011682018060405250810190610b109190613f9c565b610b4f576040517f08c379a0000000000000000000000000000000000000000000000000000000008152600401610b46906140b8565b60405180910390fd5b8160ff60008673ffffffffffffffffffffffffffffffffffffffff1673ffffffffffffffffffffffffffffffffffffffff168152602001908152602001600020541015610bd1576040517f08c379a0000000000000000000000000000000000000000000000000000000008152600401610bc890614124565b60405180910390fd5b8160ff60008673ffffffffffffffffffffffffffffffffffffffff1673ffffffffffffffffffffffffffffffffffffffff1681526020019081526020016000206000828254610c209190614173565b92505081905550600073ffffffffffffffffffffffffffffffffffffffff168473ffffffffffffffffffffffffffffffffffffffff1603610c8957610c84828473ffffffffffffffffffffffffffffffffffffffff16612f8990919063ffffffff16565b610cb5565b610cb483838673ffffffffffffffffffffffffffffffffffffffff1661307d9092919063ffffffff16565b5b8273ffffffffffffffffffffffffffffffffffffffff168473ffffffffffffffffffffffffffffffffffffffff167f13e06184555481b6d2cb327155e8d2e1d0b1f0252a7fe6621e32cf998814883584604051610d129190613d75565b60405180910390a350505050565b7febfe40e1a907df098b25552533043ed6632f34e704c7c0a934075ee697b8a3be81565b7f000000000000000000000000000000000000000000000000000000000000000073ffffffffffffffffffffffffffffffffffffffff163073ffffffffffffffffffffffffffffffffffffffff1603610dd2576040517f08c379a0000000000000000000000000000000000000000000000000000000008152600401610dc990613e53565b60405180910390fd5b7f000000000000000000000000000000000000000000000000000000000000000073ffffffffffffffffffffffffffffffffffffffff16610e11612b3a565b73ffffffffffffffffffffffffffffffffffffffff1614610e67576040517f08c379a0000000000000000000000000000000000000000000000000000000008152600401610e5e90613ee5565b60405180910390fd5b610e7082612b91565b610e7c82826001612db8565b5050565b60007f000000000000000000000000000000000000000000000000000000000000000073ffffffffffffffffffffffffffffffffffffffff163073ffffffffffffffffffffffffffffffffffffffff1614610f10576040517f08c379a0000000000000000000000000000000000000000000000000000000008152600401610f0790614219565b60405180910390fd5b7f360894a13ba1a3210667c828492db98dca3e2076cc3735a920a3ca505d382bbc60001b905090565b600060c960009054906101000a900460ff16905090565b60fe6020528060005260406000206000915054906101000a900460ff1681565b60fb60009054906101000a900473ffffffffffffffffffffffffffffffffffffffff1673ffffffffffffffffffffffffffffffffffffffff166391d1485460fb60009054906101000a900473ffffffffffffffffffffffffffffffffffffffff1673ffffffffffffffffffffffffffffffffffffffff16639e3411196040518163ffffffff1660e01b8152600401602060405180830381865afa15801561101b573d6000803e3d6000fd5b505050506040513d601f19601f8201168201806040525081019061103f9190613f1a565b336040518363ffffffff1660e01b815260040161105d929190613f47565b602060405180830381865afa15801561107a573d6000803e3d6000fd5b505050506040513d601f19601f8201168201806040525081019061109e9190613f9c565b6110dd576040517f08c379a00000000000000000000000000000000000000000000000000000000081526004016110d490614015565b60405180910390fd5b60fe60008273ffffffffffffffffffffffffffffffffffffffff1673ffffffffffffffffffffffffffffffffffffffff16815260200190815260200160002060009054906101000a900460ff161561116a576040517f08c379a000000000000000000000000000000000000000000000000000000000815260040161116190614285565b60405180910390fd5b600073ffffffffffffffffffffffffffffffffffffffff168173ffffffffffffffffffffffffffffffffffffffff16146111e7576111a781613103565b6111e6576040517f08c379a00000000000000000000000000000000000000000000000000000000081526004016111dd906142f1565b60405180910390fd5b5b600160fe60008373ffffffffffffffffffffffffffffffffffffffff1673ffffffffffffffffffffffffffffffffffffffff16815260200190815260200160002060006101000a81548160ff0219169083151502179055508073ffffffffffffffffffffffffffffffffffffffff167f8f50fda9bf5d3b403c53b7e91646abd507f8cebf2577655d55d7de3926168b1760405160405180910390a250565b60fb60009054906101000a900473ffffffffffffffffffffffffffffffffffffffff1673ffffffffffffffffffffffffffffffffffffffff166391d1485460fb60009054906101000a900473ffffffffffffffffffffffffffffffffffffffff1673ffffffffffffffffffffffffffffffffffffffff16639e3411196040518163ffffffff1660e01b8152600401602060405180830381865afa158015611330573d6000803e3d6000fd5b505050506040513d601f19601f820116820180604052508101906113549190613f1a565b336040518363ffffffff1660e01b8152600401611372929190613f47565b602060405180830381865afa15801561138f573d6000803e3d6000fd5b505050506040513d601f19601f820116820180604052508101906113b39190613f9c565b6113f2576040517f08c379a00000000000000000000000000000000000000000000000000000000081526004016113e990614015565b60405180910390fd5b60fe60008273ffffffffffffffffffffffffffffffffffffffff1673ffffffffffffffffffffffffffffffffffffffff16815260200190815260200160002060009054906101000a900460ff1661147e576040517f08c379a00000000000000000000000000000000000000000000000000000000081526004016114759061435d565b60405180910390fd5b600060ff60008373ffffffffffffffffffffffffffffffffffffffff1673ffffffffffffffffffffffffffffffffffffffff1681526020019081526020016000205414611500576040517f08c379a00000000000000000000000000000000000000000000000000000000081526004016114f7906143ef565b60405180910390fd5b600073ffffffffffffffffffffffffffffffffffffffff168173ffffffffffffffffffffffffffffffffffffffff160361157c5760004714611577576040517f08c379a000000000000000000000000000000000000000000000000000000000815260040161156e9061445b565b60405180910390fd5b611639565b60008173ffffffffffffffffffffffffffffffffffffffff166370a08231306040518263ffffffff1660e01b81526004016115b79190613cbc565b602060405180830381865afa1580156115d4573d6000803e3d6000fd5b505050506040513d601f19601f820116820180604052508101906115f89190614490565b14611638576040517f08c379a000000000000000000000000000000000000000000000000000000000815260040161162f90614509565b60405180910390fd5b5b600060fe60008373ffffffffffffffffffffffffffffffffffffffff1673ffffffffffffffffffffffffffffffffffffffff16815260200190815260200160002060006101000a81548160ff0219169083151502179055508073ffffffffffffffffffffffffffffffffffffffff167f1cef54ca6e1745ad87fa3077491d9fc42257e9f1a2d7cad58a4e52bd14dfc62660405160405180910390a250565b60fb60009054906101000a900473ffffffffffffffffffffffffffffffffffffffff1673ffffffffffffffffffffffffffffffffffffffff166391d1485460fb60009054906101000a900473ffffffffffffffffffffffffffffffffffffffff1673ffffffffffffffffffffffffffffffffffffffff16639e3411196040518163ffffffff1660e01b8152600401602060405180830381865afa158015611782573d6000803e3d6000fd5b505050506040513d601f19601f820116820180604052508101906117a69190613f1a565b336040518363ffffffff1660e01b81526004016117c4929190613f47565b602060405180830381865afa1580156117e1573d6000803e3d6000fd5b505050506040513d601f19601f820116820180604052508101906118059190613f9c565b611844576040517f08c379a000000000000000000000000000000000000000000000000000000000815260040161183b90614015565b60405180910390fd5b600073ffffffffffffffffffffffffffffffffffffffff168173ffffffffffffffffffffffffffffffffffffffff16036118b3576040517f08c379a00000000000000000000000000000000000000000000000000000000081526004016118aa90614575565b60405180910390fd5b60fc60009054906101000a900473ffffffffffffffffffffffffffffffffffffffff1673ffffffffffffffffffffffffffffffffffffffff1663433d26dd827febfe40e1a907df098b25552533043ed6632f34e704c7c0a934075ee697b8a3be336040518463ffffffff1660e01b815260040161193293929190614595565b600060405180830381600087803b15801561194c57600080fd5b505af1158015611960573d6000803e3d6000fd5b5050505050565b7f20fdf5e0231b01bbf4a13cac8ebdc15bc3cac177cb34c02a16b7fc0fea7cc6a081565b60fb60009054906101000a900473ffffffffffffffffffffffffffffffffffffffff1673ffffffffffffffffffffffffffffffffffffffff166391d1485460fb60009054906101000a900473ffffffffffffffffffffffffffffffffffffffff1673ffffffffffffffffffffffffffffffffffffffff16639e3411196040518163ffffffff1660e01b8152600401602060405180830381865afa158015611a36573d6000803e3d6000fd5b505050506040513d601f19601f82011682018060405250810190611a5a9190613f1a565b336040518363ffffffff1660e01b8152600401611a78929190613f47565b602060405180830381865afa158015611a95573d6000803e3d6000fd5b505050506040513d601f19601f82011682018060405250810190611ab99190613f9c565b611af8576040517f08c379a0000000000000000000000000000000000000000000000000000000008152600401611aef90614015565b60405180910390fd5b600073ffffffffffffffffffffffffffffffffffffffff168273ffffffffffffffffffffffffffffffffffffffff1603611b67576040517f08c379a0000000000000000000000000000000000000000000000000000000008152600401611b5e90614618565b60405180910390fd5b60fc60009054906101000a900473ffffffffffffffffffffffffffffffffffffffff1673ffffffffffffffffffffffffffffffffffffffff166339cdeb058484847f20fdf5e0231b01bbf4a13cac8ebdc15bc3cac177cb34c02a16b7fc0fea7cc6a0336040518663ffffffff1660e01b8152600401611bea959493929190614638565b600060405180830381600087803b158015611c0457600080fd5b505af1158015611c18573d6000803e3d6000fd5b50505050505050565b60fb60009054906101000a900473ffffffffffffffffffffffffffffffffffffffff1673ffffffffffffffffffffffffffffffffffffffff166391d1485460fb60009054906101000a900473ffffffffffffffffffffffffffffffffffffffff1673ffffffffffffffffffffffffffffffffffffffff16639e3411196040518163ffffffff1660e01b8152600401602060405180830381865afa158015611ccc573d6000803e3d6000fd5b505050506040513d601f19601f82011682018060405250810190611cf09190613f1a565b336040518363ffffffff1660e01b8152600401611d0e929190613f47565b602060405180830381865afa158015611d2b573d6000803e3d6000fd5b505050506040513d601f19601f82011682018060405250810190611d4f9190613f9c565b611d8e576040517f08c379a0000000000000000000000000000000000000000000000000000000008152600401611d8590614015565b60405180910390fd5b611d96613116565b565b60fd60009054906101000a900473ffffffffffffffffffffffffffffffffffffffff1681565b60fd60009054906101000a900473ffffffffffffffffffffffffffffffffffffffff1673ffffffffffffffffffffffffffffffffffffffff163373ffffffffffffffffffffffffffffffffffffffff1614611e4e576040517f08c379a0000000000000000000000000000000000000000000000000000000008152600401611e45906146d7565b60405180910390fd5b8160fe60008273ffffffffffffffffffffffffffffffffffffffff1673ffffffffffffffffffffffffffffffffffffffff16815260200190815260200160002060009054906101000a900460ff16611edb576040517f08c379a0000000000000000000000000000000000000000000000000000000008152600401611ed29061435d565b60405180910390fd5b611ee3613179565b8160ff60008573ffffffffffffffffffffffffffffffffffffffff1673ffffffffffffffffffffffffffffffffffffffff168152602001908152602001600020541015611f65576040517f08c379a0000000000000000000000000000000000000000000000000000000008152600401611f5c90614124565b60405180910390fd5b600073ffffffffffffffffffffffffffffffffffffffff168373ffffffffffffffffffffffffffffffffffffffff160361200a5781471015611fdc576040517f08c379a0000000000000000000000000000000000000000000000000000000008152600401611fd390614743565b60405180910390fd5b612005828573ffffffffffffffffffffffffffffffffffffffff16612f8990919063ffffffff16565b6120f2565b818373ffffffffffffffffffffffffffffffffffffffff166370a08231306040518263ffffffff1660e01b81526004016120449190613cbc565b602060405180830381865afa158015612061573d6000803e3d6000fd5b505050506040513d601f19601f820116820180604052508101906120859190614490565b10156120c6576040517f08c379a00000000000000000000000000000000000000000000000000000000081526004016120bd906147af565b60405180910390fd5b6120f184838573ffffffffffffffffffffffffffffffffffffffff1661307d9092919063ffffffff16565b5b8160ff60008573ffffffffffffffffffffffffffffffffffffffff1673ffffffffffffffffffffffffffffffffffffffff16815260200190815260200160002060008282546121419190614173565b925050819055508273ffffffffffffffffffffffffffffffffffffffff168473ffffffffffffffffffffffffffffffffffffffff167fcd1fce47d5ad89dd70b04c75bd6bdb8114d4d4ff7b4393f9fb5937e733ba9582846040516121a59190613d75565b60405180910390a350505050565b60fd60009054906101000a900473ffffffffffffffffffffffffffffffffffffffff1673ffffffffffffffffffffffffffffffffffffffff163373ffffffffffffffffffffffffffffffffffffffff1614612243576040517f08c379a000000000000000000000000000000000000000000000000000000000815260040161223a906146d7565b60405180910390fd5b8160fe60008273ffffffffffffffffffffffffffffffffffffffff1673ffffffffffffffffffffffffffffffffffffffff16815260200190815260200160002060009054906101000a900460ff166122d0576040517f08c379a00000000000000000000000000000000000000000000000000000000081526004016122c79061435d565b60405180910390fd5b6122d8613179565b8160ff60008573ffffffffffffffffffffffffffffffffffffffff1673ffffffffffffffffffffffffffffffffffffffff168152602001908152602001600020600082825461232791906147cf565b925050819055508273ffffffffffffffffffffffffffffffffffffffff168473ffffffffffffffffffffffffffffffffffffffff167f2cafaae37c2ab1f0e3f264b9a50cad356ccf3bec7627998815a33e2b7e649a538460405161238b9190613d75565b60405180910390a350505050565b60008060019054906101000a900460ff161590508080156123ca5750600160008054906101000a900460ff1660ff16105b806123f757506123d9306131c3565b1580156123f65750600160008054906101000a900460ff1660ff16145b5b612436576040517f08c379a000000000000000000000000000000000000000000000000000000000815260040161242d90614875565b60405180910390fd5b60016000806101000a81548160ff021916908360ff1602179055508015612473576001600060016101000a81548160ff0219169083151502179055505b61247b6131e6565b612483613237565b61248b613290565b600073ffffffffffffffffffffffffffffffffffffffff168473ffffffffffffffffffffffffffffffffffffffff16036124fa576040517f08c379a00000000000000000000000000000000000000000000000000000000081526004016124f1906148e1565b60405180910390fd5b600073ffffffffffffffffffffffffffffffffffffffff168373ffffffffffffffffffffffffffffffffffffffff1603612569576040517f08c379a000000000000000000000000000000000000000000000000000000000815260040161256090614575565b60405180910390fd5b600073ffffffffffffffffffffffffffffffffffffffff168273ffffffffffffffffffffffffffffffffffffffff16036125d8576040517f08c379a00000000000000000000000000000000000000000000000000000000081526004016125cf9061494d565b60405180910390fd5b6125e183613103565b612620576040517f08c379a0000000000000000000000000000000000000000000000000000000008152600401612617906149b9565b60405180910390fd5b8360fb60006101000a81548173ffffffffffffffffffffffffffffffffffffffff021916908373ffffffffffffffffffffffffffffffffffffffff1602179055508160fc60006101000a81548173ffffffffffffffffffffffffffffffffffffffff021916908373ffffffffffffffffffffffffffffffffffffffff1602179055508260fd60006101000a81548173ffffffffffffffffffffffffffffffffffffffff021916908373ffffffffffffffffffffffffffffffffffffffff160217905550600160fe60008073ffffffffffffffffffffffffffffffffffffffff1673ffffffffffffffffffffffffffffffffffffffff16815260200190815260200160002060006101000a81548160ff021916908315150217905550600073ffffffffffffffffffffffffffffffffffffffff167f8f50fda9bf5d3b403c53b7e91646abd507f8cebf2577655d55d7de3926168b1760405160405180910390a280156127d85760008060016101000a81548160ff0219169083151502179055507f7f26b83ff96e1f2b6a682f133852f6798a09c465da95921460cefb384740249860016040516127cf9190614a21565b60405180910390a15b50505050565b7f49b13fac0a8a9948bb3fc07926cff2d8a962e5ef68d7bacd7c2ae44cde35c69481565b60fc60009054906101000a900473ffffffffffffffffffffffffffffffffffffffff1681565b60ff6020528060005260406000206000915090505481565b7fb994753143c8029d9b198ba23b79e05836ed9b7e265aa18a9b67aa5353691b1981565b60fb60009054906101000a900473ffffffffffffffffffffffffffffffffffffffff1673ffffffffffffffffffffffffffffffffffffffff166391d1485460fb60009054906101000a900473ffffffffffffffffffffffffffffffffffffffff1673ffffffffffffffffffffffffffffffffffffffff16639e3411196040518163ffffffff1660e01b8152600401602060405180830381865afa15801561290f573d6000803e3d6000fd5b505050506040513d601f19601f820116820180604052508101906129339190613f1a565b336040518363ffffffff1660e01b8152600401612951929190613f47565b602060405180830381865afa15801561296e573d6000803e3d6000fd5b505050506040513d601f19601f820116820180604052508101906129929190613f9c565b6129d1576040517f08c379a00000000000000000000000000000000000000000000000000000000081526004016129c890614015565b60405180910390fd5b60fc60009054906101000a900473ffffffffffffffffffffffffffffffffffffffff1673ffffffffffffffffffffffffffffffffffffffff1663642e4dfb8284336040518463ffffffff1660e01b8152600401612a3093929190614035565b6020604051808303816000875af1158015612a4f573d6000803e3d6000fd5b505050506040513d601f19601f82011682018060405250810190612a739190613f9c565b612ab2576040517f08c379a0000000000000000000000000000000000000000000000000000000008152600401612aa990614a88565b60405180910390fd5b8160fd60006101000a81548173ffffffffffffffffffffffffffffffffffffffff021916908373ffffffffffffffffffffffffffffffffffffffff1602179055508173ffffffffffffffffffffffffffffffffffffffff167fd587147607038c178465c452edf2001d68e3091dc060f73a4e8b1a0e36682c0160405160405180910390a25050565b6000612b687f360894a13ba1a3210667c828492db98dca3e2076cc3735a920a3ca505d382bbc60001b6132e9565b60000160009054906101000a900473ffffffffffffffffffffffffffffffffffffffff16905090565b60fb60009054906101000a900473ffffffffffffffffffffffffffffffffffffffff1673ffffffffffffffffffffffffffffffffffffffff166391d1485460fb60009054906101000a900473ffffffffffffffffffffffffffffffffffffffff1673ffffffffffffffffffffffffffffffffffffffff16639e3411196040518163ffffffff1660e01b8152600401602060405180830381865afa158015612c3c573d6000803e3d6000fd5b505050506040513d601f19601f82011682018060405250810190612c609190613f1a565b336040518363ffffffff1660e01b8152600401612c7e929190613f47565b602060405180830381865afa158015612c9b573d6000803e3d6000fd5b505050506040513d601f19601f82011682018060405250810190612cbf9190613f9c565b612cfe576040517f08c379a0000000000000000000000000000000000000000000000000000000008152600401612cf590614015565b60405180910390fd5b600073ffffffffffffffffffffffffffffffffffffffff168173ffffffffffffffffffffffffffffffffffffffff1603612d6d576040517f08c379a0000000000000000000000000000000000000000000000000000000008152600401612d6490614af4565b60405180910390fd5b612d7681613103565b612db5576040517f08c379a0000000000000000000000000000000000000000000000000000000008152600401612dac90614b60565b60405180910390fd5b50565b612de47f4910fdfa16fed3260ed0e7147f7cc6da11a60208b5b9406d12a635614ffd914360001b6132f3565b60000160009054906101000a900460ff1615612e0857612e03836132fd565b612f21565b8273ffffffffffffffffffffffffffffffffffffffff166352d1902d6040518163ffffffff1660e01b8152600401602060405180830381865afa925050508015612e7057506040513d601f19601f82011682018060405250810190612e6d9190613f1a565b60015b612eaf576040517f08c379a0000000000000000000000000000000000000000000000000000000008152600401612ea690614bf2565b60405180910390fd5b7f360894a13ba1a3210667c828492db98dca3e2076cc3735a920a3ca505d382bbc60001b8114612f14576040517f08c379a0000000000000000000000000000000000000000000000000000000008152600401612f0b90614c84565b60405180910390fd5b50612f208383836133b6565b5b505050565b612f2e6133e2565b600060c960006101000a81548160ff0219169083151502179055507f5db9ee0a495bf2e6ff9c91a7834c1ba4fdd244a5e8aa4e537bd38aeae4b073aa612f7261342b565b604051612f7f9190613cbc565b60405180910390a1565b80471015612fcc576040517f08c379a0000000000000000000000000000000000000000000000000000000008152600401612fc390614cf0565b60405180910390fd5b60008273ffffffffffffffffffffffffffffffffffffffff1682604051612ff290614d41565b60006040518083038185875af1925050503d806000811461302f576040519150601f19603f3d011682016040523d82523d6000602084013e613034565b606091505b5050905080613078576040517f08c379a000000000000000000000000000000000000000000000000000000000815260040161306f90614dc8565b60405180910390fd5b505050565b6130fe8363a9059cbb60e01b848460405160240161309c929190614de8565b604051602081830303815290604052907bffffffffffffffffffffffffffffffffffffffffffffffffffffffff19166020820180517bffffffffffffffffffffffffffffffffffffffffffffffffffffffff8381831617835250505050613433565b505050565b600080823b905060008111915050919050565b61311e613179565b600160c960006101000a81548160ff0219169083151502179055507f62e78cea01bee320cd4e420270b5ea74000d11b0c9f74754ebdbfc544b05a25861316261342b565b60405161316f9190613cbc565b60405180910390a1565b613181610f39565b156131c1576040517f08c379a00000000000000000000000000000000000000000000000000000000081526004016131b890614e5d565b60405180910390fd5b565b6000808273ffffffffffffffffffffffffffffffffffffffff163b119050919050565b600060019054906101000a900460ff16613235576040517f08c379a000000000000000000000000000000000000000000000000000000000815260040161322c90614eef565b60405180910390fd5b565b600060019054906101000a900460ff16613286576040517f08c379a000000000000000000000000000000000000000000000000000000000815260040161327d90614eef565b60405180910390fd5b61328e6134fb565b565b600060019054906101000a900460ff166132df576040517f08c379a00000000000000000000000000000000000000000000000000000000081526004016132d690614eef565b60405180910390fd5b6132e7613554565b565b6000819050919050565b6000819050919050565b613306816131c3565b613345576040517f08c379a000000000000000000000000000000000000000000000000000000000815260040161333c90614f81565b60405180910390fd5b806133727f360894a13ba1a3210667c828492db98dca3e2076cc3735a920a3ca505d382bbc60001b6132e9565b60000160006101000a81548173ffffffffffffffffffffffffffffffffffffffff021916908373ffffffffffffffffffffffffffffffffffffffff16021790555050565b6133bf836135c0565b6000825111806133cc5750805b156133dd576133db838361360f565b505b505050565b6133ea610f39565b613429576040517f08c379a000000000000000000000000000000000000000000000000000000000815260040161342090614fed565b60405180910390fd5b565b600033905090565b6000613495826040518060400160405280602081526020017f5361666545524332303a206c6f772d6c6576656c2063616c6c206661696c65648152508573ffffffffffffffffffffffffffffffffffffffff1661363c9092919063ffffffff16565b90506000815114806134b75750808060200190518101906134b69190613f9c565b5b6134f6576040517f08c379a00000000000000000000000000000000000000000000000000000000081526004016134ed9061507f565b60405180910390fd5b505050565b600060019054906101000a900460ff1661354a576040517f08c379a000000000000000000000000000000000000000000000000000000000815260040161354190614eef565b60405180910390fd5b6001606581905550565b600060019054906101000a900460ff166135a3576040517f08c379a000000000000000000000000000000000000000000000000000000000815260040161359a90614eef565b60405180910390fd5b600060c960006101000a81548160ff021916908315150217905550565b6135c9816132fd565b8073ffffffffffffffffffffffffffffffffffffffff167fbc7cd75a20ee27fd9adebab32041f755214dbc6bffa90cc0225b39da2e5c2d3b60405160405180910390a250565b6060613634838360405180606001604052806027815260200161528160279139613654565b905092915050565b606061364b84846000856136da565b90509392505050565b60606000808573ffffffffffffffffffffffffffffffffffffffff168560405161367e9190615105565b600060405180830381855af49150503d80600081146136b9576040519150601f19603f3d011682016040523d82523d6000602084013e6136be565b606091505b50915091506136cf868383876137a7565b925050509392505050565b60608247101561371f576040517f08c379a00000000000000000000000000000000000000000000000000000000081526004016137169061518e565b60405180910390fd5b6000808673ffffffffffffffffffffffffffffffffffffffff1685876040516137489190615105565b60006040518083038185875af1925050503d8060008114613785576040519150601f19603f3d011682016040523d82523d6000602084013e61378a565b606091505b509150915061379b878383876137a7565b92505050949350505050565b60608315613809576000835103613801576137c1856131c3565b613800576040517f08c379a00000000000000000000000000000000000000000000000000000000081526004016137f7906151fa565b60405180910390fd5b5b829050613814565b613813838361381c565b5b949350505050565b60008251111561382f5781518083602001fd5b806040517f08c379a0000000000000000000000000000000000000000000000000000000008152600401613863919061525e565b60405180910390fd5b600073ffffffffffffffffffffffffffffffffffffffff82169050919050565b6000819050919050565b60006138b16138ac6138a78461386c565b61388c565b61386c565b9050919050565b60006138c382613896565b9050919050565b60006138d5826138b8565b9050919050565b6138e5816138ca565b82525050565b600060208201905061390060008301846138dc565b92915050565b6000604051905090565b600080fd5b600080fd5b60006139258261386c565b9050919050565b6139358161391a565b811461394057600080fd5b50565b6000813590506139528161392c565b92915050565b60006020828403121561396e5761396d613910565b5b600061397c84828501613943565b91505092915050565b60008115159050919050565b61399a81613985565b82525050565b60006020820190506139b56000830184613991565b92915050565b6000819050919050565b6139ce816139bb565b81146139d957600080fd5b50565b6000813590506139eb816139c5565b92915050565b6000819050919050565b613a04816139f1565b8114613a0f57600080fd5b50565b600081359050613a21816139fb565b92915050565b60008060008060808587031215613a4157613a40613910565b5b6000613a4f87828801613943565b9450506020613a6087828801613943565b9350506040613a71878288016139dc565b9250506060613a8287828801613a12565b91505092959194509250565b613a97816139f1565b82525050565b6000602082019050613ab26000830184613a8e565b92915050565b600080fd5b600080fd5b6000601f19601f8301169050919050565b7f4e487b7100000000000000000000000000000000000000000000000000000000600052604160045260246000fd5b613b0b82613ac2565b810181811067ffffffffffffffff82111715613b2a57613b29613ad3565b5b80604052505050565b6000613b3d613906565b9050613b498282613b02565b919050565b600067ffffffffffffffff821115613b6957613b68613ad3565b5b613b7282613ac2565b9050602081019050919050565b82818337600083830152505050565b6000613ba1613b9c84613b4e565b613b33565b905082815260208101848484011115613bbd57613bbc613abd565b5b613bc8848285613b7f565b509392505050565b600082601f830112613be557613be4613ab8565b5b8135613bf5848260208601613b8e565b91505092915050565b60008060408385031215613c1557613c14613910565b5b6000613c2385828601613943565b925050602083013567ffffffffffffffff811115613c4457613c43613915565b5b613c5085828601613bd0565b9150509250929050565b600080600060608486031215613c7357613c72613910565b5b6000613c8186828701613943565b9350506020613c9286828701613943565b9250506040613ca3868287016139dc565b9150509250925092565b613cb68161391a565b82525050565b6000602082019050613cd16000830184613cad565b92915050565b600080600060608486031215613cf057613cef613910565b5b6000613cfe86828701613943565b9350506020613d0f86828701613943565b9250506040613d2086828701613943565b9150509250925092565b6000613d35826138b8565b9050919050565b613d4581613d2a565b82525050565b6000602082019050613d606000830184613d3c565b92915050565b613d6f816139bb565b82525050565b6000602082019050613d8a6000830184613d66565b92915050565b60008060408385031215613da757613da6613910565b5b6000613db585828601613943565b9250506020613dc685828601613a12565b9150509250929050565b600082825260208201905092915050565b7f46756e6374696f6e206d7573742062652063616c6c6564207468726f7567682060008201527f64656c656761746563616c6c0000000000000000000000000000000000000000602082015250565b6000613e3d602c83613dd0565b9150613e4882613de1565b604082019050919050565b60006020820190508181036000830152613e6c81613e30565b9050919050565b7f46756e6374696f6e206d7573742062652063616c6c6564207468726f7567682060008201527f6163746976652070726f78790000000000000000000000000000000000000000602082015250565b6000613ecf602c83613dd0565b9150613eda82613e73565b604082019050919050565b60006020820190508181036000830152613efe81613ec2565b9050919050565b600081519050613f14816139fb565b92915050565b600060208284031215613f3057613f2f613910565b5b6000613f3e84828501613f05565b91505092915050565b6000604082019050613f5c6000830185613a8e565b613f696020830184613cad565b9392505050565b613f7981613985565b8114613f8457600080fd5b50565b600081519050613f9681613f70565b92915050565b600060208284031215613fb257613fb1613910565b5b6000613fc084828501613f87565b91505092915050565b7f43616c6c6572206c61636b73205641554c545f41444d494e5f524f4c45000000600082015250565b6000613fff601d83613dd0565b915061400a82613fc9565b602082019050919050565b6000602082019050818103600083015261402e81613ff2565b9050919050565b600060608201905061404a6000830186613a8e565b6140576020830185613cad565b6140646040830184613cad565b949350505050565b7f5265636f7665722066756e6473206e6f74206578656375746564000000000000600082015250565b60006140a2601a83613dd0565b91506140ad8261406c565b602082019050919050565b600060208201905081810360008301526140d181614095565b9050919050565b7f496e73756666696369656e7420747261636b6564206465706f73697473000000600082015250565b600061410e601d83613dd0565b9150614119826140d8565b602082019050919050565b6000602082019050818103600083015261413d81614101565b9050919050565b7f4e487b7100000000000000000000000000000000000000000000000000000000600052601160045260246000fd5b600061417e826139bb565b9150614189836139bb565b92508282039050818111156141a1576141a0614144565b5b92915050565b7f555550535570677261646561626c653a206d757374206e6f742062652063616c60008201527f6c6564207468726f7567682064656c656761746563616c6c0000000000000000602082015250565b6000614203603883613dd0565b915061420e826141a7565b604082019050919050565b60006020820190508181036000830152614232816141f6565b9050919050565b7f546f6b656e20616c726561647920737570706f72746564000000000000000000600082015250565b600061426f601783613dd0565b915061427a82614239565b602082019050919050565b6000602082019050818103600083015261429e81614262565b9050919050565b7f546f6b656e206973206e6f74206120636f6e7472616374000000000000000000600082015250565b60006142db601783613dd0565b91506142e6826142a5565b602082019050919050565b6000602082019050818103600083015261430a816142ce565b9050919050565b7f546f6b656e206e6f7420737570706f7274656400000000000000000000000000600082015250565b6000614347601383613dd0565b915061435282614311565b602082019050919050565b600060208201905081810360008301526143768161433a565b9050919050565b7f43616e6e6f742072656d6f766520746f6b656e2077697468206465706f73697460008201527f7300000000000000000000000000000000000000000000000000000000000000602082015250565b60006143d9602183613dd0565b91506143e48261437d565b604082019050919050565b60006020820190508181036000830152614408816143cc565b9050919050565b7f5661756c7420686173204554482062616c616e63650000000000000000000000600082015250565b6000614445601583613dd0565b91506144508261440f565b602082019050919050565b6000602082019050818103600083015261447481614438565b9050919050565b60008151905061448a816139c5565b92915050565b6000602082840312156144a6576144a5613910565b5b60006144b48482850161447b565b91505092915050565b7f5661756c742068617320746f6b656e2062616c616e6365000000000000000000600082015250565b60006144f3601783613dd0565b91506144fe826144bd565b602082019050919050565b60006020820190508181036000830152614522816144e6565b9050919050565b7f496e76616c69642057616c6c6574526f75746572000000000000000000000000600082015250565b600061455f601483613dd0565b915061456a82614529565b602082019050919050565b6000602082019050818103600083015261458e81614552565b9050919050565b60006060820190506145aa6000830186613cad565b6145b76020830185613a8e565b6145c46040830184613cad565b949350505050565b7f496e76616c696420726563697069656e74000000000000000000000000000000600082015250565b6000614602601183613dd0565b915061460d826145cc565b602082019050919050565b60006020820190508181036000830152614631816145f5565b9050919050565b600060a08201905061464d6000830188613cad565b61465a6020830187613cad565b6146676040830186613d66565b6146746060830185613a8e565b6146816080830184613cad565b9695505050505050565b7f4e6f742057616c6c6574526f7574657200000000000000000000000000000000600082015250565b60006146c1601083613dd0565b91506146cc8261468b565b602082019050919050565b600060208201905081810360008301526146f0816146b4565b9050919050565b7f496e73756666696369656e74205661756c74204554482062616c616e63650000600082015250565b600061472d601e83613dd0565b9150614738826146f7565b602082019050919050565b6000602082019050818103600083015261475c81614720565b9050919050565b7f496e73756666696369656e74205661756c7420746f6b656e2062616c616e6365600082015250565b6000614799602083613dd0565b91506147a482614763565b602082019050919050565b600060208201905081810360008301526147c88161478c565b9050919050565b60006147da826139bb565b91506147e5836139bb565b92508282019050808211156147fd576147fc614144565b5b92915050565b7f496e697469616c697a61626c653a20636f6e747261637420697320616c72656160008201527f647920696e697469616c697a6564000000000000000000000000000000000000602082015250565b600061485f602e83613dd0565b915061486a82614803565b604082019050919050565b6000602082019050818103600083015261488e81614852565b9050919050565b7f496e76616c696420526f6c654d616e6167657200000000000000000000000000600082015250565b60006148cb601383613dd0565b91506148d682614895565b602082019050919050565b600060208201905081810360008301526148fa816148be565b9050919050565b7f496e76616c69642054696d656c6f636b00000000000000000000000000000000600082015250565b6000614937601083613dd0565b915061494282614901565b602082019050919050565b600060208201905081810360008301526149668161492a565b9050919050565b7f57616c6c6574526f75746572206973206e6f74206120636f6e74726163740000600082015250565b60006149a3601e83613dd0565b91506149ae8261496d565b602082019050919050565b600060208201905081810360008301526149d281614996565b9050919050565b6000819050919050565b600060ff82169050919050565b6000614a0b614a06614a01846149d9565b61388c565b6149e3565b9050919050565b614a1b816149f0565b82525050565b6000602082019050614a366000830184614a12565b92915050565b7f5365742057616c6c6574526f75746572206e6f74206578656375746564000000600082015250565b6000614a72601d83613dd0565b9150614a7d82614a3c565b602082019050919050565b60006020820190508181036000830152614aa181614a65565b9050919050565b7f496e76616c696420696d706c656d656e746174696f6e20616464726573730000600082015250565b6000614ade601e83613dd0565b9150614ae982614aa8565b602082019050919050565b60006020820190508181036000830152614b0d81614ad1565b9050919050565b7f496d706c656d656e746174696f6e206973206e6f74206120636f6e7472616374600082015250565b6000614b4a602083613dd0565b9150614b5582614b14565b602082019050919050565b60006020820190508181036000830152614b7981614b3d565b9050919050565b7f45524331393637557067726164653a206e657720696d706c656d656e7461746960008201527f6f6e206973206e6f742055555053000000000000000000000000000000000000602082015250565b6000614bdc602e83613dd0565b9150614be782614b80565b604082019050919050565b60006020820190508181036000830152614c0b81614bcf565b9050919050565b7f45524331393637557067726164653a20756e737570706f727465642070726f7860008201527f6961626c65555549440000000000000000000000000000000000000000000000602082015250565b6000614c6e602983613dd0565b9150614c7982614c12565b604082019050919050565b60006020820190508181036000830152614c9d81614c61565b9050919050565b7f416464726573733a20696e73756666696369656e742062616c616e6365000000600082015250565b6000614cda601d83613dd0565b9150614ce582614ca4565b602082019050919050565b60006020820190508181036000830152614d0981614ccd565b9050919050565b600081905092915050565b50565b6000614d2b600083614d10565b9150614d3682614d1b565b600082019050919050565b6000614d4c82614d1e565b9150819050919050565b7f416464726573733a20756e61626c6520746f2073656e642076616c75652c207260008201527f6563697069656e74206d61792068617665207265766572746564000000000000602082015250565b6000614db2603a83613dd0565b9150614dbd82614d56565b604082019050919050565b60006020820190508181036000830152614de181614da5565b9050919050565b6000604082019050614dfd6000830185613cad565b614e0a6020830184613d66565b9392505050565b7f5061757361626c653a2070617573656400000000000000000000000000000000600082015250565b6000614e47601083613dd0565b9150614e5282614e11565b602082019050919050565b60006020820190508181036000830152614e7681614e3a565b9050919050565b7f496e697469616c697a61626c653a20636f6e7472616374206973206e6f74206960008201527f6e697469616c697a696e67000000000000000000000000000000000000000000602082015250565b6000614ed9602b83613dd0565b9150614ee482614e7d565b604082019050919050565b60006020820190508181036000830152614f0881614ecc565b9050919050565b7f455243313936373a206e657720696d706c656d656e746174696f6e206973206e60008201527f6f74206120636f6e747261637400000000000000000000000000000000000000602082015250565b6000614f6b602d83613dd0565b9150614f7682614f0f565b604082019050919050565b60006020820190508181036000830152614f9a81614f5e565b9050919050565b7f5061757361626c653a206e6f7420706175736564000000000000000000000000600082015250565b6000614fd7601483613dd0565b9150614fe282614fa1565b602082019050919050565b6000602082019050818103600083015261500681614fca565b9050919050565b7f5361666545524332303a204552433230206f7065726174696f6e20646964206e60008201527f6f74207375636365656400000000000000000000000000000000000000000000602082015250565b6000615069602a83613dd0565b91506150748261500d565b604082019050919050565b600060208201905081810360008301526150988161505c565b9050919050565b600081519050919050565b60005b838110156150c85780820151818401526020810190506150ad565b60008484015250505050565b60006150df8261509f565b6150e98185614d10565b93506150f98185602086016150aa565b80840191505092915050565b600061511182846150d4565b915081905092915050565b7f416464726573733a20696e73756666696369656e742062616c616e636520666f60008201527f722063616c6c0000000000000000000000000000000000000000000000000000602082015250565b6000615178602683613dd0565b91506151838261511c565b604082019050919050565b600060208201905081810360008301526151a78161516b565b9050919050565b7f416464726573733a2063616c6c20746f206e6f6e2d636f6e7472616374000000600082015250565b60006151e4601d83613dd0565b91506151ef826151ae565b602082019050919050565b60006020820190508181036000830152615213816151d7565b9050919050565b600081519050919050565b60006152308261521a565b61523a8185613dd0565b935061524a8185602086016150aa565b61525381613ac2565b840191505092915050565b600060208201905081810360008301526152788184615225565b90509291505056fe416464726573733a206c6f772d6c6576656c2064656c65676174652063616c6c206661696c6564a26469706673582212206b6ea4dfafd7b8df94d473d870c485038b2db15c709d752bbd6a325eacb20bd064736f6c63430008130033","linkReferences":{}},"methodIdentifiers":{"ADD_TOKEN()":"c41d769c","RECOVER_FUNDS()":"80d02816","REMOVE_TOKEN()":"ea84f070","SET_WALLETROUTER()":"4d9710dd","addSupportedToken(address)":"6d69fcaf","handleDeposit(address,address,uint256)":"bdc631d4","handleWithdrawal(address,address,uint256)":"ba313e34","initialize(address,address,address)":"c0c53b8b","isSupportedToken(address)":"240028e8","pause()":"8456cb59","paused()":"5c975abb","proposeRecoverFunds(address,address,uint256)":"80e03c58","proposeSetWalletRouter(address)":"77a9b404","proxiableUUID()":"52d1902d","recoverFunds(address,address,uint256,bytes32)":"4119f9fb","removeSupportedToken(address)":"76319190","roleManager()":"00435da5","setWalletRouter(address,bytes32)":"f6aea45c","supportedTokens(address)":"68c4ac26","timelock()":"d33219b4","totalDeposits(address)":"e9403256","unpause()":"3f4ba83a","upgradeTo(address)":"3659cfe6","upgradeToAndCall(address,bytes)":"4f1ef286","walletRouter()":"b3664c75"},"id":6}