{"abi":[{"type":"constructor","inputs":[{"name":"_multiSigAdmin","type":"address","internalType":"address"}],"stateMutability":"nonpayable"},{"type":"function","name":"DEFAULT_ADMIN_ROLE","inputs":[],"outputs":[{"name":"","type":"bytes32","internalType":"bytes32"}],"stateMutability":"view"},{"type":"function","name":"MIN_TIMELOCK_DELAY","inputs":[],"outputs":[{"name":"","type":"uint256","internalType":"uint256"}],"stateMutability":"view"},{"type":"function","name":"OPERATOR_ROLE","inputs":[],"outputs":[{"name":"","type":"bytes32","internalType":"bytes32"}],"stateMutability":"view"},{"type":"function","name":"ROUTER_ADMIN_ROLE","inputs":[],"outputs":[{"name":"","type":"bytes32","internalType":"bytes32"}],"stateMutability":"view"},{"type":"function","name":"VAULT_ADMIN_ROLE","inputs":[],"outputs":[{"name":"","type":"bytes32","internalType":"bytes32"}],"stateMutability":"view"},{"type":"function","name":"acceptAdminTransfer","inputs":[],"outputs":[],"stateMutability":"nonpayable"},{"type":"function","name":"cancelRoleAction","inputs":[{"name":"actionId","type":"bytes32","internalType":"bytes32"}],"outputs":[],"stateMutability":"nonpayable"},{"type":"function","name":"executeRoleAction","inputs":[{"name":"actionId","type":"bytes32","internalType":"bytes32"}],"outputs":[],"stateMutability":"nonpayable"},{"type":"function","name":"getRoleAdmin","inputs":[{"name":"role","type":"bytes32","internalType":"bytes32"}],"outputs":[{"name":"","type":"bytes32","internalType":"bytes32"}],"stateMutability":"view"},{"type":"function","name":"grantRole","inputs":[{"name":"role","type":"bytes32","internalType":"bytes32"},{"name":"account","type":"address","internalType":"address"}],"outputs":[],"stateMutability":"nonpayable"},{"type":"function","name":"hasRole","inputs":[{"name":"role","type":"bytes32","internalType":"bytes32"},{"name":"account","type":"address","internalType":"address"}],"outputs":[{"name":"","type":"bool","internalType":"bool"}],"stateMutability":"view"},{"type":"function","name":"pause","inputs":[],"outputs":[],"stateMutability":"nonpayable"},{"type":"function","name":"paused","inputs":[],"outputs":[{"name":"","type":"bool","internalType":"bool"}],"stateMutability":"view"},{"type":"function","name":"pendingAdminTransfers","inputs":[{"name":"","type":"address","internalType":"address"}],"outputs":[{"name":"newAdmin","type":"address","internalType":"address"},{"name":"oldAdmin","type":"address","internalType":"address"},{"name":"executableAfter","type":"uint256","internalType":"uint256"}],"stateMutability":"view"},{"type":"function","name":"pendingRoleActions","inputs":[{"name":"","type":"bytes32","internalType":"bytes32"}],"outputs":[{"name":"role","type":"bytes32","internalType":"bytes32"},{"name":"account","type":"address","internalType":"address"},{"name":"isGrant","type":"bool","internalType":"bool"},{"name":"executableAfter","type":"uint256","internalType":"uint256"}],"stateMutability":"view"},{"type":"function","name":"proposeAdminTransfer","inputs":[{"name":"newAdmin","type":"address","internalType":"address"}],"outputs":[],"stateMutability":"nonpayable"},{"type":"function","name":"proposeGrantRole","inputs":[{"name":"role","type":"bytes32","internalType":"bytes32"},{"name":"account","type":"address","internalType":"address"}],"outputs":[],"stateMutability":"nonpayable"},{"type":"function","name":"proposeRevokeRole","inputs":[{"name":"role","type":"bytes32","internalType":"bytes32"},{"name":"account","type":"address","internalType":"address"}],"outputs":[],"stateMutability":"nonpayable"},{"type":"function","name":"renounceRole","inputs":[{"name":"role","type":"bytes32","internalType":"bytes32"},{"name":"account","type":"address","internalType":"address"}],"outputs":[],"stateMutability":"nonpayable"},{"type":"function","name":"revokeRole","inputs":[{"name":"role","type":"bytes32","internalType":"bytes32"},{"name":"account","type":"address","internalType":"address"}],"outputs":[],"stateMutability":"nonpayable"},{"type":"function","name":"setTimelock","inputs":[{"name":"role","type":"bytes32","internalType":"bytes32"},{"name":"daysCount","type":"uint256","internalType":"uint256"}],"outputs":[],"stateMutability":"nonpayable"},{"type":"function","name":"supportsInterface","inputs":[{"name":"interfaceId","type":"bytes4","internalType":"bytes4"}],"outputs":[{"name":"","type":"bool","internalType":"bool"}],"stateMutability":"view"},{"type":"function","name":"unpause","inputs":[],"outputs":[],"stateMutability":"nonpayable"},{"type":"event","name":"AdminTransferAccepted","inputs":[{"name":"oldAdmin","type":"address","indexed":true,"internalType":"address"},{"name":"newAdmin","type":"address","indexed":true,"internalType":"address"}],"anonymous":false},{"type":"event","name":"AdminTransferProposed","inputs":[{"name":"currentAdmin","type":"address","indexed":true,"internalType":"address"},{"name":"newAdmin","type":"address","indexed":true,"internalType":"address"}],"anonymous":false},{"type":"event","name":"Paused","inputs":[{"name":"account","type":"address","indexed":false,"internalType":"address"}],"anonymous":false},{"type":"event","name":"RoleAdminChanged","inputs":[{"name":"role","type":"bytes32","indexed":true,"internalType":"bytes32"},{"name":"previousAdminRole","type":"bytes32","indexed":true,"internalType":"bytes32"},{"name":"newAdminRole","type":"bytes32","indexed":true,"internalType":"bytes32"}],"anonymous":false},{"type":"event","name":"RoleChangeCancelled","inputs":[{"name":"actionId","type":"bytes32","indexed":true,"internalType":"bytes32"}],"anonymous":false},{"type":"event","name":"RoleChangeExecuted","inputs":[{"name":"actionId","type":"bytes32","indexed":true,"internalType":"bytes32"},{"name":"role","type":"bytes32","indexed":true,"internalType":"bytes32"},{"name":"account","type":"address","indexed":true,"internalType":"address"},{"name":"isGrant","type":"bool","indexed":false,"internalType":"bool"}],"anonymous":false},{"type":"event","name":"RoleChangeProposed","inputs":[{"name":"actionId","type":"bytes32","indexed":true,"internalType":"bytes32"},{"name":"role","type":"bytes32","indexed":true,"internalType":"bytes32"},{"name":"account","type":"address","indexed":true,"internalType":"address"},{"name":"isGrant","type":"bool","indexed":false,"internalType":"bool"},{"name":"executableAfter","type":"uint256","indexed":false,"internalType":"uint256"}],"anonymous":false},{"type":"event","name":"RoleGranted","inputs":[{"name":"role","type":"bytes32","indexed":true,"internalType":"bytes32"},{"name":"account","type":"address","indexed":true,"internalType":"address"},{"name":"sender","type":"address","indexed":true,"internalType":"address"}],"anonymous":false},{"type":"event","name":"RoleRevoked","inputs":[{"name":"role","type":"bytes32","indexed":true,"internalType":"bytes32"},{"name":"account","type":"address","indexed":true,"internalType":"address"},{"name":"sender","type":"address","indexed":true,"internalType":"address"}],"anonymous":false},{"type":"event","name":"TimelockDelayChanged","inputs":[{"name":"oldDelay","type":"uint256","indexed":false,"internalType":"uint256"},{"name":"newDelay","type":"uint256","indexed":false,"internalType":"uint256"}],"anonymous":false},{"type":"event","name":"Unpaused","inputs":[{"name":"account","type":"address","indexed":false,"internalType":"address"}],"anonymous":false},{"type":"error","name":"ActionAlreadyProposed","inputs":[]},{"type":"error","name":"ActionNotProposed","inputs":[]},{"type":"error","name":"DelayMustBeAtLeastOneDay","inputs":[]},{"type":"error","name":"InvalidAccount","inputs":[]},{"type":"error","name":"InvalidAdminAddress","inputs":[]},{"type":"error","name":"OldAdminLacksDefaultAdminRole","inputs":[]},{"type":"error","name":"TimelockNotExpired","inputs":[]}],"bytecode":{"object":"0x6080604052620151806002553480156200001857600080fd5b50604051620028b2380380620028b283398181016040528101906200003e919062000460565b6000600160006101000a81548160ff021916908315150217905550600073ffffffffffffffffffffffffffffffffffffffff168173ffffffffffffffffffffffffffffffffffffffff1603620000c0576040517f05bb467c00000000000000000000000000000000000000000000000000000000815260040160405180910390fd5b620000d56000801b826200021160201b60201c565b6200010a7f97667070c54ef182b0f5858b034beac1b6f3089aa2d3188bb1e8929f4fa9b9296000801b6200030260201b60201c565b6200013f7f7edcee67725a77bfa311b39349d7e96df9b23fbdbdcb328dfc17d77926920c136000801b6200030260201b60201c565b620001747f56623da34b1ec5cb86498f15a28504a6323a0eedfb150423fe6f418d952826ee6000801b6200030260201b60201c565b620001a67f97667070c54ef182b0f5858b034beac1b6f3089aa2d3188bb1e8929f4fa9b929826200021160201b60201c565b620001d87f7edcee67725a77bfa311b39349d7e96df9b23fbdbdcb328dfc17d77926920c13826200021160201b60201c565b6200020a7f56623da34b1ec5cb86498f15a28504a6323a0eedfb150423fe6f418d952826ee826200021160201b60201c565b5062000492565b6200022382826200036560201b60201c565b620002fe57600160008084815260200190815260200160002060000160008373ffffffffffffffffffffffffffffffffffffffff1673ffffffffffffffffffffffffffffffffffffffff16815260200190815260200160002060006101000a81548160ff021916908315150217905550620002a3620003cf60201b60201c565b73ffffffffffffffffffffffffffffffffffffffff168173ffffffffffffffffffffffffffffffffffffffff16837f2f8788117e7eff1d82e926ec794901d17c78024a50270940304540a733656f0d60405160405180910390a45b5050565b60006200031583620003d760201b60201c565b905081600080858152602001908152602001600020600101819055508181847fbd79b86ffe0ab8e8776151514217cd7cacd52c909f66475c3af44e129f0b00ff60405160405180910390a4505050565b600080600084815260200190815260200160002060000160008373ffffffffffffffffffffffffffffffffffffffff1673ffffffffffffffffffffffffffffffffffffffff16815260200190815260200160002060009054906101000a900460ff16905092915050565b600033905090565b6000806000838152602001908152602001600020600101549050919050565b600080fd5b600073ffffffffffffffffffffffffffffffffffffffff82169050919050565b60006200042882620003fb565b9050919050565b6200043a816200041b565b81146200044657600080fd5b50565b6000815190506200045a816200042f565b92915050565b600060208284031215620004795762000478620003f6565b5b6000620004898482850162000449565b91505092915050565b61241080620004a26000396000f3fe608060405234801561001057600080fd5b506004361061014d5760003560e01c80637e8aa69d116100c3578063bc43b6b31161007c578063bc43b6b314610353578063c9adb9dd1461036f578063d03f078b146103a1578063d547741f146103bf578063f5551608146103db578063f5b541a6146103f75761014d565b80637e8aa69d1461028e5780638456cb59146102aa57806391d14854146102b45780639e341119146102e4578063a217fddf14610302578063aceb443a146103205761014d565b8063248a9ca311610115578063248a9ca3146101e25780632f2ff15d146102125780633394ad0c1461022e57806336568abe1461024a5780633f4ba83a146102665780635c975abb146102705761014d565b806301ffc9a714610152578063169070eb1461018257806317aee51f146101a05780631a1aa576146101aa5780631a25bdb7146101c6575b600080fd5b61016c60048036038101906101679190611b7f565b610415565b6040516101799190611bc7565b60405180910390f35b61018a61048f565b6040516101979190611bfb565b60405180910390f35b6101a8610495565b005b6101c460048036038101906101bf9190611c4c565b610773565b005b6101e060048036038101906101db9190611c4c565b610862565b005b6101fc60048036038101906101f79190611c4c565b610a88565b6040516102099190611c88565b60405180910390f35b61022c60048036038101906102279190611d01565b610aa7565b005b61024860048036038101906102439190611d01565b610af4565b005b610264600480360381019061025f9190611d01565b610d34565b005b61026e610d6f565b005b610278610d87565b6040516102859190611bc7565b60405180910390f35b6102a860048036038101906102a39190611d41565b610d9e565b005b6102b2610fa5565b005b6102ce60048036038101906102c99190611d01565b610fbd565b6040516102db9190611bc7565b60405180910390f35b6102ec611027565b6040516102f99190611c88565b60405180910390f35b61030a61104b565b6040516103179190611c88565b60405180910390f35b61033a60048036038101906103359190611c4c565b611052565b60405161034a9493929190611d7d565b60405180910390f35b61036d60048036038101906103689190611dee565b6110af565b005b61038960048036038101906103849190611d41565b611156565b60405161039893929190611e2e565b60405180910390f35b6103a96111c0565b6040516103b69190611c88565b60405180910390f35b6103d960048036038101906103d49190611d01565b6111e4565b005b6103f560048036038101906103f09190611d01565b611231565b005b6103ff611471565b60405161040c9190611c88565b60405180910390f35b60007f7965db0b000000000000000000000000000000000000000000000000000000007bffffffffffffffffffffffffffffffffffffffffffffffffffffffff1916827bffffffffffffffffffffffffffffffffffffffffffffffffffffffff19161480610488575061048782611495565b5b9050919050565b60025481565b6000600460003373ffffffffffffffffffffffffffffffffffffffff1673ffffffffffffffffffffffffffffffffffffffff1681526020019081526020016000206040518060600160405290816000820160009054906101000a900473ffffffffffffffffffffffffffffffffffffffff1673ffffffffffffffffffffffffffffffffffffffff1673ffffffffffffffffffffffffffffffffffffffff1681526020016001820160009054906101000a900473ffffffffffffffffffffffffffffffffffffffff1673ffffffffffffffffffffffffffffffffffffffff1673ffffffffffffffffffffffffffffffffffffffff16815260200160028201548152505090506105aa6000801b8260200151610fbd565b6105e0576040517f3b3188cc00000000000000000000000000000000000000000000000000000000815260040160405180910390fd5b600081604001510361061e576040517fc10280c600000000000000000000000000000000000000000000000000000000815260040160405180910390fd5b806040015142101561065c576040517f621e25c300000000000000000000000000000000000000000000000000000000815260040160405180910390fd5b600460003373ffffffffffffffffffffffffffffffffffffffff1673ffffffffffffffffffffffffffffffffffffffff168152602001908152602001600020600080820160006101000a81549073ffffffffffffffffffffffffffffffffffffffff02191690556001820160006101000a81549073ffffffffffffffffffffffffffffffffffffffff0219169055600282016000905550506107016000801b336114ff565b6107126000801b82602001516115df565b3373ffffffffffffffffffffffffffffffffffffffff16816020015173ffffffffffffffffffffffffffffffffffffffff167f0a5e51d1a708a68919d9ab9afd976c6e463eddc9bc7ee4fdbb05bf9946e85a3360405160405180910390a350565b6000801b610780816116c0565b60006003600084815260200190815260200160002060020154036107d0576040517fc10280c600000000000000000000000000000000000000000000000000000000815260040160405180910390fd5b600360008381526020019081526020016000206000808201600090556001820160006101000a81549073ffffffffffffffffffffffffffffffffffffffff02191690556001820160146101000a81549060ff021916905560028201600090555050817fe4cdca00bec9f670c2ffa60b42d3f2acff8fdc77ee9b27324a667fc414be3dae60405160405180910390a25050565b6000801b61086f816116c0565b600060036000848152602001908152602001600020604051806080016040529081600082015481526020016001820160009054906101000a900473ffffffffffffffffffffffffffffffffffffffff1673ffffffffffffffffffffffffffffffffffffffff1673ffffffffffffffffffffffffffffffffffffffff1681526020016001820160149054906101000a900460ff1615151515815260200160028201548152505090506000816060015103610954576040517fc10280c600000000000000000000000000000000000000000000000000000000815260040160405180910390fd5b8060600151421015610992576040517f621e25c300000000000000000000000000000000000000000000000000000000815260040160405180910390fd5b600360008481526020019081526020016000206000808201600090556001820160006101000a81549073ffffffffffffffffffffffffffffffffffffffff02191690556001820160146101000a81549060ff021916905560028201600090555050806040015115610a1457610a0f816000015182602001516114ff565b610a27565b610a26816000015182602001516115df565b5b806020015173ffffffffffffffffffffffffffffffffffffffff168160000151847f0e8153c2aad90517ea80bbbd8341175c66dac085d255102dab57da1c02b013918460400151604051610a7b9190611bc7565b60405180910390a4505050565b6000806000838152602001908152602001600020600101549050919050565b610ab082610a88565b610ab9816116c0565b6040517f08c379a0000000000000000000000000000000000000000000000000000000008152600401610aeb90611ec2565b60405180910390fd5b610afd82610a88565b610b06816116c0565b610b0e6116d4565b600073ffffffffffffffffffffffffffffffffffffffff168273ffffffffffffffffffffffffffffffffffffffff1603610b74576040517f6d187b2800000000000000000000000000000000000000000000000000000000815260040160405180910390fd5b60008383600042604051602001610b8e9493929190611d7d565b6040516020818303038152906040528051906020012090506000600360008381526020019081526020016000206002015414610bf6576040517fca0f0b0800000000000000000000000000000000000000000000000000000000815260040160405180910390fd5b60405180608001604052808581526020018473ffffffffffffffffffffffffffffffffffffffff16815260200160001515815260200160025442610c3a9190611f11565b815250600360008381526020019081526020016000206000820151816000015560208201518160010160006101000a81548173ffffffffffffffffffffffffffffffffffffffff021916908373ffffffffffffffffffffffffffffffffffffffff16021790555060408201518160010160146101000a81548160ff021916908315150217905550606082015181600201559050508273ffffffffffffffffffffffffffffffffffffffff1684827fe5371144d8c14f43969f62d63625e0a983c8265a0e163444fada66633a64c95b600060025442610d189190611f11565b604051610d26929190611f45565b60405180910390a450505050565b6040517f08c379a0000000000000000000000000000000000000000000000000000000008152600401610d6690611fba565b60405180910390fd5b6000801b610d7c816116c0565b610d8461171e565b50565b6000600160009054906101000a900460ff16905090565b6000801b610dab816116c0565b610db36116d4565b600073ffffffffffffffffffffffffffffffffffffffff168273ffffffffffffffffffffffffffffffffffffffff1603610e19576040517f05bb467c00000000000000000000000000000000000000000000000000000000815260040160405180910390fd5b60405180606001604052808373ffffffffffffffffffffffffffffffffffffffff1681526020013373ffffffffffffffffffffffffffffffffffffffff16815260200160025442610e6a9190611f11565b815250600460008473ffffffffffffffffffffffffffffffffffffffff1673ffffffffffffffffffffffffffffffffffffffff16815260200190815260200160002060008201518160000160006101000a81548173ffffffffffffffffffffffffffffffffffffffff021916908373ffffffffffffffffffffffffffffffffffffffff16021790555060208201518160010160006101000a81548173ffffffffffffffffffffffffffffffffffffffff021916908373ffffffffffffffffffffffffffffffffffffffff160217905550604082015181600201559050508173ffffffffffffffffffffffffffffffffffffffff163373ffffffffffffffffffffffffffffffffffffffff167fc02afc35b5d9b88807390ad5b17e685602c17339aa880db1dfe4e15cb3e2e3a160405160405180910390a35050565b6000801b610fb2816116c0565b610fba611781565b50565b600080600084815260200190815260200160002060000160008373ffffffffffffffffffffffffffffffffffffffff1673ffffffffffffffffffffffffffffffffffffffff16815260200190815260200160002060009054906101000a900460ff16905092915050565b7f7edcee67725a77bfa311b39349d7e96df9b23fbdbdcb328dfc17d77926920c1381565b6000801b81565b60036020528060005260406000206000915090508060000154908060010160009054906101000a900473ffffffffffffffffffffffffffffffffffffffff16908060010160149054906101000a900460ff16908060020154905084565b6110b882610a88565b6110c1816116c0565b600082036110fb576040517f90f09e9a00000000000000000000000000000000000000000000000000000000815260040160405180910390fd5b6000620151808361110c9190611fda565b90507f3c829755bd8b21d750ac8567e59c28f7ab083ce559f92d92239882247ba60da16002548260405161114192919061201c565b60405180910390a18060028190555050505050565b60046020528060005260406000206000915090508060000160009054906101000a900473ffffffffffffffffffffffffffffffffffffffff16908060010160009054906101000a900473ffffffffffffffffffffffffffffffffffffffff16908060020154905083565b7f56623da34b1ec5cb86498f15a28504a6323a0eedfb150423fe6f418d952826ee81565b6111ed82610a88565b6111f6816116c0565b6040517f08c379a000000000000000000000000000000000000000000000000000000000815260040161122890611fba565b60405180910390fd5b61123a82610a88565b611243816116c0565b61124b6116d4565b600073ffffffffffffffffffffffffffffffffffffffff168273ffffffffffffffffffffffffffffffffffffffff16036112b1576040517f6d187b2800000000000000000000000000000000000000000000000000000000815260040160405180910390fd5b600083836001426040516020016112cb9493929190611d7d565b6040516020818303038152906040528051906020012090506000600360008381526020019081526020016000206002015414611333576040517fca0f0b0800000000000000000000000000000000000000000000000000000000815260040160405180910390fd5b60405180608001604052808581526020018473ffffffffffffffffffffffffffffffffffffffff168152602001600115158152602001600254426113779190611f11565b815250600360008381526020019081526020016000206000820151816000015560208201518160010160006101000a81548173ffffffffffffffffffffffffffffffffffffffff021916908373ffffffffffffffffffffffffffffffffffffffff16021790555060408201518160010160146101000a81548160ff021916908315150217905550606082015181600201559050508273ffffffffffffffffffffffffffffffffffffffff1684827fe5371144d8c14f43969f62d63625e0a983c8265a0e163444fada66633a64c95b6001600254426114559190611f11565b604051611463929190611f45565b60405180910390a450505050565b7f97667070c54ef182b0f5858b034beac1b6f3089aa2d3188bb1e8929f4fa9b92981565b60007f01ffc9a7000000000000000000000000000000000000000000000000000000007bffffffffffffffffffffffffffffffffffffffffffffffffffffffff1916827bffffffffffffffffffffffffffffffffffffffffffffffffffffffff1916149050919050565b6115098282610fbd565b6115db57600160008084815260200190815260200160002060000160008373ffffffffffffffffffffffffffffffffffffffff1673ffffffffffffffffffffffffffffffffffffffff16815260200190815260200160002060006101000a81548160ff0219169083151502179055506115806117e3565b73ffffffffffffffffffffffffffffffffffffffff168173ffffffffffffffffffffffffffffffffffffffff16837f2f8788117e7eff1d82e926ec794901d17c78024a50270940304540a733656f0d60405160405180910390a45b5050565b6115e98282610fbd565b156116bc57600080600084815260200190815260200160002060000160008373ffffffffffffffffffffffffffffffffffffffff1673ffffffffffffffffffffffffffffffffffffffff16815260200190815260200160002060006101000a81548160ff0219169083151502179055506116616117e3565b73ffffffffffffffffffffffffffffffffffffffff168173ffffffffffffffffffffffffffffffffffffffff16837ff6391f5c32d9c69d2a47ea670b442974b53935d1edc7fd64eb21e047a839171b60405160405180910390a45b5050565b6116d1816116cc6117e3565b6117eb565b50565b6116dc610d87565b1561171c576040517f08c379a000000000000000000000000000000000000000000000000000000000815260040161171390612091565b60405180910390fd5b565b611726611870565b6000600160006101000a81548160ff0219169083151502179055507f5db9ee0a495bf2e6ff9c91a7834c1ba4fdd244a5e8aa4e537bd38aeae4b073aa61176a6117e3565b60405161177791906120b1565b60405180910390a1565b6117896116d4565b60018060006101000a81548160ff0219169083151502179055507f62e78cea01bee320cd4e420270b5ea74000d11b0c9f74754ebdbfc544b05a2586117cc6117e3565b6040516117d991906120b1565b60405180910390a1565b600033905090565b6117f58282610fbd565b61186c57611802816118b9565b6118108360001c60206118e6565b6040516020016118219291906121d5565b6040516020818303038152906040526040517f08c379a00000000000000000000000000000000000000000000000000000000081526004016118639190612259565b60405180910390fd5b5050565b611878610d87565b6118b7576040517f08c379a00000000000000000000000000000000000000000000000000000000081526004016118ae906122c7565b60405180910390fd5b565b60606118df8273ffffffffffffffffffffffffffffffffffffffff16601460ff166118e6565b9050919050565b6060600060028360026118f99190611fda565b6119039190611f11565b67ffffffffffffffff81111561191c5761191b6122e7565b5b6040519080825280601f01601f19166020018201604052801561194e5781602001600182028036833780820191505090505b5090507f30000000000000000000000000000000000000000000000000000000000000008160008151811061198657611985612316565b5b60200101907effffffffffffffffffffffffffffffffffffffffffffffffffffffffffffff1916908160001a9053507f7800000000000000000000000000000000000000000000000000000000000000816001815181106119ea576119e9612316565b5b60200101907effffffffffffffffffffffffffffffffffffffffffffffffffffffffffffff1916908160001a90535060006001846002611a2a9190611fda565b611a349190611f11565b90505b6001811115611ad4577f3031323334353637383961626364656600000000000000000000000000000000600f861660108110611a7657611a75612316565b5b1a60f81b828281518110611a8d57611a8c612316565b5b60200101907effffffffffffffffffffffffffffffffffffffffffffffffffffffffffffff1916908160001a905350600485901c945080611acd90612345565b9050611a37565b5060008414611b18576040517f08c379a0000000000000000000000000000000000000000000000000000000008152600401611b0f906123ba565b60405180910390fd5b8091505092915050565b600080fd5b60007fffffffff0000000000000000000000000000000000000000000000000000000082169050919050565b611b5c81611b27565b8114611b6757600080fd5b50565b600081359050611b7981611b53565b92915050565b600060208284031215611b9557611b94611b22565b5b6000611ba384828501611b6a565b91505092915050565b60008115159050919050565b611bc181611bac565b82525050565b6000602082019050611bdc6000830184611bb8565b92915050565b6000819050919050565b611bf581611be2565b82525050565b6000602082019050611c106000830184611bec565b92915050565b6000819050919050565b611c2981611c16565b8114611c3457600080fd5b50565b600081359050611c4681611c20565b92915050565b600060208284031215611c6257611c61611b22565b5b6000611c7084828501611c37565b91505092915050565b611c8281611c16565b82525050565b6000602082019050611c9d6000830184611c79565b92915050565b600073ffffffffffffffffffffffffffffffffffffffff82169050919050565b6000611cce82611ca3565b9050919050565b611cde81611cc3565b8114611ce957600080fd5b50565b600081359050611cfb81611cd5565b92915050565b60008060408385031215611d1857611d17611b22565b5b6000611d2685828601611c37565b9250506020611d3785828601611cec565b9150509250929050565b600060208284031215611d5757611d56611b22565b5b6000611d6584828501611cec565b91505092915050565b611d7781611cc3565b82525050565b6000608082019050611d926000830187611c79565b611d9f6020830186611d6e565b611dac6040830185611bb8565b611db96060830184611bec565b95945050505050565b611dcb81611be2565b8114611dd657600080fd5b50565b600081359050611de881611dc2565b92915050565b60008060408385031215611e0557611e04611b22565b5b6000611e1385828601611c37565b9250506020611e2485828601611dd9565b9150509250929050565b6000606082019050611e436000830186611d6e565b611e506020830185611d6e565b611e5d6040830184611bec565b949350505050565b600082825260208201905092915050565b7f5573652070726f706f73654772616e74526f6c6520696e737465616400000000600082015250565b6000611eac601c83611e65565b9150611eb782611e76565b602082019050919050565b60006020820190508181036000830152611edb81611e9f565b9050919050565b7f4e487b7100000000000000000000000000000000000000000000000000000000600052601160045260246000fd5b6000611f1c82611be2565b9150611f2783611be2565b9250828201905080821115611f3f57611f3e611ee2565b5b92915050565b6000604082019050611f5a6000830185611bb8565b611f676020830184611bec565b9392505050565b7f5573652070726f706f73655265766f6b65526f6c6520696e7374656164000000600082015250565b6000611fa4601d83611e65565b9150611faf82611f6e565b602082019050919050565b60006020820190508181036000830152611fd381611f97565b9050919050565b6000611fe582611be2565b9150611ff083611be2565b9250828202611ffe81611be2565b9150828204841483151761201557612014611ee2565b5b5092915050565b60006040820190506120316000830185611bec565b61203e6020830184611bec565b9392505050565b7f5061757361626c653a2070617573656400000000000000000000000000000000600082015250565b600061207b601083611e65565b915061208682612045565b602082019050919050565b600060208201905081810360008301526120aa8161206e565b9050919050565b60006020820190506120c66000830184611d6e565b92915050565b600081905092915050565b7f416363657373436f6e74726f6c3a206163636f756e7420000000000000000000600082015250565b600061210d6017836120cc565b9150612118826120d7565b601782019050919050565b600081519050919050565b60005b8381101561214c578082015181840152602081019050612131565b60008484015250505050565b600061216382612123565b61216d81856120cc565b935061217d81856020860161212e565b80840191505092915050565b7f206973206d697373696e6720726f6c6520000000000000000000000000000000600082015250565b60006121bf6011836120cc565b91506121ca82612189565b601182019050919050565b60006121e082612100565b91506121ec8285612158565b91506121f7826121b2565b91506122038284612158565b91508190509392505050565b6000601f19601f8301169050919050565b600061222b82612123565b6122358185611e65565b935061224581856020860161212e565b61224e8161220f565b840191505092915050565b600060208201905081810360008301526122738184612220565b905092915050565b7f5061757361626c653a206e6f7420706175736564000000000000000000000000600082015250565b60006122b1601483611e65565b91506122bc8261227b565b602082019050919050565b600060208201905081810360008301526122e0816122a4565b9050919050565b7f4e487b7100000000000000000000000000000000000000000000000000000000600052604160045260246000fd5b7f4e487b7100000000000000000000000000000000000000000000000000000000600052603260045260246000fd5b600061235082611be2565b91506000820361236357612362611ee2565b5b600182039050919050565b7f537472696e67733a20686578206c656e67746820696e73756666696369656e74600082015250565b60006123a4602083611e65565b91506123af8261236e565b602082019050919050565b600060208201905081810360008301526123d381612397565b905091905056fea26469706673582212205c1571587140aca686b352180f479bc286f3c107c6566686a417604460841bac64736f6c63430008130033","linkReferences":{}},"methodIdentifiers":{"DEFAULT_ADMIN_ROLE()":"a217fddf","MIN_TIMELOCK_DELAY()":"169070eb","OPERATOR_ROLE()":"f5b541a6","ROUTER_ADMIN_ROLE()":"d03f078b","VAULT_ADMIN_ROLE()":"9e341119","acceptAdminTransfer()":"17aee51f","cancelRoleAction(bytes32)":"1a1aa576","executeRoleAction(bytes32)":"1a25bdb7","getRoleAdmin(bytes32)":"248a9ca3","grantRole(bytes32,address)":"2f2ff15d","hasRole(bytes32,address)":"91d14854","pause()":"8456cb59","paused()":"5c975abb","pendingAdminTransfers(address)":"c9adb9dd","pendingRoleActions(bytes32)":"aceb443a","proposeAdminTransfer(address)":"7e8aa69d","proposeGrantRole(bytes32,address)":"f5551608","proposeRevokeRole(bytes32,address)":"3394ad0c","renounceRole(bytes32,address)":"36568abe","revokeRole(bytes32,address)":"d547741f","setTimelock(bytes32,uint256)":"bc43b6b3","supportsInterface(bytes4)":"01ffc9a7","unpause()":"3f4ba83a"},"id":0}