{"abi":[{"type":"constructor","inputs":[{"name":"_superAdmin","type":"address","internalType":"address"}],"stateMutability":"nonpayable"},{"type":"function","name":"DEFAULT_ADMIN_ROLE","inputs":[],"outputs":[{"name":"","type":"bytes32","internalType":"bytes32"}],"stateMutability":"view"},{"type":"function","name":"OPERATOR_ROLE","inputs":[],"outputs":[{"name":"","type":"bytes32","internalType":"bytes32"}],"stateMutability":"view"},{"type":"function","name":"ROUTER_ADMIN_ROLE","inputs":[],"outputs":[{"name":"","type":"bytes32","internalType":"bytes32"}],"stateMutability":"view"},{"type":"function","name":"VAULT_ADMIN_ROLE","inputs":[],"outputs":[{"name":"","type":"bytes32","internalType":"bytes32"}],"stateMutability":"view"},{"type":"function","name":"getRoleAdmin","inputs":[{"name":"role","type":"bytes32","internalType":"bytes32"}],"outputs":[{"name":"","type":"bytes32","internalType":"bytes32"}],"stateMutability":"view"},{"type":"function","name":"grantRole","inputs":[{"name":"role","type":"bytes32","internalType":"bytes32"},{"name":"account","type":"address","internalType":"address"}],"outputs":[],"stateMutability":"nonpayable"},{"type":"function","name":"hasRole","inputs":[{"name":"role","type":"bytes32","internalType":"bytes32"},{"name":"account","type":"address","internalType":"address"}],"outputs":[{"name":"","type":"bool","internalType":"bool"}],"stateMutability":"view"},{"type":"function","name":"renounceRole","inputs":[{"name":"role","type":"bytes32","internalType":"bytes32"},{"name":"account","type":"address","internalType":"address"}],"outputs":[],"stateMutability":"nonpayable"},{"type":"function","name":"revokeRole","inputs":[{"name":"role","type":"bytes32","internalType":"bytes32"},{"name":"account","type":"address","internalType":"address"}],"outputs":[],"stateMutability":"nonpayable"},{"type":"function","name":"supportsInterface","inputs":[{"name":"interfaceId","type":"bytes4","internalType":"bytes4"}],"outputs":[{"name":"","type":"bool","internalType":"bool"}],"stateMutability":"view"},{"type":"event","name":"RoleAdminChanged","inputs":[{"name":"role","type":"bytes32","indexed":true,"internalType":"bytes32"},{"name":"previousAdminRole","type":"bytes32","indexed":true,"internalType":"bytes32"},{"name":"newAdminRole","type":"bytes32","indexed":true,"internalType":"bytes32"}],"anonymous":false},{"type":"event","name":"RoleGranted","inputs":[{"name":"role","type":"bytes32","indexed":true,"internalType":"bytes32"},{"name":"account","type":"address","indexed":true,"internalType":"address"},{"name":"sender","type":"address","indexed":true,"internalType":"address"}],"anonymous":false},{"type":"event","name":"RoleRevoked","inputs":[{"name":"role","type":"bytes32","indexed":true,"internalType":"bytes32"},{"name":"account","type":"address","indexed":true,"internalType":"address"},{"name":"sender","type":"address","indexed":true,"internalType":"address"}],"anonymous":false}],"bytecode":{"object":"0x60806040523480156200001157600080fd5b506040516200139d3803806200139d8339818101604052810190620000379190620003d7565b6200004c6000801b826200018860201b60201c565b620000817f97667070c54ef182b0f5858b034beac1b6f3089aa2d3188bb1e8929f4fa9b9296000801b6200027960201b60201c565b620000b67f7edcee67725a77bfa311b39349d7e96df9b23fbdbdcb328dfc17d77926920c136000801b6200027960201b60201c565b620000eb7f56623da34b1ec5cb86498f15a28504a6323a0eedfb150423fe6f418d952826ee6000801b6200027960201b60201c565b6200011d7f97667070c54ef182b0f5858b034beac1b6f3089aa2d3188bb1e8929f4fa9b929826200018860201b60201c565b6200014f7f7edcee67725a77bfa311b39349d7e96df9b23fbdbdcb328dfc17d77926920c13826200018860201b60201c565b620001817f56623da34b1ec5cb86498f15a28504a6323a0eedfb150423fe6f418d952826ee826200018860201b60201c565b5062000409565b6200019a8282620002dc60201b60201c565b6200027557600160008084815260200190815260200160002060000160008373ffffffffffffffffffffffffffffffffffffffff1673ffffffffffffffffffffffffffffffffffffffff16815260200190815260200160002060006101000a81548160ff0219169083151502179055506200021a6200034660201b60201c565b73ffffffffffffffffffffffffffffffffffffffff168173ffffffffffffffffffffffffffffffffffffffff16837f2f8788117e7eff1d82e926ec794901d17c78024a50270940304540a733656f0d60405160405180910390a45b5050565b60006200028c836200034e60201b60201c565b905081600080858152602001908152602001600020600101819055508181847fbd79b86ffe0ab8e8776151514217cd7cacd52c909f66475c3af44e129f0b00ff60405160405180910390a4505050565b600080600084815260200190815260200160002060000160008373ffffffffffffffffffffffffffffffffffffffff1673ffffffffffffffffffffffffffffffffffffffff16815260200190815260200160002060009054906101000a900460ff16905092915050565b600033905090565b6000806000838152602001908152602001600020600101549050919050565b600080fd5b600073ffffffffffffffffffffffffffffffffffffffff82169050919050565b60006200039f8262000372565b9050919050565b620003b18162000392565b8114620003bd57600080fd5b50565b600081519050620003d181620003a6565b92915050565b600060208284031215620003f057620003ef6200036d565b5b60006200040084828501620003c0565b91505092915050565b610f8480620004196000396000f3fe608060405234801561001057600080fd5b506004361061009e5760003560e01c80639e341119116100665780639e3411191461016b578063a217fddf14610189578063d03f078b146101a7578063d547741f146101c5578063f5b541a6146101e15761009e565b806301ffc9a7146100a3578063248a9ca3146100d35780632f2ff15d1461010357806336568abe1461011f57806391d148541461013b575b600080fd5b6100bd60048036038101906100b891906109cc565b6101ff565b6040516100ca9190610a14565b60405180910390f35b6100ed60048036038101906100e89190610a65565b610279565b6040516100fa9190610aa1565b60405180910390f35b61011d60048036038101906101189190610b1a565b610298565b005b61013960048036038101906101349190610b1a565b6102b9565b005b61015560048036038101906101509190610b1a565b61033c565b6040516101629190610a14565b60405180910390f35b6101736103a6565b6040516101809190610aa1565b60405180910390f35b6101916103ca565b60405161019e9190610aa1565b60405180910390f35b6101af6103d1565b6040516101bc9190610aa1565b60405180910390f35b6101df60048036038101906101da9190610b1a565b6103f5565b005b6101e9610416565b6040516101f69190610aa1565b60405180910390f35b60007f7965db0b000000000000000000000000000000000000000000000000000000007bffffffffffffffffffffffffffffffffffffffffffffffffffffffff1916827bffffffffffffffffffffffffffffffffffffffffffffffffffffffff1916148061027257506102718261043a565b5b9050919050565b6000806000838152602001908152602001600020600101549050919050565b6102a182610279565b6102aa816104a4565b6102b483836104b8565b505050565b6102c1610598565b73ffffffffffffffffffffffffffffffffffffffff168173ffffffffffffffffffffffffffffffffffffffff161461032e576040517f08c379a000000000000000000000000000000000000000000000000000000000815260040161032590610bdd565b60405180910390fd5b61033882826105a0565b5050565b600080600084815260200190815260200160002060000160008373ffffffffffffffffffffffffffffffffffffffff1673ffffffffffffffffffffffffffffffffffffffff16815260200190815260200160002060009054906101000a900460ff16905092915050565b7f7edcee67725a77bfa311b39349d7e96df9b23fbdbdcb328dfc17d77926920c1381565b6000801b81565b7f56623da34b1ec5cb86498f15a28504a6323a0eedfb150423fe6f418d952826ee81565b6103fe82610279565b610407816104a4565b61041183836105a0565b505050565b7f97667070c54ef182b0f5858b034beac1b6f3089aa2d3188bb1e8929f4fa9b92981565b60007f01ffc9a7000000000000000000000000000000000000000000000000000000007bffffffffffffffffffffffffffffffffffffffffffffffffffffffff1916827bffffffffffffffffffffffffffffffffffffffffffffffffffffffff1916149050919050565b6104b5816104b0610598565b610681565b50565b6104c2828261033c565b61059457600160008084815260200190815260200160002060000160008373ffffffffffffffffffffffffffffffffffffffff1673ffffffffffffffffffffffffffffffffffffffff16815260200190815260200160002060006101000a81548160ff021916908315150217905550610539610598565b73ffffffffffffffffffffffffffffffffffffffff168173ffffffffffffffffffffffffffffffffffffffff16837f2f8788117e7eff1d82e926ec794901d17c78024a50270940304540a733656f0d60405160405180910390a45b5050565b600033905090565b6105aa828261033c565b1561067d57600080600084815260200190815260200160002060000160008373ffffffffffffffffffffffffffffffffffffffff1673ffffffffffffffffffffffffffffffffffffffff16815260200190815260200160002060006101000a81548160ff021916908315150217905550610622610598565b73ffffffffffffffffffffffffffffffffffffffff168173ffffffffffffffffffffffffffffffffffffffff16837ff6391f5c32d9c69d2a47ea670b442974b53935d1edc7fd64eb21e047a839171b60405160405180910390a45b5050565b61068b828261033c565b6107025761069881610706565b6106a68360001c6020610733565b6040516020016106b7929190610d06565b6040516020818303038152906040526040517f08c379a00000000000000000000000000000000000000000000000000000000081526004016106f99190610d8a565b60405180910390fd5b5050565b606061072c8273ffffffffffffffffffffffffffffffffffffffff16601460ff16610733565b9050919050565b6060600060028360026107469190610de5565b6107509190610e27565b67ffffffffffffffff81111561076957610768610e5b565b5b6040519080825280601f01601f19166020018201604052801561079b5781602001600182028036833780820191505090505b5090507f3000000000000000000000000000000000000000000000000000000000000000816000815181106107d3576107d2610e8a565b5b60200101907effffffffffffffffffffffffffffffffffffffffffffffffffffffffffffff1916908160001a9053507f78000000000000000000000000000000000000000000000000000000000000008160018151811061083757610836610e8a565b5b60200101907effffffffffffffffffffffffffffffffffffffffffffffffffffffffffffff1916908160001a905350600060018460026108779190610de5565b6108819190610e27565b90505b6001811115610921577f3031323334353637383961626364656600000000000000000000000000000000600f8616601081106108c3576108c2610e8a565b5b1a60f81b8282815181106108da576108d9610e8a565b5b60200101907effffffffffffffffffffffffffffffffffffffffffffffffffffffffffffff1916908160001a905350600485901c94508061091a90610eb9565b9050610884565b5060008414610965576040517f08c379a000000000000000000000000000000000000000000000000000000000815260040161095c90610f2e565b60405180910390fd5b8091505092915050565b600080fd5b60007fffffffff0000000000000000000000000000000000000000000000000000000082169050919050565b6109a981610974565b81146109b457600080fd5b50565b6000813590506109c6816109a0565b92915050565b6000602082840312156109e2576109e161096f565b5b60006109f0848285016109b7565b91505092915050565b60008115159050919050565b610a0e816109f9565b82525050565b6000602082019050610a296000830184610a05565b92915050565b6000819050919050565b610a4281610a2f565b8114610a4d57600080fd5b50565b600081359050610a5f81610a39565b92915050565b600060208284031215610a7b57610a7a61096f565b5b6000610a8984828501610a50565b91505092915050565b610a9b81610a2f565b82525050565b6000602082019050610ab66000830184610a92565b92915050565b600073ffffffffffffffffffffffffffffffffffffffff82169050919050565b6000610ae782610abc565b9050919050565b610af781610adc565b8114610b0257600080fd5b50565b600081359050610b1481610aee565b92915050565b60008060408385031215610b3157610b3061096f565b5b6000610b3f85828601610a50565b9250506020610b5085828601610b05565b9150509250929050565b600082825260208201905092915050565b7f416363657373436f6e74726f6c3a2063616e206f6e6c792072656e6f756e636560008201527f20726f6c657320666f722073656c660000000000000000000000000000000000602082015250565b6000610bc7602f83610b5a565b9150610bd282610b6b565b604082019050919050565b60006020820190508181036000830152610bf681610bba565b9050919050565b600081905092915050565b7f416363657373436f6e74726f6c3a206163636f756e7420000000000000000000600082015250565b6000610c3e601783610bfd565b9150610c4982610c08565b601782019050919050565b600081519050919050565b60005b83811015610c7d578082015181840152602081019050610c62565b60008484015250505050565b6000610c9482610c54565b610c9e8185610bfd565b9350610cae818560208601610c5f565b80840191505092915050565b7f206973206d697373696e6720726f6c6520000000000000000000000000000000600082015250565b6000610cf0601183610bfd565b9150610cfb82610cba565b601182019050919050565b6000610d1182610c31565b9150610d1d8285610c89565b9150610d2882610ce3565b9150610d348284610c89565b91508190509392505050565b6000601f19601f8301169050919050565b6000610d5c82610c54565b610d668185610b5a565b9350610d76818560208601610c5f565b610d7f81610d40565b840191505092915050565b60006020820190508181036000830152610da48184610d51565b905092915050565b6000819050919050565b7f4e487b7100000000000000000000000000000000000000000000000000000000600052601160045260246000fd5b6000610df082610dac565b9150610dfb83610dac565b9250828202610e0981610dac565b91508282048414831517610e2057610e1f610db6565b5b5092915050565b6000610e3282610dac565b9150610e3d83610dac565b9250828201905080821115610e5557610e54610db6565b5b92915050565b7f4e487b7100000000000000000000000000000000000000000000000000000000600052604160045260246000fd5b7f4e487b7100000000000000000000000000000000000000000000000000000000600052603260045260246000fd5b6000610ec482610dac565b915060008203610ed757610ed6610db6565b5b600182039050919050565b7f537472696e67733a20686578206c656e67746820696e73756666696369656e74600082015250565b6000610f18602083610b5a565b9150610f2382610ee2565b602082019050919050565b60006020820190508181036000830152610f4781610f0b565b905091905056fea26469706673582212203be57dc20567008ed99bc7f299193fae9db9bd03408167d5f65c4eed2931f78d64736f6c63430008130033","linkReferences":{}},"methodIdentifiers":{"DEFAULT_ADMIN_ROLE()":"a217fddf","OPERATOR_ROLE()":"f5b541a6","ROUTER_ADMIN_ROLE()":"d03f078b","VAULT_ADMIN_ROLE()":"9e341119","getRoleAdmin(bytes32)":"248a9ca3","grantRole(bytes32,address)":"2f2ff15d","hasRole(bytes32,address)":"91d14854","renounceRole(bytes32,address)":"36568abe","revokeRole(bytes32,address)":"d547741f","supportsInterface(bytes4)":"01ffc9a7"},"id":0}