{"abi":[{"type":"constructor","inputs":[{"name":"_multiSigAdmin","type":"address","internalType":"address"}],"stateMutability":"nonpayable"},{"type":"function","name":"DEFAULT_ADMIN_ROLE","inputs":[],"outputs":[{"name":"","type":"bytes32","internalType":"bytes32"}],"stateMutability":"view"},{"type":"function","name":"MIN_TIMELOCK_DELAY","inputs":[],"outputs":[{"name":"","type":"uint256","internalType":"uint256"}],"stateMutability":"view"},{"type":"function","name":"OPERATOR_ROLE","inputs":[],"outputs":[{"name":"","type":"bytes32","internalType":"bytes32"}],"stateMutability":"view"},{"type":"function","name":"ROUTER_ADMIN_ROLE","inputs":[],"outputs":[{"name":"","type":"bytes32","internalType":"bytes32"}],"stateMutability":"view"},{"type":"function","name":"VAULT_ADMIN_ROLE","inputs":[],"outputs":[{"name":"","type":"bytes32","internalType":"bytes32"}],"stateMutability":"view"},{"type":"function","name":"acceptAdminTransfer","inputs":[],"outputs":[],"stateMutability":"nonpayable"},{"type":"function","name":"cancelRoleAction","inputs":[{"name":"actionId","type":"bytes32","internalType":"bytes32"}],"outputs":[],"stateMutability":"nonpayable"},{"type":"function","name":"executeRoleAction","inputs":[{"name":"actionId","type":"bytes32","internalType":"bytes32"}],"outputs":[],"stateMutability":"nonpayable"},{"type":"function","name":"getRoleAdmin","inputs":[{"name":"role","type":"bytes32","internalType":"bytes32"}],"outputs":[{"name":"","type":"bytes32","internalType":"bytes32"}],"stateMutability":"view"},{"type":"function","name":"grantRole","inputs":[{"name":"role","type":"bytes32","internalType":"bytes32"},{"name":"account","type":"address","internalType":"address"}],"outputs":[],"stateMutability":"nonpayable"},{"type":"function","name":"hasRole","inputs":[{"name":"role","type":"bytes32","internalType":"bytes32"},{"name":"account","type":"address","internalType":"address"}],"outputs":[{"name":"","type":"bool","internalType":"bool"}],"stateMutability":"view"},{"type":"function","name":"pause","inputs":[],"outputs":[],"stateMutability":"nonpayable"},{"type":"function","name":"paused","inputs":[],"outputs":[{"name":"","type":"bool","internalType":"bool"}],"stateMutability":"view"},{"type":"function","name":"pendingAdminTransfers","inputs":[{"name":"","type":"address","internalType":"address"}],"outputs":[{"name":"newAdmin","type":"address","internalType":"address"},{"name":"oldAdmin","type":"address","internalType":"address"},{"name":"executableAfter","type":"uint256","internalType":"uint256"}],"stateMutability":"view"},{"type":"function","name":"pendingRoleActions","inputs":[{"name":"","type":"bytes32","internalType":"bytes32"}],"outputs":[{"name":"role","type":"bytes32","internalType":"bytes32"},{"name":"account","type":"address","internalType":"address"},{"name":"isGrant","type":"bool","internalType":"bool"},{"name":"executableAfter","type":"uint256","internalType":"uint256"}],"stateMutability":"view"},{"type":"function","name":"proposeAdminTransfer","inputs":[{"name":"newAdmin","type":"address","internalType":"address"}],"outputs":[],"stateMutability":"nonpayable"},{"type":"function","name":"proposeGrantRole","inputs":[{"name":"role","type":"bytes32","internalType":"bytes32"},{"name":"account","type":"address","internalType":"address"}],"outputs":[],"stateMutability":"nonpayable"},{"type":"function","name":"proposeRevokeRole","inputs":[{"name":"role","type":"bytes32","internalType":"bytes32"},{"name":"account","type":"address","internalType":"address"}],"outputs":[],"stateMutability":"nonpayable"},{"type":"function","name":"renounceRole","inputs":[{"name":"role","type":"bytes32","internalType":"bytes32"},{"name":"account","type":"address","internalType":"address"}],"outputs":[],"stateMutability":"nonpayable"},{"type":"function","name":"revokeRole","inputs":[{"name":"role","type":"bytes32","internalType":"bytes32"},{"name":"account","type":"address","internalType":"address"}],"outputs":[],"stateMutability":"nonpayable"},{"type":"function","name":"supportsInterface","inputs":[{"name":"interfaceId","type":"bytes4","internalType":"bytes4"}],"outputs":[{"name":"","type":"bool","internalType":"bool"}],"stateMutability":"view"},{"type":"function","name":"unpause","inputs":[],"outputs":[],"stateMutability":"nonpayable"},{"type":"event","name":"AdminTransferAccepted","inputs":[{"name":"oldAdmin","type":"address","indexed":true,"internalType":"address"},{"name":"newAdmin","type":"address","indexed":true,"internalType":"address"}],"anonymous":false},{"type":"event","name":"AdminTransferProposed","inputs":[{"name":"currentAdmin","type":"address","indexed":true,"internalType":"address"},{"name":"newAdmin","type":"address","indexed":true,"internalType":"address"}],"anonymous":false},{"type":"event","name":"Paused","inputs":[{"name":"account","type":"address","indexed":false,"internalType":"address"}],"anonymous":false},{"type":"event","name":"RoleAdminChanged","inputs":[{"name":"role","type":"bytes32","indexed":true,"internalType":"bytes32"},{"name":"previousAdminRole","type":"bytes32","indexed":true,"internalType":"bytes32"},{"name":"newAdminRole","type":"bytes32","indexed":true,"internalType":"bytes32"}],"anonymous":false},{"type":"event","name":"RoleChangeCancelled","inputs":[{"name":"actionId","type":"bytes32","indexed":true,"internalType":"bytes32"}],"anonymous":false},{"type":"event","name":"RoleChangeExecuted","inputs":[{"name":"actionId","type":"bytes32","indexed":true,"internalType":"bytes32"},{"name":"role","type":"bytes32","indexed":true,"internalType":"bytes32"},{"name":"account","type":"address","indexed":true,"internalType":"address"},{"name":"isGrant","type":"bool","indexed":false,"internalType":"bool"}],"anonymous":false},{"type":"event","name":"RoleChangeProposed","inputs":[{"name":"actionId","type":"bytes32","indexed":true,"internalType":"bytes32"},{"name":"role","type":"bytes32","indexed":true,"internalType":"bytes32"},{"name":"account","type":"address","indexed":true,"internalType":"address"},{"name":"isGrant","type":"bool","indexed":false,"internalType":"bool"},{"name":"executableAfter","type":"uint256","indexed":false,"internalType":"uint256"}],"anonymous":false},{"type":"event","name":"RoleGranted","inputs":[{"name":"role","type":"bytes32","indexed":true,"internalType":"bytes32"},{"name":"account","type":"address","indexed":true,"internalType":"address"},{"name":"sender","type":"address","indexed":true,"internalType":"address"}],"anonymous":false},{"type":"event","name":"RoleRevoked","inputs":[{"name":"role","type":"bytes32","indexed":true,"internalType":"bytes32"},{"name":"account","type":"address","indexed":true,"internalType":"address"},{"name":"sender","type":"address","indexed":true,"internalType":"address"}],"anonymous":false},{"type":"event","name":"Unpaused","inputs":[{"name":"account","type":"address","indexed":false,"internalType":"address"}],"anonymous":false}],"bytecode":{"object":"0x60806040523480156200001157600080fd5b5060405162002b5938038062002b59833981810160405281019062000037919062000464565b6000600160006101000a81548160ff021916908315150217905550600073ffffffffffffffffffffffffffffffffffffffff168173ffffffffffffffffffffffffffffffffffffffff1603620000c4576040517f08c379a0000000000000000000000000000000000000000000000000000000008152600401620000bb90620004f7565b60405180910390fd5b620000d96000801b826200021560201b60201c565b6200010e7f97667070c54ef182b0f5858b034beac1b6f3089aa2d3188bb1e8929f4fa9b9296000801b6200030660201b60201c565b620001437f7edcee67725a77bfa311b39349d7e96df9b23fbdbdcb328dfc17d77926920c136000801b6200030660201b60201c565b620001787f56623da34b1ec5cb86498f15a28504a6323a0eedfb150423fe6f418d952826ee6000801b6200030660201b60201c565b620001aa7f97667070c54ef182b0f5858b034beac1b6f3089aa2d3188bb1e8929f4fa9b929826200021560201b60201c565b620001dc7f7edcee67725a77bfa311b39349d7e96df9b23fbdbdcb328dfc17d77926920c13826200021560201b60201c565b6200020e7f56623da34b1ec5cb86498f15a28504a6323a0eedfb150423fe6f418d952826ee826200021560201b60201c565b5062000519565b6200022782826200036960201b60201c565b6200030257600160008084815260200190815260200160002060000160008373ffffffffffffffffffffffffffffffffffffffff1673ffffffffffffffffffffffffffffffffffffffff16815260200190815260200160002060006101000a81548160ff021916908315150217905550620002a7620003d360201b60201c565b73ffffffffffffffffffffffffffffffffffffffff168173ffffffffffffffffffffffffffffffffffffffff16837f2f8788117e7eff1d82e926ec794901d17c78024a50270940304540a733656f0d60405160405180910390a45b5050565b60006200031983620003db60201b60201c565b905081600080858152602001908152602001600020600101819055508181847fbd79b86ffe0ab8e8776151514217cd7cacd52c909f66475c3af44e129f0b00ff60405160405180910390a4505050565b600080600084815260200190815260200160002060000160008373ffffffffffffffffffffffffffffffffffffffff1673ffffffffffffffffffffffffffffffffffffffff16815260200190815260200160002060009054906101000a900460ff16905092915050565b600033905090565b6000806000838152602001908152602001600020600101549050919050565b600080fd5b600073ffffffffffffffffffffffffffffffffffffffff82169050919050565b60006200042c82620003ff565b9050919050565b6200043e816200041f565b81146200044a57600080fd5b50565b6000815190506200045e8162000433565b92915050565b6000602082840312156200047d576200047c620003fa565b5b60006200048d848285016200044d565b91505092915050565b600082825260208201905092915050565b7f496e76616c69642061646d696e20616464726573730000000000000000000000600082015250565b6000620004df60158362000496565b9150620004ec82620004a7565b602082019050919050565b600060208201905081810360008301526200051281620004d0565b9050919050565b61263080620005296000396000f3fe608060405234801561001057600080fd5b50600436106101425760003560e01c80637e8aa69d116100b8578063aceb443a1161007c578063aceb443a14610315578063c9adb9dd14610348578063d03f078b1461037a578063d547741f14610398578063f5551608146103b4578063f5b541a6146103d057610142565b80637e8aa69d146102835780638456cb591461029f57806391d14854146102a95780639e341119146102d9578063a217fddf146102f757610142565b8063248a9ca31161010a578063248a9ca3146101d75780632f2ff15d146102075780633394ad0c1461022357806336568abe1461023f5780633f4ba83a1461025b5780635c975abb1461026557610142565b806301ffc9a714610147578063169070eb1461017757806317aee51f146101955780631a1aa5761461019f5780631a25bdb7146101bb575b600080fd5b610161600480360381019061015c9190611b1a565b6103ee565b60405161016e9190611b62565b60405180910390f35b61017f610468565b60405161018c9190611b96565b60405180910390f35b61019d61046f565b005b6101b960048036038101906101b49190611be7565b610768565b005b6101d560048036038101906101d09190611be7565b610860565b005b6101f160048036038101906101ec9190611be7565b610a98565b6040516101fe9190611c23565b60405180910390f35b610221600480360381019061021c9190611c9c565b610ab7565b005b61023d60048036038101906102389190611c9c565b610b04565b005b61025960048036038101906102549190611c9c565b610d58565b005b610263610d93565b005b61026d610dab565b60405161027a9190611b62565b60405180910390f35b61029d60048036038101906102989190611cdc565b610dc2565b005b6102a7610fd3565b005b6102c360048036038101906102be9190611c9c565b610feb565b6040516102d09190611b62565b60405180910390f35b6102e1611055565b6040516102ee9190611c23565b60405180910390f35b6102ff611079565b60405161030c9190611c23565b60405180910390f35b61032f600480360381019061032a9190611be7565b611080565b60405161033f9493929190611d18565b60405180910390f35b610362600480360381019061035d9190611cdc565b6110dd565b60405161037193929190611d5d565b60405180910390f35b610382611147565b60405161038f9190611c23565b60405180910390f35b6103b260048036038101906103ad9190611c9c565b61116b565b005b6103ce60048036038101906103c99190611c9c565b6111b8565b005b6103d861140c565b6040516103e59190611c23565b60405180910390f35b60007f7965db0b000000000000000000000000000000000000000000000000000000007bffffffffffffffffffffffffffffffffffffffffffffffffffffffff1916827bffffffffffffffffffffffffffffffffffffffffffffffffffffffff19161480610461575061046082611430565b5b9050919050565b6201518081565b6000600360003373ffffffffffffffffffffffffffffffffffffffff1673ffffffffffffffffffffffffffffffffffffffff1681526020019081526020016000206040518060600160405290816000820160009054906101000a900473ffffffffffffffffffffffffffffffffffffffff1673ffffffffffffffffffffffffffffffffffffffff1673ffffffffffffffffffffffffffffffffffffffff1681526020016001820160009054906101000a900473ffffffffffffffffffffffffffffffffffffffff1673ffffffffffffffffffffffffffffffffffffffff1673ffffffffffffffffffffffffffffffffffffffff16815260200160028201548152505090506105846000801b8260200151610feb565b6105c3576040517f08c379a00000000000000000000000000000000000000000000000000000000081526004016105ba90611e17565b60405180910390fd5b600081604001510361060a576040517f08c379a000000000000000000000000000000000000000000000000000000000815260040161060190611e83565b60405180910390fd5b8060400151421015610651576040517f08c379a000000000000000000000000000000000000000000000000000000000815260040161064890611eef565b60405180910390fd5b61065e6000801b3361149a565b61066f6000801b826020015161157a565b3373ffffffffffffffffffffffffffffffffffffffff16816020015173ffffffffffffffffffffffffffffffffffffffff167f0a5e51d1a708a68919d9ab9afd976c6e463eddc9bc7ee4fdbb05bf9946e85a3360405160405180910390a3600360003373ffffffffffffffffffffffffffffffffffffffff1673ffffffffffffffffffffffffffffffffffffffff168152602001908152602001600020600080820160006101000a81549073ffffffffffffffffffffffffffffffffffffffff02191690556001820160006101000a81549073ffffffffffffffffffffffffffffffffffffffff02191690556002820160009055505050565b6000801b6107758161165b565b60006002600084815260200190815260200160002060020154036107ce576040517f08c379a00000000000000000000000000000000000000000000000000000000081526004016107c590611f5b565b60405180910390fd5b600260008381526020019081526020016000206000808201600090556001820160006101000a81549073ffffffffffffffffffffffffffffffffffffffff02191690556001820160146101000a81549060ff021916905560028201600090555050817fe4cdca00bec9f670c2ffa60b42d3f2acff8fdc77ee9b27324a667fc414be3dae60405160405180910390a25050565b6000801b61086d8161165b565b600060026000848152602001908152602001600020604051806080016040529081600082015481526020016001820160009054906101000a900473ffffffffffffffffffffffffffffffffffffffff1673ffffffffffffffffffffffffffffffffffffffff1673ffffffffffffffffffffffffffffffffffffffff1681526020016001820160149054906101000a900460ff161515151581526020016002820154815250509050600081606001510361095b576040517f08c379a000000000000000000000000000000000000000000000000000000000815260040161095290611f5b565b60405180910390fd5b80606001514210156109a2576040517f08c379a000000000000000000000000000000000000000000000000000000000815260040161099990611eef565b60405180910390fd5b8060400151156109c3576109be8160000151826020015161149a565b6109d6565b6109d58160000151826020015161157a565b5b806020015173ffffffffffffffffffffffffffffffffffffffff168160000151847f0e8153c2aad90517ea80bbbd8341175c66dac085d255102dab57da1c02b013918460400151604051610a2a9190611b62565b60405180910390a4600260008481526020019081526020016000206000808201600090556001820160006101000a81549073ffffffffffffffffffffffffffffffffffffffff02191690556001820160146101000a81549060ff021916905560028201600090555050505050565b6000806000838152602001908152602001600020600101549050919050565b610ac082610a98565b610ac98161165b565b6040517f08c379a0000000000000000000000000000000000000000000000000000000008152600401610afb90611fc7565b60405180910390fd5b610b0d82610a98565b610b168161165b565b610b1e61166f565b600073ffffffffffffffffffffffffffffffffffffffff168273ffffffffffffffffffffffffffffffffffffffff1603610b8d576040517f08c379a0000000000000000000000000000000000000000000000000000000008152600401610b8490612033565b60405180910390fd5b60008383600042604051602001610ba79493929190611d18565b6040516020818303038152906040528051906020012090506000600260008381526020019081526020016000206002015414610c18576040517f08c379a0000000000000000000000000000000000000000000000000000000008152600401610c0f9061209f565b60405180910390fd5b60405180608001604052808581526020018473ffffffffffffffffffffffffffffffffffffffff1681526020016000151581526020016201518042610c5d91906120ee565b815250600260008381526020019081526020016000206000820151816000015560208201518160010160006101000a81548173ffffffffffffffffffffffffffffffffffffffff021916908373ffffffffffffffffffffffffffffffffffffffff16021790555060408201518160010160146101000a81548160ff021916908315150217905550606082015181600201559050508273ffffffffffffffffffffffffffffffffffffffff1684827fe5371144d8c14f43969f62d63625e0a983c8265a0e163444fada66633a64c95b60006201518042610d3c91906120ee565b604051610d4a929190612122565b60405180910390a450505050565b6040517f08c379a0000000000000000000000000000000000000000000000000000000008152600401610d8a90612197565b60405180910390fd5b6000801b610da08161165b565b610da86116b9565b50565b6000600160009054906101000a900460ff16905090565b6000801b610dcf8161165b565b610dd761166f565b600073ffffffffffffffffffffffffffffffffffffffff168273ffffffffffffffffffffffffffffffffffffffff1603610e46576040517f08c379a0000000000000000000000000000000000000000000000000000000008152600401610e3d90612203565b60405180910390fd5b60405180606001604052808373ffffffffffffffffffffffffffffffffffffffff1681526020013373ffffffffffffffffffffffffffffffffffffffff1681526020016201518042610e9891906120ee565b815250600360008473ffffffffffffffffffffffffffffffffffffffff1673ffffffffffffffffffffffffffffffffffffffff16815260200190815260200160002060008201518160000160006101000a81548173ffffffffffffffffffffffffffffffffffffffff021916908373ffffffffffffffffffffffffffffffffffffffff16021790555060208201518160010160006101000a81548173ffffffffffffffffffffffffffffffffffffffff021916908373ffffffffffffffffffffffffffffffffffffffff160217905550604082015181600201559050508173ffffffffffffffffffffffffffffffffffffffff163373ffffffffffffffffffffffffffffffffffffffff167fc02afc35b5d9b88807390ad5b17e685602c17339aa880db1dfe4e15cb3e2e3a160405160405180910390a35050565b6000801b610fe08161165b565b610fe861171c565b50565b600080600084815260200190815260200160002060000160008373ffffffffffffffffffffffffffffffffffffffff1673ffffffffffffffffffffffffffffffffffffffff16815260200190815260200160002060009054906101000a900460ff16905092915050565b7f7edcee67725a77bfa311b39349d7e96df9b23fbdbdcb328dfc17d77926920c1381565b6000801b81565b60026020528060005260406000206000915090508060000154908060010160009054906101000a900473ffffffffffffffffffffffffffffffffffffffff16908060010160149054906101000a900460ff16908060020154905084565b60036020528060005260406000206000915090508060000160009054906101000a900473ffffffffffffffffffffffffffffffffffffffff16908060010160009054906101000a900473ffffffffffffffffffffffffffffffffffffffff16908060020154905083565b7f56623da34b1ec5cb86498f15a28504a6323a0eedfb150423fe6f418d952826ee81565b61117482610a98565b61117d8161165b565b6040517f08c379a00000000000000000000000000000000000000000000000000000000081526004016111af90612197565b60405180910390fd5b6111c182610a98565b6111ca8161165b565b6111d261166f565b600073ffffffffffffffffffffffffffffffffffffffff168273ffffffffffffffffffffffffffffffffffffffff1603611241576040517f08c379a000000000000000000000000000000000000000000000000000000000815260040161123890612033565b60405180910390fd5b6000838360014260405160200161125b9493929190611d18565b60405160208183030381529060405280519060200120905060006002600083815260200190815260200160002060020154146112cc576040517f08c379a00000000000000000000000000000000000000000000000000000000081526004016112c39061209f565b60405180910390fd5b60405180608001604052808581526020018473ffffffffffffffffffffffffffffffffffffffff168152602001600115158152602001620151804261131191906120ee565b815250600260008381526020019081526020016000206000820151816000015560208201518160010160006101000a81548173ffffffffffffffffffffffffffffffffffffffff021916908373ffffffffffffffffffffffffffffffffffffffff16021790555060408201518160010160146101000a81548160ff021916908315150217905550606082015181600201559050508273ffffffffffffffffffffffffffffffffffffffff1684827fe5371144d8c14f43969f62d63625e0a983c8265a0e163444fada66633a64c95b600162015180426113f091906120ee565b6040516113fe929190612122565b60405180910390a450505050565b7f97667070c54ef182b0f5858b034beac1b6f3089aa2d3188bb1e8929f4fa9b92981565b60007f01ffc9a7000000000000000000000000000000000000000000000000000000007bffffffffffffffffffffffffffffffffffffffffffffffffffffffff1916827bffffffffffffffffffffffffffffffffffffffffffffffffffffffff1916149050919050565b6114a48282610feb565b61157657600160008084815260200190815260200160002060000160008373ffffffffffffffffffffffffffffffffffffffff1673ffffffffffffffffffffffffffffffffffffffff16815260200190815260200160002060006101000a81548160ff02191690831515021790555061151b61177e565b73ffffffffffffffffffffffffffffffffffffffff168173ffffffffffffffffffffffffffffffffffffffff16837f2f8788117e7eff1d82e926ec794901d17c78024a50270940304540a733656f0d60405160405180910390a45b5050565b6115848282610feb565b1561165757600080600084815260200190815260200160002060000160008373ffffffffffffffffffffffffffffffffffffffff1673ffffffffffffffffffffffffffffffffffffffff16815260200190815260200160002060006101000a81548160ff0219169083151502179055506115fc61177e565b73ffffffffffffffffffffffffffffffffffffffff168173ffffffffffffffffffffffffffffffffffffffff16837ff6391f5c32d9c69d2a47ea670b442974b53935d1edc7fd64eb21e047a839171b60405160405180910390a45b5050565b61166c8161166761177e565b611786565b50565b611677610dab565b156116b7576040517f08c379a00000000000000000000000000000000000000000000000000000000081526004016116ae9061226f565b60405180910390fd5b565b6116c161180b565b6000600160006101000a81548160ff0219169083151502179055507f5db9ee0a495bf2e6ff9c91a7834c1ba4fdd244a5e8aa4e537bd38aeae4b073aa61170561177e565b604051611712919061228f565b60405180910390a1565b61172461166f565b60018060006101000a81548160ff0219169083151502179055507f62e78cea01bee320cd4e420270b5ea74000d11b0c9f74754ebdbfc544b05a25861176761177e565b604051611774919061228f565b60405180910390a1565b600033905090565b6117908282610feb565b6118075761179d81611854565b6117ab8360001c6020611881565b6040516020016117bc9291906123b3565b6040516020818303038152906040526040517f08c379a00000000000000000000000000000000000000000000000000000000081526004016117fe9190612437565b60405180910390fd5b5050565b611813610dab565b611852576040517f08c379a0000000000000000000000000000000000000000000000000000000008152600401611849906124a5565b60405180910390fd5b565b606061187a8273ffffffffffffffffffffffffffffffffffffffff16601460ff16611881565b9050919050565b60606000600283600261189491906124c5565b61189e91906120ee565b67ffffffffffffffff8111156118b7576118b6612507565b5b6040519080825280601f01601f1916602001820160405280156118e95781602001600182028036833780820191505090505b5090507f30000000000000000000000000000000000000000000000000000000000000008160008151811061192157611920612536565b5b60200101907effffffffffffffffffffffffffffffffffffffffffffffffffffffffffffff1916908160001a9053507f78000000000000000000000000000000000000000000000000000000000000008160018151811061198557611984612536565b5b60200101907effffffffffffffffffffffffffffffffffffffffffffffffffffffffffffff1916908160001a905350600060018460026119c591906124c5565b6119cf91906120ee565b90505b6001811115611a6f577f3031323334353637383961626364656600000000000000000000000000000000600f861660108110611a1157611a10612536565b5b1a60f81b828281518110611a2857611a27612536565b5b60200101907effffffffffffffffffffffffffffffffffffffffffffffffffffffffffffff1916908160001a905350600485901c945080611a6890612565565b90506119d2565b5060008414611ab3576040517f08c379a0000000000000000000000000000000000000000000000000000000008152600401611aaa906125da565b60405180910390fd5b8091505092915050565b600080fd5b60007fffffffff0000000000000000000000000000000000000000000000000000000082169050919050565b611af781611ac2565b8114611b0257600080fd5b50565b600081359050611b1481611aee565b92915050565b600060208284031215611b3057611b2f611abd565b5b6000611b3e84828501611b05565b91505092915050565b60008115159050919050565b611b5c81611b47565b82525050565b6000602082019050611b776000830184611b53565b92915050565b6000819050919050565b611b9081611b7d565b82525050565b6000602082019050611bab6000830184611b87565b92915050565b6000819050919050565b611bc481611bb1565b8114611bcf57600080fd5b50565b600081359050611be181611bbb565b92915050565b600060208284031215611bfd57611bfc611abd565b5b6000611c0b84828501611bd2565b91505092915050565b611c1d81611bb1565b82525050565b6000602082019050611c386000830184611c14565b92915050565b600073ffffffffffffffffffffffffffffffffffffffff82169050919050565b6000611c6982611c3e565b9050919050565b611c7981611c5e565b8114611c8457600080fd5b50565b600081359050611c9681611c70565b92915050565b60008060408385031215611cb357611cb2611abd565b5b6000611cc185828601611bd2565b9250506020611cd285828601611c87565b9150509250929050565b600060208284031215611cf257611cf1611abd565b5b6000611d0084828501611c87565b91505092915050565b611d1281611c5e565b82525050565b6000608082019050611d2d6000830187611c14565b611d3a6020830186611d09565b611d476040830185611b53565b611d546060830184611b87565b95945050505050565b6000606082019050611d726000830186611d09565b611d7f6020830185611d09565b611d8c6040830184611b87565b949350505050565b600082825260208201905092915050565b7f4f6c642061646d696e206c61636b732044454641554c545f41444d494e5f524f60008201527f4c45000000000000000000000000000000000000000000000000000000000000602082015250565b6000611e01602283611d94565b9150611e0c82611da5565b604082019050919050565b60006020820190508181036000830152611e3081611df4565b9050919050565b7f4e6f207472616e736665722070726f706f736564000000000000000000000000600082015250565b6000611e6d601483611d94565b9150611e7882611e37565b602082019050919050565b60006020820190508181036000830152611e9c81611e60565b9050919050565b7f54696d656c6f636b206e6f742065787069726564000000000000000000000000600082015250565b6000611ed9601483611d94565b9150611ee482611ea3565b602082019050919050565b60006020820190508181036000830152611f0881611ecc565b9050919050565b7f416374696f6e206e6f742070726f706f73656400000000000000000000000000600082015250565b6000611f45601383611d94565b9150611f5082611f0f565b602082019050919050565b60006020820190508181036000830152611f7481611f38565b9050919050565b7f5573652070726f706f73654772616e74526f6c6520696e737465616400000000600082015250565b6000611fb1601c83611d94565b9150611fbc82611f7b565b602082019050919050565b60006020820190508181036000830152611fe081611fa4565b9050919050565b7f496e76616c6964206163636f756e740000000000000000000000000000000000600082015250565b600061201d600f83611d94565b915061202882611fe7565b602082019050919050565b6000602082019050818103600083015261204c81612010565b9050919050565b7f416374696f6e20616c72656164792070726f706f736564000000000000000000600082015250565b6000612089601783611d94565b915061209482612053565b602082019050919050565b600060208201905081810360008301526120b88161207c565b9050919050565b7f4e487b7100000000000000000000000000000000000000000000000000000000600052601160045260246000fd5b60006120f982611b7d565b915061210483611b7d565b925082820190508082111561211c5761211b6120bf565b5b92915050565b60006040820190506121376000830185611b53565b6121446020830184611b87565b9392505050565b7f5573652070726f706f73655265766f6b65526f6c6520696e7374656164000000600082015250565b6000612181601d83611d94565b915061218c8261214b565b602082019050919050565b600060208201905081810360008301526121b081612174565b9050919050565b7f496e76616c69642061646d696e20616464726573730000000000000000000000600082015250565b60006121ed601583611d94565b91506121f8826121b7565b602082019050919050565b6000602082019050818103600083015261221c816121e0565b9050919050565b7f5061757361626c653a2070617573656400000000000000000000000000000000600082015250565b6000612259601083611d94565b915061226482612223565b602082019050919050565b600060208201905081810360008301526122888161224c565b9050919050565b60006020820190506122a46000830184611d09565b92915050565b600081905092915050565b7f416363657373436f6e74726f6c3a206163636f756e7420000000000000000000600082015250565b60006122eb6017836122aa565b91506122f6826122b5565b601782019050919050565b600081519050919050565b60005b8381101561232a57808201518184015260208101905061230f565b60008484015250505050565b600061234182612301565b61234b81856122aa565b935061235b81856020860161230c565b80840191505092915050565b7f206973206d697373696e6720726f6c6520000000000000000000000000000000600082015250565b600061239d6011836122aa565b91506123a882612367565b601182019050919050565b60006123be826122de565b91506123ca8285612336565b91506123d582612390565b91506123e18284612336565b91508190509392505050565b6000601f19601f8301169050919050565b600061240982612301565b6124138185611d94565b935061242381856020860161230c565b61242c816123ed565b840191505092915050565b6000602082019050818103600083015261245181846123fe565b905092915050565b7f5061757361626c653a206e6f7420706175736564000000000000000000000000600082015250565b600061248f601483611d94565b915061249a82612459565b602082019050919050565b600060208201905081810360008301526124be81612482565b9050919050565b60006124d082611b7d565b91506124db83611b7d565b92508282026124e981611b7d565b91508282048414831517612500576124ff6120bf565b5b5092915050565b7f4e487b7100000000000000000000000000000000000000000000000000000000600052604160045260246000fd5b7f4e487b7100000000000000000000000000000000000000000000000000000000600052603260045260246000fd5b600061257082611b7d565b915060008203612583576125826120bf565b5b600182039050919050565b7f537472696e67733a20686578206c656e67746820696e73756666696369656e74600082015250565b60006125c4602083611d94565b91506125cf8261258e565b602082019050919050565b600060208201905081810360008301526125f3816125b7565b905091905056fea2646970667358221220d91961816dc80281f9ab9b5bf1fa0b8d89b285815adfdc190a0a375ed85ee6f364736f6c63430008130033","linkReferences":{}},"methodIdentifiers":{"DEFAULT_ADMIN_ROLE()":"a217fddf","MIN_TIMELOCK_DELAY()":"169070eb","OPERATOR_ROLE()":"f5b541a6","ROUTER_ADMIN_ROLE()":"d03f078b","VAULT_ADMIN_ROLE()":"9e341119","acceptAdminTransfer()":"17aee51f","cancelRoleAction(bytes32)":"1a1aa576","executeRoleAction(bytes32)":"1a25bdb7","getRoleAdmin(bytes32)":"248a9ca3","grantRole(bytes32,address)":"2f2ff15d","hasRole(bytes32,address)":"91d14854","pause()":"8456cb59","paused()":"5c975abb","pendingAdminTransfers(address)":"c9adb9dd","pendingRoleActions(bytes32)":"aceb443a","proposeAdminTransfer(address)":"7e8aa69d","proposeGrantRole(bytes32,address)":"f5551608","proposeRevokeRole(bytes32,address)":"3394ad0c","renounceRole(bytes32,address)":"36568abe","revokeRole(bytes32,address)":"d547741f","supportsInterface(bytes4)":"01ffc9a7","unpause()":"3f4ba83a"},"id":0}