{"abi":[{"type":"constructor","inputs":[{"name":"_multiSigAdmin","type":"address","internalType":"address"}],"stateMutability":"nonpayable"},{"type":"function","name":"DEFAULT_ADMIN_ROLE","inputs":[],"outputs":[{"name":"","type":"bytes32","internalType":"bytes32"}],"stateMutability":"view"},{"type":"function","name":"MIN_TIMELOCK_DELAY","inputs":[],"outputs":[{"name":"","type":"uint256","internalType":"uint256"}],"stateMutability":"view"},{"type":"function","name":"OPERATOR_ROLE","inputs":[],"outputs":[{"name":"","type":"bytes32","internalType":"bytes32"}],"stateMutability":"view"},{"type":"function","name":"ROUTER_ADMIN_ROLE","inputs":[],"outputs":[{"name":"","type":"bytes32","internalType":"bytes32"}],"stateMutability":"view"},{"type":"function","name":"VAULT_ADMIN_ROLE","inputs":[],"outputs":[{"name":"","type":"bytes32","internalType":"bytes32"}],"stateMutability":"view"},{"type":"function","name":"acceptAdminTransfer","inputs":[],"outputs":[],"stateMutability":"nonpayable"},{"type":"function","name":"cancelRoleAction","inputs":[{"name":"actionId","type":"bytes32","internalType":"bytes32"}],"outputs":[],"stateMutability":"nonpayable"},{"type":"function","name":"executeRoleAction","inputs":[{"name":"actionId","type":"bytes32","internalType":"bytes32"}],"outputs":[],"stateMutability":"nonpayable"},{"type":"function","name":"getRoleAdmin","inputs":[{"name":"role","type":"bytes32","internalType":"bytes32"}],"outputs":[{"name":"","type":"bytes32","internalType":"bytes32"}],"stateMutability":"view"},{"type":"function","name":"grantRole","inputs":[{"name":"role","type":"bytes32","internalType":"bytes32"},{"name":"account","type":"address","internalType":"address"}],"outputs":[],"stateMutability":"nonpayable"},{"type":"function","name":"hasRole","inputs":[{"name":"role","type":"bytes32","internalType":"bytes32"},{"name":"account","type":"address","internalType":"address"}],"outputs":[{"name":"","type":"bool","internalType":"bool"}],"stateMutability":"view"},{"type":"function","name":"pause","inputs":[],"outputs":[],"stateMutability":"nonpayable"},{"type":"function","name":"paused","inputs":[],"outputs":[{"name":"","type":"bool","internalType":"bool"}],"stateMutability":"view"},{"type":"function","name":"pendingAdminTransfers","inputs":[{"name":"","type":"address","internalType":"address"}],"outputs":[{"name":"newAdmin","type":"address","internalType":"address"},{"name":"oldAdmin","type":"address","internalType":"address"},{"name":"executableAfter","type":"uint256","internalType":"uint256"}],"stateMutability":"view"},{"type":"function","name":"pendingRoleActions","inputs":[{"name":"","type":"bytes32","internalType":"bytes32"}],"outputs":[{"name":"role","type":"bytes32","internalType":"bytes32"},{"name":"account","type":"address","internalType":"address"},{"name":"isGrant","type":"bool","internalType":"bool"},{"name":"executableAfter","type":"uint256","internalType":"uint256"}],"stateMutability":"view"},{"type":"function","name":"proposeAdminTransfer","inputs":[{"name":"newAdmin","type":"address","internalType":"address"}],"outputs":[],"stateMutability":"nonpayable"},{"type":"function","name":"proposeGrantRole","inputs":[{"name":"role","type":"bytes32","internalType":"bytes32"},{"name":"account","type":"address","internalType":"address"}],"outputs":[],"stateMutability":"nonpayable"},{"type":"function","name":"proposeRevokeRole","inputs":[{"name":"role","type":"bytes32","internalType":"bytes32"},{"name":"account","type":"address","internalType":"address"}],"outputs":[],"stateMutability":"nonpayable"},{"type":"function","name":"renounceRole","inputs":[{"name":"role","type":"bytes32","internalType":"bytes32"},{"name":"account","type":"address","internalType":"address"}],"outputs":[],"stateMutability":"nonpayable"},{"type":"function","name":"revokeRole","inputs":[{"name":"role","type":"bytes32","internalType":"bytes32"},{"name":"account","type":"address","internalType":"address"}],"outputs":[],"stateMutability":"nonpayable"},{"type":"function","name":"setTimelock","inputs":[{"name":"role","type":"bytes32","internalType":"bytes32"},{"name":"daysCount","type":"uint256","internalType":"uint256"}],"outputs":[],"stateMutability":"nonpayable"},{"type":"function","name":"supportsInterface","inputs":[{"name":"interfaceId","type":"bytes4","internalType":"bytes4"}],"outputs":[{"name":"","type":"bool","internalType":"bool"}],"stateMutability":"view"},{"type":"function","name":"unpause","inputs":[],"outputs":[],"stateMutability":"nonpayable"},{"type":"event","name":"AdminTransferAccepted","inputs":[{"name":"oldAdmin","type":"address","indexed":true,"internalType":"address"},{"name":"newAdmin","type":"address","indexed":true,"internalType":"address"}],"anonymous":false},{"type":"event","name":"AdminTransferProposed","inputs":[{"name":"currentAdmin","type":"address","indexed":true,"internalType":"address"},{"name":"newAdmin","type":"address","indexed":true,"internalType":"address"}],"anonymous":false},{"type":"event","name":"Paused","inputs":[{"name":"account","type":"address","indexed":false,"internalType":"address"}],"anonymous":false},{"type":"event","name":"RoleAdminChanged","inputs":[{"name":"role","type":"bytes32","indexed":true,"internalType":"bytes32"},{"name":"previousAdminRole","type":"bytes32","indexed":true,"internalType":"bytes32"},{"name":"newAdminRole","type":"bytes32","indexed":true,"internalType":"bytes32"}],"anonymous":false},{"type":"event","name":"RoleChangeCancelled","inputs":[{"name":"actionId","type":"bytes32","indexed":true,"internalType":"bytes32"}],"anonymous":false},{"type":"event","name":"RoleChangeExecuted","inputs":[{"name":"actionId","type":"bytes32","indexed":true,"internalType":"bytes32"},{"name":"role","type":"bytes32","indexed":true,"internalType":"bytes32"},{"name":"account","type":"address","indexed":true,"internalType":"address"},{"name":"isGrant","type":"bool","indexed":false,"internalType":"bool"}],"anonymous":false},{"type":"event","name":"RoleChangeProposed","inputs":[{"name":"actionId","type":"bytes32","indexed":true,"internalType":"bytes32"},{"name":"role","type":"bytes32","indexed":true,"internalType":"bytes32"},{"name":"account","type":"address","indexed":true,"internalType":"address"},{"name":"isGrant","type":"bool","indexed":false,"internalType":"bool"},{"name":"executableAfter","type":"uint256","indexed":false,"internalType":"uint256"}],"anonymous":false},{"type":"event","name":"RoleGranted","inputs":[{"name":"role","type":"bytes32","indexed":true,"internalType":"bytes32"},{"name":"account","type":"address","indexed":true,"internalType":"address"},{"name":"sender","type":"address","indexed":true,"internalType":"address"}],"anonymous":false},{"type":"event","name":"RoleRevoked","inputs":[{"name":"role","type":"bytes32","indexed":true,"internalType":"bytes32"},{"name":"account","type":"address","indexed":true,"internalType":"address"},{"name":"sender","type":"address","indexed":true,"internalType":"address"}],"anonymous":false},{"type":"event","name":"TimelockDelayChanged","inputs":[{"name":"oldDelay","type":"uint256","indexed":false,"internalType":"uint256"},{"name":"newDelay","type":"uint256","indexed":false,"internalType":"uint256"}],"anonymous":false},{"type":"event","name":"Unpaused","inputs":[{"name":"account","type":"address","indexed":false,"internalType":"address"}],"anonymous":false}],"bytecode":{"object":"0x6080604052620151806002553480156200001857600080fd5b5060405162002d3238038062002d3283398181016040528101906200003e91906200046b565b6000600160006101000a81548160ff021916908315150217905550600073ffffffffffffffffffffffffffffffffffffffff168173ffffffffffffffffffffffffffffffffffffffff1603620000cb576040517f08c379a0000000000000000000000000000000000000000000000000000000008152600401620000c290620004fe565b60405180910390fd5b620000e06000801b826200021c60201b60201c565b620001157f97667070c54ef182b0f5858b034beac1b6f3089aa2d3188bb1e8929f4fa9b9296000801b6200030d60201b60201c565b6200014a7f7edcee67725a77bfa311b39349d7e96df9b23fbdbdcb328dfc17d77926920c136000801b6200030d60201b60201c565b6200017f7f56623da34b1ec5cb86498f15a28504a6323a0eedfb150423fe6f418d952826ee6000801b6200030d60201b60201c565b620001b17f97667070c54ef182b0f5858b034beac1b6f3089aa2d3188bb1e8929f4fa9b929826200021c60201b60201c565b620001e37f7edcee67725a77bfa311b39349d7e96df9b23fbdbdcb328dfc17d77926920c13826200021c60201b60201c565b620002157f56623da34b1ec5cb86498f15a28504a6323a0eedfb150423fe6f418d952826ee826200021c60201b60201c565b5062000520565b6200022e82826200037060201b60201c565b6200030957600160008084815260200190815260200160002060000160008373ffffffffffffffffffffffffffffffffffffffff1673ffffffffffffffffffffffffffffffffffffffff16815260200190815260200160002060006101000a81548160ff021916908315150217905550620002ae620003da60201b60201c565b73ffffffffffffffffffffffffffffffffffffffff168173ffffffffffffffffffffffffffffffffffffffff16837f2f8788117e7eff1d82e926ec794901d17c78024a50270940304540a733656f0d60405160405180910390a45b5050565b60006200032083620003e260201b60201c565b905081600080858152602001908152602001600020600101819055508181847fbd79b86ffe0ab8e8776151514217cd7cacd52c909f66475c3af44e129f0b00ff60405160405180910390a4505050565b600080600084815260200190815260200160002060000160008373ffffffffffffffffffffffffffffffffffffffff1673ffffffffffffffffffffffffffffffffffffffff16815260200190815260200160002060009054906101000a900460ff16905092915050565b600033905090565b6000806000838152602001908152602001600020600101549050919050565b600080fd5b600073ffffffffffffffffffffffffffffffffffffffff82169050919050565b6000620004338262000406565b9050919050565b620004458162000426565b81146200045157600080fd5b50565b60008151905062000465816200043a565b92915050565b60006020828403121562000484576200048362000401565b5b6000620004948482850162000454565b91505092915050565b600082825260208201905092915050565b7f496e76616c69642061646d696e20616464726573730000000000000000000000600082015250565b6000620004e66015836200049d565b9150620004f382620004ae565b602082019050919050565b600060208201905081810360008301526200051981620004d7565b9050919050565b61280280620005306000396000f3fe608060405234801561001057600080fd5b506004361061014d5760003560e01c80637e8aa69d116100c3578063bc43b6b31161007c578063bc43b6b314610353578063c9adb9dd1461036f578063d03f078b146103a1578063d547741f146103bf578063f5551608146103db578063f5b541a6146103f75761014d565b80637e8aa69d1461028e5780638456cb59146102aa57806391d14854146102b45780639e341119146102e4578063a217fddf14610302578063aceb443a146103205761014d565b8063248a9ca311610115578063248a9ca3146101e25780632f2ff15d146102125780633394ad0c1461022e57806336568abe1461024a5780633f4ba83a146102665780635c975abb146102705761014d565b806301ffc9a714610152578063169070eb1461018257806317aee51f146101a05780631a1aa576146101aa5780631a25bdb7146101c6575b600080fd5b61016c60048036038101906101679190611beb565b610415565b6040516101799190611c33565b60405180910390f35b61018a61048f565b6040516101979190611c67565b60405180910390f35b6101a8610495565b005b6101c460048036038101906101bf9190611cb8565b61078e565b005b6101e060048036038101906101db9190611cb8565b610886565b005b6101fc60048036038101906101f79190611cb8565b610abe565b6040516102099190611cf4565b60405180910390f35b61022c60048036038101906102279190611d6d565b610add565b005b61024860048036038101906102439190611d6d565b610b2a565b005b610264600480360381019061025f9190611d6d565b610d7c565b005b61026e610db7565b005b610278610dcf565b6040516102859190611c33565b60405180910390f35b6102a860048036038101906102a39190611dad565b610de6565b005b6102b2610ff6565b005b6102ce60048036038101906102c99190611d6d565b61100e565b6040516102db9190611c33565b60405180910390f35b6102ec611078565b6040516102f99190611cf4565b60405180910390f35b61030a61109c565b6040516103179190611cf4565b60405180910390f35b61033a60048036038101906103359190611cb8565b6110a3565b60405161034a9493929190611de9565b60405180910390f35b61036d60048036038101906103689190611e5a565b611100565b005b61038960048036038101906103849190611dad565b6111b0565b60405161039893929190611e9a565b60405180910390f35b6103a961121a565b6040516103b69190611cf4565b60405180910390f35b6103d960048036038101906103d49190611d6d565b61123e565b005b6103f560048036038101906103f09190611d6d565b61128b565b005b6103ff6114dd565b60405161040c9190611cf4565b60405180910390f35b60007f7965db0b000000000000000000000000000000000000000000000000000000007bffffffffffffffffffffffffffffffffffffffffffffffffffffffff1916827bffffffffffffffffffffffffffffffffffffffffffffffffffffffff19161480610488575061048782611501565b5b9050919050565b60025481565b6000600460003373ffffffffffffffffffffffffffffffffffffffff1673ffffffffffffffffffffffffffffffffffffffff1681526020019081526020016000206040518060600160405290816000820160009054906101000a900473ffffffffffffffffffffffffffffffffffffffff1673ffffffffffffffffffffffffffffffffffffffff1673ffffffffffffffffffffffffffffffffffffffff1681526020016001820160009054906101000a900473ffffffffffffffffffffffffffffffffffffffff1673ffffffffffffffffffffffffffffffffffffffff1673ffffffffffffffffffffffffffffffffffffffff16815260200160028201548152505090506105aa6000801b826020015161100e565b6105e9576040517f08c379a00000000000000000000000000000000000000000000000000000000081526004016105e090611f54565b60405180910390fd5b6000816040015103610630576040517f08c379a000000000000000000000000000000000000000000000000000000000815260040161062790611fc0565b60405180910390fd5b8060400151421015610677576040517f08c379a000000000000000000000000000000000000000000000000000000000815260040161066e9061202c565b60405180910390fd5b6106846000801b3361156b565b6106956000801b826020015161164b565b3373ffffffffffffffffffffffffffffffffffffffff16816020015173ffffffffffffffffffffffffffffffffffffffff167f0a5e51d1a708a68919d9ab9afd976c6e463eddc9bc7ee4fdbb05bf9946e85a3360405160405180910390a3600460003373ffffffffffffffffffffffffffffffffffffffff1673ffffffffffffffffffffffffffffffffffffffff168152602001908152602001600020600080820160006101000a81549073ffffffffffffffffffffffffffffffffffffffff02191690556001820160006101000a81549073ffffffffffffffffffffffffffffffffffffffff02191690556002820160009055505050565b6000801b61079b8161172c565b60006003600084815260200190815260200160002060020154036107f4576040517f08c379a00000000000000000000000000000000000000000000000000000000081526004016107eb90612098565b60405180910390fd5b600360008381526020019081526020016000206000808201600090556001820160006101000a81549073ffffffffffffffffffffffffffffffffffffffff02191690556001820160146101000a81549060ff021916905560028201600090555050817fe4cdca00bec9f670c2ffa60b42d3f2acff8fdc77ee9b27324a667fc414be3dae60405160405180910390a25050565b6000801b6108938161172c565b600060036000848152602001908152602001600020604051806080016040529081600082015481526020016001820160009054906101000a900473ffffffffffffffffffffffffffffffffffffffff1673ffffffffffffffffffffffffffffffffffffffff1673ffffffffffffffffffffffffffffffffffffffff1681526020016001820160149054906101000a900460ff1615151515815260200160028201548152505090506000816060015103610981576040517f08c379a000000000000000000000000000000000000000000000000000000000815260040161097890612098565b60405180910390fd5b80606001514210156109c8576040517f08c379a00000000000000000000000000000000000000000000000000000000081526004016109bf9061202c565b60405180910390fd5b8060400151156109e9576109e48160000151826020015161156b565b6109fc565b6109fb8160000151826020015161164b565b5b806020015173ffffffffffffffffffffffffffffffffffffffff168160000151847f0e8153c2aad90517ea80bbbd8341175c66dac085d255102dab57da1c02b013918460400151604051610a509190611c33565b60405180910390a4600360008481526020019081526020016000206000808201600090556001820160006101000a81549073ffffffffffffffffffffffffffffffffffffffff02191690556001820160146101000a81549060ff021916905560028201600090555050505050565b6000806000838152602001908152602001600020600101549050919050565b610ae682610abe565b610aef8161172c565b6040517f08c379a0000000000000000000000000000000000000000000000000000000008152600401610b2190612104565b60405180910390fd5b610b3382610abe565b610b3c8161172c565b610b44611740565b600073ffffffffffffffffffffffffffffffffffffffff168273ffffffffffffffffffffffffffffffffffffffff1603610bb3576040517f08c379a0000000000000000000000000000000000000000000000000000000008152600401610baa90612170565b60405180910390fd5b60008383600042604051602001610bcd9493929190611de9565b6040516020818303038152906040528051906020012090506000600360008381526020019081526020016000206002015414610c3e576040517f08c379a0000000000000000000000000000000000000000000000000000000008152600401610c35906121dc565b60405180910390fd5b60405180608001604052808581526020018473ffffffffffffffffffffffffffffffffffffffff16815260200160001515815260200160025442610c82919061222b565b815250600360008381526020019081526020016000206000820151816000015560208201518160010160006101000a81548173ffffffffffffffffffffffffffffffffffffffff021916908373ffffffffffffffffffffffffffffffffffffffff16021790555060408201518160010160146101000a81548160ff021916908315150217905550606082015181600201559050508273ffffffffffffffffffffffffffffffffffffffff1684827fe5371144d8c14f43969f62d63625e0a983c8265a0e163444fada66633a64c95b600060025442610d60919061222b565b604051610d6e92919061225f565b60405180910390a450505050565b6040517f08c379a0000000000000000000000000000000000000000000000000000000008152600401610dae906122d4565b60405180910390fd5b6000801b610dc48161172c565b610dcc61178a565b50565b6000600160009054906101000a900460ff16905090565b6000801b610df38161172c565b610dfb611740565b600073ffffffffffffffffffffffffffffffffffffffff168273ffffffffffffffffffffffffffffffffffffffff1603610e6a576040517f08c379a0000000000000000000000000000000000000000000000000000000008152600401610e6190612340565b60405180910390fd5b60405180606001604052808373ffffffffffffffffffffffffffffffffffffffff1681526020013373ffffffffffffffffffffffffffffffffffffffff16815260200160025442610ebb919061222b565b815250600460008473ffffffffffffffffffffffffffffffffffffffff1673ffffffffffffffffffffffffffffffffffffffff16815260200190815260200160002060008201518160000160006101000a81548173ffffffffffffffffffffffffffffffffffffffff021916908373ffffffffffffffffffffffffffffffffffffffff16021790555060208201518160010160006101000a81548173ffffffffffffffffffffffffffffffffffffffff021916908373ffffffffffffffffffffffffffffffffffffffff160217905550604082015181600201559050508173ffffffffffffffffffffffffffffffffffffffff163373ffffffffffffffffffffffffffffffffffffffff167fc02afc35b5d9b88807390ad5b17e685602c17339aa880db1dfe4e15cb3e2e3a160405160405180910390a35050565b6000801b6110038161172c565b61100b6117ed565b50565b600080600084815260200190815260200160002060000160008373ffffffffffffffffffffffffffffffffffffffff1673ffffffffffffffffffffffffffffffffffffffff16815260200190815260200160002060009054906101000a900460ff16905092915050565b7f7edcee67725a77bfa311b39349d7e96df9b23fbdbdcb328dfc17d77926920c1381565b6000801b81565b60036020528060005260406000206000915090508060000154908060010160009054906101000a900473ffffffffffffffffffffffffffffffffffffffff16908060010160149054906101000a900460ff16908060020154905084565b61110982610abe565b6111128161172c565b60008211611155576040517f08c379a000000000000000000000000000000000000000000000000000000000815260040161114c906123ac565b60405180910390fd5b6000620151808361116691906123cc565b90507f3c829755bd8b21d750ac8567e59c28f7ab083ce559f92d92239882247ba60da16002548260405161119b92919061240e565b60405180910390a18060028190555050505050565b60046020528060005260406000206000915090508060000160009054906101000a900473ffffffffffffffffffffffffffffffffffffffff16908060010160009054906101000a900473ffffffffffffffffffffffffffffffffffffffff16908060020154905083565b7f56623da34b1ec5cb86498f15a28504a6323a0eedfb150423fe6f418d952826ee81565b61124782610abe565b6112508161172c565b6040517f08c379a0000000000000000000000000000000000000000000000000000000008152600401611282906122d4565b60405180910390fd5b61129482610abe565b61129d8161172c565b6112a5611740565b600073ffffffffffffffffffffffffffffffffffffffff168273ffffffffffffffffffffffffffffffffffffffff1603611314576040517f08c379a000000000000000000000000000000000000000000000000000000000815260040161130b90612170565b60405180910390fd5b6000838360014260405160200161132e9493929190611de9565b604051602081830303815290604052805190602001209050600060036000838152602001908152602001600020600201541461139f576040517f08c379a0000000000000000000000000000000000000000000000000000000008152600401611396906121dc565b60405180910390fd5b60405180608001604052808581526020018473ffffffffffffffffffffffffffffffffffffffff168152602001600115158152602001600254426113e3919061222b565b815250600360008381526020019081526020016000206000820151816000015560208201518160010160006101000a81548173ffffffffffffffffffffffffffffffffffffffff021916908373ffffffffffffffffffffffffffffffffffffffff16021790555060408201518160010160146101000a81548160ff021916908315150217905550606082015181600201559050508273ffffffffffffffffffffffffffffffffffffffff1684827fe5371144d8c14f43969f62d63625e0a983c8265a0e163444fada66633a64c95b6001600254426114c1919061222b565b6040516114cf92919061225f565b60405180910390a450505050565b7f97667070c54ef182b0f5858b034beac1b6f3089aa2d3188bb1e8929f4fa9b92981565b60007f01ffc9a7000000000000000000000000000000000000000000000000000000007bffffffffffffffffffffffffffffffffffffffffffffffffffffffff1916827bffffffffffffffffffffffffffffffffffffffffffffffffffffffff1916149050919050565b611575828261100e565b61164757600160008084815260200190815260200160002060000160008373ffffffffffffffffffffffffffffffffffffffff1673ffffffffffffffffffffffffffffffffffffffff16815260200190815260200160002060006101000a81548160ff0219169083151502179055506115ec61184f565b73ffffffffffffffffffffffffffffffffffffffff168173ffffffffffffffffffffffffffffffffffffffff16837f2f8788117e7eff1d82e926ec794901d17c78024a50270940304540a733656f0d60405160405180910390a45b5050565b611655828261100e565b1561172857600080600084815260200190815260200160002060000160008373ffffffffffffffffffffffffffffffffffffffff1673ffffffffffffffffffffffffffffffffffffffff16815260200190815260200160002060006101000a81548160ff0219169083151502179055506116cd61184f565b73ffffffffffffffffffffffffffffffffffffffff168173ffffffffffffffffffffffffffffffffffffffff16837ff6391f5c32d9c69d2a47ea670b442974b53935d1edc7fd64eb21e047a839171b60405160405180910390a45b5050565b61173d8161173861184f565b611857565b50565b611748610dcf565b15611788576040517f08c379a000000000000000000000000000000000000000000000000000000000815260040161177f90612483565b60405180910390fd5b565b6117926118dc565b6000600160006101000a81548160ff0219169083151502179055507f5db9ee0a495bf2e6ff9c91a7834c1ba4fdd244a5e8aa4e537bd38aeae4b073aa6117d661184f565b6040516117e391906124a3565b60405180910390a1565b6117f5611740565b60018060006101000a81548160ff0219169083151502179055507f62e78cea01bee320cd4e420270b5ea74000d11b0c9f74754ebdbfc544b05a25861183861184f565b60405161184591906124a3565b60405180910390a1565b600033905090565b611861828261100e565b6118d85761186e81611925565b61187c8360001c6020611952565b60405160200161188d9291906125c7565b6040516020818303038152906040526040517f08c379a00000000000000000000000000000000000000000000000000000000081526004016118cf919061264b565b60405180910390fd5b5050565b6118e4610dcf565b611923576040517f08c379a000000000000000000000000000000000000000000000000000000000815260040161191a906126b9565b60405180910390fd5b565b606061194b8273ffffffffffffffffffffffffffffffffffffffff16601460ff16611952565b9050919050565b60606000600283600261196591906123cc565b61196f919061222b565b67ffffffffffffffff811115611988576119876126d9565b5b6040519080825280601f01601f1916602001820160405280156119ba5781602001600182028036833780820191505090505b5090507f3000000000000000000000000000000000000000000000000000000000000000816000815181106119f2576119f1612708565b5b60200101907effffffffffffffffffffffffffffffffffffffffffffffffffffffffffffff1916908160001a9053507f780000000000000000000000000000000000000000000000000000000000000081600181518110611a5657611a55612708565b5b60200101907effffffffffffffffffffffffffffffffffffffffffffffffffffffffffffff1916908160001a90535060006001846002611a9691906123cc565b611aa0919061222b565b90505b6001811115611b40577f3031323334353637383961626364656600000000000000000000000000000000600f861660108110611ae257611ae1612708565b5b1a60f81b828281518110611af957611af8612708565b5b60200101907effffffffffffffffffffffffffffffffffffffffffffffffffffffffffffff1916908160001a905350600485901c945080611b3990612737565b9050611aa3565b5060008414611b84576040517f08c379a0000000000000000000000000000000000000000000000000000000008152600401611b7b906127ac565b60405180910390fd5b8091505092915050565b600080fd5b60007fffffffff0000000000000000000000000000000000000000000000000000000082169050919050565b611bc881611b93565b8114611bd357600080fd5b50565b600081359050611be581611bbf565b92915050565b600060208284031215611c0157611c00611b8e565b5b6000611c0f84828501611bd6565b91505092915050565b60008115159050919050565b611c2d81611c18565b82525050565b6000602082019050611c486000830184611c24565b92915050565b6000819050919050565b611c6181611c4e565b82525050565b6000602082019050611c7c6000830184611c58565b92915050565b6000819050919050565b611c9581611c82565b8114611ca057600080fd5b50565b600081359050611cb281611c8c565b92915050565b600060208284031215611cce57611ccd611b8e565b5b6000611cdc84828501611ca3565b91505092915050565b611cee81611c82565b82525050565b6000602082019050611d096000830184611ce5565b92915050565b600073ffffffffffffffffffffffffffffffffffffffff82169050919050565b6000611d3a82611d0f565b9050919050565b611d4a81611d2f565b8114611d5557600080fd5b50565b600081359050611d6781611d41565b92915050565b60008060408385031215611d8457611d83611b8e565b5b6000611d9285828601611ca3565b9250506020611da385828601611d58565b9150509250929050565b600060208284031215611dc357611dc2611b8e565b5b6000611dd184828501611d58565b91505092915050565b611de381611d2f565b82525050565b6000608082019050611dfe6000830187611ce5565b611e0b6020830186611dda565b611e186040830185611c24565b611e256060830184611c58565b95945050505050565b611e3781611c4e565b8114611e4257600080fd5b50565b600081359050611e5481611e2e565b92915050565b60008060408385031215611e7157611e70611b8e565b5b6000611e7f85828601611ca3565b9250506020611e9085828601611e45565b9150509250929050565b6000606082019050611eaf6000830186611dda565b611ebc6020830185611dda565b611ec96040830184611c58565b949350505050565b600082825260208201905092915050565b7f4f6c642061646d696e206c61636b732044454641554c545f41444d494e5f524f60008201527f4c45000000000000000000000000000000000000000000000000000000000000602082015250565b6000611f3e602283611ed1565b9150611f4982611ee2565b604082019050919050565b60006020820190508181036000830152611f6d81611f31565b9050919050565b7f4e6f207472616e736665722070726f706f736564000000000000000000000000600082015250565b6000611faa601483611ed1565b9150611fb582611f74565b602082019050919050565b60006020820190508181036000830152611fd981611f9d565b9050919050565b7f54696d656c6f636b206e6f742065787069726564000000000000000000000000600082015250565b6000612016601483611ed1565b915061202182611fe0565b602082019050919050565b6000602082019050818103600083015261204581612009565b9050919050565b7f416374696f6e206e6f742070726f706f73656400000000000000000000000000600082015250565b6000612082601383611ed1565b915061208d8261204c565b602082019050919050565b600060208201905081810360008301526120b181612075565b9050919050565b7f5573652070726f706f73654772616e74526f6c6520696e737465616400000000600082015250565b60006120ee601c83611ed1565b91506120f9826120b8565b602082019050919050565b6000602082019050818103600083015261211d816120e1565b9050919050565b7f496e76616c6964206163636f756e740000000000000000000000000000000000600082015250565b600061215a600f83611ed1565b915061216582612124565b602082019050919050565b600060208201905081810360008301526121898161214d565b9050919050565b7f416374696f6e20616c72656164792070726f706f736564000000000000000000600082015250565b60006121c6601783611ed1565b91506121d182612190565b602082019050919050565b600060208201905081810360008301526121f5816121b9565b9050919050565b7f4e487b7100000000000000000000000000000000000000000000000000000000600052601160045260246000fd5b600061223682611c4e565b915061224183611c4e565b9250828201905080821115612259576122586121fc565b5b92915050565b60006040820190506122746000830185611c24565b6122816020830184611c58565b9392505050565b7f5573652070726f706f73655265766f6b65526f6c6520696e7374656164000000600082015250565b60006122be601d83611ed1565b91506122c982612288565b602082019050919050565b600060208201905081810360008301526122ed816122b1565b9050919050565b7f496e76616c69642061646d696e20616464726573730000000000000000000000600082015250565b600061232a601583611ed1565b9150612335826122f4565b602082019050919050565b600060208201905081810360008301526123598161231d565b9050919050565b7f44656c6179206d757374206265206174206c6561737420312064617900000000600082015250565b6000612396601c83611ed1565b91506123a182612360565b602082019050919050565b600060208201905081810360008301526123c581612389565b9050919050565b60006123d782611c4e565b91506123e283611c4e565b92508282026123f081611c4e565b91508282048414831517612407576124066121fc565b5b5092915050565b60006040820190506124236000830185611c58565b6124306020830184611c58565b9392505050565b7f5061757361626c653a2070617573656400000000000000000000000000000000600082015250565b600061246d601083611ed1565b915061247882612437565b602082019050919050565b6000602082019050818103600083015261249c81612460565b9050919050565b60006020820190506124b86000830184611dda565b92915050565b600081905092915050565b7f416363657373436f6e74726f6c3a206163636f756e7420000000000000000000600082015250565b60006124ff6017836124be565b915061250a826124c9565b601782019050919050565b600081519050919050565b60005b8381101561253e578082015181840152602081019050612523565b60008484015250505050565b600061255582612515565b61255f81856124be565b935061256f818560208601612520565b80840191505092915050565b7f206973206d697373696e6720726f6c6520000000000000000000000000000000600082015250565b60006125b16011836124be565b91506125bc8261257b565b601182019050919050565b60006125d2826124f2565b91506125de828561254a565b91506125e9826125a4565b91506125f5828461254a565b91508190509392505050565b6000601f19601f8301169050919050565b600061261d82612515565b6126278185611ed1565b9350612637818560208601612520565b61264081612601565b840191505092915050565b600060208201905081810360008301526126658184612612565b905092915050565b7f5061757361626c653a206e6f7420706175736564000000000000000000000000600082015250565b60006126a3601483611ed1565b91506126ae8261266d565b602082019050919050565b600060208201905081810360008301526126d281612696565b9050919050565b7f4e487b7100000000000000000000000000000000000000000000000000000000600052604160045260246000fd5b7f4e487b7100000000000000000000000000000000000000000000000000000000600052603260045260246000fd5b600061274282611c4e565b915060008203612755576127546121fc565b5b600182039050919050565b7f537472696e67733a20686578206c656e67746820696e73756666696369656e74600082015250565b6000612796602083611ed1565b91506127a182612760565b602082019050919050565b600060208201905081810360008301526127c581612789565b905091905056fea2646970667358221220470d21902a2e46e672d4f76a0825627c4c6c8566ad97c5bcb398e42ca069f1c764736f6c63430008130033","linkReferences":{}},"methodIdentifiers":{"DEFAULT_ADMIN_ROLE()":"a217fddf","MIN_TIMELOCK_DELAY()":"169070eb","OPERATOR_ROLE()":"f5b541a6","ROUTER_ADMIN_ROLE()":"d03f078b","VAULT_ADMIN_ROLE()":"9e341119","acceptAdminTransfer()":"17aee51f","cancelRoleAction(bytes32)":"1a1aa576","executeRoleAction(bytes32)":"1a25bdb7","getRoleAdmin(bytes32)":"248a9ca3","grantRole(bytes32,address)":"2f2ff15d","hasRole(bytes32,address)":"91d14854","pause()":"8456cb59","paused()":"5c975abb","pendingAdminTransfers(address)":"c9adb9dd","pendingRoleActions(bytes32)":"aceb443a","proposeAdminTransfer(address)":"7e8aa69d","proposeGrantRole(bytes32,address)":"f5551608","proposeRevokeRole(bytes32,address)":"3394ad0c","renounceRole(bytes32,address)":"36568abe","revokeRole(bytes32,address)":"d547741f","setTimelock(bytes32,uint256)":"bc43b6b3","supportsInterface(bytes4)":"01ffc9a7","unpause()":"3f4ba83a"},"id":0}