{"abi":[{"type":"constructor","inputs":[],"stateMutability":"nonpayable"},{"type":"receive","stateMutability":"payable"},{"type":"function","name":"ADD_TOKEN","inputs":[],"outputs":[{"name":"","type":"bytes32","internalType":"bytes32"}],"stateMutability":"view"},{"type":"function","name":"RECOVER_FUNDS","inputs":[],"outputs":[{"name":"","type":"bytes32","internalType":"bytes32"}],"stateMutability":"view"},{"type":"function","name":"REMOVE_TOKEN","inputs":[],"outputs":[{"name":"","type":"bytes32","internalType":"bytes32"}],"stateMutability":"view"},{"type":"function","name":"SET_WALLETROUTER","inputs":[],"outputs":[{"name":"","type":"bytes32","internalType":"bytes32"}],"stateMutability":"view"},{"type":"function","name":"addSupportedToken","inputs":[{"name":"token","type":"address","internalType":"address"}],"outputs":[],"stateMutability":"nonpayable"},{"type":"function","name":"getUserDeposit","inputs":[{"name":"user","type":"address","internalType":"address"},{"name":"token","type":"address","internalType":"address"}],"outputs":[{"name":"","type":"uint256","internalType":"uint256"}],"stateMutability":"view"},{"type":"function","name":"handleDeposit","inputs":[{"name":"user","type":"address","internalType":"address"},{"name":"token","type":"address","internalType":"address"},{"name":"amount","type":"uint256","internalType":"uint256"}],"outputs":[],"stateMutability":"payable"},{"type":"function","name":"handleWithdrawal","inputs":[{"name":"recipient","type":"address","internalType":"address"},{"name":"token","type":"address","internalType":"address"},{"name":"amount","type":"uint256","internalType":"uint256"}],"outputs":[],"stateMutability":"nonpayable"},{"type":"function","name":"initialize","inputs":[{"name":"_roleManager","type":"address","internalType":"address"},{"name":"_walletRouter","type":"address","internalType":"address"},{"name":"_timelock","type":"address","internalType":"address"}],"outputs":[],"stateMutability":"nonpayable"},{"type":"function","name":"isSupportedToken","inputs":[{"name":"token","type":"address","internalType":"address"}],"outputs":[{"name":"","type":"bool","internalType":"bool"}],"stateMutability":"view"},{"type":"function","name":"pause","inputs":[],"outputs":[],"stateMutability":"nonpayable"},{"type":"function","name":"paused","inputs":[],"outputs":[{"name":"","type":"bool","internalType":"bool"}],"stateMutability":"view"},{"type":"function","name":"proposeRecoverFunds","inputs":[{"name":"token","type":"address","internalType":"address"},{"name":"recipient","type":"address","internalType":"address"},{"name":"amount","type":"uint256","internalType":"uint256"}],"outputs":[],"stateMutability":"nonpayable"},{"type":"function","name":"proposeSetWalletRouter","inputs":[{"name":"_walletRouter","type":"address","internalType":"address"}],"outputs":[],"stateMutability":"nonpayable"},{"type":"function","name":"proxiableUUID","inputs":[],"outputs":[{"name":"","type":"bytes32","internalType":"bytes32"}],"stateMutability":"view"},{"type":"function","name":"recoverFunds","inputs":[{"name":"token","type":"address","internalType":"address"},{"name":"recipient","type":"address","internalType":"address"},{"name":"amount","type":"uint256","internalType":"uint256"},{"name":"actionId","type":"bytes32","internalType":"bytes32"}],"outputs":[],"stateMutability":"nonpayable"},{"type":"function","name":"removeSupportedToken","inputs":[{"name":"token","type":"address","internalType":"address"}],"outputs":[],"stateMutability":"nonpayable"},{"type":"function","name":"roleManager","inputs":[],"outputs":[{"name":"","type":"address","internalType":"contract IRoleManager"}],"stateMutability":"view"},{"type":"function","name":"setWalletRouter","inputs":[{"name":"_walletRouter","type":"address","internalType":"address"},{"name":"actionId","type":"bytes32","internalType":"bytes32"}],"outputs":[],"stateMutability":"nonpayable"},{"type":"function","name":"supportedTokens","inputs":[{"name":"","type":"address","internalType":"address"}],"outputs":[{"name":"","type":"bool","internalType":"bool"}],"stateMutability":"view"},{"type":"function","name":"timelock","inputs":[],"outputs":[{"name":"","type":"address","internalType":"contract ITimelock"}],"stateMutability":"view"},{"type":"function","name":"totalDeposits","inputs":[{"name":"","type":"address","internalType":"address"}],"outputs":[{"name":"","type":"uint256","internalType":"uint256"}],"stateMutability":"view"},{"type":"function","name":"unpause","inputs":[],"outputs":[],"stateMutability":"nonpayable"},{"type":"function","name":"upgradeTo","inputs":[{"name":"newImplementation","type":"address","internalType":"address"}],"outputs":[],"stateMutability":"nonpayable"},{"type":"function","name":"upgradeToAndCall","inputs":[{"name":"newImplementation","type":"address","internalType":"address"},{"name":"data","type":"bytes","internalType":"bytes"}],"outputs":[],"stateMutability":"payable"},{"type":"function","name":"userDeposits","inputs":[{"name":"","type":"address","internalType":"address"},{"name":"","type":"address","internalType":"address"}],"outputs":[{"name":"","type":"uint256","internalType":"uint256"}],"stateMutability":"view"},{"type":"function","name":"version","inputs":[],"outputs":[{"name":"","type":"string","internalType":"string"}],"stateMutability":"pure"},{"type":"function","name":"walletRouter","inputs":[],"outputs":[{"name":"","type":"address","internalType":"address"}],"stateMutability":"view"},{"type":"event","name":"AdminChanged","inputs":[{"name":"previousAdmin","type":"address","indexed":false,"internalType":"address"},{"name":"newAdmin","type":"address","indexed":false,"internalType":"address"}],"anonymous":false},{"type":"event","name":"BeaconUpgraded","inputs":[{"name":"beacon","type":"address","indexed":true,"internalType":"address"}],"anonymous":false},{"type":"event","name":"DepositProcessed","inputs":[{"name":"user","type":"address","indexed":true,"internalType":"address"},{"name":"token","type":"address","indexed":true,"internalType":"address"},{"name":"amount","type":"uint256","indexed":false,"internalType":"uint256"}],"anonymous":false},{"type":"event","name":"FundsRecovered","inputs":[{"name":"token","type":"address","indexed":true,"internalType":"address"},{"name":"recipient","type":"address","indexed":true,"internalType":"address"},{"name":"amount","type":"uint256","indexed":false,"internalType":"uint256"}],"anonymous":false},{"type":"event","name":"Initialized","inputs":[{"name":"version","type":"uint8","indexed":false,"internalType":"uint8"}],"anonymous":false},{"type":"event","name":"Paused","inputs":[{"name":"account","type":"address","indexed":false,"internalType":"address"}],"anonymous":false},{"type":"event","name":"TokenSupportAdded","inputs":[{"name":"token","type":"address","indexed":true,"internalType":"address"}],"anonymous":false},{"type":"event","name":"TokenSupportRemoved","inputs":[{"name":"token","type":"address","indexed":true,"internalType":"address"}],"anonymous":false},{"type":"event","name":"Unpaused","inputs":[{"name":"account","type":"address","indexed":false,"internalType":"address"}],"anonymous":false},{"type":"event","name":"Upgraded","inputs":[{"name":"implementation","type":"address","indexed":true,"internalType":"address"}],"anonymous":false},{"type":"event","name":"UserDepositChanged","inputs":[{"name":"user","type":"address","indexed":true,"internalType":"address"},{"name":"token","type":"address","indexed":true,"internalType":"address"},{"name":"amount","type":"uint256","indexed":false,"internalType":"uint256"}],"anonymous":false},{"type":"event","name":"WalletRouterSet","inputs":[{"name":"walletRouter","type":"address","indexed":true,"internalType":"address"}],"anonymous":false},{"type":"event","name":"WithdrawalProcessed","inputs":[{"name":"recipient","type":"address","indexed":true,"internalType":"address"},{"name":"token","type":"address","indexed":true,"internalType":"address"},{"name":"amount","type":"uint256","indexed":false,"internalType":"uint256"}],"anonymous":false}],"bytecode":{"object":"0x60a06040523073ffffffffffffffffffffffffffffffffffffffff1660809073ffffffffffffffffffffffffffffffffffffffff168152503480156200004457600080fd5b50620000556200006b60201b60201c565b620000656200006b60201b60201c565b62000215565b600060019054906101000a900460ff1615620000be576040517f08c379a0000000000000000000000000000000000000000000000000000000008152600401620000b590620001b8565b60405180910390fd5b60ff801660008054906101000a900460ff1660ff16146200012f5760ff6000806101000a81548160ff021916908360ff1602179055507f7f26b83ff96e1f2b6a682f133852f6798a09c465da95921460cefb384740249860ff604051620001269190620001f8565b60405180910390a15b565b600082825260208201905092915050565b7f496e697469616c697a61626c653a20636f6e747261637420697320696e69746960008201527f616c697a696e6700000000000000000000000000000000000000000000000000602082015250565b6000620001a060278362000131565b9150620001ad8262000142565b604082019050919050565b60006020820190508181036000830152620001d38162000191565b9050919050565b600060ff82169050919050565b620001f281620001da565b82525050565b60006020820190506200020f6000830184620001e7565b92915050565b60805161545c6200024d600039600081816107820152818161081001528181610eea01528181610f780152611028015261545c6000f3fe6080604052600436106101ba5760003560e01c806376319190116100ec578063bdc631d41161008a578063d33219b411610064578063d33219b4146105c0578063e9403256146105eb578063ea84f07014610628578063f6aea45c14610653576101c1565b8063bdc631d414610550578063c0c53b8b1461056c578063c41d769c14610595576101c1565b806380e03c58116100c657806380e03c58146104bc5780638456cb59146104e5578063b3664c75146104fc578063ba313e3414610527576101c1565b8063763191901461043f57806377a9b4041461046857806380d0281614610491576101c1565b80634d9710dd1161015957806354fd4d501161013357806354fd4d50146103835780635c975abb146103ae57806368c4ac26146103d95780636d69fcaf14610416576101c1565b80634d9710dd146103115780634f1ef2861461033c57806352d1902d14610358576101c1565b80633659cfe6116101955780633659cfe61461026b5780633f4ba83a146102945780634119f9fb146102ab578063436d8039146102d4576101c1565b8062435da5146101c6578063148c658c146101f1578063240028e81461022e576101c1565b366101c157005b600080fd5b3480156101d257600080fd5b506101db61067c565b6040516101e89190613b02565b60405180910390f35b3480156101fd57600080fd5b5061021860048036038101906102139190613b6f565b6106a2565b6040516102259190613bc8565b60405180910390f35b34801561023a57600080fd5b5061025560048036038101906102509190613be3565b61072a565b6040516102629190613c2b565b60405180910390f35b34801561027757600080fd5b50610292600480360381019061028d9190613be3565b610780565b005b3480156102a057600080fd5b506102a9610908565b005b3480156102b757600080fd5b506102d260048036038101906102cd9190613ca8565b610a7f565b005b3480156102e057600080fd5b506102fb60048036038101906102f69190613b6f565b610e9e565b6040516103089190613bc8565b60405180910390f35b34801561031d57600080fd5b50610326610ec4565b6040516103339190613d1e565b60405180910390f35b61035660048036038101906103519190613e7f565b610ee8565b005b34801561036457600080fd5b5061036d611024565b60405161037a9190613d1e565b60405180910390f35b34801561038f57600080fd5b506103986110dd565b6040516103a59190613f5a565b60405180910390f35b3480156103ba57600080fd5b506103c361111a565b6040516103d09190613c2b565b60405180910390f35b3480156103e557600080fd5b5061040060048036038101906103fb9190613be3565b611131565b60405161040d9190613c2b565b60405180910390f35b34801561042257600080fd5b5061043d60048036038101906104389190613be3565b611151565b005b34801561044b57600080fd5b5061046660048036038101906104619190613be3565b611466565b005b34801561047457600080fd5b5061048f600480360381019061048a9190613be3565b6118b8565b005b34801561049d57600080fd5b506104a6611b48565b6040516104b39190613d1e565b60405180910390f35b3480156104c857600080fd5b506104e360048036038101906104de9190613f7c565b611b6c565b005b3480156104f157600080fd5b506104fa611e02565b005b34801561050857600080fd5b50610511611f79565b60405161051e9190613fde565b60405180910390f35b34801561053357600080fd5b5061054e60048036038101906105499190613f7c565b611f9f565b005b61056a60048036038101906105659190613f7c565b612158565b005b34801561057857600080fd5b50610593600480360381019061058e9190613ff9565b612437565b005b3480156105a157600080fd5b506105aa61287c565b6040516105b79190613d1e565b60405180910390f35b3480156105cc57600080fd5b506105d56128a0565b6040516105e2919061406d565b60405180910390f35b3480156105f757600080fd5b50610612600480360381019061060d9190613be3565b6128c6565b60405161061f9190613bc8565b60405180910390f35b34801561063457600080fd5b5061063d6128de565b60405161064a9190613d1e565b60405180910390f35b34801561065f57600080fd5b5061067a60048036038101906106759190614088565b612902565b005b60fb60009054906101000a900473ffffffffffffffffffffffffffffffffffffffff1681565b600061010060008473ffffffffffffffffffffffffffffffffffffffff1673ffffffffffffffffffffffffffffffffffffffff16815260200190815260200160002060008373ffffffffffffffffffffffffffffffffffffffff1673ffffffffffffffffffffffffffffffffffffffff16815260200190815260200160002054905092915050565b600060fe60008373ffffffffffffffffffffffffffffffffffffffff1673ffffffffffffffffffffffffffffffffffffffff16815260200190815260200160002060009054906101000a900460ff169050919050565b7f000000000000000000000000000000000000000000000000000000000000000073ffffffffffffffffffffffffffffffffffffffff163073ffffffffffffffffffffffffffffffffffffffff160361080e576040517f08c379a00000000000000000000000000000000000000000000000000000000081526004016108059061413a565b60405180910390fd5b7f000000000000000000000000000000000000000000000000000000000000000073ffffffffffffffffffffffffffffffffffffffff1661084d612bd8565b73ffffffffffffffffffffffffffffffffffffffff16146108a3576040517f08c379a000000000000000000000000000000000000000000000000000000000815260040161089a906141cc565b60405180910390fd5b6108ac81612c2f565b61090581600067ffffffffffffffff8111156108cb576108ca613d54565b5b6040519080825280601f01601f1916602001820160405280156108fd5781602001600182028036833780820191505090505b506000612da8565b50565b60fb60009054906101000a900473ffffffffffffffffffffffffffffffffffffffff1673ffffffffffffffffffffffffffffffffffffffff166391d1485460fb60009054906101000a900473ffffffffffffffffffffffffffffffffffffffff1673ffffffffffffffffffffffffffffffffffffffff16639e3411196040518163ffffffff1660e01b8152600401602060405180830381865afa1580156109b3573d6000803e3d6000fd5b505050506040513d601f19601f820116820180604052508101906109d79190614201565b336040518363ffffffff1660e01b81526004016109f592919061422e565b602060405180830381865afa158015610a12573d6000803e3d6000fd5b505050506040513d601f19601f82011682018060405250810190610a369190614283565b610a75576040517f08c379a0000000000000000000000000000000000000000000000000000000008152600401610a6c906142fc565b60405180910390fd5b610a7d612f16565b565b60fb60009054906101000a900473ffffffffffffffffffffffffffffffffffffffff1673ffffffffffffffffffffffffffffffffffffffff166391d1485460fb60009054906101000a900473ffffffffffffffffffffffffffffffffffffffff1673ffffffffffffffffffffffffffffffffffffffff16639e3411196040518163ffffffff1660e01b8152600401602060405180830381865afa158015610b2a573d6000803e3d6000fd5b505050506040513d601f19601f82011682018060405250810190610b4e9190614201565b336040518363ffffffff1660e01b8152600401610b6c92919061422e565b602060405180830381865afa158015610b89573d6000803e3d6000fd5b505050506040513d601f19601f82011682018060405250810190610bad9190614283565b610bec576040517f08c379a0000000000000000000000000000000000000000000000000000000008152600401610be3906142fc565b60405180910390fd5b60fc60009054906101000a900473ffffffffffffffffffffffffffffffffffffffff1673ffffffffffffffffffffffffffffffffffffffff1663ad8bd25a8286336040518463ffffffff1660e01b8152600401610c4b9392919061431c565b6020604051808303816000875af1158015610c6a573d6000803e3d6000fd5b505050506040513d601f19601f82011682018060405250810190610c8e9190614283565b610ccd576040517f08c379a0000000000000000000000000000000000000000000000000000000008152600401610cc49061439f565b60405180910390fd5b8160ff60008673ffffffffffffffffffffffffffffffffffffffff1673ffffffffffffffffffffffffffffffffffffffff168152602001908152602001600020541015610d4f576040517f08c379a0000000000000000000000000000000000000000000000000000000008152600401610d469061440b565b60405180910390fd5b8160ff60008673ffffffffffffffffffffffffffffffffffffffff1673ffffffffffffffffffffffffffffffffffffffff1681526020019081526020016000206000828254610d9e919061445a565b92505081905550600073ffffffffffffffffffffffffffffffffffffffff168473ffffffffffffffffffffffffffffffffffffffff1603610e0757610e02828473ffffffffffffffffffffffffffffffffffffffff16612f7990919063ffffffff16565b610e33565b610e3283838673ffffffffffffffffffffffffffffffffffffffff1661306d9092919063ffffffff16565b5b8273ffffffffffffffffffffffffffffffffffffffff168473ffffffffffffffffffffffffffffffffffffffff167f13e06184555481b6d2cb327155e8d2e1d0b1f0252a7fe6621e32cf998814883584604051610e909190613bc8565b60405180910390a350505050565b610100602052816000526040600020602052806000526040600020600091509150505481565b7febfe40e1a907df098b25552533043ed6632f34e704c7c0a934075ee697b8a3be81565b7f000000000000000000000000000000000000000000000000000000000000000073ffffffffffffffffffffffffffffffffffffffff163073ffffffffffffffffffffffffffffffffffffffff1603610f76576040517f08c379a0000000000000000000000000000000000000000000000000000000008152600401610f6d9061413a565b60405180910390fd5b7f000000000000000000000000000000000000000000000000000000000000000073ffffffffffffffffffffffffffffffffffffffff16610fb5612bd8565b73ffffffffffffffffffffffffffffffffffffffff161461100b576040517f08c379a0000000000000000000000000000000000000000000000000000000008152600401611002906141cc565b60405180910390fd5b61101482612c2f565b61102082826001612da8565b5050565b60007f000000000000000000000000000000000000000000000000000000000000000073ffffffffffffffffffffffffffffffffffffffff163073ffffffffffffffffffffffffffffffffffffffff16146110b4576040517f08c379a00000000000000000000000000000000000000000000000000000000081526004016110ab90614500565b60405180910390fd5b7f360894a13ba1a3210667c828492db98dca3e2076cc3735a920a3ca505d382bbc60001b905090565b60606040518060400160405280600881526020017f5661756c74207632000000000000000000000000000000000000000000000000815250905090565b600060c960009054906101000a900460ff16905090565b60fe6020528060005260406000206000915054906101000a900460ff1681565b60fb60009054906101000a900473ffffffffffffffffffffffffffffffffffffffff1673ffffffffffffffffffffffffffffffffffffffff166391d1485460fb60009054906101000a900473ffffffffffffffffffffffffffffffffffffffff1673ffffffffffffffffffffffffffffffffffffffff16639e3411196040518163ffffffff1660e01b8152600401602060405180830381865afa1580156111fc573d6000803e3d6000fd5b505050506040513d601f19601f820116820180604052508101906112209190614201565b336040518363ffffffff1660e01b815260040161123e92919061422e565b602060405180830381865afa15801561125b573d6000803e3d6000fd5b505050506040513d601f19601f8201168201806040525081019061127f9190614283565b6112be576040517f08c379a00000000000000000000000000000000000000000000000000000000081526004016112b5906142fc565b60405180910390fd5b60fe60008273ffffffffffffffffffffffffffffffffffffffff1673ffffffffffffffffffffffffffffffffffffffff16815260200190815260200160002060009054906101000a900460ff161561134b576040517f08c379a00000000000000000000000000000000000000000000000000000000081526004016113429061456c565b60405180910390fd5b600073ffffffffffffffffffffffffffffffffffffffff168173ffffffffffffffffffffffffffffffffffffffff16146113c857611388816130f3565b6113c7576040517f08c379a00000000000000000000000000000000000000000000000000000000081526004016113be906145d8565b60405180910390fd5b5b600160fe60008373ffffffffffffffffffffffffffffffffffffffff1673ffffffffffffffffffffffffffffffffffffffff16815260200190815260200160002060006101000a81548160ff0219169083151502179055508073ffffffffffffffffffffffffffffffffffffffff167f8f50fda9bf5d3b403c53b7e91646abd507f8cebf2577655d55d7de3926168b1760405160405180910390a250565b60fb60009054906101000a900473ffffffffffffffffffffffffffffffffffffffff1673ffffffffffffffffffffffffffffffffffffffff166391d1485460fb60009054906101000a900473ffffffffffffffffffffffffffffffffffffffff1673ffffffffffffffffffffffffffffffffffffffff16639e3411196040518163ffffffff1660e01b8152600401602060405180830381865afa158015611511573d6000803e3d6000fd5b505050506040513d601f19601f820116820180604052508101906115359190614201565b336040518363ffffffff1660e01b815260040161155392919061422e565b602060405180830381865afa158015611570573d6000803e3d6000fd5b505050506040513d601f19601f820116820180604052508101906115949190614283565b6115d3576040517f08c379a00000000000000000000000000000000000000000000000000000000081526004016115ca906142fc565b60405180910390fd5b60fe60008273ffffffffffffffffffffffffffffffffffffffff1673ffffffffffffffffffffffffffffffffffffffff16815260200190815260200160002060009054906101000a900460ff1661165f576040517f08c379a000000000000000000000000000000000000000000000000000000000815260040161165690614644565b60405180910390fd5b600060ff60008373ffffffffffffffffffffffffffffffffffffffff1673ffffffffffffffffffffffffffffffffffffffff16815260200190815260200160002054146116e1576040517f08c379a00000000000000000000000000000000000000000000000000000000081526004016116d8906146d6565b60405180910390fd5b600073ffffffffffffffffffffffffffffffffffffffff168173ffffffffffffffffffffffffffffffffffffffff160361175d5760004714611758576040517f08c379a000000000000000000000000000000000000000000000000000000000815260040161174f90614742565b60405180910390fd5b61181a565b60008173ffffffffffffffffffffffffffffffffffffffff166370a08231306040518263ffffffff1660e01b81526004016117989190613fde565b602060405180830381865afa1580156117b5573d6000803e3d6000fd5b505050506040513d601f19601f820116820180604052508101906117d99190614777565b14611819576040517f08c379a0000000000000000000000000000000000000000000000000000000008152600401611810906147f0565b60405180910390fd5b5b600060fe60008373ffffffffffffffffffffffffffffffffffffffff1673ffffffffffffffffffffffffffffffffffffffff16815260200190815260200160002060006101000a81548160ff0219169083151502179055508073ffffffffffffffffffffffffffffffffffffffff167f1cef54ca6e1745ad87fa3077491d9fc42257e9f1a2d7cad58a4e52bd14dfc62660405160405180910390a250565b60fb60009054906101000a900473ffffffffffffffffffffffffffffffffffffffff1673ffffffffffffffffffffffffffffffffffffffff166391d1485460fb60009054906101000a900473ffffffffffffffffffffffffffffffffffffffff1673ffffffffffffffffffffffffffffffffffffffff16639e3411196040518163ffffffff1660e01b8152600401602060405180830381865afa158015611963573d6000803e3d6000fd5b505050506040513d601f19601f820116820180604052508101906119879190614201565b336040518363ffffffff1660e01b81526004016119a592919061422e565b602060405180830381865afa1580156119c2573d6000803e3d6000fd5b505050506040513d601f19601f820116820180604052508101906119e69190614283565b611a25576040517f08c379a0000000000000000000000000000000000000000000000000000000008152600401611a1c906142fc565b60405180910390fd5b600073ffffffffffffffffffffffffffffffffffffffff168173ffffffffffffffffffffffffffffffffffffffff1603611a94576040517f08c379a0000000000000000000000000000000000000000000000000000000008152600401611a8b9061485c565b60405180910390fd5b60fc60009054906101000a900473ffffffffffffffffffffffffffffffffffffffff1673ffffffffffffffffffffffffffffffffffffffff1663433d26dd827febfe40e1a907df098b25552533043ed6632f34e704c7c0a934075ee697b8a3be336040518463ffffffff1660e01b8152600401611b139392919061487c565b600060405180830381600087803b158015611b2d57600080fd5b505af1158015611b41573d6000803e3d6000fd5b5050505050565b7f20fdf5e0231b01bbf4a13cac8ebdc15bc3cac177cb34c02a16b7fc0fea7cc6a081565b60fb60009054906101000a900473ffffffffffffffffffffffffffffffffffffffff1673ffffffffffffffffffffffffffffffffffffffff166391d1485460fb60009054906101000a900473ffffffffffffffffffffffffffffffffffffffff1673ffffffffffffffffffffffffffffffffffffffff16639e3411196040518163ffffffff1660e01b8152600401602060405180830381865afa158015611c17573d6000803e3d6000fd5b505050506040513d601f19601f82011682018060405250810190611c3b9190614201565b336040518363ffffffff1660e01b8152600401611c5992919061422e565b602060405180830381865afa158015611c76573d6000803e3d6000fd5b505050506040513d601f19601f82011682018060405250810190611c9a9190614283565b611cd9576040517f08c379a0000000000000000000000000000000000000000000000000000000008152600401611cd0906142fc565b60405180910390fd5b600073ffffffffffffffffffffffffffffffffffffffff168273ffffffffffffffffffffffffffffffffffffffff1603611d48576040517f08c379a0000000000000000000000000000000000000000000000000000000008152600401611d3f906148ff565b60405180910390fd5b60fc60009054906101000a900473ffffffffffffffffffffffffffffffffffffffff1673ffffffffffffffffffffffffffffffffffffffff166339cdeb058484847f20fdf5e0231b01bbf4a13cac8ebdc15bc3cac177cb34c02a16b7fc0fea7cc6a0336040518663ffffffff1660e01b8152600401611dcb95949392919061491f565b600060405180830381600087803b158015611de557600080fd5b505af1158015611df9573d6000803e3d6000fd5b50505050505050565b60fb60009054906101000a900473ffffffffffffffffffffffffffffffffffffffff1673ffffffffffffffffffffffffffffffffffffffff166391d1485460fb60009054906101000a900473ffffffffffffffffffffffffffffffffffffffff1673ffffffffffffffffffffffffffffffffffffffff16639e3411196040518163ffffffff1660e01b8152600401602060405180830381865afa158015611ead573d6000803e3d6000fd5b505050506040513d601f19601f82011682018060405250810190611ed19190614201565b336040518363ffffffff1660e01b8152600401611eef92919061422e565b602060405180830381865afa158015611f0c573d6000803e3d6000fd5b505050506040513d601f19601f82011682018060405250810190611f309190614283565b611f6f576040517f08c379a0000000000000000000000000000000000000000000000000000000008152600401611f66906142fc565b60405180910390fd5b611f77613106565b565b60fd60009054906101000a900473ffffffffffffffffffffffffffffffffffffffff1681565b60fd60009054906101000a900473ffffffffffffffffffffffffffffffffffffffff1673ffffffffffffffffffffffffffffffffffffffff163373ffffffffffffffffffffffffffffffffffffffff161461202f576040517f08c379a0000000000000000000000000000000000000000000000000000000008152600401612026906149be565b60405180910390fd5b8160fe60008273ffffffffffffffffffffffffffffffffffffffff1673ffffffffffffffffffffffffffffffffffffffff16815260200190815260200160002060009054906101000a900460ff166120bc576040517f08c379a00000000000000000000000000000000000000000000000000000000081526004016120b390614644565b60405180910390fd5b6120c4613169565b600073ffffffffffffffffffffffffffffffffffffffff168373ffffffffffffffffffffffffffffffffffffffff160361212657612121828573ffffffffffffffffffffffffffffffffffffffff16612f7990919063ffffffff16565b612152565b61215184838573ffffffffffffffffffffffffffffffffffffffff1661306d9092919063ffffffff16565b5b50505050565b60fd60009054906101000a900473ffffffffffffffffffffffffffffffffffffffff1673ffffffffffffffffffffffffffffffffffffffff163373ffffffffffffffffffffffffffffffffffffffff16146121e8576040517f08c379a00000000000000000000000000000000000000000000000000000000081526004016121df906149be565b60405180910390fd5b8160fe60008273ffffffffffffffffffffffffffffffffffffffff1673ffffffffffffffffffffffffffffffffffffffff16815260200190815260200160002060009054906101000a900460ff16612275576040517f08c379a000000000000000000000000000000000000000000000000000000000815260040161226c90614644565b60405180910390fd5b61227d613169565b8160ff60008573ffffffffffffffffffffffffffffffffffffffff1673ffffffffffffffffffffffffffffffffffffffff16815260200190815260200160002060008282546122cc91906149de565b925050819055508273ffffffffffffffffffffffffffffffffffffffff168473ffffffffffffffffffffffffffffffffffffffff167f2cafaae37c2ab1f0e3f264b9a50cad356ccf3bec7627998815a33e2b7e649a53846040516123309190613bc8565b60405180910390a38161010060008673ffffffffffffffffffffffffffffffffffffffff1673ffffffffffffffffffffffffffffffffffffffff16815260200190815260200160002060008573ffffffffffffffffffffffffffffffffffffffff1673ffffffffffffffffffffffffffffffffffffffff16815260200190815260200160002060008282546123c591906149de565b925050819055508273ffffffffffffffffffffffffffffffffffffffff168473ffffffffffffffffffffffffffffffffffffffff167f18ee70719b8635d3ad556c3db9086ed1a335be95996917ce3bad271a43f038e3846040516124299190613bc8565b60405180910390a350505050565b60008060019054906101000a900460ff161590508080156124685750600160008054906101000a900460ff1660ff16105b806124955750612477306131b3565b1580156124945750600160008054906101000a900460ff1660ff16145b5b6124d4576040517f08c379a00000000000000000000000000000000000000000000000000000000081526004016124cb90614a84565b60405180910390fd5b60016000806101000a81548160ff021916908360ff1602179055508015612511576001600060016101000a81548160ff0219169083151502179055505b6125196131d6565b612521613227565b612529613280565b600073ffffffffffffffffffffffffffffffffffffffff168473ffffffffffffffffffffffffffffffffffffffff1603612598576040517f08c379a000000000000000000000000000000000000000000000000000000000815260040161258f90614af0565b60405180910390fd5b600073ffffffffffffffffffffffffffffffffffffffff168373ffffffffffffffffffffffffffffffffffffffff1603612607576040517f08c379a00000000000000000000000000000000000000000000000000000000081526004016125fe9061485c565b60405180910390fd5b600073ffffffffffffffffffffffffffffffffffffffff168273ffffffffffffffffffffffffffffffffffffffff1603612676576040517f08c379a000000000000000000000000000000000000000000000000000000000815260040161266d90614b5c565b60405180910390fd5b61267f836130f3565b6126be576040517f08c379a00000000000000000000000000000000000000000000000000000000081526004016126b590614bc8565b60405180910390fd5b8360fb60006101000a81548173ffffffffffffffffffffffffffffffffffffffff021916908373ffffffffffffffffffffffffffffffffffffffff1602179055508160fc60006101000a81548173ffffffffffffffffffffffffffffffffffffffff021916908373ffffffffffffffffffffffffffffffffffffffff1602179055508260fd60006101000a81548173ffffffffffffffffffffffffffffffffffffffff021916908373ffffffffffffffffffffffffffffffffffffffff160217905550600160fe60008073ffffffffffffffffffffffffffffffffffffffff1673ffffffffffffffffffffffffffffffffffffffff16815260200190815260200160002060006101000a81548160ff021916908315150217905550600073ffffffffffffffffffffffffffffffffffffffff167f8f50fda9bf5d3b403c53b7e91646abd507f8cebf2577655d55d7de3926168b1760405160405180910390a280156128765760008060016101000a81548160ff0219169083151502179055507f7f26b83ff96e1f2b6a682f133852f6798a09c465da95921460cefb3847402498600160405161286d9190614c30565b60405180910390a15b50505050565b7f49b13fac0a8a9948bb3fc07926cff2d8a962e5ef68d7bacd7c2ae44cde35c69481565b60fc60009054906101000a900473ffffffffffffffffffffffffffffffffffffffff1681565b60ff6020528060005260406000206000915090505481565b7fb994753143c8029d9b198ba23b79e05836ed9b7e265aa18a9b67aa5353691b1981565b60fb60009054906101000a900473ffffffffffffffffffffffffffffffffffffffff1673ffffffffffffffffffffffffffffffffffffffff166391d1485460fb60009054906101000a900473ffffffffffffffffffffffffffffffffffffffff1673ffffffffffffffffffffffffffffffffffffffff16639e3411196040518163ffffffff1660e01b8152600401602060405180830381865afa1580156129ad573d6000803e3d6000fd5b505050506040513d601f19601f820116820180604052508101906129d19190614201565b336040518363ffffffff1660e01b81526004016129ef92919061422e565b602060405180830381865afa158015612a0c573d6000803e3d6000fd5b505050506040513d601f19601f82011682018060405250810190612a309190614283565b612a6f576040517f08c379a0000000000000000000000000000000000000000000000000000000008152600401612a66906142fc565b60405180910390fd5b60fc60009054906101000a900473ffffffffffffffffffffffffffffffffffffffff1673ffffffffffffffffffffffffffffffffffffffff1663642e4dfb8284336040518463ffffffff1660e01b8152600401612ace9392919061431c565b6020604051808303816000875af1158015612aed573d6000803e3d6000fd5b505050506040513d601f19601f82011682018060405250810190612b119190614283565b612b50576040517f08c379a0000000000000000000000000000000000000000000000000000000008152600401612b4790614c97565b60405180910390fd5b8160fd60006101000a81548173ffffffffffffffffffffffffffffffffffffffff021916908373ffffffffffffffffffffffffffffffffffffffff1602179055508173ffffffffffffffffffffffffffffffffffffffff167fd587147607038c178465c452edf2001d68e3091dc060f73a4e8b1a0e36682c0160405160405180910390a25050565b6000612c067f360894a13ba1a3210667c828492db98dca3e2076cc3735a920a3ca505d382bbc60001b6132d9565b60000160009054906101000a900473ffffffffffffffffffffffffffffffffffffffff16905090565b60fb60009054906101000a900473ffffffffffffffffffffffffffffffffffffffff1673ffffffffffffffffffffffffffffffffffffffff166391d1485460fb60009054906101000a900473ffffffffffffffffffffffffffffffffffffffff1673ffffffffffffffffffffffffffffffffffffffff16639e3411196040518163ffffffff1660e01b8152600401602060405180830381865afa158015612cda573d6000803e3d6000fd5b505050506040513d601f19601f82011682018060405250810190612cfe9190614201565b336040518363ffffffff1660e01b8152600401612d1c92919061422e565b602060405180830381865afa158015612d39573d6000803e3d6000fd5b505050506040513d601f19601f82011682018060405250810190612d5d9190614283565b612d9c576040517f08c379a0000000000000000000000000000000000000000000000000000000008152600401612d93906142fc565b60405180910390fd5b612da5816132e3565b50565b612dd47f4910fdfa16fed3260ed0e7147f7cc6da11a60208b5b9406d12a635614ffd914360001b61350a565b60000160009054906101000a900460ff1615612df857612df383613514565b612f11565b8273ffffffffffffffffffffffffffffffffffffffff166352d1902d6040518163ffffffff1660e01b8152600401602060405180830381865afa925050508015612e6057506040513d601f19601f82011682018060405250810190612e5d9190614201565b60015b612e9f576040517f08c379a0000000000000000000000000000000000000000000000000000000008152600401612e9690614d29565b60405180910390fd5b7f360894a13ba1a3210667c828492db98dca3e2076cc3735a920a3ca505d382bbc60001b8114612f04576040517f08c379a0000000000000000000000000000000000000000000000000000000008152600401612efb90614dbb565b60405180910390fd5b50612f108383836135cd565b5b505050565b612f1e6135f9565b600060c960006101000a81548160ff0219169083151502179055507f5db9ee0a495bf2e6ff9c91a7834c1ba4fdd244a5e8aa4e537bd38aeae4b073aa612f62613642565b604051612f6f9190613fde565b60405180910390a1565b80471015612fbc576040517f08c379a0000000000000000000000000000000000000000000000000000000008152600401612fb390614e27565b60405180910390fd5b60008273ffffffffffffffffffffffffffffffffffffffff1682604051612fe290614e78565b60006040518083038185875af1925050503d806000811461301f576040519150601f19603f3d011682016040523d82523d6000602084013e613024565b606091505b5050905080613068576040517f08c379a000000000000000000000000000000000000000000000000000000000815260040161305f90614eff565b60405180910390fd5b505050565b6130ee8363a9059cbb60e01b848460405160240161308c929190614f1f565b604051602081830303815290604052907bffffffffffffffffffffffffffffffffffffffffffffffffffffffff19166020820180517bffffffffffffffffffffffffffffffffffffffffffffffffffffffff838183161783525050505061364a565b505050565b600080823b905060008111915050919050565b61310e613169565b600160c960006101000a81548160ff0219169083151502179055507f62e78cea01bee320cd4e420270b5ea74000d11b0c9f74754ebdbfc544b05a258613152613642565b60405161315f9190613fde565b60405180910390a1565b61317161111a565b156131b1576040517f08c379a00000000000000000000000000000000000000000000000000000000081526004016131a890614f94565b60405180910390fd5b565b6000808273ffffffffffffffffffffffffffffffffffffffff163b119050919050565b600060019054906101000a900460ff16613225576040517f08c379a000000000000000000000000000000000000000000000000000000000815260040161321c90615026565b60405180910390fd5b565b600060019054906101000a900460ff16613276576040517f08c379a000000000000000000000000000000000000000000000000000000000815260040161326d90615026565b60405180910390fd5b61327e613712565b565b600060019054906101000a900460ff166132cf576040517f08c379a00000000000000000000000000000000000000000000000000000000081526004016132c690615026565b60405180910390fd5b6132d761376b565b565b6000819050919050565b60fb60009054906101000a900473ffffffffffffffffffffffffffffffffffffffff1673ffffffffffffffffffffffffffffffffffffffff166391d1485460fb60009054906101000a900473ffffffffffffffffffffffffffffffffffffffff1673ffffffffffffffffffffffffffffffffffffffff16639e3411196040518163ffffffff1660e01b8152600401602060405180830381865afa15801561338e573d6000803e3d6000fd5b505050506040513d601f19601f820116820180604052508101906133b29190614201565b336040518363ffffffff1660e01b81526004016133d092919061422e565b602060405180830381865afa1580156133ed573d6000803e3d6000fd5b505050506040513d601f19601f820116820180604052508101906134119190614283565b613450576040517f08c379a0000000000000000000000000000000000000000000000000000000008152600401613447906142fc565b60405180910390fd5b600073ffffffffffffffffffffffffffffffffffffffff168173ffffffffffffffffffffffffffffffffffffffff16036134bf576040517f08c379a00000000000000000000000000000000000000000000000000000000081526004016134b690615092565b60405180910390fd5b6134c8816130f3565b613507576040517f08c379a00000000000000000000000000000000000000000000000000000000081526004016134fe906150fe565b60405180910390fd5b50565b6000819050919050565b61351d816131b3565b61355c576040517f08c379a000000000000000000000000000000000000000000000000000000000815260040161355390615190565b60405180910390fd5b806135897f360894a13ba1a3210667c828492db98dca3e2076cc3735a920a3ca505d382bbc60001b6132d9565b60000160006101000a81548173ffffffffffffffffffffffffffffffffffffffff021916908373ffffffffffffffffffffffffffffffffffffffff16021790555050565b6135d6836137d7565b6000825111806135e35750805b156135f4576135f28383613826565b505b505050565b61360161111a565b613640576040517f08c379a0000000000000000000000000000000000000000000000000000000008152600401613637906151fc565b60405180910390fd5b565b600033905090565b60006136ac826040518060400160405280602081526020017f5361666545524332303a206c6f772d6c6576656c2063616c6c206661696c65648152508573ffffffffffffffffffffffffffffffffffffffff166138539092919063ffffffff16565b90506000815114806136ce5750808060200190518101906136cd9190614283565b5b61370d576040517f08c379a00000000000000000000000000000000000000000000000000000000081526004016137049061528e565b60405180910390fd5b505050565b600060019054906101000a900460ff16613761576040517f08c379a000000000000000000000000000000000000000000000000000000000815260040161375890615026565b60405180910390fd5b6001606581905550565b600060019054906101000a900460ff166137ba576040517f08c379a00000000000000000000000000000000000000000000000000000000081526004016137b190615026565b60405180910390fd5b600060c960006101000a81548160ff021916908315150217905550565b6137e081613514565b8073ffffffffffffffffffffffffffffffffffffffff167fbc7cd75a20ee27fd9adebab32041f755214dbc6bffa90cc0225b39da2e5c2d3b60405160405180910390a250565b606061384b83836040518060600160405280602781526020016154006027913961386b565b905092915050565b606061386284846000856138f1565b90509392505050565b60606000808573ffffffffffffffffffffffffffffffffffffffff168560405161389591906152ea565b600060405180830381855af49150503d80600081146138d0576040519150601f19603f3d011682016040523d82523d6000602084013e6138d5565b606091505b50915091506138e6868383876139be565b925050509392505050565b606082471015613936576040517f08c379a000000000000000000000000000000000000000000000000000000000815260040161392d90615373565b60405180910390fd5b6000808673ffffffffffffffffffffffffffffffffffffffff16858760405161395f91906152ea565b60006040518083038185875af1925050503d806000811461399c576040519150601f19603f3d011682016040523d82523d6000602084013e6139a1565b606091505b50915091506139b2878383876139be565b92505050949350505050565b60608315613a20576000835103613a18576139d8856131b3565b613a17576040517f08c379a0000000000000000000000000000000000000000000000000000000008152600401613a0e906153df565b60405180910390fd5b5b829050613a2b565b613a2a8383613a33565b5b949350505050565b600082511115613a465781518083602001fd5b806040517f08c379a0000000000000000000000000000000000000000000000000000000008152600401613a7a9190613f5a565b60405180910390fd5b600073ffffffffffffffffffffffffffffffffffffffff82169050919050565b6000819050919050565b6000613ac8613ac3613abe84613a83565b613aa3565b613a83565b9050919050565b6000613ada82613aad565b9050919050565b6000613aec82613acf565b9050919050565b613afc81613ae1565b82525050565b6000602082019050613b176000830184613af3565b92915050565b6000604051905090565b600080fd5b600080fd5b6000613b3c82613a83565b9050919050565b613b4c81613b31565b8114613b5757600080fd5b50565b600081359050613b6981613b43565b92915050565b60008060408385031215613b8657613b85613b27565b5b6000613b9485828601613b5a565b9250506020613ba585828601613b5a565b9150509250929050565b6000819050919050565b613bc281613baf565b82525050565b6000602082019050613bdd6000830184613bb9565b92915050565b600060208284031215613bf957613bf8613b27565b5b6000613c0784828501613b5a565b91505092915050565b60008115159050919050565b613c2581613c10565b82525050565b6000602082019050613c406000830184613c1c565b92915050565b613c4f81613baf565b8114613c5a57600080fd5b50565b600081359050613c6c81613c46565b92915050565b6000819050919050565b613c8581613c72565b8114613c9057600080fd5b50565b600081359050613ca281613c7c565b92915050565b60008060008060808587031215613cc257613cc1613b27565b5b6000613cd087828801613b5a565b9450506020613ce187828801613b5a565b9350506040613cf287828801613c5d565b9250506060613d0387828801613c93565b91505092959194509250565b613d1881613c72565b82525050565b6000602082019050613d336000830184613d0f565b92915050565b600080fd5b600080fd5b6000601f19601f8301169050919050565b7f4e487b7100000000000000000000000000000000000000000000000000000000600052604160045260246000fd5b613d8c82613d43565b810181811067ffffffffffffffff82111715613dab57613daa613d54565b5b80604052505050565b6000613dbe613b1d565b9050613dca8282613d83565b919050565b600067ffffffffffffffff821115613dea57613de9613d54565b5b613df382613d43565b9050602081019050919050565b82818337600083830152505050565b6000613e22613e1d84613dcf565b613db4565b905082815260208101848484011115613e3e57613e3d613d3e565b5b613e49848285613e00565b509392505050565b600082601f830112613e6657613e65613d39565b5b8135613e76848260208601613e0f565b91505092915050565b60008060408385031215613e9657613e95613b27565b5b6000613ea485828601613b5a565b925050602083013567ffffffffffffffff811115613ec557613ec4613b2c565b5b613ed185828601613e51565b9150509250929050565b600081519050919050565b600082825260208201905092915050565b60005b83811015613f15578082015181840152602081019050613efa565b60008484015250505050565b6000613f2c82613edb565b613f368185613ee6565b9350613f46818560208601613ef7565b613f4f81613d43565b840191505092915050565b60006020820190508181036000830152613f748184613f21565b905092915050565b600080600060608486031215613f9557613f94613b27565b5b6000613fa386828701613b5a565b9350506020613fb486828701613b5a565b9250506040613fc586828701613c5d565b9150509250925092565b613fd881613b31565b82525050565b6000602082019050613ff36000830184613fcf565b92915050565b60008060006060848603121561401257614011613b27565b5b600061402086828701613b5a565b935050602061403186828701613b5a565b925050604061404286828701613b5a565b9150509250925092565b600061405782613acf565b9050919050565b6140678161404c565b82525050565b6000602082019050614082600083018461405e565b92915050565b6000806040838503121561409f5761409e613b27565b5b60006140ad85828601613b5a565b92505060206140be85828601613c93565b9150509250929050565b7f46756e6374696f6e206d7573742062652063616c6c6564207468726f7567682060008201527f64656c656761746563616c6c0000000000000000000000000000000000000000602082015250565b6000614124602c83613ee6565b915061412f826140c8565b604082019050919050565b6000602082019050818103600083015261415381614117565b9050919050565b7f46756e6374696f6e206d7573742062652063616c6c6564207468726f7567682060008201527f6163746976652070726f78790000000000000000000000000000000000000000602082015250565b60006141b6602c83613ee6565b91506141c18261415a565b604082019050919050565b600060208201905081810360008301526141e5816141a9565b9050919050565b6000815190506141fb81613c7c565b92915050565b60006020828403121561421757614216613b27565b5b6000614225848285016141ec565b91505092915050565b60006040820190506142436000830185613d0f565b6142506020830184613fcf565b9392505050565b61426081613c10565b811461426b57600080fd5b50565b60008151905061427d81614257565b92915050565b60006020828403121561429957614298613b27565b5b60006142a78482850161426e565b91505092915050565b7f43616c6c6572206c61636b73205641554c545f41444d494e5f524f4c45000000600082015250565b60006142e6601d83613ee6565b91506142f1826142b0565b602082019050919050565b60006020820190508181036000830152614315816142d9565b9050919050565b60006060820190506143316000830186613d0f565b61433e6020830185613fcf565b61434b6040830184613fcf565b949350505050565b7f5265636f7665722066756e6473206e6f74206578656375746564000000000000600082015250565b6000614389601a83613ee6565b915061439482614353565b602082019050919050565b600060208201905081810360008301526143b88161437c565b9050919050565b7f496e73756666696369656e7420747261636b6564206465706f73697473000000600082015250565b60006143f5601d83613ee6565b9150614400826143bf565b602082019050919050565b60006020820190508181036000830152614424816143e8565b9050919050565b7f4e487b7100000000000000000000000000000000000000000000000000000000600052601160045260246000fd5b600061446582613baf565b915061447083613baf565b92508282039050818111156144885761448761442b565b5b92915050565b7f555550535570677261646561626c653a206d757374206e6f742062652063616c60008201527f6c6564207468726f7567682064656c656761746563616c6c0000000000000000602082015250565b60006144ea603883613ee6565b91506144f58261448e565b604082019050919050565b60006020820190508181036000830152614519816144dd565b9050919050565b7f546f6b656e20616c726561647920737570706f72746564000000000000000000600082015250565b6000614556601783613ee6565b915061456182614520565b602082019050919050565b6000602082019050818103600083015261458581614549565b9050919050565b7f546f6b656e206973206e6f74206120636f6e7472616374000000000000000000600082015250565b60006145c2601783613ee6565b91506145cd8261458c565b602082019050919050565b600060208201905081810360008301526145f1816145b5565b9050919050565b7f546f6b656e206e6f7420737570706f7274656400000000000000000000000000600082015250565b600061462e601383613ee6565b9150614639826145f8565b602082019050919050565b6000602082019050818103600083015261465d81614621565b9050919050565b7f43616e6e6f742072656d6f766520746f6b656e2077697468206465706f73697460008201527f7300000000000000000000000000000000000000000000000000000000000000602082015250565b60006146c0602183613ee6565b91506146cb82614664565b604082019050919050565b600060208201905081810360008301526146ef816146b3565b9050919050565b7f5661756c7420686173204554482062616c616e63650000000000000000000000600082015250565b600061472c601583613ee6565b9150614737826146f6565b602082019050919050565b6000602082019050818103600083015261475b8161471f565b9050919050565b60008151905061477181613c46565b92915050565b60006020828403121561478d5761478c613b27565b5b600061479b84828501614762565b91505092915050565b7f5661756c742068617320746f6b656e2062616c616e6365000000000000000000600082015250565b60006147da601783613ee6565b91506147e5826147a4565b602082019050919050565b60006020820190508181036000830152614809816147cd565b9050919050565b7f496e76616c69642057616c6c6574526f75746572000000000000000000000000600082015250565b6000614846601483613ee6565b915061485182614810565b602082019050919050565b6000602082019050818103600083015261487581614839565b9050919050565b60006060820190506148916000830186613fcf565b61489e6020830185613d0f565b6148ab6040830184613fcf565b949350505050565b7f496e76616c696420726563697069656e74000000000000000000000000000000600082015250565b60006148e9601183613ee6565b91506148f4826148b3565b602082019050919050565b60006020820190508181036000830152614918816148dc565b9050919050565b600060a0820190506149346000830188613fcf565b6149416020830187613fcf565b61494e6040830186613bb9565b61495b6060830185613d0f565b6149686080830184613fcf565b9695505050505050565b7f4e6f742057616c6c6574526f7574657200000000000000000000000000000000600082015250565b60006149a8601083613ee6565b91506149b382614972565b602082019050919050565b600060208201905081810360008301526149d78161499b565b9050919050565b60006149e982613baf565b91506149f483613baf565b9250828201905080821115614a0c57614a0b61442b565b5b92915050565b7f496e697469616c697a61626c653a20636f6e747261637420697320616c72656160008201527f647920696e697469616c697a6564000000000000000000000000000000000000602082015250565b6000614a6e602e83613ee6565b9150614a7982614a12565b604082019050919050565b60006020820190508181036000830152614a9d81614a61565b9050919050565b7f496e76616c696420526f6c654d616e6167657200000000000000000000000000600082015250565b6000614ada601383613ee6565b9150614ae582614aa4565b602082019050919050565b60006020820190508181036000830152614b0981614acd565b9050919050565b7f496e76616c69642054696d656c6f636b00000000000000000000000000000000600082015250565b6000614b46601083613ee6565b9150614b5182614b10565b602082019050919050565b60006020820190508181036000830152614b7581614b39565b9050919050565b7f57616c6c6574526f75746572206973206e6f74206120636f6e74726163740000600082015250565b6000614bb2601e83613ee6565b9150614bbd82614b7c565b602082019050919050565b60006020820190508181036000830152614be181614ba5565b9050919050565b6000819050919050565b600060ff82169050919050565b6000614c1a614c15614c1084614be8565b613aa3565b614bf2565b9050919050565b614c2a81614bff565b82525050565b6000602082019050614c456000830184614c21565b92915050565b7f5365742057616c6c6574526f75746572206e6f74206578656375746564000000600082015250565b6000614c81601d83613ee6565b9150614c8c82614c4b565b602082019050919050565b60006020820190508181036000830152614cb081614c74565b9050919050565b7f45524331393637557067726164653a206e657720696d706c656d656e7461746960008201527f6f6e206973206e6f742055555053000000000000000000000000000000000000602082015250565b6000614d13602e83613ee6565b9150614d1e82614cb7565b604082019050919050565b60006020820190508181036000830152614d4281614d06565b9050919050565b7f45524331393637557067726164653a20756e737570706f727465642070726f7860008201527f6961626c65555549440000000000000000000000000000000000000000000000602082015250565b6000614da5602983613ee6565b9150614db082614d49565b604082019050919050565b60006020820190508181036000830152614dd481614d98565b9050919050565b7f416464726573733a20696e73756666696369656e742062616c616e6365000000600082015250565b6000614e11601d83613ee6565b9150614e1c82614ddb565b602082019050919050565b60006020820190508181036000830152614e4081614e04565b9050919050565b600081905092915050565b50565b6000614e62600083614e47565b9150614e6d82614e52565b600082019050919050565b6000614e8382614e55565b9150819050919050565b7f416464726573733a20756e61626c6520746f2073656e642076616c75652c207260008201527f6563697069656e74206d61792068617665207265766572746564000000000000602082015250565b6000614ee9603a83613ee6565b9150614ef482614e8d565b604082019050919050565b60006020820190508181036000830152614f1881614edc565b9050919050565b6000604082019050614f346000830185613fcf565b614f416020830184613bb9565b9392505050565b7f5061757361626c653a2070617573656400000000000000000000000000000000600082015250565b6000614f7e601083613ee6565b9150614f8982614f48565b602082019050919050565b60006020820190508181036000830152614fad81614f71565b9050919050565b7f496e697469616c697a61626c653a20636f6e7472616374206973206e6f74206960008201527f6e697469616c697a696e67000000000000000000000000000000000000000000602082015250565b6000615010602b83613ee6565b915061501b82614fb4565b604082019050919050565b6000602082019050818103600083015261503f81615003565b9050919050565b7f496e76616c696420696d706c656d656e746174696f6e20616464726573730000600082015250565b600061507c601e83613ee6565b915061508782615046565b602082019050919050565b600060208201905081810360008301526150ab8161506f565b9050919050565b7f496d706c656d656e746174696f6e206973206e6f74206120636f6e7472616374600082015250565b60006150e8602083613ee6565b91506150f3826150b2565b602082019050919050565b60006020820190508181036000830152615117816150db565b9050919050565b7f455243313936373a206e657720696d706c656d656e746174696f6e206973206e60008201527f6f74206120636f6e747261637400000000000000000000000000000000000000602082015250565b600061517a602d83613ee6565b91506151858261511e565b604082019050919050565b600060208201905081810360008301526151a98161516d565b9050919050565b7f5061757361626c653a206e6f7420706175736564000000000000000000000000600082015250565b60006151e6601483613ee6565b91506151f1826151b0565b602082019050919050565b60006020820190508181036000830152615215816151d9565b9050919050565b7f5361666545524332303a204552433230206f7065726174696f6e20646964206e60008201527f6f74207375636365656400000000000000000000000000000000000000000000602082015250565b6000615278602a83613ee6565b91506152838261521c565b604082019050919050565b600060208201905081810360008301526152a78161526b565b9050919050565b600081519050919050565b60006152c4826152ae565b6152ce8185614e47565b93506152de818560208601613ef7565b80840191505092915050565b60006152f682846152b9565b915081905092915050565b7f416464726573733a20696e73756666696369656e742062616c616e636520666f60008201527f722063616c6c0000000000000000000000000000000000000000000000000000602082015250565b600061535d602683613ee6565b915061536882615301565b604082019050919050565b6000602082019050818103600083015261538c81615350565b9050919050565b7f416464726573733a2063616c6c20746f206e6f6e2d636f6e7472616374000000600082015250565b60006153c9601d83613ee6565b91506153d482615393565b602082019050919050565b600060208201905081810360008301526153f8816153bc565b905091905056fe416464726573733a206c6f772d6c6576656c2064656c65676174652063616c6c206661696c6564a264697066735822122037a20092c411f824eb048adfe15f3b1df26760e67b1a036e16d73cf782f8f14d64736f6c63430008130033","linkReferences":{}},"methodIdentifiers":{"ADD_TOKEN()":"c41d769c","RECOVER_FUNDS()":"80d02816","REMOVE_TOKEN()":"ea84f070","SET_WALLETROUTER()":"4d9710dd","addSupportedToken(address)":"6d69fcaf","getUserDeposit(address,address)":"148c658c","handleDeposit(address,address,uint256)":"bdc631d4","handleWithdrawal(address,address,uint256)":"ba313e34","initialize(address,address,address)":"c0c53b8b","isSupportedToken(address)":"240028e8","pause()":"8456cb59","paused()":"5c975abb","proposeRecoverFunds(address,address,uint256)":"80e03c58","proposeSetWalletRouter(address)":"77a9b404","proxiableUUID()":"52d1902d","recoverFunds(address,address,uint256,bytes32)":"4119f9fb","removeSupportedToken(address)":"76319190","roleManager()":"00435da5","setWalletRouter(address,bytes32)":"f6aea45c","supportedTokens(address)":"68c4ac26","timelock()":"d33219b4","totalDeposits(address)":"e9403256","unpause()":"3f4ba83a","upgradeTo(address)":"3659cfe6","upgradeToAndCall(address,bytes)":"4f1ef286","userDeposits(address,address)":"436d8039","version()":"54fd4d50","walletRouter()":"b3664c75"},"id":3}