{"abi":[{"type":"constructor","inputs":[{"name":"_roleManager","type":"address","internalType":"address"}],"stateMutability":"nonpayable"},{"type":"function","name":"MIN_TIMELOCK_DELAY","inputs":[],"outputs":[{"name":"","type":"uint256","internalType":"uint256"}],"stateMutability":"view"},{"type":"function","name":"executeRecoverFunds","inputs":[{"name":"actionId","type":"bytes32","internalType":"bytes32"},{"name":"token","type":"address","internalType":"address"},{"name":"caller","type":"address","internalType":"address"}],"outputs":[{"name":"","type":"bool","internalType":"bool"}],"stateMutability":"nonpayable"},{"type":"function","name":"executeSetWalletRouter","inputs":[{"name":"actionId","type":"bytes32","internalType":"bytes32"},{"name":"_walletRouter","type":"address","internalType":"address"},{"name":"caller","type":"address","internalType":"address"}],"outputs":[{"name":"","type":"bool","internalType":"bool"}],"stateMutability":"nonpayable"},{"type":"function","name":"pendingVault","inputs":[{"name":"","type":"bytes32","internalType":"bytes32"}],"outputs":[{"name":"key","type":"bytes32","internalType":"bytes32"},{"name":"target","type":"address","internalType":"address"},{"name":"executableAfter","type":"uint256","internalType":"uint256"}],"stateMutability":"view"},{"type":"function","name":"pendingWalletRouter","inputs":[{"name":"","type":"bytes32","internalType":"bytes32"}],"outputs":[{"name":"key","type":"bytes32","internalType":"bytes32"},{"name":"newvault","type":"address","internalType":"address"},{"name":"executableAfter","type":"uint256","internalType":"uint256"}],"stateMutability":"view"},{"type":"function","name":"proposeRecoverFunds","inputs":[{"name":"token","type":"address","internalType":"address"},{"name":"recipient","type":"address","internalType":"address"},{"name":"amount","type":"uint256","internalType":"uint256"},{"name":"key","type":"bytes32","internalType":"bytes32"},{"name":"caller","type":"address","internalType":"address"}],"outputs":[],"stateMutability":"nonpayable"},{"type":"function","name":"proposeSetWalletRouter","inputs":[{"name":"_walletAddress","type":"address","internalType":"address"},{"name":"key","type":"bytes32","internalType":"bytes32"},{"name":"caller","type":"address","internalType":"address"}],"outputs":[],"stateMutability":"nonpayable"},{"type":"function","name":"roleManager","inputs":[],"outputs":[{"name":"","type":"address","internalType":"contract IRoleManager"}],"stateMutability":"view"},{"type":"function","name":"setTimelock","inputs":[{"name":"daysCount","type":"uint256","internalType":"uint256"}],"outputs":[],"stateMutability":"nonpayable"},{"type":"event","name":"RecoverFundsPropose","inputs":[{"name":"actionId","type":"bytes32","indexed":true,"internalType":"bytes32"},{"name":"token","type":"address","indexed":true,"internalType":"address"},{"name":"recipient","type":"address","indexed":true,"internalType":"address"},{"name":"amount","type":"uint256","indexed":false,"internalType":"uint256"},{"name":"executableAfter","type":"uint256","indexed":false,"internalType":"uint256"}],"anonymous":false},{"type":"event","name":"SetWalletRouterPropose","inputs":[{"name":"actionId","type":"bytes32","indexed":true,"internalType":"bytes32"},{"name":"walletRouter","type":"address","indexed":true,"internalType":"address"},{"name":"executableAfter","type":"uint256","indexed":false,"internalType":"uint256"}],"anonymous":false},{"type":"event","name":"TimelockDelayChanged","inputs":[{"name":"oldDelay","type":"uint256","indexed":false,"internalType":"uint256"},{"name":"newDelay","type":"uint256","indexed":false,"internalType":"uint256"}],"anonymous":false}],"bytecode":{"object":"0x6080604052620151806002553480156200001857600080fd5b5060405162001d8938038062001d8983398181016040528101906200003e919062000162565b600073ffffffffffffffffffffffffffffffffffffffff168173ffffffffffffffffffffffffffffffffffffffff1603620000b0576040517f08c379a0000000000000000000000000000000000000000000000000000000008152600401620000a790620001f5565b60405180910390fd5b80600360006101000a81548173ffffffffffffffffffffffffffffffffffffffff021916908373ffffffffffffffffffffffffffffffffffffffff1602179055505062000217565b600080fd5b600073ffffffffffffffffffffffffffffffffffffffff82169050919050565b60006200012a82620000fd565b9050919050565b6200013c816200011d565b81146200014857600080fd5b50565b6000815190506200015c8162000131565b92915050565b6000602082840312156200017b576200017a620000f8565b5b60006200018b848285016200014b565b91505092915050565b600082825260208201905092915050565b7f496e76616c696420526f6c654d616e6167657200000000000000000000000000600082015250565b6000620001dd60138362000194565b9150620001ea82620001a5565b602082019050919050565b600060208201905081810360008301526200021081620001ce565b9050919050565b611b6280620002276000396000f3fe608060405234801561001057600080fd5b50600436106100925760003560e01c8063433d26dd11610066578063433d26dd1461010b578063642e4dfb14610127578063a0d32bdc14610157578063ad8bd25a14610189578063e87bbd1b146101b957610092565b8062435da514610097578063169070eb146100b55780631e891c0a146100d357806339cdeb05146100ef575b600080fd5b61009f6101eb565b6040516100ac91906112dc565b60405180910390f35b6100bd610211565b6040516100ca9190611310565b60405180910390f35b6100ed60048036038101906100e8919061135c565b610217565b005b610109600480360381019061010491906113fd565b610422565b005b61012560048036038101906101209190611478565b610749565b005b610141600480360381019061013c91906114cb565b610a51565b60405161014e9190611539565b60405180910390f35b610171600480360381019061016c9190611554565b610e0d565b6040516101809392919061159f565b60405180910390f35b6101a3600480360381019061019e91906114cb565b610e57565b6040516101b09190611539565b60405180910390f35b6101d360048036038101906101ce9190611554565b611213565b6040516101e29392919061159f565b60405180910390f35b600360009054906101000a900473ffffffffffffffffffffffffffffffffffffffff1681565b60025481565b33600360009054906101000a900473ffffffffffffffffffffffffffffffffffffffff1673ffffffffffffffffffffffffffffffffffffffff166391d14854600360009054906101000a900473ffffffffffffffffffffffffffffffffffffffff1673ffffffffffffffffffffffffffffffffffffffff16639e3411196040518163ffffffff1660e01b8152600401602060405180830381865afa1580156102c3573d6000803e3d6000fd5b505050506040513d601f19601f820116820180604052508101906102e791906115eb565b836040518363ffffffff1660e01b8152600401610305929190611618565b602060405180830381865afa158015610322573d6000803e3d6000fd5b505050506040513d601f19601f82011682018060405250810190610346919061166d565b610385576040517f08c379a000000000000000000000000000000000000000000000000000000000815260040161037c906116f7565b60405180910390fd5b600082116103c8576040517f08c379a00000000000000000000000000000000000000000000000000000000081526004016103bf90611763565b60405180910390fd5b600062015180836103d991906117b2565b90507f3c829755bd8b21d750ac8567e59c28f7ab083ce559f92d92239882247ba60da16002548260405161040e9291906117f4565b60405180910390a180600281905550505050565b80600360009054906101000a900473ffffffffffffffffffffffffffffffffffffffff1673ffffffffffffffffffffffffffffffffffffffff166391d14854600360009054906101000a900473ffffffffffffffffffffffffffffffffffffffff1673ffffffffffffffffffffffffffffffffffffffff16639e3411196040518163ffffffff1660e01b8152600401602060405180830381865afa1580156104ce573d6000803e3d6000fd5b505050506040513d601f19601f820116820180604052508101906104f291906115eb565b836040518363ffffffff1660e01b8152600401610510929190611618565b602060405180830381865afa15801561052d573d6000803e3d6000fd5b505050506040513d601f19601f82011682018060405250810190610551919061166d565b610590576040517f08c379a0000000000000000000000000000000000000000000000000000000008152600401610587906116f7565b60405180910390fd5b600083878787426040516020016105ab95949392919061181d565b604051602081830303815290604052805190602001209050600060016000838152602001908152602001600020600201541461061c576040517f08c379a0000000000000000000000000000000000000000000000000000000008152600401610613906118bc565b60405180910390fd5b60405180606001604052808581526020018873ffffffffffffffffffffffffffffffffffffffff1681526020016002544261065791906118dc565b815250600160008381526020019081526020016000206000820151816000015560208201518160010160006101000a81548173ffffffffffffffffffffffffffffffffffffffff021916908373ffffffffffffffffffffffffffffffffffffffff160217905550604082015181600201559050508573ffffffffffffffffffffffffffffffffffffffff168773ffffffffffffffffffffffffffffffffffffffff16827ffa2cd7d537d6423d13a165e103d86c35ca06e692857f5d085bd010968bdb8ff4886002544261072a91906118dc565b6040516107389291906117f4565b60405180910390a450505050505050565b80600360009054906101000a900473ffffffffffffffffffffffffffffffffffffffff1673ffffffffffffffffffffffffffffffffffffffff166391d14854600360009054906101000a900473ffffffffffffffffffffffffffffffffffffffff1673ffffffffffffffffffffffffffffffffffffffff16639e3411196040518163ffffffff1660e01b8152600401602060405180830381865afa1580156107f5573d6000803e3d6000fd5b505050506040513d601f19601f8201168201806040525081019061081991906115eb565b836040518363ffffffff1660e01b8152600401610837929190611618565b602060405180830381865afa158015610854573d6000803e3d6000fd5b505050506040513d601f19601f82011682018060405250810190610878919061166d565b6108b7576040517f08c379a00000000000000000000000000000000000000000000000000000000081526004016108ae906116f7565b60405180910390fd5b60008385426040516020016108ce9392919061159f565b604051602081830303815290604052805190602001209050600060016000838152602001908152602001600020600201541461093f576040517f08c379a0000000000000000000000000000000000000000000000000000000008152600401610936906118bc565b60405180910390fd5b60405180606001604052808581526020018673ffffffffffffffffffffffffffffffffffffffff1681526020016002544261097a91906118dc565b815250600160008381526020019081526020016000206000820151816000015560208201518160010160006101000a81548173ffffffffffffffffffffffffffffffffffffffff021916908373ffffffffffffffffffffffffffffffffffffffff160217905550604082015181600201559050508473ffffffffffffffffffffffffffffffffffffffff16817f35c1fb7597a6d5a0a91320cd037b0f118f5529b118c8ef740ebda44be852e47560025442610a3591906118dc565b604051610a429190611310565b60405180910390a35050505050565b600081600360009054906101000a900473ffffffffffffffffffffffffffffffffffffffff1673ffffffffffffffffffffffffffffffffffffffff166391d14854600360009054906101000a900473ffffffffffffffffffffffffffffffffffffffff1673ffffffffffffffffffffffffffffffffffffffff16639e3411196040518163ffffffff1660e01b8152600401602060405180830381865afa158015610aff573d6000803e3d6000fd5b505050506040513d601f19601f82011682018060405250810190610b2391906115eb565b836040518363ffffffff1660e01b8152600401610b41929190611618565b602060405180830381865afa158015610b5e573d6000803e3d6000fd5b505050506040513d601f19601f82011682018060405250810190610b82919061166d565b610bc1576040517f08c379a0000000000000000000000000000000000000000000000000000000008152600401610bb8906116f7565b60405180910390fd5b600060016000878152602001908152602001600020604051806060016040529081600082015481526020016001820160009054906101000a900473ffffffffffffffffffffffffffffffffffffffff1673ffffffffffffffffffffffffffffffffffffffff1673ffffffffffffffffffffffffffffffffffffffff16815260200160028201548152505090506000816040015103610c94576040517f08c379a0000000000000000000000000000000000000000000000000000000008152600401610c8b9061195c565b60405180910390fd5b8060400151421015610cdb576040517f08c379a0000000000000000000000000000000000000000000000000000000008152600401610cd2906119c8565b60405180910390fd5b7febfe40e1a907df098b25552533043ed6632f34e704c7c0a934075ee697b8a3be816000015114610d41576040517f08c379a0000000000000000000000000000000000000000000000000000000008152600401610d3890611a34565b60405180910390fd5b8473ffffffffffffffffffffffffffffffffffffffff16816020015173ffffffffffffffffffffffffffffffffffffffff1614610db3576040517f08c379a0000000000000000000000000000000000000000000000000000000008152600401610daa90611aa0565b60405180910390fd5b600160008781526020019081526020016000206000808201600090556001820160006101000a81549073ffffffffffffffffffffffffffffffffffffffff0219169055600282016000905550506001925050509392505050565b60006020528060005260406000206000915090508060000154908060010160009054906101000a900473ffffffffffffffffffffffffffffffffffffffff16908060020154905083565b600081600360009054906101000a900473ffffffffffffffffffffffffffffffffffffffff1673ffffffffffffffffffffffffffffffffffffffff166391d14854600360009054906101000a900473ffffffffffffffffffffffffffffffffffffffff1673ffffffffffffffffffffffffffffffffffffffff16639e3411196040518163ffffffff1660e01b8152600401602060405180830381865afa158015610f05573d6000803e3d6000fd5b505050506040513d601f19601f82011682018060405250810190610f2991906115eb565b836040518363ffffffff1660e01b8152600401610f47929190611618565b602060405180830381865afa158015610f64573d6000803e3d6000fd5b505050506040513d601f19601f82011682018060405250810190610f88919061166d565b610fc7576040517f08c379a0000000000000000000000000000000000000000000000000000000008152600401610fbe906116f7565b60405180910390fd5b600060016000878152602001908152602001600020604051806060016040529081600082015481526020016001820160009054906101000a900473ffffffffffffffffffffffffffffffffffffffff1673ffffffffffffffffffffffffffffffffffffffff1673ffffffffffffffffffffffffffffffffffffffff1681526020016002820154815250509050600081604001510361109a576040517f08c379a00000000000000000000000000000000000000000000000000000000081526004016110919061195c565b60405180910390fd5b80604001514210156110e1576040517f08c379a00000000000000000000000000000000000000000000000000000000081526004016110d8906119c8565b60405180910390fd5b7f20fdf5e0231b01bbf4a13cac8ebdc15bc3cac177cb34c02a16b7fc0fea7cc6a0816000015114611147576040517f08c379a000000000000000000000000000000000000000000000000000000000815260040161113e90611a34565b60405180910390fd5b8473ffffffffffffffffffffffffffffffffffffffff16816020015173ffffffffffffffffffffffffffffffffffffffff16146111b9576040517f08c379a00000000000000000000000000000000000000000000000000000000081526004016111b090611b0c565b60405180910390fd5b600160008781526020019081526020016000206000808201600090556001820160006101000a81549073ffffffffffffffffffffffffffffffffffffffff0219169055600282016000905550506001925050509392505050565b60016020528060005260406000206000915090508060000154908060010160009054906101000a900473ffffffffffffffffffffffffffffffffffffffff16908060020154905083565b600073ffffffffffffffffffffffffffffffffffffffff82169050919050565b6000819050919050565b60006112a261129d6112988461125d565b61127d565b61125d565b9050919050565b60006112b482611287565b9050919050565b60006112c6826112a9565b9050919050565b6112d6816112bb565b82525050565b60006020820190506112f160008301846112cd565b92915050565b6000819050919050565b61130a816112f7565b82525050565b60006020820190506113256000830184611301565b92915050565b600080fd5b611339816112f7565b811461134457600080fd5b50565b60008135905061135681611330565b92915050565b6000602082840312156113725761137161132b565b5b600061138084828501611347565b91505092915050565b60006113948261125d565b9050919050565b6113a481611389565b81146113af57600080fd5b50565b6000813590506113c18161139b565b92915050565b6000819050919050565b6113da816113c7565b81146113e557600080fd5b50565b6000813590506113f7816113d1565b92915050565b600080600080600060a086880312156114195761141861132b565b5b6000611427888289016113b2565b9550506020611438888289016113b2565b945050604061144988828901611347565b935050606061145a888289016113e8565b925050608061146b888289016113b2565b9150509295509295909350565b6000806000606084860312156114915761149061132b565b5b600061149f868287016113b2565b93505060206114b0868287016113e8565b92505060406114c1868287016113b2565b9150509250925092565b6000806000606084860312156114e4576114e361132b565b5b60006114f2868287016113e8565b9350506020611503868287016113b2565b9250506040611514868287016113b2565b9150509250925092565b60008115159050919050565b6115338161151e565b82525050565b600060208201905061154e600083018461152a565b92915050565b60006020828403121561156a5761156961132b565b5b6000611578848285016113e8565b91505092915050565b61158a816113c7565b82525050565b61159981611389565b82525050565b60006060820190506115b46000830186611581565b6115c16020830185611590565b6115ce6040830184611301565b949350505050565b6000815190506115e5816113d1565b92915050565b6000602082840312156116015761160061132b565b5b600061160f848285016115d6565b91505092915050565b600060408201905061162d6000830185611581565b61163a6020830184611590565b9392505050565b61164a8161151e565b811461165557600080fd5b50565b60008151905061166781611641565b92915050565b6000602082840312156116835761168261132b565b5b600061169184828501611658565b91505092915050565b600082825260208201905092915050565b7f43616c6c6572206c61636b73205641554c545f41444d494e5f524f4c45000000600082015250565b60006116e1601d8361169a565b91506116ec826116ab565b602082019050919050565b60006020820190508181036000830152611710816116d4565b9050919050565b7f44656c6179206d757374206265206174206c6561737420312064617900000000600082015250565b600061174d601c8361169a565b915061175882611717565b602082019050919050565b6000602082019050818103600083015261177c81611740565b9050919050565b7f4e487b7100000000000000000000000000000000000000000000000000000000600052601160045260246000fd5b60006117bd826112f7565b91506117c8836112f7565b92508282026117d6816112f7565b915082820484148315176117ed576117ec611783565b5b5092915050565b60006040820190506118096000830185611301565b6118166020830184611301565b9392505050565b600060a0820190506118326000830188611581565b61183f6020830187611590565b61184c6040830186611590565b6118596060830185611301565b6118666080830184611301565b9695505050505050565b7f416374696f6e20616c72656164792070726f706f736564000000000000000000600082015250565b60006118a660178361169a565b91506118b182611870565b602082019050919050565b600060208201905081810360008301526118d581611899565b9050919050565b60006118e7826112f7565b91506118f2836112f7565b925082820190508082111561190a57611909611783565b5b92915050565b7f416374696f6e206e6f742070726f706f73656400000000000000000000000000600082015250565b600061194660138361169a565b915061195182611910565b602082019050919050565b6000602082019050818103600083015261197581611939565b9050919050565b7f54696d656c6f636b206e6f742065787069726564000000000000000000000000600082015250565b60006119b260148361169a565b91506119bd8261197c565b602082019050919050565b600060208201905081810360008301526119e1816119a5565b9050919050565b7f496e76616c6964206b6579000000000000000000000000000000000000000000600082015250565b6000611a1e600b8361169a565b9150611a29826119e8565b602082019050919050565b60006020820190508181036000830152611a4d81611a11565b9050919050565b7f57616c6c6574526f75746572206d69736d617463680000000000000000000000600082015250565b6000611a8a60158361169a565b9150611a9582611a54565b602082019050919050565b60006020820190508181036000830152611ab981611a7d565b9050919050565b7f546f6b656e206d69736d61746368000000000000000000000000000000000000600082015250565b6000611af6600e8361169a565b9150611b0182611ac0565b602082019050919050565b60006020820190508181036000830152611b2581611ae9565b905091905056fea264697066735822122051ff5e117d4f2bc391d0dbf4d669483d16d0b679eeafedb5dec77370c56bca2c64736f6c63430008130033","linkReferences":{}},"methodIdentifiers":{"MIN_TIMELOCK_DELAY()":"169070eb","executeRecoverFunds(bytes32,address,address)":"ad8bd25a","executeSetWalletRouter(bytes32,address,address)":"642e4dfb","pendingVault(bytes32)":"e87bbd1b","pendingWalletRouter(bytes32)":"a0d32bdc","proposeRecoverFunds(address,address,uint256,bytes32,address)":"39cdeb05","proposeSetWalletRouter(address,bytes32,address)":"433d26dd","roleManager()":"00435da5","setTimelock(uint256)":"1e891c0a"},"id":6}