{"abi":[{"type":"constructor","inputs":[{"name":"_roleManager","type":"address","internalType":"address"}],"stateMutability":"nonpayable"},{"type":"function","name":"MIN_TIMELOCK_DELAY","inputs":[],"outputs":[{"name":"","type":"uint256","internalType":"uint256"}],"stateMutability":"view"},{"type":"function","name":"executeAddToken","inputs":[{"name":"actionId","type":"bytes32","internalType":"bytes32"},{"name":"token","type":"address","internalType":"address"},{"name":"caller","type":"address","internalType":"address"}],"outputs":[{"name":"","type":"bool","internalType":"bool"}],"stateMutability":"nonpayable"},{"type":"function","name":"executeRecoverFunds","inputs":[{"name":"actionId","type":"bytes32","internalType":"bytes32"},{"name":"token","type":"address","internalType":"address"},{"name":"caller","type":"address","internalType":"address"}],"outputs":[{"name":"","type":"bool","internalType":"bool"}],"stateMutability":"nonpayable"},{"type":"function","name":"executeRemoveToken","inputs":[{"name":"actionId","type":"bytes32","internalType":"bytes32"},{"name":"token","type":"address","internalType":"address"},{"name":"caller","type":"address","internalType":"address"}],"outputs":[{"name":"","type":"bool","internalType":"bool"}],"stateMutability":"nonpayable"},{"type":"function","name":"executeSetVault","inputs":[{"name":"actionId","type":"bytes32","internalType":"bytes32"},{"name":"_vault","type":"address","internalType":"address"},{"name":"caller","type":"address","internalType":"address"}],"outputs":[{"name":"","type":"bool","internalType":"bool"}],"stateMutability":"nonpayable"},{"type":"function","name":"executeSetWalletRouter","inputs":[{"name":"actionId","type":"bytes32","internalType":"bytes32"},{"name":"_walletRouter","type":"address","internalType":"address"},{"name":"caller","type":"address","internalType":"address"}],"outputs":[{"name":"","type":"bool","internalType":"bool"}],"stateMutability":"nonpayable"},{"type":"function","name":"pendingVault","inputs":[{"name":"","type":"bytes32","internalType":"bytes32"}],"outputs":[{"name":"key","type":"bytes32","internalType":"bytes32"},{"name":"target","type":"address","internalType":"address"},{"name":"executableAfter","type":"uint256","internalType":"uint256"}],"stateMutability":"view"},{"type":"function","name":"pendingWalletRouter","inputs":[{"name":"","type":"bytes32","internalType":"bytes32"}],"outputs":[{"name":"key","type":"bytes32","internalType":"bytes32"},{"name":"newvault","type":"address","internalType":"address"},{"name":"executableAfter","type":"uint256","internalType":"uint256"}],"stateMutability":"view"},{"type":"function","name":"proposeAddToken","inputs":[{"name":"token","type":"address","internalType":"address"},{"name":"key","type":"bytes32","internalType":"bytes32"},{"name":"caller","type":"address","internalType":"address"}],"outputs":[],"stateMutability":"nonpayable"},{"type":"function","name":"proposeRecoverFunds","inputs":[{"name":"token","type":"address","internalType":"address"},{"name":"recipient","type":"address","internalType":"address"},{"name":"amount","type":"uint256","internalType":"uint256"},{"name":"key","type":"bytes32","internalType":"bytes32"},{"name":"caller","type":"address","internalType":"address"}],"outputs":[],"stateMutability":"nonpayable"},{"type":"function","name":"proposeRemoveToken","inputs":[{"name":"token","type":"address","internalType":"address"},{"name":"key","type":"bytes32","internalType":"bytes32"},{"name":"caller","type":"address","internalType":"address"}],"outputs":[],"stateMutability":"nonpayable"},{"type":"function","name":"proposeSetVault","inputs":[{"name":"key","type":"bytes32","internalType":"bytes32"},{"name":"_newvault","type":"address","internalType":"address"},{"name":"caller","type":"address","internalType":"address"}],"outputs":[],"stateMutability":"nonpayable"},{"type":"function","name":"proposeSetWalletRouter","inputs":[{"name":"_walletAddress","type":"address","internalType":"address"},{"name":"key","type":"bytes32","internalType":"bytes32"},{"name":"caller","type":"address","internalType":"address"}],"outputs":[],"stateMutability":"nonpayable"},{"type":"function","name":"roleManager","inputs":[],"outputs":[{"name":"","type":"address","internalType":"contract IRoleManager"}],"stateMutability":"view"},{"type":"event","name":"AddTokenPropose","inputs":[{"name":"actionId","type":"bytes32","indexed":true,"internalType":"bytes32"},{"name":"token","type":"address","indexed":true,"internalType":"address"},{"name":"executableAfter","type":"uint256","indexed":false,"internalType":"uint256"}],"anonymous":false},{"type":"event","name":"RecoverFundsPropose","inputs":[{"name":"actionId","type":"bytes32","indexed":true,"internalType":"bytes32"},{"name":"token","type":"address","indexed":true,"internalType":"address"},{"name":"recipient","type":"address","indexed":true,"internalType":"address"},{"name":"amount","type":"uint256","indexed":false,"internalType":"uint256"},{"name":"executableAfter","type":"uint256","indexed":false,"internalType":"uint256"}],"anonymous":false},{"type":"event","name":"RemoveTokenPropose","inputs":[{"name":"actionId","type":"bytes32","indexed":true,"internalType":"bytes32"},{"name":"token","type":"address","indexed":true,"internalType":"address"},{"name":"executableAfter","type":"uint256","indexed":false,"internalType":"uint256"}],"anonymous":false},{"type":"event","name":"SetVaultPropose","inputs":[{"name":"actionId","type":"bytes32","indexed":true,"internalType":"bytes32"},{"name":"newvault","type":"address","indexed":true,"internalType":"address"},{"name":"executableAfter","type":"uint256","indexed":false,"internalType":"uint256"}],"anonymous":false},{"type":"event","name":"SetWalletRouterPropose","inputs":[{"name":"actionId","type":"bytes32","indexed":true,"internalType":"bytes32"},{"name":"walletRouter","type":"address","indexed":true,"internalType":"address"},{"name":"executableAfter","type":"uint256","indexed":false,"internalType":"uint256"}],"anonymous":false}],"bytecode":{"object":"0x60806040523480156200001157600080fd5b50604051620030a6380380620030a683398181016040528101906200003791906200015b565b600073ffffffffffffffffffffffffffffffffffffffff168173ffffffffffffffffffffffffffffffffffffffff1603620000a9576040517f08c379a0000000000000000000000000000000000000000000000000000000008152600401620000a090620001ee565b60405180910390fd5b80600260006101000a81548173ffffffffffffffffffffffffffffffffffffffff021916908373ffffffffffffffffffffffffffffffffffffffff1602179055505062000210565b600080fd5b600073ffffffffffffffffffffffffffffffffffffffff82169050919050565b60006200012382620000f6565b9050919050565b620001358162000116565b81146200014157600080fd5b50565b60008151905062000155816200012a565b92915050565b600060208284031215620001745762000173620000f1565b5b6000620001848482850162000144565b91505092915050565b600082825260208201905092915050565b7f496e76616c69642057616c6c6574526f75746572000000000000000000000000600082015250565b6000620001d66014836200018d565b9150620001e3826200019e565b602082019050919050565b600060208201905081810360008301526200020981620001c7565b9050919050565b612e8680620002206000396000f3fe608060405234801561001057600080fd5b50600436106100e95760003560e01c806387a734de1161008c578063ad8bd25a11610066578063ad8bd25a14610270578063c0858d11146102a0578063c7d3eeef146102bc578063e87bbd1b146102d8576100e9565b806387a734de146101de578063a0d32bdc1461020e578063a7ce7c2914610240576100e9565b806339cdeb05116100c857806339cdeb0514610146578063433d26dd146101625780635a484a1b1461017e578063642e4dfb146101ae576100e9565b8062435da5146100ee5780630acc18031461010c578063169070eb14610128575b600080fd5b6100f661030a565b60405161010391906125dd565b60405180910390f35b61012660048036038101906101219190612671565b610330565b005b61013061063a565b60405161013d91906126dd565b60405180910390f35b610160600480360381019061015b9190612724565b610641565b005b61017c60048036038101906101779190612671565b61096a565b005b6101986004803603810190610193919061279f565b610c74565b6040516101a5919061280d565b60405180910390f35b6101c860048036038101906101c3919061279f565b610fc8565b6040516101d5919061280d565b60405180910390f35b6101f860048036038101906101f3919061279f565b611384565b604051610205919061280d565b60405180910390f35b61022860048036038101906102239190612828565b611740565b60405161023793929190612873565b60405180910390f35b61025a6004803603810190610255919061279f565b61178a565b604051610267919061280d565b60405180910390f35b61028a6004803603810190610285919061279f565b611b46565b604051610297919061280d565b60405180910390f35b6102ba60048036038101906102b5919061279f565b611f02565b005b6102d660048036038101906102d19190612671565b61220a565b005b6102f260048036038101906102ed9190612828565b612514565b60405161030193929190612873565b60405180910390f35b600260009054906101000a900473ffffffffffffffffffffffffffffffffffffffff1681565b80600260009054906101000a900473ffffffffffffffffffffffffffffffffffffffff1673ffffffffffffffffffffffffffffffffffffffff166391d14854600260009054906101000a900473ffffffffffffffffffffffffffffffffffffffff1673ffffffffffffffffffffffffffffffffffffffff16639e3411196040518163ffffffff1660e01b8152600401602060405180830381865afa1580156103dc573d6000803e3d6000fd5b505050506040513d601f19601f8201168201806040525081019061040091906128bf565b836040518363ffffffff1660e01b815260040161041e9291906128ec565b602060405180830381865afa15801561043b573d6000803e3d6000fd5b505050506040513d601f19601f8201168201806040525081019061045f9190612941565b61049e576040517f08c379a0000000000000000000000000000000000000000000000000000000008152600401610495906129cb565b60405180910390fd5b60008385426040516020016104b593929190612873565b6040516020818303038152906040528051906020012090506000600160008381526020019081526020016000206002015414610526576040517f08c379a000000000000000000000000000000000000000000000000000000000815260040161051d90612a37565b60405180910390fd5b60405180606001604052808581526020018673ffffffffffffffffffffffffffffffffffffffff16815260200162015180426105629190612a86565b815250600160008381526020019081526020016000206000820151816000015560208201518160010160006101000a81548173ffffffffffffffffffffffffffffffffffffffff021916908373ffffffffffffffffffffffffffffffffffffffff160217905550604082015181600201559050508473ffffffffffffffffffffffffffffffffffffffff16817f2b7a9c1c82d14ef6dd9337c2dac4c00d44ce3c21fa485717ed363b9b19304ff4620151804261061e9190612a86565b60405161062b91906126dd565b60405180910390a35050505050565b6201518081565b80600260009054906101000a900473ffffffffffffffffffffffffffffffffffffffff1673ffffffffffffffffffffffffffffffffffffffff166391d14854600260009054906101000a900473ffffffffffffffffffffffffffffffffffffffff1673ffffffffffffffffffffffffffffffffffffffff16639e3411196040518163ffffffff1660e01b8152600401602060405180830381865afa1580156106ed573d6000803e3d6000fd5b505050506040513d601f19601f8201168201806040525081019061071191906128bf565b836040518363ffffffff1660e01b815260040161072f9291906128ec565b602060405180830381865afa15801561074c573d6000803e3d6000fd5b505050506040513d601f19601f820116820180604052508101906107709190612941565b6107af576040517f08c379a00000000000000000000000000000000000000000000000000000000081526004016107a6906129cb565b60405180910390fd5b600083878787426040516020016107ca959493929190612aba565b604051602081830303815290604052805190602001209050600060016000838152602001908152602001600020600201541461083b576040517f08c379a000000000000000000000000000000000000000000000000000000000815260040161083290612a37565b60405180910390fd5b60405180606001604052808581526020018873ffffffffffffffffffffffffffffffffffffffff16815260200162015180426108779190612a86565b815250600160008381526020019081526020016000206000820151816000015560208201518160010160006101000a81548173ffffffffffffffffffffffffffffffffffffffff021916908373ffffffffffffffffffffffffffffffffffffffff160217905550604082015181600201559050508573ffffffffffffffffffffffffffffffffffffffff168773ffffffffffffffffffffffffffffffffffffffff16827ffa2cd7d537d6423d13a165e103d86c35ca06e692857f5d085bd010968bdb8ff488620151804261094b9190612a86565b604051610959929190612b0d565b60405180910390a450505050505050565b80600260009054906101000a900473ffffffffffffffffffffffffffffffffffffffff1673ffffffffffffffffffffffffffffffffffffffff166391d14854600260009054906101000a900473ffffffffffffffffffffffffffffffffffffffff1673ffffffffffffffffffffffffffffffffffffffff16639e3411196040518163ffffffff1660e01b8152600401602060405180830381865afa158015610a16573d6000803e3d6000fd5b505050506040513d601f19601f82011682018060405250810190610a3a91906128bf565b836040518363ffffffff1660e01b8152600401610a589291906128ec565b602060405180830381865afa158015610a75573d6000803e3d6000fd5b505050506040513d601f19601f82011682018060405250810190610a999190612941565b610ad8576040517f08c379a0000000000000000000000000000000000000000000000000000000008152600401610acf906129cb565b60405180910390fd5b6000838542604051602001610aef93929190612873565b6040516020818303038152906040528051906020012090506000600160008381526020019081526020016000206002015414610b60576040517f08c379a0000000000000000000000000000000000000000000000000000000008152600401610b5790612a37565b60405180910390fd5b60405180606001604052808581526020018673ffffffffffffffffffffffffffffffffffffffff1681526020016201518042610b9c9190612a86565b815250600160008381526020019081526020016000206000820151816000015560208201518160010160006101000a81548173ffffffffffffffffffffffffffffffffffffffff021916908373ffffffffffffffffffffffffffffffffffffffff160217905550604082015181600201559050508473ffffffffffffffffffffffffffffffffffffffff16817f35c1fb7597a6d5a0a91320cd037b0f118f5529b118c8ef740ebda44be852e4756201518042610c589190612a86565b604051610c6591906126dd565b60405180910390a35050505050565b600081600260009054906101000a900473ffffffffffffffffffffffffffffffffffffffff1673ffffffffffffffffffffffffffffffffffffffff166391d14854600260009054906101000a900473ffffffffffffffffffffffffffffffffffffffff1673ffffffffffffffffffffffffffffffffffffffff1663d03f078b6040518163ffffffff1660e01b8152600401602060405180830381865afa158015610d22573d6000803e3d6000fd5b505050506040513d601f19601f82011682018060405250810190610d4691906128bf565b836040518363ffffffff1660e01b8152600401610d649291906128ec565b602060405180830381865afa158015610d81573d6000803e3d6000fd5b505050506040513d601f19601f82011682018060405250810190610da59190612941565b610de4576040517f08c379a0000000000000000000000000000000000000000000000000000000008152600401610ddb90612ba8565b60405180910390fd5b6000806000878152602001908152602001600020604051806060016040529081600082015481526020016001820160009054906101000a900473ffffffffffffffffffffffffffffffffffffffff1673ffffffffffffffffffffffffffffffffffffffff1673ffffffffffffffffffffffffffffffffffffffff16815260200160028201548152505090506000816040015103610eb6576040517f08c379a0000000000000000000000000000000000000000000000000000000008152600401610ead90612c14565b60405180910390fd5b8060400151421015610efd576040517f08c379a0000000000000000000000000000000000000000000000000000000008152600401610ef490612c80565b60405180910390fd5b8473ffffffffffffffffffffffffffffffffffffffff16816020015173ffffffffffffffffffffffffffffffffffffffff1614610f6f576040517f08c379a0000000000000000000000000000000000000000000000000000000008152600401610f6690612cec565b60405180910390fd5b6000808781526020019081526020016000206000808201600090556001820160006101000a81549073ffffffffffffffffffffffffffffffffffffffff0219169055600282016000905550506001925050509392505050565b600081600260009054906101000a900473ffffffffffffffffffffffffffffffffffffffff1673ffffffffffffffffffffffffffffffffffffffff166391d14854600260009054906101000a900473ffffffffffffffffffffffffffffffffffffffff1673ffffffffffffffffffffffffffffffffffffffff16639e3411196040518163ffffffff1660e01b8152600401602060405180830381865afa158015611076573d6000803e3d6000fd5b505050506040513d601f19601f8201168201806040525081019061109a91906128bf565b836040518363ffffffff1660e01b81526004016110b89291906128ec565b602060405180830381865afa1580156110d5573d6000803e3d6000fd5b505050506040513d601f19601f820116820180604052508101906110f99190612941565b611138576040517f08c379a000000000000000000000000000000000000000000000000000000000815260040161112f906129cb565b60405180910390fd5b600060016000878152602001908152602001600020604051806060016040529081600082015481526020016001820160009054906101000a900473ffffffffffffffffffffffffffffffffffffffff1673ffffffffffffffffffffffffffffffffffffffff1673ffffffffffffffffffffffffffffffffffffffff1681526020016002820154815250509050600081604001510361120b576040517f08c379a000000000000000000000000000000000000000000000000000000000815260040161120290612c14565b60405180910390fd5b8060400151421015611252576040517f08c379a000000000000000000000000000000000000000000000000000000000815260040161124990612c80565b60405180910390fd5b7febfe40e1a907df098b25552533043ed6632f34e704c7c0a934075ee697b8a3be8160000151146112b8576040517f08c379a00000000000000000000000000000000000000000000000000000000081526004016112af90612d58565b60405180910390fd5b8473ffffffffffffffffffffffffffffffffffffffff16816020015173ffffffffffffffffffffffffffffffffffffffff161461132a576040517f08c379a000000000000000000000000000000000000000000000000000000000815260040161132190612dc4565b60405180910390fd5b600160008781526020019081526020016000206000808201600090556001820160006101000a81549073ffffffffffffffffffffffffffffffffffffffff0219169055600282016000905550506001925050509392505050565b600081600260009054906101000a900473ffffffffffffffffffffffffffffffffffffffff1673ffffffffffffffffffffffffffffffffffffffff166391d14854600260009054906101000a900473ffffffffffffffffffffffffffffffffffffffff1673ffffffffffffffffffffffffffffffffffffffff16639e3411196040518163ffffffff1660e01b8152600401602060405180830381865afa158015611432573d6000803e3d6000fd5b505050506040513d601f19601f8201168201806040525081019061145691906128bf565b836040518363ffffffff1660e01b81526004016114749291906128ec565b602060405180830381865afa158015611491573d6000803e3d6000fd5b505050506040513d601f19601f820116820180604052508101906114b59190612941565b6114f4576040517f08c379a00000000000000000000000000000000000000000000000000000000081526004016114eb906129cb565b60405180910390fd5b600060016000878152602001908152602001600020604051806060016040529081600082015481526020016001820160009054906101000a900473ffffffffffffffffffffffffffffffffffffffff1673ffffffffffffffffffffffffffffffffffffffff1673ffffffffffffffffffffffffffffffffffffffff168152602001600282015481525050905060008160400151036115c7576040517f08c379a00000000000000000000000000000000000000000000000000000000081526004016115be90612c14565b60405180910390fd5b806040015142101561160e576040517f08c379a000000000000000000000000000000000000000000000000000000000815260040161160590612c80565b60405180910390fd5b7f49b13fac0a8a9948bb3fc07926cff2d8a962e5ef68d7bacd7c2ae44cde35c694816000015114611674576040517f08c379a000000000000000000000000000000000000000000000000000000000815260040161166b90612d58565b60405180910390fd5b8473ffffffffffffffffffffffffffffffffffffffff16816020015173ffffffffffffffffffffffffffffffffffffffff16146116e6576040517f08c379a00000000000000000000000000000000000000000000000000000000081526004016116dd90612e30565b60405180910390fd5b600160008781526020019081526020016000206000808201600090556001820160006101000a81549073ffffffffffffffffffffffffffffffffffffffff0219169055600282016000905550506001925050509392505050565b60006020528060005260406000206000915090508060000154908060010160009054906101000a900473ffffffffffffffffffffffffffffffffffffffff16908060020154905083565b600081600260009054906101000a900473ffffffffffffffffffffffffffffffffffffffff1673ffffffffffffffffffffffffffffffffffffffff166391d14854600260009054906101000a900473ffffffffffffffffffffffffffffffffffffffff1673ffffffffffffffffffffffffffffffffffffffff16639e3411196040518163ffffffff1660e01b8152600401602060405180830381865afa158015611838573d6000803e3d6000fd5b505050506040513d601f19601f8201168201806040525081019061185c91906128bf565b836040518363ffffffff1660e01b815260040161187a9291906128ec565b602060405180830381865afa158015611897573d6000803e3d6000fd5b505050506040513d601f19601f820116820180604052508101906118bb9190612941565b6118fa576040517f08c379a00000000000000000000000000000000000000000000000000000000081526004016118f1906129cb565b60405180910390fd5b600060016000878152602001908152602001600020604051806060016040529081600082015481526020016001820160009054906101000a900473ffffffffffffffffffffffffffffffffffffffff1673ffffffffffffffffffffffffffffffffffffffff1673ffffffffffffffffffffffffffffffffffffffff168152602001600282015481525050905060008160400151036119cd576040517f08c379a00000000000000000000000000000000000000000000000000000000081526004016119c490612c14565b60405180910390fd5b8060400151421015611a14576040517f08c379a0000000000000000000000000000000000000000000000000000000008152600401611a0b90612c80565b60405180910390fd5b7fb994753143c8029d9b198ba23b79e05836ed9b7e265aa18a9b67aa5353691b19816000015114611a7a576040517f08c379a0000000000000000000000000000000000000000000000000000000008152600401611a7190612d58565b60405180910390fd5b8473ffffffffffffffffffffffffffffffffffffffff16816020015173ffffffffffffffffffffffffffffffffffffffff1614611aec576040517f08c379a0000000000000000000000000000000000000000000000000000000008152600401611ae390612e30565b60405180910390fd5b600160008781526020019081526020016000206000808201600090556001820160006101000a81549073ffffffffffffffffffffffffffffffffffffffff0219169055600282016000905550506001925050509392505050565b600081600260009054906101000a900473ffffffffffffffffffffffffffffffffffffffff1673ffffffffffffffffffffffffffffffffffffffff166391d14854600260009054906101000a900473ffffffffffffffffffffffffffffffffffffffff1673ffffffffffffffffffffffffffffffffffffffff16639e3411196040518163ffffffff1660e01b8152600401602060405180830381865afa158015611bf4573d6000803e3d6000fd5b505050506040513d601f19601f82011682018060405250810190611c1891906128bf565b836040518363ffffffff1660e01b8152600401611c369291906128ec565b602060405180830381865afa158015611c53573d6000803e3d6000fd5b505050506040513d601f19601f82011682018060405250810190611c779190612941565b611cb6576040517f08c379a0000000000000000000000000000000000000000000000000000000008152600401611cad906129cb565b60405180910390fd5b600060016000878152602001908152602001600020604051806060016040529081600082015481526020016001820160009054906101000a900473ffffffffffffffffffffffffffffffffffffffff1673ffffffffffffffffffffffffffffffffffffffff1673ffffffffffffffffffffffffffffffffffffffff16815260200160028201548152505090506000816040015103611d89576040517f08c379a0000000000000000000000000000000000000000000000000000000008152600401611d8090612c14565b60405180910390fd5b8060400151421015611dd0576040517f08c379a0000000000000000000000000000000000000000000000000000000008152600401611dc790612c80565b60405180910390fd5b7f20fdf5e0231b01bbf4a13cac8ebdc15bc3cac177cb34c02a16b7fc0fea7cc6a0816000015114611e36576040517f08c379a0000000000000000000000000000000000000000000000000000000008152600401611e2d90612d58565b60405180910390fd5b8473ffffffffffffffffffffffffffffffffffffffff16816020015173ffffffffffffffffffffffffffffffffffffffff1614611ea8576040517f08c379a0000000000000000000000000000000000000000000000000000000008152600401611e9f90612e30565b60405180910390fd5b600160008781526020019081526020016000206000808201600090556001820160006101000a81549073ffffffffffffffffffffffffffffffffffffffff0219169055600282016000905550506001925050509392505050565b80600260009054906101000a900473ffffffffffffffffffffffffffffffffffffffff1673ffffffffffffffffffffffffffffffffffffffff166391d14854600260009054906101000a900473ffffffffffffffffffffffffffffffffffffffff1673ffffffffffffffffffffffffffffffffffffffff1663d03f078b6040518163ffffffff1660e01b8152600401602060405180830381865afa158015611fae573d6000803e3d6000fd5b505050506040513d601f19601f82011682018060405250810190611fd291906128bf565b836040518363ffffffff1660e01b8152600401611ff09291906128ec565b602060405180830381865afa15801561200d573d6000803e3d6000fd5b505050506040513d601f19601f820116820180604052508101906120319190612941565b612070576040517f08c379a000000000000000000000000000000000000000000000000000000000815260040161206790612ba8565b60405180910390fd5b600084844260405160200161208793929190612873565b604051602081830303815290604052805190602001209050600080600083815260200190815260200160002060020154146120f7576040517f08c379a00000000000000000000000000000000000000000000000000000000081526004016120ee90612a37565b60405180910390fd5b60405180606001604052808681526020018573ffffffffffffffffffffffffffffffffffffffff16815260200162015180426121339190612a86565b8152506000808381526020019081526020016000206000820151816000015560208201518160010160006101000a81548173ffffffffffffffffffffffffffffffffffffffff021916908373ffffffffffffffffffffffffffffffffffffffff160217905550604082015181600201559050508373ffffffffffffffffffffffffffffffffffffffff16817fe374f673e7a89d8a950c7b552c1841d2cbc301f3ff3be87f8ce7a47dc273cac562015180426121ee9190612a86565b6040516121fb91906126dd565b60405180910390a35050505050565b80600260009054906101000a900473ffffffffffffffffffffffffffffffffffffffff1673ffffffffffffffffffffffffffffffffffffffff166391d14854600260009054906101000a900473ffffffffffffffffffffffffffffffffffffffff1673ffffffffffffffffffffffffffffffffffffffff16639e3411196040518163ffffffff1660e01b8152600401602060405180830381865afa1580156122b6573d6000803e3d6000fd5b505050506040513d601f19601f820116820180604052508101906122da91906128bf565b836040518363ffffffff1660e01b81526004016122f89291906128ec565b602060405180830381865afa158015612315573d6000803e3d6000fd5b505050506040513d601f19601f820116820180604052508101906123399190612941565b612378576040517f08c379a000000000000000000000000000000000000000000000000000000000815260040161236f906129cb565b60405180910390fd5b600083854260405160200161238f93929190612873565b6040516020818303038152906040528051906020012090506000600160008381526020019081526020016000206002015414612400576040517f08c379a00000000000000000000000000000000000000000000000000000000081526004016123f790612a37565b60405180910390fd5b60405180606001604052808581526020018673ffffffffffffffffffffffffffffffffffffffff168152602001620151804261243c9190612a86565b815250600160008381526020019081526020016000206000820151816000015560208201518160010160006101000a81548173ffffffffffffffffffffffffffffffffffffffff021916908373ffffffffffffffffffffffffffffffffffffffff160217905550604082015181600201559050508473ffffffffffffffffffffffffffffffffffffffff16817f75016a90a1f8794cbcf84538c0982c78a5f8431419c8c5a239fe1c3507b0d7c762015180426124f89190612a86565b60405161250591906126dd565b60405180910390a35050505050565b60016020528060005260406000206000915090508060000154908060010160009054906101000a900473ffffffffffffffffffffffffffffffffffffffff16908060020154905083565b600073ffffffffffffffffffffffffffffffffffffffff82169050919050565b6000819050919050565b60006125a361259e6125998461255e565b61257e565b61255e565b9050919050565b60006125b582612588565b9050919050565b60006125c7826125aa565b9050919050565b6125d7816125bc565b82525050565b60006020820190506125f260008301846125ce565b92915050565b600080fd5b60006126088261255e565b9050919050565b612618816125fd565b811461262357600080fd5b50565b6000813590506126358161260f565b92915050565b6000819050919050565b61264e8161263b565b811461265957600080fd5b50565b60008135905061266b81612645565b92915050565b60008060006060848603121561268a576126896125f8565b5b600061269886828701612626565b93505060206126a98682870161265c565b92505060406126ba86828701612626565b9150509250925092565b6000819050919050565b6126d7816126c4565b82525050565b60006020820190506126f260008301846126ce565b92915050565b612701816126c4565b811461270c57600080fd5b50565b60008135905061271e816126f8565b92915050565b600080600080600060a086880312156127405761273f6125f8565b5b600061274e88828901612626565b955050602061275f88828901612626565b94505060406127708882890161270f565b93505060606127818882890161265c565b925050608061279288828901612626565b9150509295509295909350565b6000806000606084860312156127b8576127b76125f8565b5b60006127c68682870161265c565b93505060206127d786828701612626565b92505060406127e886828701612626565b9150509250925092565b60008115159050919050565b612807816127f2565b82525050565b600060208201905061282260008301846127fe565b92915050565b60006020828403121561283e5761283d6125f8565b5b600061284c8482850161265c565b91505092915050565b61285e8161263b565b82525050565b61286d816125fd565b82525050565b60006060820190506128886000830186612855565b6128956020830185612864565b6128a260408301846126ce565b949350505050565b6000815190506128b981612645565b92915050565b6000602082840312156128d5576128d46125f8565b5b60006128e3848285016128aa565b91505092915050565b60006040820190506129016000830185612855565b61290e6020830184612864565b9392505050565b61291e816127f2565b811461292957600080fd5b50565b60008151905061293b81612915565b92915050565b600060208284031215612957576129566125f8565b5b60006129658482850161292c565b91505092915050565b600082825260208201905092915050565b7f43616c6c6572206c61636b73205641554c545f41444d494e5f524f4c45000000600082015250565b60006129b5601d8361296e565b91506129c08261297f565b602082019050919050565b600060208201905081810360008301526129e4816129a8565b9050919050565b7f416374696f6e20616c72656164792070726f706f736564000000000000000000600082015250565b6000612a2160178361296e565b9150612a2c826129eb565b602082019050919050565b60006020820190508181036000830152612a5081612a14565b9050919050565b7f4e487b7100000000000000000000000000000000000000000000000000000000600052601160045260246000fd5b6000612a91826126c4565b9150612a9c836126c4565b9250828201905080821115612ab457612ab3612a57565b5b92915050565b600060a082019050612acf6000830188612855565b612adc6020830187612864565b612ae96040830186612864565b612af660608301856126ce565b612b0360808301846126ce565b9695505050505050565b6000604082019050612b2260008301856126ce565b612b2f60208301846126ce565b9392505050565b7f4f6e6c7920526f757465722041646d696e2063616e2063616c6c20746869732060008201527f66756e6374696f6e000000000000000000000000000000000000000000000000602082015250565b6000612b9260288361296e565b9150612b9d82612b36565b604082019050919050565b60006020820190508181036000830152612bc181612b85565b9050919050565b7f416374696f6e206e6f742070726f706f73656400000000000000000000000000600082015250565b6000612bfe60138361296e565b9150612c0982612bc8565b602082019050919050565b60006020820190508181036000830152612c2d81612bf1565b9050919050565b7f54696d656c6f636b206e6f742065787069726564000000000000000000000000600082015250565b6000612c6a60148361296e565b9150612c7582612c34565b602082019050919050565b60006020820190508181036000830152612c9981612c5d565b9050919050565b7f4e6577205661756c74206973206d69736d617463686564000000000000000000600082015250565b6000612cd660178361296e565b9150612ce182612ca0565b602082019050919050565b60006020820190508181036000830152612d0581612cc9565b9050919050565b7f496e76616c6964206b6579000000000000000000000000000000000000000000600082015250565b6000612d42600b8361296e565b9150612d4d82612d0c565b602082019050919050565b60006020820190508181036000830152612d7181612d35565b9050919050565b7f57616c6c6574526f75746572206d69736d617463680000000000000000000000600082015250565b6000612dae60158361296e565b9150612db982612d78565b602082019050919050565b60006020820190508181036000830152612ddd81612da1565b9050919050565b7f546f6b656e206d69736d61746368000000000000000000000000000000000000600082015250565b6000612e1a600e8361296e565b9150612e2582612de4565b602082019050919050565b60006020820190508181036000830152612e4981612e0d565b905091905056fea26469706673582212204e18ef68c9f8ef5fcedd23e01457a4c243dddbbd25eff413d0bc21fa9c78e20c64736f6c63430008130033","linkReferences":{}},"methodIdentifiers":{"MIN_TIMELOCK_DELAY()":"169070eb","executeAddToken(bytes32,address,address)":"87a734de","executeRecoverFunds(bytes32,address,address)":"ad8bd25a","executeRemoveToken(bytes32,address,address)":"a7ce7c29","executeSetVault(bytes32,address,address)":"5a484a1b","executeSetWalletRouter(bytes32,address,address)":"642e4dfb","pendingVault(bytes32)":"e87bbd1b","pendingWalletRouter(bytes32)":"a0d32bdc","proposeAddToken(address,bytes32,address)":"c7d3eeef","proposeRecoverFunds(address,address,uint256,bytes32,address)":"39cdeb05","proposeRemoveToken(address,bytes32,address)":"0acc1803","proposeSetVault(bytes32,address,address)":"c0858d11","proposeSetWalletRouter(address,bytes32,address)":"433d26dd","roleManager()":"00435da5"},"id":5}