{"abi":[{"type":"constructor","inputs":[{"name":"_roleManager","type":"address","internalType":"address"}],"stateMutability":"nonpayable"},{"type":"function","name":"MIN_TIMELOCK_DELAY","inputs":[],"outputs":[{"name":"","type":"uint256","internalType":"uint256"}],"stateMutability":"view"},{"type":"function","name":"executeRecoverFunds","inputs":[{"name":"actionId","type":"bytes32","internalType":"bytes32"},{"name":"token","type":"address","internalType":"address"},{"name":"caller","type":"address","internalType":"address"}],"outputs":[{"name":"","type":"bool","internalType":"bool"}],"stateMutability":"nonpayable"},{"type":"function","name":"executeSetWalletRouter","inputs":[{"name":"actionId","type":"bytes32","internalType":"bytes32"},{"name":"_walletRouter","type":"address","internalType":"address"},{"name":"caller","type":"address","internalType":"address"}],"outputs":[{"name":"","type":"bool","internalType":"bool"}],"stateMutability":"nonpayable"},{"type":"function","name":"pendingVault","inputs":[{"name":"","type":"bytes32","internalType":"bytes32"}],"outputs":[{"name":"key","type":"bytes32","internalType":"bytes32"},{"name":"target","type":"address","internalType":"address"},{"name":"executableAfter","type":"uint256","internalType":"uint256"}],"stateMutability":"view"},{"type":"function","name":"pendingWalletRouter","inputs":[{"name":"","type":"bytes32","internalType":"bytes32"}],"outputs":[{"name":"key","type":"bytes32","internalType":"bytes32"},{"name":"newvault","type":"address","internalType":"address"},{"name":"executableAfter","type":"uint256","internalType":"uint256"}],"stateMutability":"view"},{"type":"function","name":"proposeRecoverFunds","inputs":[{"name":"token","type":"address","internalType":"address"},{"name":"recipient","type":"address","internalType":"address"},{"name":"amount","type":"uint256","internalType":"uint256"},{"name":"key","type":"bytes32","internalType":"bytes32"},{"name":"caller","type":"address","internalType":"address"}],"outputs":[],"stateMutability":"nonpayable"},{"type":"function","name":"proposeSetWalletRouter","inputs":[{"name":"_walletAddress","type":"address","internalType":"address"},{"name":"key","type":"bytes32","internalType":"bytes32"},{"name":"caller","type":"address","internalType":"address"}],"outputs":[],"stateMutability":"nonpayable"},{"type":"function","name":"roleManager","inputs":[],"outputs":[{"name":"","type":"address","internalType":"contract IRoleManager"}],"stateMutability":"view"},{"type":"event","name":"AddTokenPropose","inputs":[{"name":"actionId","type":"bytes32","indexed":true,"internalType":"bytes32"},{"name":"token","type":"address","indexed":true,"internalType":"address"},{"name":"executableAfter","type":"uint256","indexed":false,"internalType":"uint256"}],"anonymous":false},{"type":"event","name":"RecoverFundsPropose","inputs":[{"name":"actionId","type":"bytes32","indexed":true,"internalType":"bytes32"},{"name":"token","type":"address","indexed":true,"internalType":"address"},{"name":"recipient","type":"address","indexed":true,"internalType":"address"},{"name":"amount","type":"uint256","indexed":false,"internalType":"uint256"},{"name":"executableAfter","type":"uint256","indexed":false,"internalType":"uint256"}],"anonymous":false},{"type":"event","name":"RemoveTokenPropose","inputs":[{"name":"actionId","type":"bytes32","indexed":true,"internalType":"bytes32"},{"name":"token","type":"address","indexed":true,"internalType":"address"},{"name":"executableAfter","type":"uint256","indexed":false,"internalType":"uint256"}],"anonymous":false},{"type":"event","name":"SetVaultPropose","inputs":[{"name":"actionId","type":"bytes32","indexed":true,"internalType":"bytes32"},{"name":"newvault","type":"address","indexed":true,"internalType":"address"},{"name":"executableAfter","type":"uint256","indexed":false,"internalType":"uint256"}],"anonymous":false},{"type":"event","name":"SetWalletRouterPropose","inputs":[{"name":"actionId","type":"bytes32","indexed":true,"internalType":"bytes32"},{"name":"walletRouter","type":"address","indexed":true,"internalType":"address"},{"name":"executableAfter","type":"uint256","indexed":false,"internalType":"uint256"}],"anonymous":false}],"bytecode":{"object":"0x60806040523480156200001157600080fd5b5060405162001a7a38038062001a7a83398181016040528101906200003791906200015b565b600073ffffffffffffffffffffffffffffffffffffffff168173ffffffffffffffffffffffffffffffffffffffff1603620000a9576040517f08c379a0000000000000000000000000000000000000000000000000000000008152600401620000a090620001ee565b60405180910390fd5b80600260006101000a81548173ffffffffffffffffffffffffffffffffffffffff021916908373ffffffffffffffffffffffffffffffffffffffff1602179055505062000210565b600080fd5b600073ffffffffffffffffffffffffffffffffffffffff82169050919050565b60006200012382620000f6565b9050919050565b620001358162000116565b81146200014157600080fd5b50565b60008151905062000155816200012a565b92915050565b600060208284031215620001745762000173620000f1565b5b6000620001848482850162000144565b91505092915050565b600082825260208201905092915050565b7f496e76616c696420526f6c654d616e6167657200000000000000000000000000600082015250565b6000620001d66013836200018d565b9150620001e3826200019e565b602082019050919050565b600060208201905081810360008301526200020981620001c7565b9050919050565b61185a80620002206000396000f3fe608060405234801561001057600080fd5b50600436106100875760003560e01c8063642e4dfb1161005b578063642e4dfb14610100578063a0d32bdc14610130578063ad8bd25a14610162578063e87bbd1b1461019257610087565b8062435da51461008c578063169070eb146100aa57806339cdeb05146100c8578063433d26dd146100e4575b600080fd5b6100946101c4565b6040516100a191906110af565b60405180910390f35b6100b26101ea565b6040516100bf91906110e3565b60405180910390f35b6100e260048036038101906100dd91906111a3565b6101f1565b005b6100fe60048036038101906100f9919061121e565b61051a565b005b61011a60048036038101906101159190611271565b610824565b60405161012791906112df565b60405180910390f35b61014a600480360381019061014591906112fa565b610be0565b60405161015993929190611345565b60405180910390f35b61017c60048036038101906101779190611271565b610c2a565b60405161018991906112df565b60405180910390f35b6101ac60048036038101906101a791906112fa565b610fe6565b6040516101bb93929190611345565b60405180910390f35b600260009054906101000a900473ffffffffffffffffffffffffffffffffffffffff1681565b6201518081565b80600260009054906101000a900473ffffffffffffffffffffffffffffffffffffffff1673ffffffffffffffffffffffffffffffffffffffff166391d14854600260009054906101000a900473ffffffffffffffffffffffffffffffffffffffff1673ffffffffffffffffffffffffffffffffffffffff16639e3411196040518163ffffffff1660e01b8152600401602060405180830381865afa15801561029d573d6000803e3d6000fd5b505050506040513d601f19601f820116820180604052508101906102c19190611391565b836040518363ffffffff1660e01b81526004016102df9291906113be565b602060405180830381865afa1580156102fc573d6000803e3d6000fd5b505050506040513d601f19601f820116820180604052508101906103209190611413565b61035f576040517f08c379a00000000000000000000000000000000000000000000000000000000081526004016103569061149d565b60405180910390fd5b6000838787874260405160200161037a9594939291906114bd565b60405160208183030381529060405280519060200120905060006001600083815260200190815260200160002060020154146103eb576040517f08c379a00000000000000000000000000000000000000000000000000000000081526004016103e29061155c565b60405180910390fd5b60405180606001604052808581526020018873ffffffffffffffffffffffffffffffffffffffff168152602001620151804261042791906115ab565b815250600160008381526020019081526020016000206000820151816000015560208201518160010160006101000a81548173ffffffffffffffffffffffffffffffffffffffff021916908373ffffffffffffffffffffffffffffffffffffffff160217905550604082015181600201559050508573ffffffffffffffffffffffffffffffffffffffff168773ffffffffffffffffffffffffffffffffffffffff16827ffa2cd7d537d6423d13a165e103d86c35ca06e692857f5d085bd010968bdb8ff48862015180426104fb91906115ab565b6040516105099291906115df565b60405180910390a450505050505050565b80600260009054906101000a900473ffffffffffffffffffffffffffffffffffffffff1673ffffffffffffffffffffffffffffffffffffffff166391d14854600260009054906101000a900473ffffffffffffffffffffffffffffffffffffffff1673ffffffffffffffffffffffffffffffffffffffff16639e3411196040518163ffffffff1660e01b8152600401602060405180830381865afa1580156105c6573d6000803e3d6000fd5b505050506040513d601f19601f820116820180604052508101906105ea9190611391565b836040518363ffffffff1660e01b81526004016106089291906113be565b602060405180830381865afa158015610625573d6000803e3d6000fd5b505050506040513d601f19601f820116820180604052508101906106499190611413565b610688576040517f08c379a000000000000000000000000000000000000000000000000000000000815260040161067f9061149d565b60405180910390fd5b600083854260405160200161069f93929190611345565b6040516020818303038152906040528051906020012090506000600160008381526020019081526020016000206002015414610710576040517f08c379a00000000000000000000000000000000000000000000000000000000081526004016107079061155c565b60405180910390fd5b60405180606001604052808581526020018673ffffffffffffffffffffffffffffffffffffffff168152602001620151804261074c91906115ab565b815250600160008381526020019081526020016000206000820151816000015560208201518160010160006101000a81548173ffffffffffffffffffffffffffffffffffffffff021916908373ffffffffffffffffffffffffffffffffffffffff160217905550604082015181600201559050508473ffffffffffffffffffffffffffffffffffffffff16817f35c1fb7597a6d5a0a91320cd037b0f118f5529b118c8ef740ebda44be852e475620151804261080891906115ab565b60405161081591906110e3565b60405180910390a35050505050565b600081600260009054906101000a900473ffffffffffffffffffffffffffffffffffffffff1673ffffffffffffffffffffffffffffffffffffffff166391d14854600260009054906101000a900473ffffffffffffffffffffffffffffffffffffffff1673ffffffffffffffffffffffffffffffffffffffff16639e3411196040518163ffffffff1660e01b8152600401602060405180830381865afa1580156108d2573d6000803e3d6000fd5b505050506040513d601f19601f820116820180604052508101906108f69190611391565b836040518363ffffffff1660e01b81526004016109149291906113be565b602060405180830381865afa158015610931573d6000803e3d6000fd5b505050506040513d601f19601f820116820180604052508101906109559190611413565b610994576040517f08c379a000000000000000000000000000000000000000000000000000000000815260040161098b9061149d565b60405180910390fd5b600060016000878152602001908152602001600020604051806060016040529081600082015481526020016001820160009054906101000a900473ffffffffffffffffffffffffffffffffffffffff1673ffffffffffffffffffffffffffffffffffffffff1673ffffffffffffffffffffffffffffffffffffffff16815260200160028201548152505090506000816040015103610a67576040517f08c379a0000000000000000000000000000000000000000000000000000000008152600401610a5e90611654565b60405180910390fd5b8060400151421015610aae576040517f08c379a0000000000000000000000000000000000000000000000000000000008152600401610aa5906116c0565b60405180910390fd5b7febfe40e1a907df098b25552533043ed6632f34e704c7c0a934075ee697b8a3be816000015114610b14576040517f08c379a0000000000000000000000000000000000000000000000000000000008152600401610b0b9061172c565b60405180910390fd5b8473ffffffffffffffffffffffffffffffffffffffff16816020015173ffffffffffffffffffffffffffffffffffffffff1614610b86576040517f08c379a0000000000000000000000000000000000000000000000000000000008152600401610b7d90611798565b60405180910390fd5b600160008781526020019081526020016000206000808201600090556001820160006101000a81549073ffffffffffffffffffffffffffffffffffffffff0219169055600282016000905550506001925050509392505050565b60006020528060005260406000206000915090508060000154908060010160009054906101000a900473ffffffffffffffffffffffffffffffffffffffff16908060020154905083565b600081600260009054906101000a900473ffffffffffffffffffffffffffffffffffffffff1673ffffffffffffffffffffffffffffffffffffffff166391d14854600260009054906101000a900473ffffffffffffffffffffffffffffffffffffffff1673ffffffffffffffffffffffffffffffffffffffff16639e3411196040518163ffffffff1660e01b8152600401602060405180830381865afa158015610cd8573d6000803e3d6000fd5b505050506040513d601f19601f82011682018060405250810190610cfc9190611391565b836040518363ffffffff1660e01b8152600401610d1a9291906113be565b602060405180830381865afa158015610d37573d6000803e3d6000fd5b505050506040513d601f19601f82011682018060405250810190610d5b9190611413565b610d9a576040517f08c379a0000000000000000000000000000000000000000000000000000000008152600401610d919061149d565b60405180910390fd5b600060016000878152602001908152602001600020604051806060016040529081600082015481526020016001820160009054906101000a900473ffffffffffffffffffffffffffffffffffffffff1673ffffffffffffffffffffffffffffffffffffffff1673ffffffffffffffffffffffffffffffffffffffff16815260200160028201548152505090506000816040015103610e6d576040517f08c379a0000000000000000000000000000000000000000000000000000000008152600401610e6490611654565b60405180910390fd5b8060400151421015610eb4576040517f08c379a0000000000000000000000000000000000000000000000000000000008152600401610eab906116c0565b60405180910390fd5b7f20fdf5e0231b01bbf4a13cac8ebdc15bc3cac177cb34c02a16b7fc0fea7cc6a0816000015114610f1a576040517f08c379a0000000000000000000000000000000000000000000000000000000008152600401610f119061172c565b60405180910390fd5b8473ffffffffffffffffffffffffffffffffffffffff16816020015173ffffffffffffffffffffffffffffffffffffffff1614610f8c576040517f08c379a0000000000000000000000000000000000000000000000000000000008152600401610f8390611804565b60405180910390fd5b600160008781526020019081526020016000206000808201600090556001820160006101000a81549073ffffffffffffffffffffffffffffffffffffffff0219169055600282016000905550506001925050509392505050565b60016020528060005260406000206000915090508060000154908060010160009054906101000a900473ffffffffffffffffffffffffffffffffffffffff16908060020154905083565b600073ffffffffffffffffffffffffffffffffffffffff82169050919050565b6000819050919050565b600061107561107061106b84611030565b611050565b611030565b9050919050565b60006110878261105a565b9050919050565b60006110998261107c565b9050919050565b6110a98161108e565b82525050565b60006020820190506110c460008301846110a0565b92915050565b6000819050919050565b6110dd816110ca565b82525050565b60006020820190506110f860008301846110d4565b92915050565b600080fd5b600061110e82611030565b9050919050565b61111e81611103565b811461112957600080fd5b50565b60008135905061113b81611115565b92915050565b61114a816110ca565b811461115557600080fd5b50565b60008135905061116781611141565b92915050565b6000819050919050565b6111808161116d565b811461118b57600080fd5b50565b60008135905061119d81611177565b92915050565b600080600080600060a086880312156111bf576111be6110fe565b5b60006111cd8882890161112c565b95505060206111de8882890161112c565b94505060406111ef88828901611158565b93505060606112008882890161118e565b92505060806112118882890161112c565b9150509295509295909350565b600080600060608486031215611237576112366110fe565b5b60006112458682870161112c565b93505060206112568682870161118e565b92505060406112678682870161112c565b9150509250925092565b60008060006060848603121561128a576112896110fe565b5b60006112988682870161118e565b93505060206112a98682870161112c565b92505060406112ba8682870161112c565b9150509250925092565b60008115159050919050565b6112d9816112c4565b82525050565b60006020820190506112f460008301846112d0565b92915050565b6000602082840312156113105761130f6110fe565b5b600061131e8482850161118e565b91505092915050565b6113308161116d565b82525050565b61133f81611103565b82525050565b600060608201905061135a6000830186611327565b6113676020830185611336565b61137460408301846110d4565b949350505050565b60008151905061138b81611177565b92915050565b6000602082840312156113a7576113a66110fe565b5b60006113b58482850161137c565b91505092915050565b60006040820190506113d36000830185611327565b6113e06020830184611336565b9392505050565b6113f0816112c4565b81146113fb57600080fd5b50565b60008151905061140d816113e7565b92915050565b600060208284031215611429576114286110fe565b5b6000611437848285016113fe565b91505092915050565b600082825260208201905092915050565b7f43616c6c6572206c61636b73205641554c545f41444d494e5f524f4c45000000600082015250565b6000611487601d83611440565b915061149282611451565b602082019050919050565b600060208201905081810360008301526114b68161147a565b9050919050565b600060a0820190506114d26000830188611327565b6114df6020830187611336565b6114ec6040830186611336565b6114f960608301856110d4565b61150660808301846110d4565b9695505050505050565b7f416374696f6e20616c72656164792070726f706f736564000000000000000000600082015250565b6000611546601783611440565b915061155182611510565b602082019050919050565b6000602082019050818103600083015261157581611539565b9050919050565b7f4e487b7100000000000000000000000000000000000000000000000000000000600052601160045260246000fd5b60006115b6826110ca565b91506115c1836110ca565b92508282019050808211156115d9576115d861157c565b5b92915050565b60006040820190506115f460008301856110d4565b61160160208301846110d4565b9392505050565b7f416374696f6e206e6f742070726f706f73656400000000000000000000000000600082015250565b600061163e601383611440565b915061164982611608565b602082019050919050565b6000602082019050818103600083015261166d81611631565b9050919050565b7f54696d656c6f636b206e6f742065787069726564000000000000000000000000600082015250565b60006116aa601483611440565b91506116b582611674565b602082019050919050565b600060208201905081810360008301526116d98161169d565b9050919050565b7f496e76616c6964206b6579000000000000000000000000000000000000000000600082015250565b6000611716600b83611440565b9150611721826116e0565b602082019050919050565b6000602082019050818103600083015261174581611709565b9050919050565b7f57616c6c6574526f75746572206d69736d617463680000000000000000000000600082015250565b6000611782601583611440565b915061178d8261174c565b602082019050919050565b600060208201905081810360008301526117b181611775565b9050919050565b7f546f6b656e206d69736d61746368000000000000000000000000000000000000600082015250565b60006117ee600e83611440565b91506117f9826117b8565b602082019050919050565b6000602082019050818103600083015261181d816117e1565b905091905056fea2646970667358221220684772c42a82afe665ab952ead9044e0a4578fb4eb11d040f75e0cfe8653771d64736f6c63430008130033","linkReferences":{}},"methodIdentifiers":{"MIN_TIMELOCK_DELAY()":"169070eb","executeRecoverFunds(bytes32,address,address)":"ad8bd25a","executeSetWalletRouter(bytes32,address,address)":"642e4dfb","pendingVault(bytes32)":"e87bbd1b","pendingWalletRouter(bytes32)":"a0d32bdc","proposeRecoverFunds(address,address,uint256,bytes32,address)":"39cdeb05","proposeSetWalletRouter(address,bytes32,address)":"433d26dd","roleManager()":"00435da5"},"id":5}