{"abi":[{"type":"constructor","inputs":[{"name":"_roleManager","type":"address","internalType":"address"}],"stateMutability":"nonpayable"},{"type":"function","name":"MIN_TIMELOCK_DELAY","inputs":[],"outputs":[{"name":"","type":"uint256","internalType":"uint256"}],"stateMutability":"view"},{"type":"function","name":"executeRecoverFunds","inputs":[{"name":"actionId","type":"bytes32","internalType":"bytes32"},{"name":"token","type":"address","internalType":"address"},{"name":"recipient","type":"address","internalType":"address"},{"name":"amount","type":"uint256","internalType":"uint256"}],"outputs":[{"name":"","type":"bool","internalType":"bool"}],"stateMutability":"nonpayable"},{"type":"function","name":"executeSetWalletRouter","inputs":[{"name":"actionId","type":"bytes32","internalType":"bytes32"},{"name":"_walletRouter","type":"address","internalType":"address"}],"outputs":[{"name":"","type":"bool","internalType":"bool"}],"stateMutability":"nonpayable"},{"type":"function","name":"executeSweepDust","inputs":[{"name":"actionId","type":"bytes32","internalType":"bytes32"},{"name":"token","type":"address","internalType":"address"},{"name":"to","type":"address","internalType":"address"},{"name":"amount","type":"uint256","internalType":"uint256"}],"outputs":[{"name":"","type":"bool","internalType":"bool"}],"stateMutability":"nonpayable"},{"type":"function","name":"pendingRecoverFunds","inputs":[{"name":"","type":"bytes32","internalType":"bytes32"}],"outputs":[{"name":"key","type":"bytes32","internalType":"bytes32"},{"name":"token","type":"address","internalType":"address"},{"name":"recipient","type":"address","internalType":"address"},{"name":"amount","type":"uint256","internalType":"uint256"},{"name":"executableAfter","type":"uint256","internalType":"uint256"}],"stateMutability":"view"},{"type":"function","name":"pendingSweepDust","inputs":[{"name":"","type":"bytes32","internalType":"bytes32"}],"outputs":[{"name":"key","type":"bytes32","internalType":"bytes32"},{"name":"token","type":"address","internalType":"address"},{"name":"to","type":"address","internalType":"address"},{"name":"amount","type":"uint256","internalType":"uint256"},{"name":"executableAfter","type":"uint256","internalType":"uint256"}],"stateMutability":"view"},{"type":"function","name":"pendingVault","inputs":[{"name":"","type":"bytes32","internalType":"bytes32"}],"outputs":[{"name":"key","type":"bytes32","internalType":"bytes32"},{"name":"target","type":"address","internalType":"address"},{"name":"executableAfter","type":"uint256","internalType":"uint256"}],"stateMutability":"view"},{"type":"function","name":"pendingWalletRouter","inputs":[{"name":"","type":"bytes32","internalType":"bytes32"}],"outputs":[{"name":"key","type":"bytes32","internalType":"bytes32"},{"name":"newvault","type":"address","internalType":"address"},{"name":"executableAfter","type":"uint256","internalType":"uint256"}],"stateMutability":"view"},{"type":"function","name":"proposeRecoverFunds","inputs":[{"name":"token","type":"address","internalType":"address"},{"name":"recipient","type":"address","internalType":"address"},{"name":"amount","type":"uint256","internalType":"uint256"},{"name":"key","type":"bytes32","internalType":"bytes32"}],"outputs":[],"stateMutability":"nonpayable"},{"type":"function","name":"proposeSetWalletRouter","inputs":[{"name":"_walletAddress","type":"address","internalType":"address"},{"name":"key","type":"bytes32","internalType":"bytes32"}],"outputs":[],"stateMutability":"nonpayable"},{"type":"function","name":"proposeSweepDust","inputs":[{"name":"token","type":"address","internalType":"address"},{"name":"to","type":"address","internalType":"address"},{"name":"amount","type":"uint256","internalType":"uint256"},{"name":"key","type":"bytes32","internalType":"bytes32"}],"outputs":[],"stateMutability":"nonpayable"},{"type":"function","name":"roleManager","inputs":[],"outputs":[{"name":"","type":"address","internalType":"contract IRoleManager"}],"stateMutability":"view"},{"type":"function","name":"setTimelock","inputs":[{"name":"daysCount","type":"uint256","internalType":"uint256"}],"outputs":[],"stateMutability":"nonpayable"},{"type":"function","name":"setVault","inputs":[{"name":"_vault","type":"address","internalType":"address"}],"outputs":[],"stateMutability":"nonpayable"},{"type":"function","name":"vault","inputs":[],"outputs":[{"name":"","type":"address","internalType":"address"}],"stateMutability":"view"},{"type":"event","name":"RecoverFundsPropose","inputs":[{"name":"actionId","type":"bytes32","indexed":true,"internalType":"bytes32"},{"name":"token","type":"address","indexed":true,"internalType":"address"},{"name":"recipient","type":"address","indexed":true,"internalType":"address"},{"name":"amount","type":"uint256","indexed":false,"internalType":"uint256"},{"name":"executableAfter","type":"uint256","indexed":false,"internalType":"uint256"}],"anonymous":false},{"type":"event","name":"SetWalletRouterPropose","inputs":[{"name":"actionId","type":"bytes32","indexed":true,"internalType":"bytes32"},{"name":"walletRouter","type":"address","indexed":true,"internalType":"address"},{"name":"executableAfter","type":"uint256","indexed":false,"internalType":"uint256"}],"anonymous":false},{"type":"event","name":"SweepDustPropose","inputs":[{"name":"actionId","type":"bytes32","indexed":true,"internalType":"bytes32"},{"name":"to","type":"address","indexed":true,"internalType":"address"},{"name":"token","type":"address","indexed":true,"internalType":"address"},{"name":"amount","type":"uint256","indexed":false,"internalType":"uint256"},{"name":"executableAfter","type":"uint256","indexed":false,"internalType":"uint256"}],"anonymous":false},{"type":"event","name":"TimelockDelayChanged","inputs":[{"name":"oldDelay","type":"uint256","indexed":false,"internalType":"uint256"},{"name":"newDelay","type":"uint256","indexed":false,"internalType":"uint256"}],"anonymous":false},{"type":"event","name":"VaultSet","inputs":[{"name":"vault","type":"address","indexed":true,"internalType":"address"}],"anonymous":false},{"type":"error","name":"ActionAlreadyProposed","inputs":[]},{"type":"error","name":"ActionNotProposed","inputs":[]},{"type":"error","name":"AmountMismatch","inputs":[]},{"type":"error","name":"DelayMustBeAtLeastOneDay","inputs":[]},{"type":"error","name":"InvalidKey","inputs":[]},{"type":"error","name":"InvalidRoleManager","inputs":[]},{"type":"error","name":"InvalidVaultAddress","inputs":[]},{"type":"error","name":"OnlyRouterAdmin","inputs":[]},{"type":"error","name":"OnlyVault","inputs":[]},{"type":"error","name":"RecipientMismatch","inputs":[]},{"type":"error","name":"TimelockNotExpired","inputs":[]},{"type":"error","name":"TokenMismatch","inputs":[]},{"type":"error","name":"WalletRouterMismatch","inputs":[]}],"bytecode":{"object":"0x608060405260006004553480156200001657600080fd5b50604051620022d6380380620022d683398181016040528101906200003c919062000155565b600073ffffffffffffffffffffffffffffffffffffffff168173ffffffffffffffffffffffffffffffffffffffff1603620000a3576040517f4d29d32800000000000000000000000000000000000000000000000000000000815260040160405180910390fd5b80600560006101000a81548173ffffffffffffffffffffffffffffffffffffffff021916908373ffffffffffffffffffffffffffffffffffffffff1602179055505062000187565b600080fd5b600073ffffffffffffffffffffffffffffffffffffffff82169050919050565b60006200011d82620000f0565b9050919050565b6200012f8162000110565b81146200013b57600080fd5b50565b6000815190506200014f8162000124565b92915050565b6000602082840312156200016e576200016d620000eb565b5b60006200017e848285016200013e565b91505092915050565b61213f80620001976000396000f3fe608060405234801561001057600080fd5b50600436106100f45760003560e01c806341529457116100975780639fef5c31116100665780639fef5c311461029d578063a0d32bdc146102b9578063e87bbd1b146102eb578063fbfa77cf1461031d576100f4565b806341529457146101ed5780634ed7c06e1461021d5780636817031b146102515780637fe5d1791461026d576100f4565b80631e891c0a116100d35780631e891c0a14610151578063343d92f61461016d578063374acbe21461019d5780633e127361146101d1576100f4565b8062435da5146100f957806306df5e8514610117578063169070eb14610133575b600080fd5b61010161033b565b60405161010e9190611bb5565b60405180910390f35b610131600480360381019061012c9190611c49565b610361565b005b61013b610577565b6040516101489190611ca2565b60405180910390f35b61016b60048036038101906101669190611ce9565b61057d565b005b61018760048036038101906101829190611d16565b610774565b6040516101949190611d98565b60405180910390f35b6101b760048036038101906101b29190611db3565b610b5a565b6040516101c8959493929190611dfe565b60405180910390f35b6101eb60048036038101906101e69190611e51565b610bd0565b005b61020760048036038101906102029190611d16565b610e78565b6040516102149190611d98565b60405180910390f35b61023760048036038101906102329190611db3565b61125e565b604051610248959493929190611dfe565b60405180910390f35b61026b60048036038101906102669190611eb8565b6112d4565b005b61028760048036038101906102829190611ee5565b611525565b6040516102949190611d98565b60405180910390f35b6102b760048036038101906102b29190611e51565b6117d4565b005b6102d360048036038101906102ce9190611db3565b611a7c565b6040516102e293929190611f25565b60405180910390f35b61030560048036038101906103009190611db3565b611ac6565b60405161031493929190611f25565b60405180910390f35b610325611b10565b6040516103329190611f5c565b60405180910390f35b600560009054906101000a900473ffffffffffffffffffffffffffffffffffffffff1681565b600660009054906101000a900473ffffffffffffffffffffffffffffffffffffffff1673ffffffffffffffffffffffffffffffffffffffff163373ffffffffffffffffffffffffffffffffffffffff16146103e8576040517f8d1af8bd00000000000000000000000000000000000000000000000000000000815260040160405180910390fd5b60008183426040516020016103ff93929190611f25565b6040516020818303038152906040528051906020012090506000600160008381526020019081526020016000206002015414610467576040517fca0f0b0800000000000000000000000000000000000000000000000000000000815260040160405180910390fd5b60405180606001604052808381526020018473ffffffffffffffffffffffffffffffffffffffff168152602001600454426104a29190611fa6565b815250600160008381526020019081526020016000206000820151816000015560208201518160010160006101000a81548173ffffffffffffffffffffffffffffffffffffffff021916908373ffffffffffffffffffffffffffffffffffffffff160217905550604082015181600201559050508273ffffffffffffffffffffffffffffffffffffffff16817f35c1fb7597a6d5a0a91320cd037b0f118f5529b118c8ef740ebda44be852e4756004544261055d9190611fa6565b60405161056a9190611ca2565b60405180910390a3505050565b60045481565b600560009054906101000a900473ffffffffffffffffffffffffffffffffffffffff1673ffffffffffffffffffffffffffffffffffffffff166391d14854600560009054906101000a900473ffffffffffffffffffffffffffffffffffffffff1673ffffffffffffffffffffffffffffffffffffffff1663d03f078b6040518163ffffffff1660e01b8152600401602060405180830381865afa158015610628573d6000803e3d6000fd5b505050506040513d601f19601f8201168201806040525081019061064c9190611fef565b336040518363ffffffff1660e01b815260040161066a92919061201c565b602060405180830381865afa158015610687573d6000803e3d6000fd5b505050506040513d601f19601f820116820180604052508101906106ab9190612071565b6106e1576040517f35f7642f00000000000000000000000000000000000000000000000000000000815260040160405180910390fd5b6000810361071b576040517f90f09e9a00000000000000000000000000000000000000000000000000000000815260040160405180910390fd5b6000620151808261072c919061209e565b9050806004819055507f3c829755bd8b21d750ac8567e59c28f7ab083ce559f92d92239882247ba60da1600454826040516107689291906120e0565b60405180910390a15050565b6000600660009054906101000a900473ffffffffffffffffffffffffffffffffffffffff1673ffffffffffffffffffffffffffffffffffffffff163373ffffffffffffffffffffffffffffffffffffffff16146107fd576040517f8d1af8bd00000000000000000000000000000000000000000000000000000000815260040160405180910390fd5b6000600360008781526020019081526020016000206040518060a0016040529081600082015481526020016001820160009054906101000a900473ffffffffffffffffffffffffffffffffffffffff1673ffffffffffffffffffffffffffffffffffffffff1673ffffffffffffffffffffffffffffffffffffffff1681526020016002820160009054906101000a900473ffffffffffffffffffffffffffffffffffffffff1673ffffffffffffffffffffffffffffffffffffffff1673ffffffffffffffffffffffffffffffffffffffff1681526020016003820154815260200160048201548152505090506000816080015103610927576040517fc10280c600000000000000000000000000000000000000000000000000000000815260040160405180910390fd5b8060800151421015610965576040517f621e25c300000000000000000000000000000000000000000000000000000000815260040160405180910390fd5b7f735a6278d686946bd6e3ab3aaae46874c3e0684299ed17d4fe504767e2d5b6968160000151146109c2576040517f76d4e1e800000000000000000000000000000000000000000000000000000000815260040160405180910390fd5b8473ffffffffffffffffffffffffffffffffffffffff16816020015173ffffffffffffffffffffffffffffffffffffffff1614610a2b576040517f936bb5ad00000000000000000000000000000000000000000000000000000000815260040160405180910390fd5b8373ffffffffffffffffffffffffffffffffffffffff16816040015173ffffffffffffffffffffffffffffffffffffffff1614610a94576040517fc0ee95bb00000000000000000000000000000000000000000000000000000000815260040160405180910390fd5b82816060015114610ad1576040517f55e97b0d00000000000000000000000000000000000000000000000000000000815260040160405180910390fd5b600360008781526020019081526020016000206000808201600090556001820160006101000a81549073ffffffffffffffffffffffffffffffffffffffff02191690556002820160006101000a81549073ffffffffffffffffffffffffffffffffffffffff02191690556003820160009055600482016000905550506001915050949350505050565b60036020528060005260406000206000915090508060000154908060010160009054906101000a900473ffffffffffffffffffffffffffffffffffffffff16908060020160009054906101000a900473ffffffffffffffffffffffffffffffffffffffff16908060030154908060040154905085565b600660009054906101000a900473ffffffffffffffffffffffffffffffffffffffff1673ffffffffffffffffffffffffffffffffffffffff163373ffffffffffffffffffffffffffffffffffffffff1614610c57576040517f8d1af8bd00000000000000000000000000000000000000000000000000000000815260040160405180910390fd5b60008185858542604051602001610c72959493929190611dfe565b6040516020818303038152906040528051906020012090506000600260008381526020019081526020016000206004015414610cda576040517fca0f0b0800000000000000000000000000000000000000000000000000000000815260040160405180910390fd5b6040518060a001604052808381526020018673ffffffffffffffffffffffffffffffffffffffff1681526020018573ffffffffffffffffffffffffffffffffffffffff16815260200184815260200160045442610d379190611fa6565b815250600260008381526020019081526020016000206000820151816000015560208201518160010160006101000a81548173ffffffffffffffffffffffffffffffffffffffff021916908373ffffffffffffffffffffffffffffffffffffffff16021790555060408201518160020160006101000a81548173ffffffffffffffffffffffffffffffffffffffff021916908373ffffffffffffffffffffffffffffffffffffffff16021790555060608201518160030155608082015181600401559050508373ffffffffffffffffffffffffffffffffffffffff168573ffffffffffffffffffffffffffffffffffffffff16827ffa2cd7d537d6423d13a165e103d86c35ca06e692857f5d085bd010968bdb8ff48660045442610e5b9190611fa6565b604051610e699291906120e0565b60405180910390a45050505050565b6000600660009054906101000a900473ffffffffffffffffffffffffffffffffffffffff1673ffffffffffffffffffffffffffffffffffffffff163373ffffffffffffffffffffffffffffffffffffffff1614610f01576040517f8d1af8bd00000000000000000000000000000000000000000000000000000000815260040160405180910390fd5b6000600260008781526020019081526020016000206040518060a0016040529081600082015481526020016001820160009054906101000a900473ffffffffffffffffffffffffffffffffffffffff1673ffffffffffffffffffffffffffffffffffffffff1673ffffffffffffffffffffffffffffffffffffffff1681526020016002820160009054906101000a900473ffffffffffffffffffffffffffffffffffffffff1673ffffffffffffffffffffffffffffffffffffffff1673ffffffffffffffffffffffffffffffffffffffff168152602001600382015481526020016004820154815250509050600081608001510361102b576040517fc10280c600000000000000000000000000000000000000000000000000000000815260040160405180910390fd5b8060800151421015611069576040517f621e25c300000000000000000000000000000000000000000000000000000000815260040160405180910390fd5b7f20fdf5e0231b01bbf4a13cac8ebdc15bc3cac177cb34c02a16b7fc0fea7cc6a08160000151146110c6576040517f76d4e1e800000000000000000000000000000000000000000000000000000000815260040160405180910390fd5b8473ffffffffffffffffffffffffffffffffffffffff16816020015173ffffffffffffffffffffffffffffffffffffffff161461112f576040517f936bb5ad00000000000000000000000000000000000000000000000000000000815260040160405180910390fd5b8373ffffffffffffffffffffffffffffffffffffffff16816040015173ffffffffffffffffffffffffffffffffffffffff1614611198576040517fc0ee95bb00000000000000000000000000000000000000000000000000000000815260040160405180910390fd5b828160600151146111d5576040517f55e97b0d00000000000000000000000000000000000000000000000000000000815260040160405180910390fd5b600260008781526020019081526020016000206000808201600090556001820160006101000a81549073ffffffffffffffffffffffffffffffffffffffff02191690556002820160006101000a81549073ffffffffffffffffffffffffffffffffffffffff02191690556003820160009055600482016000905550506001915050949350505050565b60026020528060005260406000206000915090508060000154908060010160009054906101000a900473ffffffffffffffffffffffffffffffffffffffff16908060020160009054906101000a900473ffffffffffffffffffffffffffffffffffffffff16908060030154908060040154905085565b600560009054906101000a900473ffffffffffffffffffffffffffffffffffffffff1673ffffffffffffffffffffffffffffffffffffffff166391d14854600560009054906101000a900473ffffffffffffffffffffffffffffffffffffffff1673ffffffffffffffffffffffffffffffffffffffff1663d03f078b6040518163ffffffff1660e01b8152600401602060405180830381865afa15801561137f573d6000803e3d6000fd5b505050506040513d601f19601f820116820180604052508101906113a39190611fef565b336040518363ffffffff1660e01b81526004016113c192919061201c565b602060405180830381865afa1580156113de573d6000803e3d6000fd5b505050506040513d601f19601f820116820180604052508101906114029190612071565b611438576040517f35f7642f00000000000000000000000000000000000000000000000000000000815260040160405180910390fd5b600073ffffffffffffffffffffffffffffffffffffffff168173ffffffffffffffffffffffffffffffffffffffff160361149e576040517f0306120100000000000000000000000000000000000000000000000000000000815260040160405180910390fd5b80600660006101000a81548173ffffffffffffffffffffffffffffffffffffffff021916908373ffffffffffffffffffffffffffffffffffffffff1602179055508073ffffffffffffffffffffffffffffffffffffffff167fe7ae49f883c825b05681b3e00e8be6fdea9ed2a8a45e4c6ecb9390fc44cce61560405160405180910390a250565b6000600660009054906101000a900473ffffffffffffffffffffffffffffffffffffffff1673ffffffffffffffffffffffffffffffffffffffff163373ffffffffffffffffffffffffffffffffffffffff16146115ae576040517f8d1af8bd00000000000000000000000000000000000000000000000000000000815260040160405180910390fd5b600060016000858152602001908152602001600020604051806060016040529081600082015481526020016001820160009054906101000a900473ffffffffffffffffffffffffffffffffffffffff1673ffffffffffffffffffffffffffffffffffffffff1673ffffffffffffffffffffffffffffffffffffffff16815260200160028201548152505090506000816040015103611678576040517fc10280c600000000000000000000000000000000000000000000000000000000815260040160405180910390fd5b80604001514210156116b6576040517f621e25c300000000000000000000000000000000000000000000000000000000815260040160405180910390fd5b7febfe40e1a907df098b25552533043ed6632f34e704c7c0a934075ee697b8a3be816000015114611713576040517f76d4e1e800000000000000000000000000000000000000000000000000000000815260040160405180910390fd5b8273ffffffffffffffffffffffffffffffffffffffff16816020015173ffffffffffffffffffffffffffffffffffffffff161461177c576040517fdebd260400000000000000000000000000000000000000000000000000000000815260040160405180910390fd5b600160008581526020019081526020016000206000808201600090556001820160006101000a81549073ffffffffffffffffffffffffffffffffffffffff021916905560028201600090555050600191505092915050565b600660009054906101000a900473ffffffffffffffffffffffffffffffffffffffff1673ffffffffffffffffffffffffffffffffffffffff163373ffffffffffffffffffffffffffffffffffffffff161461185b576040517f8d1af8bd00000000000000000000000000000000000000000000000000000000815260040160405180910390fd5b60008185858542604051602001611876959493929190611dfe565b60405160208183030381529060405280519060200120905060006003600083815260200190815260200160002060040154146118de576040517fca0f0b0800000000000000000000000000000000000000000000000000000000815260040160405180910390fd5b6040518060a001604052808381526020018673ffffffffffffffffffffffffffffffffffffffff1681526020018573ffffffffffffffffffffffffffffffffffffffff1681526020018481526020016004544261193b9190611fa6565b815250600360008381526020019081526020016000206000820151816000015560208201518160010160006101000a81548173ffffffffffffffffffffffffffffffffffffffff021916908373ffffffffffffffffffffffffffffffffffffffff16021790555060408201518160020160006101000a81548173ffffffffffffffffffffffffffffffffffffffff021916908373ffffffffffffffffffffffffffffffffffffffff16021790555060608201518160030155608082015181600401559050508473ffffffffffffffffffffffffffffffffffffffff168473ffffffffffffffffffffffffffffffffffffffff16827f972408260fee383bd588d511d52e6b1d12ecd13a62de17d68faac75cd246bf478660045442611a5f9190611fa6565b604051611a6d9291906120e0565b60405180910390a45050505050565b60006020528060005260406000206000915090508060000154908060010160009054906101000a900473ffffffffffffffffffffffffffffffffffffffff16908060020154905083565b60016020528060005260406000206000915090508060000154908060010160009054906101000a900473ffffffffffffffffffffffffffffffffffffffff16908060020154905083565b600660009054906101000a900473ffffffffffffffffffffffffffffffffffffffff1681565b600073ffffffffffffffffffffffffffffffffffffffff82169050919050565b6000819050919050565b6000611b7b611b76611b7184611b36565b611b56565b611b36565b9050919050565b6000611b8d82611b60565b9050919050565b6000611b9f82611b82565b9050919050565b611baf81611b94565b82525050565b6000602082019050611bca6000830184611ba6565b92915050565b600080fd5b6000611be082611b36565b9050919050565b611bf081611bd5565b8114611bfb57600080fd5b50565b600081359050611c0d81611be7565b92915050565b6000819050919050565b611c2681611c13565b8114611c3157600080fd5b50565b600081359050611c4381611c1d565b92915050565b60008060408385031215611c6057611c5f611bd0565b5b6000611c6e85828601611bfe565b9250506020611c7f85828601611c34565b9150509250929050565b6000819050919050565b611c9c81611c89565b82525050565b6000602082019050611cb76000830184611c93565b92915050565b611cc681611c89565b8114611cd157600080fd5b50565b600081359050611ce381611cbd565b92915050565b600060208284031215611cff57611cfe611bd0565b5b6000611d0d84828501611cd4565b91505092915050565b60008060008060808587031215611d3057611d2f611bd0565b5b6000611d3e87828801611c34565b9450506020611d4f87828801611bfe565b9350506040611d6087828801611bfe565b9250506060611d7187828801611cd4565b91505092959194509250565b60008115159050919050565b611d9281611d7d565b82525050565b6000602082019050611dad6000830184611d89565b92915050565b600060208284031215611dc957611dc8611bd0565b5b6000611dd784828501611c34565b91505092915050565b611de981611c13565b82525050565b611df881611bd5565b82525050565b600060a082019050611e136000830188611de0565b611e206020830187611def565b611e2d6040830186611def565b611e3a6060830185611c93565b611e476080830184611c93565b9695505050505050565b60008060008060808587031215611e6b57611e6a611bd0565b5b6000611e7987828801611bfe565b9450506020611e8a87828801611bfe565b9350506040611e9b87828801611cd4565b9250506060611eac87828801611c34565b91505092959194509250565b600060208284031215611ece57611ecd611bd0565b5b6000611edc84828501611bfe565b91505092915050565b60008060408385031215611efc57611efb611bd0565b5b6000611f0a85828601611c34565b9250506020611f1b85828601611bfe565b9150509250929050565b6000606082019050611f3a6000830186611de0565b611f476020830185611def565b611f546040830184611c93565b949350505050565b6000602082019050611f716000830184611def565b92915050565b7f4e487b7100000000000000000000000000000000000000000000000000000000600052601160045260246000fd5b6000611fb182611c89565b9150611fbc83611c89565b9250828201905080821115611fd457611fd3611f77565b5b92915050565b600081519050611fe981611c1d565b92915050565b60006020828403121561200557612004611bd0565b5b600061201384828501611fda565b91505092915050565b60006040820190506120316000830185611de0565b61203e6020830184611def565b9392505050565b61204e81611d7d565b811461205957600080fd5b50565b60008151905061206b81612045565b92915050565b60006020828403121561208757612086611bd0565b5b60006120958482850161205c565b91505092915050565b60006120a982611c89565b91506120b483611c89565b92508282026120c281611c89565b915082820484148315176120d9576120d8611f77565b5b5092915050565b60006040820190506120f56000830185611c93565b6121026020830184611c93565b939250505056fea26469706673582212203c8beb0ea89afe2a6482d24b6e4bf5ddc08a00dda5674046104906eae237254164736f6c63430008130033","linkReferences":{}},"methodIdentifiers":{"MIN_TIMELOCK_DELAY()":"169070eb","executeRecoverFunds(bytes32,address,address,uint256)":"41529457","executeSetWalletRouter(bytes32,address)":"7fe5d179","executeSweepDust(bytes32,address,address,uint256)":"343d92f6","pendingRecoverFunds(bytes32)":"4ed7c06e","pendingSweepDust(bytes32)":"374acbe2","pendingVault(bytes32)":"e87bbd1b","pendingWalletRouter(bytes32)":"a0d32bdc","proposeRecoverFunds(address,address,uint256,bytes32)":"3e127361","proposeSetWalletRouter(address,bytes32)":"06df5e85","proposeSweepDust(address,address,uint256,bytes32)":"9fef5c31","roleManager()":"00435da5","setTimelock(uint256)":"1e891c0a","setVault(address)":"6817031b","vault()":"fbfa77cf"},"id":6}